{
  "_format": "hh-sol-artifact-1",
  "contractName": "NFT",
  "sourceName": "src/backend/contracts/NFT.sol",
  "abi": [
    {
      "inputs": [
        {
          "internalType": "address",
          "name": "teamAddress",
          "type": "address"
        },
        {
          "internalType": "address[]",
          "name": "_usersToWhitelist",
          "type": "address[]"
        }
      ],
      "stateMutability": "nonpayable",
      "type": "constructor"
    },
    {
      "inputs": [],
      "name": "ApprovalCallerNotOwnerNorApproved",
      "type": "error"
    },
    {
      "inputs": [],
      "name": "ApprovalQueryForNonexistentToken",
      "type": "error"
    },
    {
      "inputs": [],
      "name": "ApproveToCaller",
      "type": "error"
    },
    {
      "inputs": [],
      "name": "BalanceQueryForZeroAddress",
      "type": "error"
    },
    {
      "inputs": [],
      "name": "MintERC2309QuantityExceedsLimit",
      "type": "error"
    },
    {
      "inputs": [],
      "name": "MintToZeroAddress",
      "type": "error"
    },
    {
      "inputs": [],
      "name": "MintZeroQuantity",
      "type": "error"
    },
    {
      "inputs": [],
      "name": "OwnerQueryForNonexistentToken",
      "type": "error"
    },
    {
      "inputs": [],
      "name": "OwnershipNotInitializedForExtraData",
      "type": "error"
    },
    {
      "inputs": [],
      "name": "TransferCallerNotOwnerNorApproved",
      "type": "error"
    },
    {
      "inputs": [],
      "name": "TransferFromIncorrectOwner",
      "type": "error"
    },
    {
      "inputs": [],
      "name": "TransferToNonERC721ReceiverImplementer",
      "type": "error"
    },
    {
      "inputs": [],
      "name": "TransferToZeroAddress",
      "type": "error"
    },
    {
      "inputs": [],
      "name": "URIQueryForNonexistentToken",
      "type": "error"
    },
    {
      "anonymous": false,
      "inputs": [
        {
          "indexed": true,
          "internalType": "address",
          "name": "owner",
          "type": "address"
        },
        {
          "indexed": true,
          "internalType": "address",
          "name": "approved",
          "type": "address"
        },
        {
          "indexed": true,
          "internalType": "uint256",
          "name": "tokenId",
          "type": "uint256"
        }
      ],
      "name": "Approval",
      "type": "event"
    },
    {
      "anonymous": false,
      "inputs": [
        {
          "indexed": true,
          "internalType": "address",
          "name": "owner",
          "type": "address"
        },
        {
          "indexed": true,
          "internalType": "address",
          "name": "operator",
          "type": "address"
        },
        {
          "indexed": false,
          "internalType": "bool",
          "name": "approved",
          "type": "bool"
        }
      ],
      "name": "ApprovalForAll",
      "type": "event"
    },
    {
      "anonymous": false,
      "inputs": [
        {
          "indexed": true,
          "internalType": "uint256",
          "name": "fromTokenId",
          "type": "uint256"
        },
        {
          "indexed": false,
          "internalType": "uint256",
          "name": "toTokenId",
          "type": "uint256"
        },
        {
          "indexed": true,
          "internalType": "address",
          "name": "from",
          "type": "address"
        },
        {
          "indexed": true,
          "internalType": "address",
          "name": "to",
          "type": "address"
        }
      ],
      "name": "ConsecutiveTransfer",
      "type": "event"
    },
    {
      "anonymous": false,
      "inputs": [
        {
          "indexed": true,
          "internalType": "address",
          "name": "previousOwner",
          "type": "address"
        },
        {
          "indexed": true,
          "internalType": "address",
          "name": "newOwner",
          "type": "address"
        }
      ],
      "name": "OwnershipTransferred",
      "type": "event"
    },
    {
      "anonymous": false,
      "inputs": [
        {
          "indexed": true,
          "internalType": "address",
          "name": "from",
          "type": "address"
        },
        {
          "indexed": true,
          "internalType": "address",
          "name": "to",
          "type": "address"
        },
        {
          "indexed": true,
          "internalType": "uint256",
          "name": "tokenId",
          "type": "uint256"
        }
      ],
      "name": "Transfer",
      "type": "event"
    },
    {
      "inputs": [],
      "name": "amountMintPerAccount",
      "outputs": [
        {
          "internalType": "uint256",
          "name": "",
          "type": "uint256"
        }
      ],
      "stateMutability": "view",
      "type": "function"
    },
    {
      "inputs": [
        {
          "internalType": "address",
          "name": "to",
          "type": "address"
        },
        {
          "internalType": "uint256",
          "name": "tokenId",
          "type": "uint256"
        }
      ],
      "name": "approve",
      "outputs": [],
      "stateMutability": "nonpayable",
      "type": "function"
    },
    {
      "inputs": [
        {
          "internalType": "address",
          "name": "owner",
          "type": "address"
        }
      ],
      "name": "balanceOf",
      "outputs": [
        {
          "internalType": "uint256",
          "name": "",
          "type": "uint256"
        }
      ],
      "stateMutability": "view",
      "type": "function"
    },
    {
      "inputs": [],
      "name": "baseTokenURI",
      "outputs": [
        {
          "internalType": "string",
          "name": "",
          "type": "string"
        }
      ],
      "stateMutability": "pure",
      "type": "function"
    },
    {
      "inputs": [],
      "name": "contractURI",
      "outputs": [
        {
          "internalType": "string",
          "name": "",
          "type": "string"
        }
      ],
      "stateMutability": "pure",
      "type": "function"
    },
    {
      "inputs": [
        {
          "internalType": "uint256",
          "name": "tokenId",
          "type": "uint256"
        }
      ],
      "name": "getApproved",
      "outputs": [
        {
          "internalType": "address",
          "name": "",
          "type": "address"
        }
      ],
      "stateMutability": "view",
      "type": "function"
    },
    {
      "inputs": [],
      "name": "getPrice",
      "outputs": [
        {
          "internalType": "uint256",
          "name": "",
          "type": "uint256"
        }
      ],
      "stateMutability": "view",
      "type": "function"
    },
    {
      "inputs": [
        {
          "internalType": "address",
          "name": "owner",
          "type": "address"
        },
        {
          "internalType": "address",
          "name": "operator",
          "type": "address"
        }
      ],
      "name": "isApprovedForAll",
      "outputs": [
        {
          "internalType": "bool",
          "name": "",
          "type": "bool"
        }
      ],
      "stateMutability": "view",
      "type": "function"
    },
    {
      "inputs": [
        {
          "internalType": "uint256",
          "name": "_tokenId",
          "type": "uint256"
        }
      ],
      "name": "isUnkownRevealed",
      "outputs": [
        {
          "internalType": "bool",
          "name": "",
          "type": "bool"
        }
      ],
      "stateMutability": "view",
      "type": "function"
    },
    {
      "inputs": [
        {
          "internalType": "address",
          "name": "_user",
          "type": "address"
        }
      ],
      "name": "isWhitelisted",
      "outputs": [
        {
          "internalType": "bool",
          "name": "",
          "type": "bool"
        }
      ],
      "stateMutability": "view",
      "type": "function"
    },
    {
      "inputs": [],
      "name": "max_supply",
      "outputs": [
        {
          "internalType": "uint256",
          "name": "",
          "type": "uint256"
        }
      ],
      "stateMutability": "view",
      "type": "function"
    },
    {
      "inputs": [
        {
          "internalType": "uint256",
          "name": "quantity",
          "type": "uint256"
        }
      ],
      "name": "mint",
      "outputs": [],
      "stateMutability": "payable",
      "type": "function"
    },
    {
      "inputs": [],
      "name": "name",
      "outputs": [
        {
          "internalType": "string",
          "name": "",
          "type": "string"
        }
      ],
      "stateMutability": "view",
      "type": "function"
    },
    {
      "inputs": [],
      "name": "owner",
      "outputs": [
        {
          "internalType": "address",
          "name": "",
          "type": "address"
        }
      ],
      "stateMutability": "view",
      "type": "function"
    },
    {
      "inputs": [
        {
          "internalType": "uint256",
          "name": "tokenId",
          "type": "uint256"
        }
      ],
      "name": "ownerOf",
      "outputs": [
        {
          "internalType": "address",
          "name": "",
          "type": "address"
        }
      ],
      "stateMutability": "view",
      "type": "function"
    },
    {
      "inputs": [],
      "name": "price",
      "outputs": [
        {
          "internalType": "uint256",
          "name": "",
          "type": "uint256"
        }
      ],
      "stateMutability": "view",
      "type": "function"
    },
    {
      "inputs": [],
      "name": "publicSaleEnabled",
      "outputs": [
        {
          "internalType": "bool",
          "name": "",
          "type": "bool"
        }
      ],
      "stateMutability": "view",
      "type": "function"
    },
    {
      "inputs": [],
      "name": "renounceOwnership",
      "outputs": [],
      "stateMutability": "nonpayable",
      "type": "function"
    },
    {
      "inputs": [
        {
          "internalType": "uint256",
          "name": "_tokenId",
          "type": "uint256"
        },
        {
          "internalType": "string",
          "name": "tokenUri",
          "type": "string"
        }
      ],
      "name": "revealUnkown",
      "outputs": [],
      "stateMutability": "nonpayable",
      "type": "function"
    },
    {
      "inputs": [
        {
          "internalType": "address",
          "name": "from",
          "type": "address"
        },
        {
          "internalType": "address",
          "name": "to",
          "type": "address"
        },
        {
          "internalType": "uint256",
          "name": "tokenId",
          "type": "uint256"
        }
      ],
      "name": "safeTransferFrom",
      "outputs": [],
      "stateMutability": "nonpayable",
      "type": "function"
    },
    {
      "inputs": [
        {
          "internalType": "address",
          "name": "from",
          "type": "address"
        },
        {
          "internalType": "address",
          "name": "to",
          "type": "address"
        },
        {
          "internalType": "uint256",
          "name": "tokenId",
          "type": "uint256"
        },
        {
          "internalType": "bytes",
          "name": "_data",
          "type": "bytes"
        }
      ],
      "name": "safeTransferFrom",
      "outputs": [],
      "stateMutability": "nonpayable",
      "type": "function"
    },
    {
      "inputs": [
        {
          "internalType": "uint256",
          "name": "_amountMintPerAccount",
          "type": "uint256"
        }
      ],
      "name": "setAmountMintPerAccount",
      "outputs": [],
      "stateMutability": "nonpayable",
      "type": "function"
    },
    {
      "inputs": [
        {
          "internalType": "address",
          "name": "operator",
          "type": "address"
        },
        {
          "internalType": "bool",
          "name": "approved",
          "type": "bool"
        }
      ],
      "name": "setApprovalForAll",
      "outputs": [],
      "stateMutability": "nonpayable",
      "type": "function"
    },
    {
      "inputs": [
        {
          "internalType": "uint256",
          "name": "_price",
          "type": "uint256"
        }
      ],
      "name": "setPrice",
      "outputs": [],
      "stateMutability": "nonpayable",
      "type": "function"
    },
    {
      "inputs": [
        {
          "internalType": "bool",
          "name": "_state",
          "type": "bool"
        }
      ],
      "name": "setPublicSaleEnabled",
      "outputs": [],
      "stateMutability": "nonpayable",
      "type": "function"
    },
    {
      "inputs": [
        {
          "internalType": "bool",
          "name": "_state",
          "type": "bool"
        }
      ],
      "name": "setWhitelistEnabled",
      "outputs": [],
      "stateMutability": "nonpayable",
      "type": "function"
    },
    {
      "inputs": [
        {
          "internalType": "bytes4",
          "name": "interfaceId",
          "type": "bytes4"
        }
      ],
      "name": "supportsInterface",
      "outputs": [
        {
          "internalType": "bool",
          "name": "",
          "type": "bool"
        }
      ],
      "stateMutability": "view",
      "type": "function"
    },
    {
      "inputs": [],
      "name": "symbol",
      "outputs": [
        {
          "internalType": "string",
          "name": "",
          "type": "string"
        }
      ],
      "stateMutability": "view",
      "type": "function"
    },
    {
      "inputs": [
        {
          "internalType": "uint256",
          "name": "_tokenId",
          "type": "uint256"
        }
      ],
      "name": "tokenURI",
      "outputs": [
        {
          "internalType": "string",
          "name": "",
          "type": "string"
        }
      ],
      "stateMutability": "view",
      "type": "function"
    },
    {
      "inputs": [],
      "name": "totalSupply",
      "outputs": [
        {
          "internalType": "uint256",
          "name": "",
          "type": "uint256"
        }
      ],
      "stateMutability": "view",
      "type": "function"
    },
    {
      "inputs": [
        {
          "internalType": "address",
          "name": "from",
          "type": "address"
        },
        {
          "internalType": "address",
          "name": "to",
          "type": "address"
        },
        {
          "internalType": "uint256",
          "name": "tokenId",
          "type": "uint256"
        }
      ],
      "name": "transferFrom",
      "outputs": [],
      "stateMutability": "nonpayable",
      "type": "function"
    },
    {
      "inputs": [
        {
          "internalType": "address",
          "name": "newOwner",
          "type": "address"
        }
      ],
      "name": "transferOwnership",
      "outputs": [],
      "stateMutability": "nonpayable",
      "type": "function"
    },
    {
      "inputs": [],
      "name": "uriSuffix",
      "outputs": [
        {
          "internalType": "string",
          "name": "",
          "type": "string"
        }
      ],
      "stateMutability": "view",
      "type": "function"
    },
    {
      "inputs": [],
      "name": "whitelistEnabled",
      "outputs": [
        {
          "internalType": "bool",
          "name": "",
          "type": "bool"
        }
      ],
      "stateMutability": "view",
      "type": "function"
    },
    {
      "inputs": [
        {
          "internalType": "address[]",
          "name": "_users",
          "type": "address[]"
        }
      ],
      "name": "whitelistUsers",
      "outputs": [],
      "stateMutability": "nonpayable",
      "type": "function"
    }
  ],
  "bytecode": "0x60a06040526126d560809081525060016009556001600a60006101000a81548160ff0219169083151502179055503480156200003a57600080fd5b506040516200406e3803806200406e83398181016040528101906200006091906200077a565b6040518060400160405280600a81526020017f47656c61746f204e4654000000000000000000000000000000000000000000008152506040518060400160405280600381526020017f474c4e00000000000000000000000000000000000000000000000000000000008152508160029080519060200190620000e49291906200055f565b508060039080519060200190620000fd9291906200055f565b506200010e6200022360201b60201c565b6000819055505050620001366200012a6200022860201b60201c565b6200023060201b60201c565b600b6000620001469190620005f0565b80600b90805190602001906200015e92919062000613565b50620001738261014d620002f660201b60201c565b60006014905060005b8181101562000219576040518060400160405280601081526020017f4e6f742072657665616c65642079657400000000000000000000000000000000815250600d8260148110620001f6577f4e487b7100000000000000000000000000000000000000000000000000000000600052603260045260246000fd5b0190805190602001906200020c9291906200055f565b508060010190506200017c565b5050505062000955565b600090565b600033905090565b6000600860009054906101000a900473ffffffffffffffffffffffffffffffffffffffff16905081600860006101000a81548173ffffffffffffffffffffffffffffffffffffffff021916908373ffffffffffffffffffffffffffffffffffffffff1602179055508173ffffffffffffffffffffffffffffffffffffffff168173ffffffffffffffffffffffffffffffffffffffff167f8be0079c531659141344cd1fd0a4f28419497f9722a3daafe3b4186f6b6457e060405160405180910390a35050565b600080549050600082141562000338576040517fb562e8dd00000000000000000000000000000000000000000000000000000000815260040160405180910390fd5b6200034d6000848385620004df60201b60201c565b600160406001901b178202600560008573ffffffffffffffffffffffffffffffffffffffff1673ffffffffffffffffffffffffffffffffffffffff16815260200190815260200160002060008282540192505081905550620003dc83620003be6000866000620004e560201b60201c565b620003cf856200051560201b60201c565b176200052560201b60201c565b6004600083815260200190815260200160002081905550600080838301905073ffffffffffffffffffffffffffffffffffffffff85169150828260007fddf252ad1be2c89b69c2b068fc378daa952ba7f163c4a11628f55a4df523b3ef600080a4600183015b8181146200047f57808360007fddf252ad1be2c89b69c2b068fc378daa952ba7f163c4a11628f55a4df523b3ef600080a460018101905062000442565b506000821415620004bc576040517f2e07630000000000000000000000000000000000000000000000000000000000815260040160405180910390fd5b806000819055505050620004da60008483856200055060201b60201c565b505050565b50505050565b60008060e883901c905060e8620005048686846200055660201b60201c565b62ffffff16901b9150509392505050565b60006001821460e11b9050919050565b600073ffffffffffffffffffffffffffffffffffffffff83169250814260a01b178317905092915050565b50505050565b60009392505050565b8280546200056d9062000860565b90600052602060002090601f016020900481019282620005915760008555620005dd565b82601f10620005ac57805160ff1916838001178555620005dd565b82800160010185558215620005dd579182015b82811115620005dc578251825591602001919060010190620005bf565b5b509050620005ec9190620006a2565b5090565b5080546000825590600052602060002090810190620006109190620006a2565b50565b8280548282559060005260206000209081019282156200068f579160200282015b828111156200068e5782518260006101000a81548173ffffffffffffffffffffffffffffffffffffffff021916908373ffffffffffffffffffffffffffffffffffffffff1602179055509160200191906001019062000634565b5b5090506200069e9190620006a2565b5090565b5b80821115620006bd576000816000905550600101620006a3565b5090565b6000620006d8620006d284620007fd565b620007d4565b90508083825260208201905082856020860282011115620006f857600080fd5b60005b858110156200072c578162000711888262000736565b845260208401935060208301925050600181019050620006fb565b5050509392505050565b60008151905062000747816200093b565b92915050565b600082601f8301126200075f57600080fd5b815162000771848260208601620006c1565b91505092915050565b600080604083850312156200078e57600080fd5b60006200079e8582860162000736565b925050602083015167ffffffffffffffff811115620007bc57600080fd5b620007ca858286016200074d565b9150509250929050565b6000620007e0620007f3565b9050620007ee828262000896565b919050565b6000604051905090565b600067ffffffffffffffff8211156200081b576200081a620008fb565b5b602082029050602081019050919050565b6000620008398262000840565b9050919050565b600073ffffffffffffffffffffffffffffffffffffffff82169050919050565b600060028204905060018216806200087957607f821691505b6020821081141562000890576200088f620008cc565b5b50919050565b620008a1826200092a565b810181811067ffffffffffffffff82111715620008c357620008c2620008fb565b5b80604052505050565b7f4e487b7100000000000000000000000000000000000000000000000000000000600052602260045260246000fd5b7f4e487b7100000000000000000000000000000000000000000000000000000000600052604160045260246000fd5b6000601f19601f8301169050919050565b62000946816200082c565b81146200095257600080fd5b50565b6080516136f6620009786000396000818161138601526114fc01526136f66000f3fe6080604052600436106102045760003560e01c80638720fbef11610118578063a827b5ff116100a0578063e8a3d4851161006f578063e8a3d4851461075c578063e985e9c514610787578063edec5f27146107c4578063f2fde38b146107ed578063fb2685171461081657610204565b8063a827b5ff146106a0578063b88d4fde146106cb578063c87b56dd146106f4578063d547cfb71461073157610204565b806395d89b41116100e757806395d89b41146105da57806398d5fdca14610605578063a035b1fe14610630578063a0712d681461065b578063a22cb4651461067757610204565b80638720fbef146105325780638a333b501461055b5780638da5cb5b1461058657806391b7f5ed146105b157610204565b80632ab91bba1161019b5780635503a0e81161016a5780635503a0e8146104395780635cd8f9a1146104645780636352211e146104a157806370a08231146104de578063715018a61461051b57610204565b80632ab91bba1461037d5780633af32abf146103a857806342842e0e146103e557806351fb012d1461040e57610204565b8063095ea7b3116101d7578063095ea7b3146102d7578063112966601461030057806318160ddd1461032957806323b872dd1461035457610204565b806301ffc9a714610209578063052d9e7e1461024657806306fdde031461026f578063081812fc1461029a575b600080fd5b34801561021557600080fd5b50610230600480360381019061022b9190612a8b565b61083f565b60405161023d9190612eae565b60405180910390f35b34801561025257600080fd5b5061026d60048036038101906102689190612a62565b6108d1565b005b34801561027b57600080fd5b5061028461096a565b6040516102919190612ec9565b60405180910390f35b3480156102a657600080fd5b506102c160048036038101906102bc9190612add565b6109fc565b6040516102ce9190612e47565b60405180910390f35b3480156102e357600080fd5b506102fe60048036038101906102f991906129e1565b610a7b565b005b34801561030c57600080fd5b5061032760048036038101906103229190612add565b610bbf565b005b34801561033557600080fd5b5061033e610c45565b60405161034b919061300b565b60405180910390f35b34801561036057600080fd5b5061037b600480360381019061037691906128db565b610c5c565b005b34801561038957600080fd5b50610392610f81565b60405161039f9190612eae565b60405180910390f35b3480156103b457600080fd5b506103cf60048036038101906103ca9190612876565b610f94565b6040516103dc9190612eae565b60405180910390f35b3480156103f157600080fd5b5061040c600480360381019061040791906128db565b611064565b005b34801561041a57600080fd5b50610423611084565b6040516104309190612eae565b60405180910390f35b34801561044557600080fd5b5061044e611097565b60405161045b9190612ec9565b60405180910390f35b34801561047057600080fd5b5061048b60048036038101906104869190612add565b6110d0565b6040516104989190612eae565b60405180910390f35b3480156104ad57600080fd5b506104c860048036038101906104c39190612add565b611198565b6040516104d59190612e47565b60405180910390f35b3480156104ea57600080fd5b5061050560048036038101906105009190612876565b6111aa565b604051610512919061300b565b60405180910390f35b34801561052757600080fd5b50610530611263565b005b34801561053e57600080fd5b5061055960048036038101906105549190612a62565b6112eb565b005b34801561056757600080fd5b50610570611384565b60405161057d919061300b565b60405180910390f35b34801561059257600080fd5b5061059b6113a8565b6040516105a89190612e47565b60405180910390f35b3480156105bd57600080fd5b506105d860048036038101906105d39190612add565b6113d2565b005b3480156105e657600080fd5b506105ef611458565b6040516105fc9190612ec9565b60405180910390f35b34801561061157600080fd5b5061061a6114ea565b604051610627919061300b565b60405180910390f35b34801561063c57600080fd5b506106456114f4565b604051610652919061300b565b60405180910390f35b61067560048036038101906106709190612add565b6114fa565b005b34801561068357600080fd5b5061069e600480360381019061069991906129a5565b611670565b005b3480156106ac57600080fd5b506106b56117e8565b6040516106c2919061300b565b60405180910390f35b3480156106d757600080fd5b506106f260048036038101906106ed919061292a565b6117ee565b005b34801561070057600080fd5b5061071b60048036038101906107169190612add565b611861565b6040516107289190612ec9565b60405180910390f35b34801561073d57600080fd5b50610746611a25565b6040516107539190612ec9565b60405180910390f35b34801561076857600080fd5b50610771611a34565b60405161077e9190612ec9565b60405180910390f35b34801561079357600080fd5b506107ae60048036038101906107a9919061289f565b611a54565b6040516107bb9190612eae565b60405180910390f35b3480156107d057600080fd5b506107eb60048036038101906107e69190612a1d565b611ae8565b005b3480156107f957600080fd5b50610814600480360381019061080f9190612876565b611b88565b005b34801561082257600080fd5b5061083d60048036038101906108389190612b06565b611c80565b005b60006301ffc9a760e01b827bffffffffffffffffffffffffffffffffffffffffffffffffffffffff1916148061089a57506380ac58cd60e01b827bffffffffffffffffffffffffffffffffffffffffffffffffffffffff1916145b806108ca5750635b5e139f60e01b827bffffffffffffffffffffffffffffffffffffffffffffffffffffffff1916145b9050919050565b6108d9611dd8565b73ffffffffffffffffffffffffffffffffffffffff166108f76113a8565b73ffffffffffffffffffffffffffffffffffffffff161461094d576040517f08c379a000000000000000000000000000000000000000000000000000000000815260040161094490612f6b565b60405180910390fd5b80600a60006101000a81548160ff02191690831515021790555050565b60606002805461097990613245565b80601f01602080910402602001604051908101604052809291908181526020018280546109a590613245565b80156109f25780601f106109c7576101008083540402835291602001916109f2565b820191906000526020600020905b8154815290600101906020018083116109d557829003601f168201915b5050505050905090565b6000610a0782611de0565b610a3d576040517fcf4700e400000000000000000000000000000000000000000000000000000000815260040160405180910390fd5b6006600083815260200190815260200160002060000160009054906101000a900473ffffffffffffffffffffffffffffffffffffffff169050919050565b6000610a8682611198565b90508073ffffffffffffffffffffffffffffffffffffffff16610aa7611e3f565b73ffffffffffffffffffffffffffffffffffffffff1614610b0a57610ad381610ace611e3f565b611a54565b610b09576040517fcfb3b94200000000000000000000000000000000000000000000000000000000815260040160405180910390fd5b5b826006600084815260200190815260200160002060000160006101000a81548173ffffffffffffffffffffffffffffffffffffffff021916908373ffffffffffffffffffffffffffffffffffffffff160217905550818373ffffffffffffffffffffffffffffffffffffffff168273ffffffffffffffffffffffffffffffffffffffff167f8c5be1e5ebec7d5bd14f71427d1e84f3dd0314c0f7b2291e5b200ac8c7c3b92560405160405180910390a4505050565b610bc7611dd8565b73ffffffffffffffffffffffffffffffffffffffff16610be56113a8565b73ffffffffffffffffffffffffffffffffffffffff1614610c3b576040517f08c379a0000000000000000000000000000000000000000000000000000000008152600401610c3290612f6b565b60405180910390fd5b8060098190555050565b6000610c4f611e47565b6001546000540303905090565b6000610c6782611e4c565b90508373ffffffffffffffffffffffffffffffffffffffff168173ffffffffffffffffffffffffffffffffffffffff1614610cce576040517fa114810000000000000000000000000000000000000000000000000000000000815260040160405180910390fd5b600080610cda84611f1a565b91509150610cf08187610ceb611e3f565b611f41565b610d3c57610d0586610d00611e3f565b611a54565b610d3b576040517f59c896be00000000000000000000000000000000000000000000000000000000815260040160405180910390fd5b5b600073ffffffffffffffffffffffffffffffffffffffff168573ffffffffffffffffffffffffffffffffffffffff161415610da3576040517fea553b3400000000000000000000000000000000000000000000000000000000815260040160405180910390fd5b610db08686866001611f85565b8015610dbb57600082555b600560008773ffffffffffffffffffffffffffffffffffffffff1673ffffffffffffffffffffffffffffffffffffffff168152602001908152602001600020600081546001900391905081905550600560008673ffffffffffffffffffffffffffffffffffffffff1673ffffffffffffffffffffffffffffffffffffffff1681526020019081526020016000206000815460010191905081905550610e8985610e65888887611f8b565b7c020000000000000000000000000000000000000000000000000000000017611fb3565b600460008681526020019081526020016000208190555060007c020000000000000000000000000000000000000000000000000000000084161415610f11576000600185019050600060046000838152602001908152602001600020541415610f0f576000548114610f0e578360046000838152602001908152602001600020819055505b5b505b838573ffffffffffffffffffffffffffffffffffffffff168773ffffffffffffffffffffffffffffffffffffffff167fddf252ad1be2c89b69c2b068fc378daa952ba7f163c4a11628f55a4df523b3ef60405160405180910390a4610f798686866001611fde565b505050505050565b600c60009054906101000a900460ff1681565b600080600b80549050905060005b81811015611058578373ffffffffffffffffffffffffffffffffffffffff16600b8281548110610ffb577f4e487b7100000000000000000000000000000000000000000000000000000000600052603260045260246000fd5b9060005260206000200160009054906101000a900473ffffffffffffffffffffffffffffffffffffffff1673ffffffffffffffffffffffffffffffffffffffff16141561104d5760019250505061105f565b806001019050610fa2565b5060009150505b919050565b61107f838383604051806020016040528060008152506117ee565b505050565b600a60009054906101000a900460ff1681565b6040518060400160405280600581526020017f2e6a736f6e00000000000000000000000000000000000000000000000000000081525081565b60006040518060400160405280601081526020017f4e6f742072657665616c656420796574000000000000000000000000000000008152506040516020016111189190612de8565b60405160208183030381529060405280519060200120600d8360148110611168577f4e487b7100000000000000000000000000000000000000000000000000000000600052603260045260246000fd5b016040516020016111799190612e30565b6040516020818303038152906040528051906020012014159050919050565b60006111a382611e4c565b9050919050565b60008073ffffffffffffffffffffffffffffffffffffffff168273ffffffffffffffffffffffffffffffffffffffff161415611212576040517f8f4eb60400000000000000000000000000000000000000000000000000000000815260040160405180910390fd5b67ffffffffffffffff600560008473ffffffffffffffffffffffffffffffffffffffff1673ffffffffffffffffffffffffffffffffffffffff16815260200190815260200160002054169050919050565b61126b611dd8565b73ffffffffffffffffffffffffffffffffffffffff166112896113a8565b73ffffffffffffffffffffffffffffffffffffffff16146112df576040517f08c379a00000000000000000000000000000000000000000000000000000000081526004016112d690612f6b565b60405180910390fd5b6112e96000611fe4565b565b6112f3611dd8565b73ffffffffffffffffffffffffffffffffffffffff166113116113a8565b73ffffffffffffffffffffffffffffffffffffffff1614611367576040517f08c379a000000000000000000000000000000000000000000000000000000000815260040161135e90612f6b565b60405180910390fd5b80600c60006101000a81548160ff02191690831515021790555050565b7f000000000000000000000000000000000000000000000000000000000000000081565b6000600860009054906101000a900473ffffffffffffffffffffffffffffffffffffffff16905090565b6113da611dd8565b73ffffffffffffffffffffffffffffffffffffffff166113f86113a8565b73ffffffffffffffffffffffffffffffffffffffff161461144e576040517f08c379a000000000000000000000000000000000000000000000000000000000815260040161144590612f6b565b60405180910390fd5b8060218190555050565b60606003805461146790613245565b80601f016020809104026020016040519081016040528092919081815260200182805461149390613245565b80156114e05780601f106114b5576101008083540402835291602001916114e0565b820191906000526020600020905b8154815290600101906020018083116114c357829003601f168201915b5050505050905090565b6000602154905090565b60215481565b7f000000000000000000000000000000000000000000000000000000000000000081611524610c45565b61152e91906130d4565b1061156e576040517f08c379a000000000000000000000000000000000000000000000000000000000815260040161156590612fcb565b60405180910390fd5b600c60009054906101000a900460ff168061158e575061158d33610f94565b5b6115cd576040517f08c379a00000000000000000000000000000000000000000000000000000000081526004016115c490612f4b565b60405180910390fd5b6009546115d9336111aa565b10611619576040517f08c379a000000000000000000000000000000000000000000000000000000000815260040161161090612f8b565b60405180910390fd5b6116216114ea565b341015611663576040517f08c379a000000000000000000000000000000000000000000000000000000000815260040161165a90612feb565b60405180910390fd5b61166d33826120aa565b50565b611678611e3f565b73ffffffffffffffffffffffffffffffffffffffff168273ffffffffffffffffffffffffffffffffffffffff1614156116dd576040517fb06307db00000000000000000000000000000000000000000000000000000000815260040160405180910390fd5b80600760006116ea611e3f565b73ffffffffffffffffffffffffffffffffffffffff1673ffffffffffffffffffffffffffffffffffffffff16815260200190815260200160002060008473ffffffffffffffffffffffffffffffffffffffff1673ffffffffffffffffffffffffffffffffffffffff16815260200190815260200160002060006101000a81548160ff0219169083151502179055508173ffffffffffffffffffffffffffffffffffffffff16611797611e3f565b73ffffffffffffffffffffffffffffffffffffffff167f17307eab39ab6107e8899845ad3d59bd9653f200f220920489ca2b5937696c31836040516117dc9190612eae565b60405180910390a35050565b60095481565b6117f9848484610c5c565b60008373ffffffffffffffffffffffffffffffffffffffff163b1461185b5761182484848484612267565b61185a576040517fd1a57ed600000000000000000000000000000000000000000000000000000000815260040160405180910390fd5b5b50505050565b606061186c82611de0565b6118ab576040517f08c379a00000000000000000000000000000000000000000000000000000000081526004016118a290612f2b565b60405180910390fd5b6014821080156118c057506118bf826110d0565b5b1561199057600d82601481106118ff577f4e487b7100000000000000000000000000000000000000000000000000000000600052603260045260246000fd5b01805461190b90613245565b80601f016020809104026020016040519081016040528092919081815260200182805461193790613245565b80156119845780601f1061195957610100808354040283529160200191611984565b820191906000526020600020905b81548152906001019060200180831161196757829003601f168201915b50505050509050611a20565b600061199a6123c7565b905060008151116119ba5760405180602001604052806000815250611a1c565b806119c4846123e7565b6040518060400160405280600581526020017f2e6a736f6e000000000000000000000000000000000000000000000000000000815250604051602001611a0c93929190612dff565b6040516020818303038152906040525b9150505b919050565b6060611a2f6123c7565b905090565b606060405180606001604052806036815260200161365560369139905090565b6000600760008473ffffffffffffffffffffffffffffffffffffffff1673ffffffffffffffffffffffffffffffffffffffff16815260200190815260200160002060008373ffffffffffffffffffffffffffffffffffffffff1673ffffffffffffffffffffffffffffffffffffffff16815260200190815260200160002060009054906101000a900460ff16905092915050565b611af0611dd8565b73ffffffffffffffffffffffffffffffffffffffff16611b0e6113a8565b73ffffffffffffffffffffffffffffffffffffffff1614611b64576040517f08c379a0000000000000000000000000000000000000000000000000000000008152600401611b5b90612f6b565b60405180910390fd5b600b6000611b7291906125ad565b8181600b9190611b839291906125ce565b505050565b611b90611dd8565b73ffffffffffffffffffffffffffffffffffffffff16611bae6113a8565b73ffffffffffffffffffffffffffffffffffffffff1614611c04576040517f08c379a0000000000000000000000000000000000000000000000000000000008152600401611bfb90612f6b565b60405180910390fd5b600073ffffffffffffffffffffffffffffffffffffffff168173ffffffffffffffffffffffffffffffffffffffff161415611c74576040517f08c379a0000000000000000000000000000000000000000000000000000000008152600401611c6b90612eeb565b60405180910390fd5b611c7d81611fe4565b50565b611c88611dd8565b73ffffffffffffffffffffffffffffffffffffffff16611ca66113a8565b73ffffffffffffffffffffffffffffffffffffffff1614611cfc576040517f08c379a0000000000000000000000000000000000000000000000000000000008152600401611cf390612f6b565b60405180910390fd5b60148310611d3f576040517f08c379a0000000000000000000000000000000000000000000000000000000008152600401611d3690612f0b565b60405180910390fd5b611d48836110d0565b15611d88576040517f08c379a0000000000000000000000000000000000000000000000000000000008152600401611d7f90612fab565b60405180910390fd5b8181600d8560148110611dc4577f4e487b7100000000000000000000000000000000000000000000000000000000600052603260045260246000fd5b019190611dd292919061266e565b50505050565b600033905090565b600081611deb611e47565b11158015611dfa575060005482105b8015611e38575060007c0100000000000000000000000000000000000000000000000000000000600460008581526020019081526020016000205416145b9050919050565b600033905090565b600090565b60008082905080611e5b611e47565b11611ee357600054811015611ee25760006004600083815260200190815260200160002054905060007c010000000000000000000000000000000000000000000000000000000082161415611ee0575b6000811415611ed6576004600083600190039350838152602001908152602001600020549050611eab565b8092505050611f15565b505b5b6040517fdf2d9b4200000000000000000000000000000000000000000000000000000000815260040160405180910390fd5b919050565b60008060006006600085815260200190815260200160002090508092508254915050915091565b600073ffffffffffffffffffffffffffffffffffffffff8316925073ffffffffffffffffffffffffffffffffffffffff821691508382148383141790509392505050565b50505050565b60008060e883901c905060e8611fa2868684612594565b62ffffff16901b9150509392505050565b600073ffffffffffffffffffffffffffffffffffffffff83169250814260a01b178317905092915050565b50505050565b6000600860009054906101000a900473ffffffffffffffffffffffffffffffffffffffff16905081600860006101000a81548173ffffffffffffffffffffffffffffffffffffffff021916908373ffffffffffffffffffffffffffffffffffffffff1602179055508173ffffffffffffffffffffffffffffffffffffffff168173ffffffffffffffffffffffffffffffffffffffff167f8be0079c531659141344cd1fd0a4f28419497f9722a3daafe3b4186f6b6457e060405160405180910390a35050565b60008054905060008214156120eb576040517fb562e8dd00000000000000000000000000000000000000000000000000000000815260040160405180910390fd5b6120f86000848385611f85565b600160406001901b178202600560008573ffffffffffffffffffffffffffffffffffffffff1673ffffffffffffffffffffffffffffffffffffffff1681526020019081526020016000206000828254019250508190555061216f836121606000866000611f8b565b6121698561259d565b17611fb3565b6004600083815260200190815260200160002081905550600080838301905073ffffffffffffffffffffffffffffffffffffffff85169150828260007fddf252ad1be2c89b69c2b068fc378daa952ba7f163c4a11628f55a4df523b3ef600080a4600183015b81811461221057808360007fddf252ad1be2c89b69c2b068fc378daa952ba7f163c4a11628f55a4df523b3ef600080a46001810190506121d5565b50600082141561224c576040517f2e07630000000000000000000000000000000000000000000000000000000000815260040160405180910390fd5b8060008190555050506122626000848385611fde565b505050565b60008373ffffffffffffffffffffffffffffffffffffffff1663150b7a0261228d611e3f565b8786866040518563ffffffff1660e01b81526004016122af9493929190612e62565b602060405180830381600087803b1580156122c957600080fd5b505af19250505080156122fa57506040513d601f19601f820116820180604052508101906122f79190612ab4565b60015b612374573d806000811461232a576040519150601f19603f3d011682016040523d82523d6000602084013e61232f565b606091505b5060008151141561236c576040517fd1a57ed600000000000000000000000000000000000000000000000000000000815260040160405180910390fd5b805181602001fd5b63150b7a0260e01b7bffffffffffffffffffffffffffffffffffffffffffffffffffffffff1916817bffffffffffffffffffffffffffffffffffffffffffffffffffffffff191614915050949350505050565b606060405180606001604052806036815260200161368b60369139905090565b6060600082141561242f576040518060400160405280600181526020017f3000000000000000000000000000000000000000000000000000000000000000815250905061258f565b600082905060005b6000821461246157808061244a906132a8565b915050600a8261245a919061312a565b9150612437565b60008167ffffffffffffffff8111156124a3577f4e487b7100000000000000000000000000000000000000000000000000000000600052604160045260246000fd5b6040519080825280601f01601f1916602001820160405280156124d55781602001600182028036833780820191505090505b5090505b60008514612588576001826124ee919061315b565b9150600a856124fd91906132f1565b603061250991906130d4565b60f81b818381518110612545577f4e487b7100000000000000000000000000000000000000000000000000000000600052603260045260246000fd5b60200101907effffffffffffffffffffffffffffffffffffffffffffffffffffffffffffff1916908160001a905350600a85612581919061312a565b94506124d9565b8093505050505b919050565b60009392505050565b60006001821460e11b9050919050565b50805460008255906000526020600020908101906125cb91906126f4565b50565b82805482825590600052602060002090810192821561265d579160200282015b8281111561265c57823573ffffffffffffffffffffffffffffffffffffffff168260006101000a81548173ffffffffffffffffffffffffffffffffffffffff021916908373ffffffffffffffffffffffffffffffffffffffff160217905550916020019190600101906125ee565b5b50905061266a91906126f4565b5090565b82805461267a90613245565b90600052602060002090601f01602090048101928261269c57600085556126e3565b82601f106126b557803560ff19168380011785556126e3565b828001600101855582156126e3579182015b828111156126e25782358255916020019190600101906126c7565b5b5090506126f091906126f4565b5090565b5b8082111561270d5760008160009055506001016126f5565b5090565b600061272461271f8461304b565b613026565b90508281526020810184848401111561273c57600080fd5b612747848285613203565b509392505050565b60008135905061275e816135f8565b92915050565b60008083601f84011261277657600080fd5b8235905067ffffffffffffffff81111561278f57600080fd5b6020830191508360208202830111156127a757600080fd5b9250929050565b6000813590506127bd8161360f565b92915050565b6000813590506127d281613626565b92915050565b6000815190506127e781613626565b92915050565b600082601f8301126127fe57600080fd5b813561280e848260208601612711565b91505092915050565b60008083601f84011261282957600080fd5b8235905067ffffffffffffffff81111561284257600080fd5b60208301915083600182028301111561285a57600080fd5b9250929050565b6000813590506128708161363d565b92915050565b60006020828403121561288857600080fd5b60006128968482850161274f565b91505092915050565b600080604083850312156128b257600080fd5b60006128c08582860161274f565b92505060206128d18582860161274f565b9150509250929050565b6000806000606084860312156128f057600080fd5b60006128fe8682870161274f565b935050602061290f8682870161274f565b925050604061292086828701612861565b9150509250925092565b6000806000806080858703121561294057600080fd5b600061294e8782880161274f565b945050602061295f8782880161274f565b935050604061297087828801612861565b925050606085013567ffffffffffffffff81111561298d57600080fd5b612999878288016127ed565b91505092959194509250565b600080604083850312156129b857600080fd5b60006129c68582860161274f565b92505060206129d7858286016127ae565b9150509250929050565b600080604083850312156129f457600080fd5b6000612a028582860161274f565b9250506020612a1385828601612861565b9150509250929050565b60008060208385031215612a3057600080fd5b600083013567ffffffffffffffff811115612a4a57600080fd5b612a5685828601612764565b92509250509250929050565b600060208284031215612a7457600080fd5b6000612a82848285016127ae565b91505092915050565b600060208284031215612a9d57600080fd5b6000612aab848285016127c3565b91505092915050565b600060208284031215612ac657600080fd5b6000612ad4848285016127d8565b91505092915050565b600060208284031215612aef57600080fd5b6000612afd84828501612861565b91505092915050565b600080600060408486031215612b1b57600080fd5b6000612b2986828701612861565b935050602084013567ffffffffffffffff811115612b4657600080fd5b612b5286828701612817565b92509250509250925092565b612b678161318f565b82525050565b612b76816131a1565b82525050565b6000612b8782613091565b612b9181856130a7565b9350612ba1818560208601613212565b612baa816133de565b840191505092915050565b6000612bc08261309c565b612bca81856130b8565b9350612bda818560208601613212565b612be3816133de565b840191505092915050565b6000612bf98261309c565b612c0381856130c9565b9350612c13818560208601613212565b80840191505092915050565b60008154612c2c81613245565b612c3681866130c9565b94506001821660008114612c515760018114612c6257612c95565b60ff19831686528186019350612c95565b612c6b8561307c565b60005b83811015612c8d57815481890152600182019150602081019050612c6e565b838801955050505b50505092915050565b6000612cab6026836130b8565b9150612cb6826133ef565b604082019050919050565b6000612cce6020836130b8565b9150612cd98261343e565b602082019050919050565b6000612cf16030836130b8565b9150612cfc82613467565b604082019050919050565b6000612d146017836130b8565b9150612d1f826134b6565b602082019050919050565b6000612d376020836130b8565b9150612d42826134df565b602082019050919050565b6000612d5a6022836130b8565b9150612d6582613508565b604082019050919050565b6000612d7d6020836130b8565b9150612d8882613557565b602082019050919050565b6000612da06020836130b8565b9150612dab82613580565b602082019050919050565b6000612dc36021836130b8565b9150612dce826135a9565b604082019050919050565b612de2816131f9565b82525050565b6000612df48284612bee565b915081905092915050565b6000612e0b8286612bee565b9150612e178285612bee565b9150612e238284612bee565b9150819050949350505050565b6000612e3c8284612c1f565b915081905092915050565b6000602082019050612e5c6000830184612b5e565b92915050565b6000608082019050612e776000830187612b5e565b612e846020830186612b5e565b612e916040830185612dd9565b8181036060830152612ea38184612b7c565b905095945050505050565b6000602082019050612ec36000830184612b6d565b92915050565b60006020820190508181036000830152612ee38184612bb5565b905092915050565b60006020820190508181036000830152612f0481612c9e565b9050919050565b60006020820190508181036000830152612f2481612cc1565b9050919050565b60006020820190508181036000830152612f4481612ce4565b9050919050565b60006020820190508181036000830152612f6481612d07565b9050919050565b60006020820190508181036000830152612f8481612d2a565b9050919050565b60006020820190508181036000830152612fa481612d4d565b9050919050565b60006020820190508181036000830152612fc481612d70565b9050919050565b60006020820190508181036000830152612fe481612d93565b9050919050565b6000602082019050818103600083015261300481612db6565b9050919050565b60006020820190506130206000830184612dd9565b92915050565b6000613030613041565b905061303c8282613277565b919050565b6000604051905090565b600067ffffffffffffffff821115613066576130656133af565b5b61306f826133de565b9050602081019050919050565b60008190508160005260206000209050919050565b600081519050919050565b600081519050919050565b600082825260208201905092915050565b600082825260208201905092915050565b600081905092915050565b60006130df826131f9565b91506130ea836131f9565b9250827fffffffffffffffffffffffffffffffffffffffffffffffffffffffffffffffff0382111561311f5761311e613322565b5b828201905092915050565b6000613135826131f9565b9150613140836131f9565b9250826131505761314f613351565b5b828204905092915050565b6000613166826131f9565b9150613171836131f9565b92508282101561318457613183613322565b5b828203905092915050565b600061319a826131d9565b9050919050565b60008115159050919050565b60007fffffffff0000000000000000000000000000000000000000000000000000000082169050919050565b600073ffffffffffffffffffffffffffffffffffffffff82169050919050565b6000819050919050565b82818337600083830152505050565b60005b83811015613230578082015181840152602081019050613215565b8381111561323f576000848401525b50505050565b6000600282049050600182168061325d57607f821691505b6020821081141561327157613270613380565b5b50919050565b613280826133de565b810181811067ffffffffffffffff8211171561329f5761329e6133af565b5b80604052505050565b60006132b3826131f9565b91507fffffffffffffffffffffffffffffffffffffffffffffffffffffffffffffffff8214156132e6576132e5613322565b5b600182019050919050565b60006132fc826131f9565b9150613307836131f9565b92508261331757613316613351565b5b828206905092915050565b7f4e487b7100000000000000000000000000000000000000000000000000000000600052601160045260246000fd5b7f4e487b7100000000000000000000000000000000000000000000000000000000600052601260045260246000fd5b7f4e487b7100000000000000000000000000000000000000000000000000000000600052602260045260246000fd5b7f4e487b7100000000000000000000000000000000000000000000000000000000600052604160045260246000fd5b6000601f19601f8301169050919050565b7f4f776e61626c653a206e6577206f776e657220697320746865207a65726f206160008201527f6464726573730000000000000000000000000000000000000000000000000000602082015250565b7f746f6b656e4964206d757374206265206265747765656e203020616e64203230600082015250565b7f4552433732314d657461646174613a2055524920717565727920666f72206e6f60008201527f6e6578697374656e7420746f6b656e2000000000000000000000000000000000602082015250565b7f596f7520617265206e6f742077686974656c6973746564000000000000000000600082015250565b7f4f776e61626c653a2063616c6c6572206973206e6f7420746865206f776e6572600082015250565b7f456163682061646472657373206d6179206f6e6c79206d696e742078204e465460008201527f7321000000000000000000000000000000000000000000000000000000000000602082015250565b7f756e6b6f776e2068617320616c7265616479206265656e2072657665616c6564600082015250565b7f43616e6e6f74206d696e74206d6f7265207468616e206d617820737570706c79600082015250565b7f4e6f7420656e6f756768204554482073656e743b20636865636b20707269636560008201527f2100000000000000000000000000000000000000000000000000000000000000602082015250565b6136018161318f565b811461360c57600080fd5b50565b613618816131a1565b811461362357600080fd5b50565b61362f816131ad565b811461363a57600080fd5b50565b613646816131f9565b811461365157600080fd5b5056fe697066733a2f2f516d57426a727834516e77774c577a7531476f73614c7731777633696b764335547137734a556371457a7233536f2f697066733a2f2f516d627839696f364c70706d70766176583345715a593869675178505a68376b6f557a57336d50524c6b4c5169722fa2646970667358221220805c45d99a13706a7f38b171df54c9559c11b5e4cf039e77a955e18b94ccba3964736f6c63430008040033",
  "linkReferences": {},
  "deployedLinkReferences": {}
}