{
  "_format": "hh-sol-artifact-1",
  "contractName": "NFT",
  "sourceName": "src/backend/contracts/NFT.sol",
  "abi": [
    {
      "inputs": [
        {
          "internalType": "address",
          "name": "teamAddress",
          "type": "address"
        },
        {
          "internalType": "bytes32",
          "name": "_whitelistRoot",
          "type": "bytes32"
        }
      ],
      "stateMutability": "nonpayable",
      "type": "constructor"
    },
    {
      "inputs": [],
      "name": "ApprovalCallerNotOwnerNorApproved",
      "type": "error"
    },
    {
      "inputs": [],
      "name": "ApprovalQueryForNonexistentToken",
      "type": "error"
    },
    {
      "inputs": [],
      "name": "ApproveToCaller",
      "type": "error"
    },
    {
      "inputs": [],
      "name": "BalanceQueryForZeroAddress",
      "type": "error"
    },
    {
      "inputs": [],
      "name": "MintERC2309QuantityExceedsLimit",
      "type": "error"
    },
    {
      "inputs": [],
      "name": "MintToZeroAddress",
      "type": "error"
    },
    {
      "inputs": [],
      "name": "MintZeroQuantity",
      "type": "error"
    },
    {
      "inputs": [
        {
          "internalType": "address",
          "name": "operator",
          "type": "address"
        }
      ],
      "name": "OperatorNotAllowed",
      "type": "error"
    },
    {
      "inputs": [],
      "name": "OwnerQueryForNonexistentToken",
      "type": "error"
    },
    {
      "inputs": [],
      "name": "OwnershipNotInitializedForExtraData",
      "type": "error"
    },
    {
      "inputs": [],
      "name": "TransferCallerNotOwnerNorApproved",
      "type": "error"
    },
    {
      "inputs": [],
      "name": "TransferFromIncorrectOwner",
      "type": "error"
    },
    {
      "inputs": [],
      "name": "TransferToNonERC721ReceiverImplementer",
      "type": "error"
    },
    {
      "inputs": [],
      "name": "TransferToZeroAddress",
      "type": "error"
    },
    {
      "inputs": [],
      "name": "URIQueryForNonexistentToken",
      "type": "error"
    },
    {
      "anonymous": false,
      "inputs": [
        {
          "indexed": true,
          "internalType": "address",
          "name": "owner",
          "type": "address"
        },
        {
          "indexed": true,
          "internalType": "address",
          "name": "approved",
          "type": "address"
        },
        {
          "indexed": true,
          "internalType": "uint256",
          "name": "tokenId",
          "type": "uint256"
        }
      ],
      "name": "Approval",
      "type": "event"
    },
    {
      "anonymous": false,
      "inputs": [
        {
          "indexed": true,
          "internalType": "address",
          "name": "owner",
          "type": "address"
        },
        {
          "indexed": true,
          "internalType": "address",
          "name": "operator",
          "type": "address"
        },
        {
          "indexed": false,
          "internalType": "bool",
          "name": "approved",
          "type": "bool"
        }
      ],
      "name": "ApprovalForAll",
      "type": "event"
    },
    {
      "anonymous": false,
      "inputs": [
        {
          "indexed": true,
          "internalType": "uint256",
          "name": "fromTokenId",
          "type": "uint256"
        },
        {
          "indexed": false,
          "internalType": "uint256",
          "name": "toTokenId",
          "type": "uint256"
        },
        {
          "indexed": true,
          "internalType": "address",
          "name": "from",
          "type": "address"
        },
        {
          "indexed": true,
          "internalType": "address",
          "name": "to",
          "type": "address"
        }
      ],
      "name": "ConsecutiveTransfer",
      "type": "event"
    },
    {
      "anonymous": false,
      "inputs": [
        {
          "indexed": false,
          "internalType": "address",
          "name": "user",
          "type": "address"
        }
      ],
      "name": "MintSuccessful",
      "type": "event"
    },
    {
      "anonymous": false,
      "inputs": [
        {
          "indexed": true,
          "internalType": "address",
          "name": "previousOwner",
          "type": "address"
        },
        {
          "indexed": true,
          "internalType": "address",
          "name": "newOwner",
          "type": "address"
        }
      ],
      "name": "OwnershipTransferred",
      "type": "event"
    },
    {
      "anonymous": false,
      "inputs": [
        {
          "indexed": true,
          "internalType": "address",
          "name": "from",
          "type": "address"
        },
        {
          "indexed": true,
          "internalType": "address",
          "name": "to",
          "type": "address"
        },
        {
          "indexed": true,
          "internalType": "uint256",
          "name": "tokenId",
          "type": "uint256"
        }
      ],
      "name": "Transfer",
      "type": "event"
    },
    {
      "inputs": [],
      "name": "amountMintPerAccount",
      "outputs": [
        {
          "internalType": "uint256",
          "name": "",
          "type": "uint256"
        }
      ],
      "stateMutability": "view",
      "type": "function"
    },
    {
      "inputs": [
        {
          "internalType": "address",
          "name": "to",
          "type": "address"
        },
        {
          "internalType": "uint256",
          "name": "tokenId",
          "type": "uint256"
        }
      ],
      "name": "approve",
      "outputs": [],
      "stateMutability": "nonpayable",
      "type": "function"
    },
    {
      "inputs": [
        {
          "internalType": "address",
          "name": "owner",
          "type": "address"
        }
      ],
      "name": "balanceOf",
      "outputs": [
        {
          "internalType": "uint256",
          "name": "",
          "type": "uint256"
        }
      ],
      "stateMutability": "view",
      "type": "function"
    },
    {
      "inputs": [],
      "name": "baseTokenURI",
      "outputs": [
        {
          "internalType": "string",
          "name": "",
          "type": "string"
        }
      ],
      "stateMutability": "pure",
      "type": "function"
    },
    {
      "inputs": [],
      "name": "contractURI",
      "outputs": [
        {
          "internalType": "string",
          "name": "",
          "type": "string"
        }
      ],
      "stateMutability": "pure",
      "type": "function"
    },
    {
      "inputs": [
        {
          "internalType": "uint256",
          "name": "tokenId",
          "type": "uint256"
        }
      ],
      "name": "getApproved",
      "outputs": [
        {
          "internalType": "address",
          "name": "",
          "type": "address"
        }
      ],
      "stateMutability": "view",
      "type": "function"
    },
    {
      "inputs": [],
      "name": "getPrice",
      "outputs": [
        {
          "internalType": "uint256",
          "name": "",
          "type": "uint256"
        }
      ],
      "stateMutability": "view",
      "type": "function"
    },
    {
      "inputs": [
        {
          "internalType": "address",
          "name": "owner",
          "type": "address"
        },
        {
          "internalType": "address",
          "name": "operator",
          "type": "address"
        }
      ],
      "name": "isApprovedForAll",
      "outputs": [
        {
          "internalType": "bool",
          "name": "",
          "type": "bool"
        }
      ],
      "stateMutability": "view",
      "type": "function"
    },
    {
      "inputs": [
        {
          "internalType": "uint256",
          "name": "_tokenId",
          "type": "uint256"
        }
      ],
      "name": "isUnkownRevealed",
      "outputs": [
        {
          "internalType": "bool",
          "name": "",
          "type": "bool"
        }
      ],
      "stateMutability": "view",
      "type": "function"
    },
    {
      "inputs": [
        {
          "internalType": "bytes32[]",
          "name": "_proof",
          "type": "bytes32[]"
        },
        {
          "internalType": "bytes32",
          "name": "_leaf",
          "type": "bytes32"
        }
      ],
      "name": "isValid",
      "outputs": [
        {
          "internalType": "bool",
          "name": "",
          "type": "bool"
        }
      ],
      "stateMutability": "view",
      "type": "function"
    },
    {
      "inputs": [],
      "name": "max_supply",
      "outputs": [
        {
          "internalType": "uint256",
          "name": "",
          "type": "uint256"
        }
      ],
      "stateMutability": "view",
      "type": "function"
    },
    {
      "inputs": [
        {
          "internalType": "uint256",
          "name": "quantity",
          "type": "uint256"
        },
        {
          "internalType": "bytes32[]",
          "name": "_proof",
          "type": "bytes32[]"
        }
      ],
      "name": "mint",
      "outputs": [],
      "stateMutability": "payable",
      "type": "function"
    },
    {
      "inputs": [],
      "name": "name",
      "outputs": [
        {
          "internalType": "string",
          "name": "",
          "type": "string"
        }
      ],
      "stateMutability": "view",
      "type": "function"
    },
    {
      "inputs": [],
      "name": "owner",
      "outputs": [
        {
          "internalType": "address",
          "name": "",
          "type": "address"
        }
      ],
      "stateMutability": "view",
      "type": "function"
    },
    {
      "inputs": [
        {
          "internalType": "uint256",
          "name": "tokenId",
          "type": "uint256"
        }
      ],
      "name": "ownerOf",
      "outputs": [
        {
          "internalType": "address",
          "name": "",
          "type": "address"
        }
      ],
      "stateMutability": "view",
      "type": "function"
    },
    {
      "inputs": [],
      "name": "price",
      "outputs": [
        {
          "internalType": "uint256",
          "name": "",
          "type": "uint256"
        }
      ],
      "stateMutability": "view",
      "type": "function"
    },
    {
      "inputs": [],
      "name": "publicSaleEnabled",
      "outputs": [
        {
          "internalType": "bool",
          "name": "",
          "type": "bool"
        }
      ],
      "stateMutability": "view",
      "type": "function"
    },
    {
      "inputs": [],
      "name": "renounceOwnership",
      "outputs": [],
      "stateMutability": "nonpayable",
      "type": "function"
    },
    {
      "inputs": [
        {
          "internalType": "uint256",
          "name": "_tokenId",
          "type": "uint256"
        },
        {
          "internalType": "string",
          "name": "tokenUri",
          "type": "string"
        }
      ],
      "name": "revealUnkown",
      "outputs": [],
      "stateMutability": "nonpayable",
      "type": "function"
    },
    {
      "inputs": [
        {
          "internalType": "address",
          "name": "from",
          "type": "address"
        },
        {
          "internalType": "address",
          "name": "to",
          "type": "address"
        },
        {
          "internalType": "uint256",
          "name": "tokenId",
          "type": "uint256"
        }
      ],
      "name": "safeTransferFrom",
      "outputs": [],
      "stateMutability": "nonpayable",
      "type": "function"
    },
    {
      "inputs": [
        {
          "internalType": "address",
          "name": "from",
          "type": "address"
        },
        {
          "internalType": "address",
          "name": "to",
          "type": "address"
        },
        {
          "internalType": "uint256",
          "name": "tokenId",
          "type": "uint256"
        },
        {
          "internalType": "bytes",
          "name": "data",
          "type": "bytes"
        }
      ],
      "name": "safeTransferFrom",
      "outputs": [],
      "stateMutability": "nonpayable",
      "type": "function"
    },
    {
      "inputs": [
        {
          "internalType": "uint256",
          "name": "_amountMintPerAccount",
          "type": "uint256"
        }
      ],
      "name": "setAmountMintPerAccount",
      "outputs": [],
      "stateMutability": "nonpayable",
      "type": "function"
    },
    {
      "inputs": [
        {
          "internalType": "address",
          "name": "operator",
          "type": "address"
        },
        {
          "internalType": "bool",
          "name": "approved",
          "type": "bool"
        }
      ],
      "name": "setApprovalForAll",
      "outputs": [],
      "stateMutability": "nonpayable",
      "type": "function"
    },
    {
      "inputs": [
        {
          "internalType": "uint256",
          "name": "_price",
          "type": "uint256"
        }
      ],
      "name": "setPrice",
      "outputs": [],
      "stateMutability": "nonpayable",
      "type": "function"
    },
    {
      "inputs": [
        {
          "internalType": "bool",
          "name": "_state",
          "type": "bool"
        }
      ],
      "name": "setPublicSaleEnabled",
      "outputs": [],
      "stateMutability": "nonpayable",
      "type": "function"
    },
    {
      "inputs": [
        {
          "internalType": "bytes32",
          "name": "_whitelistRoot",
          "type": "bytes32"
        }
      ],
      "name": "setWhitelistRoot",
      "outputs": [],
      "stateMutability": "nonpayable",
      "type": "function"
    },
    {
      "inputs": [
        {
          "internalType": "bytes4",
          "name": "interfaceId",
          "type": "bytes4"
        }
      ],
      "name": "supportsInterface",
      "outputs": [
        {
          "internalType": "bool",
          "name": "",
          "type": "bool"
        }
      ],
      "stateMutability": "view",
      "type": "function"
    },
    {
      "inputs": [],
      "name": "symbol",
      "outputs": [
        {
          "internalType": "string",
          "name": "",
          "type": "string"
        }
      ],
      "stateMutability": "view",
      "type": "function"
    },
    {
      "inputs": [
        {
          "internalType": "uint256",
          "name": "_tokenId",
          "type": "uint256"
        }
      ],
      "name": "tokenURI",
      "outputs": [
        {
          "internalType": "string",
          "name": "",
          "type": "string"
        }
      ],
      "stateMutability": "view",
      "type": "function"
    },
    {
      "inputs": [],
      "name": "totalSupply",
      "outputs": [
        {
          "internalType": "uint256",
          "name": "",
          "type": "uint256"
        }
      ],
      "stateMutability": "view",
      "type": "function"
    },
    {
      "inputs": [
        {
          "internalType": "address",
          "name": "from",
          "type": "address"
        },
        {
          "internalType": "address",
          "name": "to",
          "type": "address"
        },
        {
          "internalType": "uint256",
          "name": "tokenId",
          "type": "uint256"
        }
      ],
      "name": "transferFrom",
      "outputs": [],
      "stateMutability": "nonpayable",
      "type": "function"
    },
    {
      "inputs": [
        {
          "internalType": "address",
          "name": "newOwner",
          "type": "address"
        }
      ],
      "name": "transferOwnership",
      "outputs": [],
      "stateMutability": "nonpayable",
      "type": "function"
    },
    {
      "inputs": [],
      "name": "uriSuffix",
      "outputs": [
        {
          "internalType": "string",
          "name": "",
          "type": "string"
        }
      ],
      "stateMutability": "view",
      "type": "function"
    },
    {
      "inputs": [],
      "name": "whitelistRoot",
      "outputs": [
        {
          "internalType": "bytes32",
          "name": "",
          "type": "bytes32"
        }
      ],
      "stateMutability": "view",
      "type": "function"
    },
    {
      "inputs": [],
      "name": "withdraw",
      "outputs": [],
      "stateMutability": "nonpayable",
      "type": "function"
    }
  ],
  "bytecode": "0x60a06040526126d560809081525060016009553480156200001f57600080fd5b506040516200459138038062004591833981810160405281019062000045919062000870565b733cc6cdda760b79bafa08df41ecfa224f810dceb660016040518060400160405280601381526020017f47656c61746f76657273652047656e65736973000000000000000000000000008152506040518060400160405280600281526020017f47470000000000000000000000000000000000000000000000000000000000008152508160029080519060200190620000e09291906200071b565b508060039080519060200190620000f99291906200071b565b506200010a620003e160201b60201c565b60008190555050506200013262000126620003e660201b60201c565b620003ee60201b60201c565b60006daaeb6d7670e522a718067333cd4e73ffffffffffffffffffffffffffffffffffffffff163b111562000327578015620001ed576daaeb6d7670e522a718067333cd4e73ffffffffffffffffffffffffffffffffffffffff16637d3e3dbe30846040518363ffffffff1660e01b8152600401620001b3929190620008c8565b600060405180830381600087803b158015620001ce57600080fd5b505af1158015620001e3573d6000803e3d6000fd5b5050505062000326565b600073ffffffffffffffffffffffffffffffffffffffff168273ffffffffffffffffffffffffffffffffffffffff1614620002a7576daaeb6d7670e522a718067333cd4e73ffffffffffffffffffffffffffffffffffffffff1663a0af290330846040518363ffffffff1660e01b81526004016200026d929190620008c8565b600060405180830381600087803b1580156200028857600080fd5b505af11580156200029d573d6000803e3d6000fd5b5050505062000325565b6daaeb6d7670e522a718067333cd4e73ffffffffffffffffffffffffffffffffffffffff16634420e486306040518263ffffffff1660e01b8152600401620002f09190620008f5565b600060405180830381600087803b1580156200030b57600080fd5b505af115801562000320573d6000803e3d6000fd5b505050505b5b5b505080600a81905550620003448261014d620004b460201b60201c565b60006014905060005b81811015620003c6576040518060400160405280601081526020017f4e6f742072657665616c65642079657400000000000000000000000000000000815250600c8260148110620003a357620003a262000912565b5b019080519060200190620003b99291906200071b565b508060010190506200034d565b50620003d883620003ee60201b60201c565b505050620009a5565b600090565b600033905090565b6000600860009054906101000a900473ffffffffffffffffffffffffffffffffffffffff16905081600860006101000a81548173ffffffffffffffffffffffffffffffffffffffff021916908373ffffffffffffffffffffffffffffffffffffffff1602179055508173ffffffffffffffffffffffffffffffffffffffff168173ffffffffffffffffffffffffffffffffffffffff167f8be0079c531659141344cd1fd0a4f28419497f9722a3daafe3b4186f6b6457e060405160405180910390a35050565b60008054905060008203620004f5576040517fb562e8dd00000000000000000000000000000000000000000000000000000000815260040160405180910390fd5b6200050a60008483856200069b60201b60201c565b600160406001901b178202600560008573ffffffffffffffffffffffffffffffffffffffff1673ffffffffffffffffffffffffffffffffffffffff1681526020019081526020016000206000828254019250508190555062000599836200057b6000866000620006a160201b60201c565b6200058c85620006d160201b60201c565b17620006e160201b60201c565b6004600083815260200190815260200160002081905550600080838301905073ffffffffffffffffffffffffffffffffffffffff85169150828260007fddf252ad1be2c89b69c2b068fc378daa952ba7f163c4a11628f55a4df523b3ef600080a4600183015b8181146200063c57808360007fddf252ad1be2c89b69c2b068fc378daa952ba7f163c4a11628f55a4df523b3ef600080a4600181019050620005ff565b506000820362000678576040517f2e07630000000000000000000000000000000000000000000000000000000000815260040160405180910390fd5b8060008190555050506200069660008483856200070c60201b60201c565b505050565b50505050565b60008060e883901c905060e8620006c08686846200071260201b60201c565b62ffffff16901b9150509392505050565b60006001821460e11b9050919050565b600073ffffffffffffffffffffffffffffffffffffffff83169250814260a01b178317905092915050565b50505050565b60009392505050565b828054620007299062000970565b90600052602060002090601f0160209004810192826200074d576000855562000799565b82601f106200076857805160ff191683800117855562000799565b8280016001018555821562000799579182015b82811115620007985782518255916020019190600101906200077b565b5b509050620007a89190620007ac565b5090565b5b80821115620007c7576000816000905550600101620007ad565b5090565b600080fd5b600073ffffffffffffffffffffffffffffffffffffffff82169050919050565b6000620007fd82620007d0565b9050919050565b6200080f81620007f0565b81146200081b57600080fd5b50565b6000815190506200082f8162000804565b92915050565b6000819050919050565b6200084a8162000835565b81146200085657600080fd5b50565b6000815190506200086a816200083f565b92915050565b600080604083850312156200088a5762000889620007cb565b5b60006200089a858286016200081e565b9250506020620008ad8582860162000859565b9150509250929050565b620008c281620007f0565b82525050565b6000604082019050620008df6000830185620008b7565b620008ee6020830184620008b7565b9392505050565b60006020820190506200090c6000830184620008b7565b92915050565b7f4e487b7100000000000000000000000000000000000000000000000000000000600052603260045260246000fd5b7f4e487b7100000000000000000000000000000000000000000000000000000000600052602260045260246000fd5b600060028204905060018216806200098957607f821691505b6020821081036200099f576200099e62000941565b5b50919050565b608051613bc9620009c86000396000818161114b01526115c60152613bc96000f3fe6080604052600436106102045760003560e01c80638a333b5011610118578063b8a20ed0116100a0578063e8a3d4851161006f578063e8a3d4851461074a578063e985e9c514610775578063f2fde38b146107b2578063f5aa406d146107db578063fb2685171461080457610204565b8063b8a20ed014610689578063ba41b0c6146106c6578063c87b56dd146106e2578063d547cfb71461071f57610204565b806398d5fdca116100e757806398d5fdca146105b6578063a035b1fe146105e1578063a22cb4651461060c578063a827b5ff14610635578063b88d4fde1461066057610204565b80638a333b501461050c5780638da5cb5b1461053757806391b7f5ed1461056257806395d89b411461058b57610204565b8063386bfc981161019b5780635cd8f9a11161016a5780635cd8f9a1146104155780636352211e1461045257806370a082311461048f578063715018a6146104cc5780638720fbef146104e357610204565b8063386bfc981461037f5780633ccfd60b146103aa57806342842e0e146103c15780635503a0e8146103ea57610204565b806311296660116101d757806311296660146102d757806318160ddd1461030057806323b872dd1461032b5780632ab91bba1461035457610204565b806301ffc9a71461020957806306fdde0314610246578063081812fc14610271578063095ea7b3146102ae575b600080fd5b34801561021557600080fd5b50610230600480360381019061022b9190612a0c565b61082d565b60405161023d9190612a54565b60405180910390f35b34801561025257600080fd5b5061025b6108bf565b6040516102689190612b08565b60405180910390f35b34801561027d57600080fd5b5061029860048036038101906102939190612b60565b610951565b6040516102a59190612bce565b60405180910390f35b3480156102ba57600080fd5b506102d560048036038101906102d09190612c15565b6109d0565b005b3480156102e357600080fd5b506102fe60048036038101906102f99190612b60565b610b14565b005b34801561030c57600080fd5b50610315610b26565b6040516103229190612c64565b60405180910390f35b34801561033757600080fd5b50610352600480360381019061034d9190612c7f565b610b3d565b005b34801561036057600080fd5b50610369610d1f565b6040516103769190612a54565b60405180910390f35b34801561038b57600080fd5b50610394610d32565b6040516103a19190612ceb565b60405180910390f35b3480156103b657600080fd5b506103bf610d38565b005b3480156103cd57600080fd5b506103e860048036038101906103e39190612c7f565b610d89565b005b3480156103f657600080fd5b506103ff610f6b565b60405161040c9190612b08565b60405180910390f35b34801561042157600080fd5b5061043c60048036038101906104379190612b60565b610fa4565b6040516104499190612a54565b60405180910390f35b34801561045e57600080fd5b5061047960048036038101906104749190612b60565b611046565b6040516104869190612bce565b60405180910390f35b34801561049b57600080fd5b506104b660048036038101906104b19190612d06565b611058565b6040516104c39190612c64565b60405180910390f35b3480156104d857600080fd5b506104e1611110565b005b3480156104ef57600080fd5b5061050a60048036038101906105059190612d5f565b611124565b005b34801561051857600080fd5b50610521611149565b60405161052e9190612c64565b60405180910390f35b34801561054357600080fd5b5061054c61116d565b6040516105599190612bce565b60405180910390f35b34801561056e57600080fd5b5061058960048036038101906105849190612b60565b611197565b005b34801561059757600080fd5b506105a06111a9565b6040516105ad9190612b08565b60405180910390f35b3480156105c257600080fd5b506105cb61123b565b6040516105d89190612c64565b60405180910390f35b3480156105ed57600080fd5b506105f6611245565b6040516106039190612c64565b60405180910390f35b34801561061857600080fd5b50610633600480360381019061062e9190612d8c565b61124b565b005b34801561064157600080fd5b5061064a6113c2565b6040516106579190612c64565b60405180910390f35b34801561066c57600080fd5b5061068760048036038101906106829190612f01565b6113c8565b005b34801561069557600080fd5b506106b060048036038101906106ab9190613078565b6115ad565b6040516106bd9190612a54565b60405180910390f35b6106e060048036038101906106db91906130d4565b6115c4565b005b3480156106ee57600080fd5b5061070960048036038101906107049190612b60565b611832565b6040516107169190612b08565b60405180910390f35b34801561072b57600080fd5b506107346119d0565b6040516107419190612b08565b60405180910390f35b34801561075657600080fd5b5061075f6119df565b60405161076c9190612b08565b60405180910390f35b34801561078157600080fd5b5061079c60048036038101906107979190613130565b6119ff565b6040516107a99190612a54565b60405180910390f35b3480156107be57600080fd5b506107d960048036038101906107d49190612d06565b611a93565b005b3480156107e757600080fd5b5061080260048036038101906107fd9190613170565b611b16565b005b34801561081057600080fd5b5061082b600480360381019061082691906131f8565b611b28565b005b60006301ffc9a760e01b827bffffffffffffffffffffffffffffffffffffffffffffffffffffffff1916148061088857506380ac58cd60e01b827bffffffffffffffffffffffffffffffffffffffffffffffffffffffff1916145b806108b85750635b5e139f60e01b827bffffffffffffffffffffffffffffffffffffffffffffffffffffffff1916145b9050919050565b6060600280546108ce90613287565b80601f01602080910402602001604051908101604052809291908181526020018280546108fa90613287565b80156109475780601f1061091c57610100808354040283529160200191610947565b820191906000526020600020905b81548152906001019060200180831161092a57829003601f168201915b5050505050905090565b600061095c82611be6565b610992576040517fcf4700e400000000000000000000000000000000000000000000000000000000815260040160405180910390fd5b6006600083815260200190815260200160002060000160009054906101000a900473ffffffffffffffffffffffffffffffffffffffff169050919050565b60006109db82611046565b90508073ffffffffffffffffffffffffffffffffffffffff166109fc611c45565b73ffffffffffffffffffffffffffffffffffffffff1614610a5f57610a2881610a23611c45565b6119ff565b610a5e576040517fcfb3b94200000000000000000000000000000000000000000000000000000000815260040160405180910390fd5b5b826006600084815260200190815260200160002060000160006101000a81548173ffffffffffffffffffffffffffffffffffffffff021916908373ffffffffffffffffffffffffffffffffffffffff160217905550818373ffffffffffffffffffffffffffffffffffffffff168273ffffffffffffffffffffffffffffffffffffffff167f8c5be1e5ebec7d5bd14f71427d1e84f3dd0314c0f7b2291e5b200ac8c7c3b92560405160405180910390a4505050565b610b1c611c4d565b8060098190555050565b6000610b30611ccb565b6001546000540303905090565b8260006daaeb6d7670e522a718067333cd4e73ffffffffffffffffffffffffffffffffffffffff163b1115610d0d573373ffffffffffffffffffffffffffffffffffffffff168173ffffffffffffffffffffffffffffffffffffffff1603610baf57610baa848484611cd0565b610d19565b6daaeb6d7670e522a718067333cd4e73ffffffffffffffffffffffffffffffffffffffff1663c617113430336040518363ffffffff1660e01b8152600401610bf89291906132b8565b602060405180830381865afa158015610c15573d6000803e3d6000fd5b505050506040513d601f19601f82011682018060405250810190610c3991906132f6565b8015610ccb57506daaeb6d7670e522a718067333cd4e73ffffffffffffffffffffffffffffffffffffffff1663c617113430836040518363ffffffff1660e01b8152600401610c899291906132b8565b602060405180830381865afa158015610ca6573d6000803e3d6000fd5b505050506040513d601f19601f82011682018060405250810190610cca91906132f6565b5b610d0c57336040517fede71dcc000000000000000000000000000000000000000000000000000000008152600401610d039190612bce565b60405180910390fd5b5b610d18848484611cd0565b5b50505050565b600b60009054906101000a900460ff1681565b600a5481565b610d40611c4d565b3373ffffffffffffffffffffffffffffffffffffffff166108fc479081150290604051600060405180830381858888f19350505050158015610d86573d6000803e3d6000fd5b50565b8260006daaeb6d7670e522a718067333cd4e73ffffffffffffffffffffffffffffffffffffffff163b1115610f59573373ffffffffffffffffffffffffffffffffffffffff168173ffffffffffffffffffffffffffffffffffffffff1603610dfb57610df6848484611ff2565b610f65565b6daaeb6d7670e522a718067333cd4e73ffffffffffffffffffffffffffffffffffffffff1663c617113430336040518363ffffffff1660e01b8152600401610e449291906132b8565b602060405180830381865afa158015610e61573d6000803e3d6000fd5b505050506040513d601f19601f82011682018060405250810190610e8591906132f6565b8015610f1757506daaeb6d7670e522a718067333cd4e73ffffffffffffffffffffffffffffffffffffffff1663c617113430836040518363ffffffff1660e01b8152600401610ed59291906132b8565b602060405180830381865afa158015610ef2573d6000803e3d6000fd5b505050506040513d601f19601f82011682018060405250810190610f1691906132f6565b5b610f5857336040517fede71dcc000000000000000000000000000000000000000000000000000000008152600401610f4f9190612bce565b60405180910390fd5b5b610f64848484611ff2565b5b50505050565b6040518060400160405280600581526020017f2e6a736f6e00000000000000000000000000000000000000000000000000000081525081565b60006040518060400160405280601081526020017f4e6f742072657665616c65642079657400000000000000000000000000000000815250604051602001610fec919061335f565b60405160208183030381529060405280519060200120600c836014811061101657611015613376565b5b016040516020016110279190613439565b6040516020818303038152906040528051906020012014159050919050565b600061105182612012565b9050919050565b60008073ffffffffffffffffffffffffffffffffffffffff168273ffffffffffffffffffffffffffffffffffffffff16036110bf576040517f8f4eb60400000000000000000000000000000000000000000000000000000000815260040160405180910390fd5b67ffffffffffffffff600560008473ffffffffffffffffffffffffffffffffffffffff1673ffffffffffffffffffffffffffffffffffffffff16815260200190815260200160002054169050919050565b611118611c4d565b61112260006120de565b565b61112c611c4d565b80600b60006101000a81548160ff02191690831515021790555050565b7f000000000000000000000000000000000000000000000000000000000000000081565b6000600860009054906101000a900473ffffffffffffffffffffffffffffffffffffffff16905090565b61119f611c4d565b8060208190555050565b6060600380546111b890613287565b80601f01602080910402602001604051908101604052809291908181526020018280546111e490613287565b80156112315780601f1061120657610100808354040283529160200191611231565b820191906000526020600020905b81548152906001019060200180831161121457829003601f168201915b5050505050905090565b6000602054905090565b60205481565b611253611c45565b73ffffffffffffffffffffffffffffffffffffffff168273ffffffffffffffffffffffffffffffffffffffff16036112b7576040517fb06307db00000000000000000000000000000000000000000000000000000000815260040160405180910390fd5b80600760006112c4611c45565b73ffffffffffffffffffffffffffffffffffffffff1673ffffffffffffffffffffffffffffffffffffffff16815260200190815260200160002060008473ffffffffffffffffffffffffffffffffffffffff1673ffffffffffffffffffffffffffffffffffffffff16815260200190815260200160002060006101000a81548160ff0219169083151502179055508173ffffffffffffffffffffffffffffffffffffffff16611371611c45565b73ffffffffffffffffffffffffffffffffffffffff167f17307eab39ab6107e8899845ad3d59bd9653f200f220920489ca2b5937696c31836040516113b69190612a54565b60405180910390a35050565b60095481565b8360006daaeb6d7670e522a718067333cd4e73ffffffffffffffffffffffffffffffffffffffff163b1115611599573373ffffffffffffffffffffffffffffffffffffffff168173ffffffffffffffffffffffffffffffffffffffff160361143b57611436858585856121a4565b6115a6565b6daaeb6d7670e522a718067333cd4e73ffffffffffffffffffffffffffffffffffffffff1663c617113430336040518363ffffffff1660e01b81526004016114849291906132b8565b602060405180830381865afa1580156114a1573d6000803e3d6000fd5b505050506040513d601f19601f820116820180604052508101906114c591906132f6565b801561155757506daaeb6d7670e522a718067333cd4e73ffffffffffffffffffffffffffffffffffffffff1663c617113430836040518363ffffffff1660e01b81526004016115159291906132b8565b602060405180830381865afa158015611532573d6000803e3d6000fd5b505050506040513d601f19601f8201168201806040525081019061155691906132f6565b5b61159857336040517fede71dcc00000000000000000000000000000000000000000000000000000000815260040161158f9190612bce565b60405180910390fd5b5b6115a5858585856121a4565b5b5050505050565b60006115bc83600a5484612217565b905092915050565b7f0000000000000000000000000000000000000000000000000000000000000000826115ee610b26565b6115f8919061347f565b10611638576040517f08c379a000000000000000000000000000000000000000000000000000000000815260040161162f90613521565b60405180910390fd5b600b60009054906101000a900460ff168061167f575061167e81336040516020016116639190613589565b604051602081830303815290604052805190602001206115ad565b5b6116be576040517f08c379a00000000000000000000000000000000000000000000000000000000081526004016116b5906135f0565b60405180910390fd5b60095482602160003373ffffffffffffffffffffffffffffffffffffffff1673ffffffffffffffffffffffffffffffffffffffff1681526020019081526020016000205461170c919061347f565b111561174d576040517f08c379a000000000000000000000000000000000000000000000000000000000815260040161174490613682565b60405180910390fd5b61175561123b565b341015611797576040517f08c379a000000000000000000000000000000000000000000000000000000000815260040161178e90613714565b60405180910390fd5b81602160003373ffffffffffffffffffffffffffffffffffffffff1673ffffffffffffffffffffffffffffffffffffffff16815260200190815260200160002060008282546117e6919061347f565b925050819055506117f7338361222e565b7ff5535ccd9f40eb4bc73fac8710dbb2effbf3329da83f62b35d9aa88161bb85ca336040516118269190612bce565b60405180910390a15050565b606061183d82611be6565b61187c576040517f08c379a0000000000000000000000000000000000000000000000000000000008152600401611873906137a6565b60405180910390fd5b601482108015611891575061189082610fa4565b5b1561193b57600c82601481106118aa576118a9613376565b5b0180546118b690613287565b80601f01602080910402602001604051908101604052809291908181526020018280546118e290613287565b801561192f5780601f106119045761010080835404028352916020019161192f565b820191906000526020600020905b81548152906001019060200180831161191257829003601f168201915b505050505090506119cb565b60006119456123e9565b9050600081511161196557604051806020016040528060008152506119c7565b8061196f84612409565b6040518060400160405280600581526020017f2e6a736f6e0000000000000000000000000000000000000000000000000000008152506040516020016119b7939291906137c6565b6040516020818303038152906040525b9150505b919050565b60606119da6123e9565b905090565b6060604051806060016040528060368152602001613b2860369139905090565b6000600760008473ffffffffffffffffffffffffffffffffffffffff1673ffffffffffffffffffffffffffffffffffffffff16815260200190815260200160002060008373ffffffffffffffffffffffffffffffffffffffff1673ffffffffffffffffffffffffffffffffffffffff16815260200190815260200160002060009054906101000a900460ff16905092915050565b611a9b611c4d565b600073ffffffffffffffffffffffffffffffffffffffff168173ffffffffffffffffffffffffffffffffffffffff1603611b0a576040517f08c379a0000000000000000000000000000000000000000000000000000000008152600401611b0190613869565b60405180910390fd5b611b13816120de565b50565b611b1e611c4d565b80600a8190555050565b611b30611c4d565b60148310611b73576040517f08c379a0000000000000000000000000000000000000000000000000000000008152600401611b6a906138d5565b60405180910390fd5b611b7c83610fa4565b15611bbc576040517f08c379a0000000000000000000000000000000000000000000000000000000008152600401611bb390613941565b60405180910390fd5b8181600c8560148110611bd257611bd1613376565b5b019190611be09291906128fd565b50505050565b600081611bf1611ccb565b11158015611c00575060005482105b8015611c3e575060007c0100000000000000000000000000000000000000000000000000000000600460008581526020019081526020016000205416145b9050919050565b600033905090565b611c556124d7565b73ffffffffffffffffffffffffffffffffffffffff16611c7361116d565b73ffffffffffffffffffffffffffffffffffffffff1614611cc9576040517f08c379a0000000000000000000000000000000000000000000000000000000008152600401611cc0906139ad565b60405180910390fd5b565b600090565b6000611cdb82612012565b90508373ffffffffffffffffffffffffffffffffffffffff168173ffffffffffffffffffffffffffffffffffffffff1614611d42576040517fa114810000000000000000000000000000000000000000000000000000000000815260040160405180910390fd5b600080611d4e846124df565b91509150611d648187611d5f611c45565b612506565b611db057611d7986611d74611c45565b6119ff565b611daf576040517f59c896be00000000000000000000000000000000000000000000000000000000815260040160405180910390fd5b5b600073ffffffffffffffffffffffffffffffffffffffff168573ffffffffffffffffffffffffffffffffffffffff1603611e16576040517fea553b3400000000000000000000000000000000000000000000000000000000815260040160405180910390fd5b611e23868686600161254a565b8015611e2e57600082555b600560008773ffffffffffffffffffffffffffffffffffffffff1673ffffffffffffffffffffffffffffffffffffffff168152602001908152602001600020600081546001900391905081905550600560008673ffffffffffffffffffffffffffffffffffffffff1673ffffffffffffffffffffffffffffffffffffffff1681526020019081526020016000206000815460010191905081905550611efc85611ed8888887612550565b7c020000000000000000000000000000000000000000000000000000000017612578565b600460008681526020019081526020016000208190555060007c0200000000000000000000000000000000000000000000000000000000841603611f825760006001850190506000600460008381526020019081526020016000205403611f80576000548114611f7f578360046000838152602001908152602001600020819055505b5b505b838573ffffffffffffffffffffffffffffffffffffffff168773ffffffffffffffffffffffffffffffffffffffff167fddf252ad1be2c89b69c2b068fc378daa952ba7f163c4a11628f55a4df523b3ef60405160405180910390a4611fea86868660016125a3565b505050505050565b61200d838383604051806020016040528060008152506113c8565b505050565b60008082905080612021611ccb565b116120a7576000548110156120a65760006004600083815260200190815260200160002054905060007c01000000000000000000000000000000000000000000000000000000008216036120a4575b6000810361209a576004600083600190039350838152602001908152602001600020549050612070565b80925050506120d9565b505b5b6040517fdf2d9b4200000000000000000000000000000000000000000000000000000000815260040160405180910390fd5b919050565b6000600860009054906101000a900473ffffffffffffffffffffffffffffffffffffffff16905081600860006101000a81548173ffffffffffffffffffffffffffffffffffffffff021916908373ffffffffffffffffffffffffffffffffffffffff1602179055508173ffffffffffffffffffffffffffffffffffffffff168173ffffffffffffffffffffffffffffffffffffffff167f8be0079c531659141344cd1fd0a4f28419497f9722a3daafe3b4186f6b6457e060405160405180910390a35050565b6121af848484610b3d565b60008373ffffffffffffffffffffffffffffffffffffffff163b14612211576121da848484846125a9565b612210576040517fd1a57ed600000000000000000000000000000000000000000000000000000000815260040160405180910390fd5b5b50505050565b60008261222485846126f9565b1490509392505050565b6000805490506000820361226e576040517fb562e8dd00000000000000000000000000000000000000000000000000000000815260040160405180910390fd5b61227b600084838561254a565b600160406001901b178202600560008573ffffffffffffffffffffffffffffffffffffffff1673ffffffffffffffffffffffffffffffffffffffff168152602001908152602001600020600082825401925050819055506122f2836122e36000866000612550565b6122ec8561274f565b17612578565b6004600083815260200190815260200160002081905550600080838301905073ffffffffffffffffffffffffffffffffffffffff85169150828260007fddf252ad1be2c89b69c2b068fc378daa952ba7f163c4a11628f55a4df523b3ef600080a4600183015b81811461239357808360007fddf252ad1be2c89b69c2b068fc378daa952ba7f163c4a11628f55a4df523b3ef600080a4600181019050612358565b50600082036123ce576040517f2e07630000000000000000000000000000000000000000000000000000000000815260040160405180910390fd5b8060008190555050506123e460008483856125a3565b505050565b6060604051806060016040528060368152602001613b5e60369139905090565b6060600060016124188461275f565b01905060008167ffffffffffffffff81111561243757612436612dd6565b5b6040519080825280601f01601f1916602001820160405280156124695781602001600182028036833780820191505090505b509050600082602001820190505b6001156124cc578080600190039150507f3031323334353637383961626364656600000000000000000000000000000000600a86061a8153600a85816124c0576124bf6139cd565b5b04945060008503612477575b819350505050919050565b600033905090565b60008060006006600085815260200190815260200160002090508092508254915050915091565b600073ffffffffffffffffffffffffffffffffffffffff8316925073ffffffffffffffffffffffffffffffffffffffff821691508382148383141790509392505050565b50505050565b60008060e883901c905060e86125678686846128b2565b62ffffff16901b9150509392505050565b600073ffffffffffffffffffffffffffffffffffffffff83169250814260a01b178317905092915050565b50505050565b60008373ffffffffffffffffffffffffffffffffffffffff1663150b7a026125cf611c45565b8786866040518563ffffffff1660e01b81526004016125f19493929190613a51565b6020604051808303816000875af192505050801561262d57506040513d601f19601f8201168201806040525081019061262a9190613ab2565b60015b6126a6573d806000811461265d576040519150601f19603f3d011682016040523d82523d6000602084013e612662565b606091505b50600081510361269e576040517fd1a57ed600000000000000000000000000000000000000000000000000000000815260040160405180910390fd5b805181602001fd5b63150b7a0260e01b7bffffffffffffffffffffffffffffffffffffffffffffffffffffffff1916817bffffffffffffffffffffffffffffffffffffffffffffffffffffffff191614915050949350505050565b60008082905060005b84518110156127445761272f8286838151811061272257612721613376565b5b60200260200101516128bb565b9150808061273c90613adf565b915050612702565b508091505092915050565b60006001821460e11b9050919050565b600080600090507a184f03e93ff9f4daa797ed6e38ed64bf6a1f01000000000000000083106127bd577a184f03e93ff9f4daa797ed6e38ed64bf6a1f01000000000000000083816127b3576127b26139cd565b5b0492506040810190505b6d04ee2d6d415b85acef810000000083106127fa576d04ee2d6d415b85acef810000000083816127f0576127ef6139cd565b5b0492506020810190505b662386f26fc10000831061282957662386f26fc10000838161281f5761281e6139cd565b5b0492506010810190505b6305f5e1008310612852576305f5e1008381612848576128476139cd565b5b0492506008810190505b612710831061287757612710838161286d5761286c6139cd565b5b0492506004810190505b6064831061289a57606483816128905761288f6139cd565b5b0492506002810190505b600a83106128a9576001810190505b80915050919050565b60009392505050565b60008183106128d3576128ce82846128e6565b6128de565b6128dd83836128e6565b5b905092915050565b600082600052816020526040600020905092915050565b82805461290990613287565b90600052602060002090601f01602090048101928261292b5760008555612972565b82601f1061294457803560ff1916838001178555612972565b82800160010185558215612972579182015b82811115612971578235825591602001919060010190612956565b5b50905061297f9190612983565b5090565b5b8082111561299c576000816000905550600101612984565b5090565b6000604051905090565b600080fd5b600080fd5b60007fffffffff0000000000000000000000000000000000000000000000000000000082169050919050565b6129e9816129b4565b81146129f457600080fd5b50565b600081359050612a06816129e0565b92915050565b600060208284031215612a2257612a216129aa565b5b6000612a30848285016129f7565b91505092915050565b60008115159050919050565b612a4e81612a39565b82525050565b6000602082019050612a696000830184612a45565b92915050565b600081519050919050565b600082825260208201905092915050565b60005b83811015612aa9578082015181840152602081019050612a8e565b83811115612ab8576000848401525b50505050565b6000601f19601f8301169050919050565b6000612ada82612a6f565b612ae48185612a7a565b9350612af4818560208601612a8b565b612afd81612abe565b840191505092915050565b60006020820190508181036000830152612b228184612acf565b905092915050565b6000819050919050565b612b3d81612b2a565b8114612b4857600080fd5b50565b600081359050612b5a81612b34565b92915050565b600060208284031215612b7657612b756129aa565b5b6000612b8484828501612b4b565b91505092915050565b600073ffffffffffffffffffffffffffffffffffffffff82169050919050565b6000612bb882612b8d565b9050919050565b612bc881612bad565b82525050565b6000602082019050612be36000830184612bbf565b92915050565b612bf281612bad565b8114612bfd57600080fd5b50565b600081359050612c0f81612be9565b92915050565b60008060408385031215612c2c57612c2b6129aa565b5b6000612c3a85828601612c00565b9250506020612c4b85828601612b4b565b9150509250929050565b612c5e81612b2a565b82525050565b6000602082019050612c796000830184612c55565b92915050565b600080600060608486031215612c9857612c976129aa565b5b6000612ca686828701612c00565b9350506020612cb786828701612c00565b9250506040612cc886828701612b4b565b9150509250925092565b6000819050919050565b612ce581612cd2565b82525050565b6000602082019050612d006000830184612cdc565b92915050565b600060208284031215612d1c57612d1b6129aa565b5b6000612d2a84828501612c00565b91505092915050565b612d3c81612a39565b8114612d4757600080fd5b50565b600081359050612d5981612d33565b92915050565b600060208284031215612d7557612d746129aa565b5b6000612d8384828501612d4a565b91505092915050565b60008060408385031215612da357612da26129aa565b5b6000612db185828601612c00565b9250506020612dc285828601612d4a565b9150509250929050565b600080fd5b600080fd5b7f4e487b7100000000000000000000000000000000000000000000000000000000600052604160045260246000fd5b612e0e82612abe565b810181811067ffffffffffffffff82111715612e2d57612e2c612dd6565b5b80604052505050565b6000612e406129a0565b9050612e4c8282612e05565b919050565b600067ffffffffffffffff821115612e6c57612e6b612dd6565b5b612e7582612abe565b9050602081019050919050565b82818337600083830152505050565b6000612ea4612e9f84612e51565b612e36565b905082815260208101848484011115612ec057612ebf612dd1565b5b612ecb848285612e82565b509392505050565b600082601f830112612ee857612ee7612dcc565b5b8135612ef8848260208601612e91565b91505092915050565b60008060008060808587031215612f1b57612f1a6129aa565b5b6000612f2987828801612c00565b9450506020612f3a87828801612c00565b9350506040612f4b87828801612b4b565b925050606085013567ffffffffffffffff811115612f6c57612f6b6129af565b5b612f7887828801612ed3565b91505092959194509250565b600067ffffffffffffffff821115612f9f57612f9e612dd6565b5b602082029050602081019050919050565b600080fd5b612fbe81612cd2565b8114612fc957600080fd5b50565b600081359050612fdb81612fb5565b92915050565b6000612ff4612fef84612f84565b612e36565b9050808382526020820190506020840283018581111561301757613016612fb0565b5b835b81811015613040578061302c8882612fcc565b845260208401935050602081019050613019565b5050509392505050565b600082601f83011261305f5761305e612dcc565b5b813561306f848260208601612fe1565b91505092915050565b6000806040838503121561308f5761308e6129aa565b5b600083013567ffffffffffffffff8111156130ad576130ac6129af565b5b6130b98582860161304a565b92505060206130ca85828601612fcc565b9150509250929050565b600080604083850312156130eb576130ea6129aa565b5b60006130f985828601612b4b565b925050602083013567ffffffffffffffff81111561311a576131196129af565b5b6131268582860161304a565b9150509250929050565b60008060408385031215613147576131466129aa565b5b600061315585828601612c00565b925050602061316685828601612c00565b9150509250929050565b600060208284031215613186576131856129aa565b5b600061319484828501612fcc565b91505092915050565b600080fd5b60008083601f8401126131b8576131b7612dcc565b5b8235905067ffffffffffffffff8111156131d5576131d461319d565b5b6020830191508360018202830111156131f1576131f0612fb0565b5b9250929050565b600080600060408486031215613211576132106129aa565b5b600061321f86828701612b4b565b935050602084013567ffffffffffffffff8111156132405761323f6129af565b5b61324c868287016131a2565b92509250509250925092565b7f4e487b7100000000000000000000000000000000000000000000000000000000600052602260045260246000fd5b6000600282049050600182168061329f57607f821691505b6020821081036132b2576132b1613258565b5b50919050565b60006040820190506132cd6000830185612bbf565b6132da6020830184612bbf565b9392505050565b6000815190506132f081612d33565b92915050565b60006020828403121561330c5761330b6129aa565b5b600061331a848285016132e1565b91505092915050565b600081905092915050565b600061333982612a6f565b6133438185613323565b9350613353818560208601612a8b565b80840191505092915050565b600061336b828461332e565b915081905092915050565b7f4e487b7100000000000000000000000000000000000000000000000000000000600052603260045260246000fd5b60008190508160005260206000209050919050565b600081546133c781613287565b6133d18186613323565b945060018216600081146133ec57600181146133fd57613430565b60ff19831686528186019350613430565b613406856133a5565b60005b8381101561342857815481890152600182019150602081019050613409565b838801955050505b50505092915050565b600061344582846133ba565b915081905092915050565b7f4e487b7100000000000000000000000000000000000000000000000000000000600052601160045260246000fd5b600061348a82612b2a565b915061349583612b2a565b9250827fffffffffffffffffffffffffffffffffffffffffffffffffffffffffffffffff038211156134ca576134c9613450565b5b828201905092915050565b7f43616e6e6f74206d696e74206d6f7265207468616e206d617820737570706c79600082015250565b600061350b602083612a7a565b9150613516826134d5565b602082019050919050565b6000602082019050818103600083015261353a816134fe565b9050919050565b60008160601b9050919050565b600061355982613541565b9050919050565b600061356b8261354e565b9050919050565b61358361357e82612bad565b613560565b82525050565b60006135958284613572565b60148201915081905092915050565b7f596f7520617265206e6f742077686974656c6973746564000000000000000000600082015250565b60006135da601783612a7a565b91506135e5826135a4565b602082019050919050565b60006020820190508181036000830152613609816135cd565b9050919050565b7f456163682061646472657373206d6179206f6e6c79206d696e742078204e465460008201527f7321000000000000000000000000000000000000000000000000000000000000602082015250565b600061366c602283612a7a565b915061367782613610565b604082019050919050565b6000602082019050818103600083015261369b8161365f565b9050919050565b7f4e6f7420656e6f756768204554482073656e743b20636865636b20707269636560008201527f2100000000000000000000000000000000000000000000000000000000000000602082015250565b60006136fe602183612a7a565b9150613709826136a2565b604082019050919050565b6000602082019050818103600083015261372d816136f1565b9050919050565b7f4552433732314d657461646174613a2055524920717565727920666f72206e6f60008201527f6e6578697374656e7420746f6b656e2000000000000000000000000000000000602082015250565b6000613790603083612a7a565b915061379b82613734565b604082019050919050565b600060208201905081810360008301526137bf81613783565b9050919050565b60006137d2828661332e565b91506137de828561332e565b91506137ea828461332e565b9150819050949350505050565b7f4f776e61626c653a206e6577206f776e657220697320746865207a65726f206160008201527f6464726573730000000000000000000000000000000000000000000000000000602082015250565b6000613853602683612a7a565b915061385e826137f7565b604082019050919050565b6000602082019050818103600083015261388281613846565b9050919050565b7f746f6b656e4964206d757374206265206265747765656e203020616e64203230600082015250565b60006138bf602083612a7a565b91506138ca82613889565b602082019050919050565b600060208201905081810360008301526138ee816138b2565b9050919050565b7f756e6b6f776e2068617320616c7265616479206265656e2072657665616c6564600082015250565b600061392b602083612a7a565b9150613936826138f5565b602082019050919050565b6000602082019050818103600083015261395a8161391e565b9050919050565b7f4f776e61626c653a2063616c6c6572206973206e6f7420746865206f776e6572600082015250565b6000613997602083612a7a565b91506139a282613961565b602082019050919050565b600060208201905081810360008301526139c68161398a565b9050919050565b7f4e487b7100000000000000000000000000000000000000000000000000000000600052601260045260246000fd5b600081519050919050565b600082825260208201905092915050565b6000613a23826139fc565b613a2d8185613a07565b9350613a3d818560208601612a8b565b613a4681612abe565b840191505092915050565b6000608082019050613a666000830187612bbf565b613a736020830186612bbf565b613a806040830185612c55565b8181036060830152613a928184613a18565b905095945050505050565b600081519050613aac816129e0565b92915050565b600060208284031215613ac857613ac76129aa565b5b6000613ad684828501613a9d565b91505092915050565b6000613aea82612b2a565b91507fffffffffffffffffffffffffffffffffffffffffffffffffffffffffffffffff8203613b1c57613b1b613450565b5b60018201905091905056fe697066733a2f2f516d57426a727834516e77774c577a7531476f73614c7731777633696b764335547137734a556371457a7233536f2f697066733a2f2f516d627839696f364c70706d70766176583345715a593869675178505a68376b6f557a57336d50524c6b4c5169722fa26469706673582212209259e6f532da185c06d7f60f6061e746d1ef4bada6e8d2ecf5085dd0292bcdd364736f6c634300080d0033",
  "linkReferences": {},
  "deployedLinkReferences": {}
}