{
  "_format": "hh-sol-artifact-1",
  "contractName": "NFT",
  "sourceName": "src/backend/contracts/NFT.sol",
  "abi": [
    {
      "inputs": [
        {
          "internalType": "address",
          "name": "teamAddress",
          "type": "address"
        },
        {
          "internalType": "address[]",
          "name": "_usersToWhitelist",
          "type": "address[]"
        }
      ],
      "stateMutability": "nonpayable",
      "type": "constructor"
    },
    {
      "inputs": [],
      "name": "ApprovalCallerNotOwnerNorApproved",
      "type": "error"
    },
    {
      "inputs": [],
      "name": "ApprovalQueryForNonexistentToken",
      "type": "error"
    },
    {
      "inputs": [],
      "name": "ApproveToCaller",
      "type": "error"
    },
    {
      "inputs": [],
      "name": "BalanceQueryForZeroAddress",
      "type": "error"
    },
    {
      "inputs": [],
      "name": "MintERC2309QuantityExceedsLimit",
      "type": "error"
    },
    {
      "inputs": [],
      "name": "MintToZeroAddress",
      "type": "error"
    },
    {
      "inputs": [],
      "name": "MintZeroQuantity",
      "type": "error"
    },
    {
      "inputs": [],
      "name": "OwnerQueryForNonexistentToken",
      "type": "error"
    },
    {
      "inputs": [],
      "name": "OwnershipNotInitializedForExtraData",
      "type": "error"
    },
    {
      "inputs": [],
      "name": "TransferCallerNotOwnerNorApproved",
      "type": "error"
    },
    {
      "inputs": [],
      "name": "TransferFromIncorrectOwner",
      "type": "error"
    },
    {
      "inputs": [],
      "name": "TransferToNonERC721ReceiverImplementer",
      "type": "error"
    },
    {
      "inputs": [],
      "name": "TransferToZeroAddress",
      "type": "error"
    },
    {
      "inputs": [],
      "name": "URIQueryForNonexistentToken",
      "type": "error"
    },
    {
      "anonymous": false,
      "inputs": [
        {
          "indexed": true,
          "internalType": "address",
          "name": "owner",
          "type": "address"
        },
        {
          "indexed": true,
          "internalType": "address",
          "name": "approved",
          "type": "address"
        },
        {
          "indexed": true,
          "internalType": "uint256",
          "name": "tokenId",
          "type": "uint256"
        }
      ],
      "name": "Approval",
      "type": "event"
    },
    {
      "anonymous": false,
      "inputs": [
        {
          "indexed": true,
          "internalType": "address",
          "name": "owner",
          "type": "address"
        },
        {
          "indexed": true,
          "internalType": "address",
          "name": "operator",
          "type": "address"
        },
        {
          "indexed": false,
          "internalType": "bool",
          "name": "approved",
          "type": "bool"
        }
      ],
      "name": "ApprovalForAll",
      "type": "event"
    },
    {
      "anonymous": false,
      "inputs": [
        {
          "indexed": true,
          "internalType": "uint256",
          "name": "fromTokenId",
          "type": "uint256"
        },
        {
          "indexed": false,
          "internalType": "uint256",
          "name": "toTokenId",
          "type": "uint256"
        },
        {
          "indexed": true,
          "internalType": "address",
          "name": "from",
          "type": "address"
        },
        {
          "indexed": true,
          "internalType": "address",
          "name": "to",
          "type": "address"
        }
      ],
      "name": "ConsecutiveTransfer",
      "type": "event"
    },
    {
      "anonymous": false,
      "inputs": [
        {
          "indexed": true,
          "internalType": "address",
          "name": "previousOwner",
          "type": "address"
        },
        {
          "indexed": true,
          "internalType": "address",
          "name": "newOwner",
          "type": "address"
        }
      ],
      "name": "OwnershipTransferred",
      "type": "event"
    },
    {
      "anonymous": false,
      "inputs": [
        {
          "indexed": true,
          "internalType": "address",
          "name": "from",
          "type": "address"
        },
        {
          "indexed": true,
          "internalType": "address",
          "name": "to",
          "type": "address"
        },
        {
          "indexed": true,
          "internalType": "uint256",
          "name": "tokenId",
          "type": "uint256"
        }
      ],
      "name": "Transfer",
      "type": "event"
    },
    {
      "inputs": [
        {
          "internalType": "address",
          "name": "to",
          "type": "address"
        },
        {
          "internalType": "uint256",
          "name": "tokenId",
          "type": "uint256"
        }
      ],
      "name": "approve",
      "outputs": [],
      "stateMutability": "nonpayable",
      "type": "function"
    },
    {
      "inputs": [
        {
          "internalType": "address",
          "name": "owner",
          "type": "address"
        }
      ],
      "name": "balanceOf",
      "outputs": [
        {
          "internalType": "uint256",
          "name": "",
          "type": "uint256"
        }
      ],
      "stateMutability": "view",
      "type": "function"
    },
    {
      "inputs": [],
      "name": "baseTokenURI",
      "outputs": [
        {
          "internalType": "string",
          "name": "",
          "type": "string"
        }
      ],
      "stateMutability": "pure",
      "type": "function"
    },
    {
      "inputs": [],
      "name": "contractURI",
      "outputs": [
        {
          "internalType": "string",
          "name": "",
          "type": "string"
        }
      ],
      "stateMutability": "pure",
      "type": "function"
    },
    {
      "inputs": [
        {
          "internalType": "uint256",
          "name": "tokenId",
          "type": "uint256"
        }
      ],
      "name": "getApproved",
      "outputs": [
        {
          "internalType": "address",
          "name": "",
          "type": "address"
        }
      ],
      "stateMutability": "view",
      "type": "function"
    },
    {
      "inputs": [
        {
          "internalType": "address",
          "name": "owner",
          "type": "address"
        },
        {
          "internalType": "address",
          "name": "operator",
          "type": "address"
        }
      ],
      "name": "isApprovedForAll",
      "outputs": [
        {
          "internalType": "bool",
          "name": "",
          "type": "bool"
        }
      ],
      "stateMutability": "view",
      "type": "function"
    },
    {
      "inputs": [
        {
          "internalType": "uint256",
          "name": "_tokenId",
          "type": "uint256"
        }
      ],
      "name": "isUnkownRevealed",
      "outputs": [
        {
          "internalType": "bool",
          "name": "",
          "type": "bool"
        }
      ],
      "stateMutability": "view",
      "type": "function"
    },
    {
      "inputs": [
        {
          "internalType": "address",
          "name": "_user",
          "type": "address"
        }
      ],
      "name": "isWhitelisted",
      "outputs": [
        {
          "internalType": "bool",
          "name": "",
          "type": "bool"
        }
      ],
      "stateMutability": "view",
      "type": "function"
    },
    {
      "inputs": [],
      "name": "max_supply",
      "outputs": [
        {
          "internalType": "uint256",
          "name": "",
          "type": "uint256"
        }
      ],
      "stateMutability": "view",
      "type": "function"
    },
    {
      "inputs": [
        {
          "internalType": "uint256",
          "name": "quantity",
          "type": "uint256"
        }
      ],
      "name": "mint",
      "outputs": [],
      "stateMutability": "payable",
      "type": "function"
    },
    {
      "inputs": [],
      "name": "name",
      "outputs": [
        {
          "internalType": "string",
          "name": "",
          "type": "string"
        }
      ],
      "stateMutability": "view",
      "type": "function"
    },
    {
      "inputs": [],
      "name": "owner",
      "outputs": [
        {
          "internalType": "address",
          "name": "",
          "type": "address"
        }
      ],
      "stateMutability": "view",
      "type": "function"
    },
    {
      "inputs": [
        {
          "internalType": "uint256",
          "name": "tokenId",
          "type": "uint256"
        }
      ],
      "name": "ownerOf",
      "outputs": [
        {
          "internalType": "address",
          "name": "",
          "type": "address"
        }
      ],
      "stateMutability": "view",
      "type": "function"
    },
    {
      "inputs": [],
      "name": "renounceOwnership",
      "outputs": [],
      "stateMutability": "nonpayable",
      "type": "function"
    },
    {
      "inputs": [
        {
          "internalType": "uint256",
          "name": "_tokenId",
          "type": "uint256"
        },
        {
          "internalType": "string",
          "name": "tokenUri",
          "type": "string"
        }
      ],
      "name": "revealUnkown",
      "outputs": [],
      "stateMutability": "nonpayable",
      "type": "function"
    },
    {
      "inputs": [
        {
          "internalType": "address",
          "name": "from",
          "type": "address"
        },
        {
          "internalType": "address",
          "name": "to",
          "type": "address"
        },
        {
          "internalType": "uint256",
          "name": "tokenId",
          "type": "uint256"
        }
      ],
      "name": "safeTransferFrom",
      "outputs": [],
      "stateMutability": "nonpayable",
      "type": "function"
    },
    {
      "inputs": [
        {
          "internalType": "address",
          "name": "from",
          "type": "address"
        },
        {
          "internalType": "address",
          "name": "to",
          "type": "address"
        },
        {
          "internalType": "uint256",
          "name": "tokenId",
          "type": "uint256"
        },
        {
          "internalType": "bytes",
          "name": "_data",
          "type": "bytes"
        }
      ],
      "name": "safeTransferFrom",
      "outputs": [],
      "stateMutability": "nonpayable",
      "type": "function"
    },
    {
      "inputs": [
        {
          "internalType": "address",
          "name": "operator",
          "type": "address"
        },
        {
          "internalType": "bool",
          "name": "approved",
          "type": "bool"
        }
      ],
      "name": "setApprovalForAll",
      "outputs": [],
      "stateMutability": "nonpayable",
      "type": "function"
    },
    {
      "inputs": [
        {
          "internalType": "bool",
          "name": "_state",
          "type": "bool"
        }
      ],
      "name": "setWhitelistEnabled",
      "outputs": [],
      "stateMutability": "nonpayable",
      "type": "function"
    },
    {
      "inputs": [
        {
          "internalType": "bytes4",
          "name": "interfaceId",
          "type": "bytes4"
        }
      ],
      "name": "supportsInterface",
      "outputs": [
        {
          "internalType": "bool",
          "name": "",
          "type": "bool"
        }
      ],
      "stateMutability": "view",
      "type": "function"
    },
    {
      "inputs": [],
      "name": "symbol",
      "outputs": [
        {
          "internalType": "string",
          "name": "",
          "type": "string"
        }
      ],
      "stateMutability": "view",
      "type": "function"
    },
    {
      "inputs": [
        {
          "internalType": "uint256",
          "name": "_tokenId",
          "type": "uint256"
        }
      ],
      "name": "tokenURI",
      "outputs": [
        {
          "internalType": "string",
          "name": "",
          "type": "string"
        }
      ],
      "stateMutability": "view",
      "type": "function"
    },
    {
      "inputs": [],
      "name": "totalSupply",
      "outputs": [
        {
          "internalType": "uint256",
          "name": "",
          "type": "uint256"
        }
      ],
      "stateMutability": "view",
      "type": "function"
    },
    {
      "inputs": [
        {
          "internalType": "address",
          "name": "from",
          "type": "address"
        },
        {
          "internalType": "address",
          "name": "to",
          "type": "address"
        },
        {
          "internalType": "uint256",
          "name": "tokenId",
          "type": "uint256"
        }
      ],
      "name": "transferFrom",
      "outputs": [],
      "stateMutability": "nonpayable",
      "type": "function"
    },
    {
      "inputs": [
        {
          "internalType": "address",
          "name": "newOwner",
          "type": "address"
        }
      ],
      "name": "transferOwnership",
      "outputs": [],
      "stateMutability": "nonpayable",
      "type": "function"
    },
    {
      "inputs": [],
      "name": "uriSuffix",
      "outputs": [
        {
          "internalType": "string",
          "name": "",
          "type": "string"
        }
      ],
      "stateMutability": "view",
      "type": "function"
    },
    {
      "inputs": [],
      "name": "whitelistEnabled",
      "outputs": [
        {
          "internalType": "bool",
          "name": "",
          "type": "bool"
        }
      ],
      "stateMutability": "view",
      "type": "function"
    },
    {
      "inputs": [
        {
          "internalType": "address[]",
          "name": "_users",
          "type": "address[]"
        }
      ],
      "name": "whitelistUsers",
      "outputs": [],
      "stateMutability": "nonpayable",
      "type": "function"
    }
  ],
  "bytecode": "0x60a060405261270f6080908152506001600860146101000a81548160ff0219169083151502179055503480156200003557600080fd5b5060405162003aa238038062003aa283398181016040528101906200005b919062000775565b6040518060400160405280600a81526020017f47656c61746f204e4654000000000000000000000000000000000000000000008152506040518060400160405280600381526020017f474c4e00000000000000000000000000000000000000000000000000000000008152508160029080519060200190620000df9291906200055a565b508060039080519060200190620000f89291906200055a565b50620001096200021e60201b60201c565b600081905550505062000131620001256200022360201b60201c565b6200022b60201b60201c565b60096000620001419190620005eb565b8060099080519060200190620001599291906200060e565b506200016e8261014d620002f160201b60201c565b60006014905060005b8181101562000214576040518060400160405280601081526020017f4e6f742072657665616c65642079657400000000000000000000000000000000815250600a8260148110620001f1577f4e487b7100000000000000000000000000000000000000000000000000000000600052603260045260246000fd5b019080519060200190620002079291906200055a565b5080600101905062000177565b5050505062000950565b600090565b600033905090565b6000600860009054906101000a900473ffffffffffffffffffffffffffffffffffffffff16905081600860006101000a81548173ffffffffffffffffffffffffffffffffffffffff021916908373ffffffffffffffffffffffffffffffffffffffff1602179055508173ffffffffffffffffffffffffffffffffffffffff168173ffffffffffffffffffffffffffffffffffffffff167f8be0079c531659141344cd1fd0a4f28419497f9722a3daafe3b4186f6b6457e060405160405180910390a35050565b600080549050600082141562000333576040517fb562e8dd00000000000000000000000000000000000000000000000000000000815260040160405180910390fd5b620003486000848385620004da60201b60201c565b600160406001901b178202600560008573ffffffffffffffffffffffffffffffffffffffff1673ffffffffffffffffffffffffffffffffffffffff16815260200190815260200160002060008282540192505081905550620003d783620003b96000866000620004e060201b60201c565b620003ca856200051060201b60201c565b176200052060201b60201c565b6004600083815260200190815260200160002081905550600080838301905073ffffffffffffffffffffffffffffffffffffffff85169150828260007fddf252ad1be2c89b69c2b068fc378daa952ba7f163c4a11628f55a4df523b3ef600080a4600183015b8181146200047a57808360007fddf252ad1be2c89b69c2b068fc378daa952ba7f163c4a11628f55a4df523b3ef600080a46001810190506200043d565b506000821415620004b7576040517f2e07630000000000000000000000000000000000000000000000000000000000815260040160405180910390fd5b806000819055505050620004d560008483856200054b60201b60201c565b505050565b50505050565b60008060e883901c905060e8620004ff8686846200055160201b60201c565b62ffffff16901b9150509392505050565b60006001821460e11b9050919050565b600073ffffffffffffffffffffffffffffffffffffffff83169250814260a01b178317905092915050565b50505050565b60009392505050565b82805462000568906200085b565b90600052602060002090601f0160209004810192826200058c5760008555620005d8565b82601f10620005a757805160ff1916838001178555620005d8565b82800160010185558215620005d8579182015b82811115620005d7578251825591602001919060010190620005ba565b5b509050620005e791906200069d565b5090565b50805460008255906000526020600020908101906200060b91906200069d565b50565b8280548282559060005260206000209081019282156200068a579160200282015b82811115620006895782518260006101000a81548173ffffffffffffffffffffffffffffffffffffffff021916908373ffffffffffffffffffffffffffffffffffffffff160217905550916020019190600101906200062f565b5b5090506200069991906200069d565b5090565b5b80821115620006b85760008160009055506001016200069e565b5090565b6000620006d3620006cd84620007f8565b620007cf565b90508083825260208201905082856020860282011115620006f357600080fd5b60005b858110156200072757816200070c888262000731565b845260208401935060208301925050600181019050620006f6565b5050509392505050565b600081519050620007428162000936565b92915050565b600082601f8301126200075a57600080fd5b81516200076c848260208601620006bc565b91505092915050565b600080604083850312156200078957600080fd5b6000620007998582860162000731565b925050602083015167ffffffffffffffff811115620007b757600080fd5b620007c58582860162000748565b9150509250929050565b6000620007db620007ee565b9050620007e9828262000891565b919050565b6000604051905090565b600067ffffffffffffffff821115620008165762000815620008f6565b5b602082029050602081019050919050565b600062000834826200083b565b9050919050565b600073ffffffffffffffffffffffffffffffffffffffff82169050919050565b600060028204905060018216806200087457607f821691505b602082108114156200088b576200088a620008c7565b5b50919050565b6200089c8262000925565b810181811067ffffffffffffffff82111715620008be57620008bd620008f6565b5b80604052505050565b7f4e487b7100000000000000000000000000000000000000000000000000000000600052602260045260246000fd5b7f4e487b7100000000000000000000000000000000000000000000000000000000600052604160045260246000fd5b6000601f19601f8301169050919050565b620009418162000827565b81146200094d57600080fd5b50565b60805161312f62000973600039600081816110e001526111c0015261312f6000f3fe6080604052600436106101b75760003560e01c8063715018a6116100ec578063c87b56dd1161008a578063e985e9c511610064578063e985e9c514610613578063edec5f2714610650578063f2fde38b14610679578063fb268517146106a2576101b7565b8063c87b56dd14610580578063d547cfb7146105bd578063e8a3d485146105e8576101b7565b806395d89b41116100c657806395d89b41146104e7578063a0712d6814610512578063a22cb4651461052e578063b88d4fde14610557576101b7565b8063715018a61461047a5780638a333b50146104915780638da5cb5b146104bc576101b7565b80633af32abf116101595780635503a0e8116101335780635503a0e8146103985780635cd8f9a1146103c35780636352211e1461040057806370a082311461043d576101b7565b80633af32abf1461030757806342842e0e1461034457806351fb012d1461036d576101b7565b8063081812fc11610195578063081812fc1461024d578063095ea7b31461028a57806318160ddd146102b357806323b872dd146102de576101b7565b806301ffc9a7146101bc578063052d9e7e146101f957806306fdde0314610222575b600080fd5b3480156101c857600080fd5b506101e360048036038101906101de9190612654565b6106cb565b6040516101f09190612a0e565b60405180910390f35b34801561020557600080fd5b50610220600480360381019061021b919061262b565b61075d565b005b34801561022e57600080fd5b506102376107f6565b6040516102449190612a29565b60405180910390f35b34801561025957600080fd5b50610274600480360381019061026f91906126a6565b610888565b60405161028191906129a7565b60405180910390f35b34801561029657600080fd5b506102b160048036038101906102ac91906125aa565b610907565b005b3480156102bf57600080fd5b506102c8610a4b565b6040516102d59190612b0b565b60405180910390f35b3480156102ea57600080fd5b50610305600480360381019061030091906124a4565b610a62565b005b34801561031357600080fd5b5061032e6004803603810190610329919061243f565b610d87565b60405161033b9190612a0e565b60405180910390f35b34801561035057600080fd5b5061036b600480360381019061036691906124a4565b610e57565b005b34801561037957600080fd5b50610382610e77565b60405161038f9190612a0e565b60405180910390f35b3480156103a457600080fd5b506103ad610e8a565b6040516103ba9190612a29565b60405180910390f35b3480156103cf57600080fd5b506103ea60048036038101906103e591906126a6565b610ec3565b6040516103f79190612a0e565b60405180910390f35b34801561040c57600080fd5b50610427600480360381019061042291906126a6565b610f8b565b60405161043491906129a7565b60405180910390f35b34801561044957600080fd5b50610464600480360381019061045f919061243f565b610f9d565b6040516104719190612b0b565b60405180910390f35b34801561048657600080fd5b5061048f611056565b005b34801561049d57600080fd5b506104a66110de565b6040516104b39190612b0b565b60405180910390f35b3480156104c857600080fd5b506104d1611102565b6040516104de91906129a7565b60405180910390f35b3480156104f357600080fd5b506104fc61112c565b6040516105099190612a29565b60405180910390f35b61052c600480360381019061052791906126a6565b6111be565b005b34801561053a57600080fd5b506105556004803603810190610550919061256e565b61123f565b005b34801561056357600080fd5b5061057e600480360381019061057991906124f3565b6113b7565b005b34801561058c57600080fd5b506105a760048036038101906105a291906126a6565b61142a565b6040516105b49190612a29565b60405180910390f35b3480156105c957600080fd5b506105d26115ee565b6040516105df9190612a29565b60405180910390f35b3480156105f457600080fd5b506105fd6115fd565b60405161060a9190612a29565b60405180910390f35b34801561061f57600080fd5b5061063a60048036038101906106359190612468565b61161d565b6040516106479190612a0e565b60405180910390f35b34801561065c57600080fd5b50610677600480360381019061067291906125e6565b6116b1565b005b34801561068557600080fd5b506106a0600480360381019061069b919061243f565b611751565b005b3480156106ae57600080fd5b506106c960048036038101906106c491906126cf565b611849565b005b60006301ffc9a760e01b827bffffffffffffffffffffffffffffffffffffffffffffffffffffffff1916148061072657506380ac58cd60e01b827bffffffffffffffffffffffffffffffffffffffffffffffffffffffff1916145b806107565750635b5e139f60e01b827bffffffffffffffffffffffffffffffffffffffffffffffffffffffff1916145b9050919050565b6107656119a1565b73ffffffffffffffffffffffffffffffffffffffff16610783611102565b73ffffffffffffffffffffffffffffffffffffffff16146107d9576040517f08c379a00000000000000000000000000000000000000000000000000000000081526004016107d090612aab565b60405180910390fd5b80600860146101000a81548160ff02191690831515021790555050565b60606002805461080590612d45565b80601f016020809104026020016040519081016040528092919081815260200182805461083190612d45565b801561087e5780601f106108535761010080835404028352916020019161087e565b820191906000526020600020905b81548152906001019060200180831161086157829003601f168201915b5050505050905090565b6000610893826119a9565b6108c9576040517fcf4700e400000000000000000000000000000000000000000000000000000000815260040160405180910390fd5b6006600083815260200190815260200160002060000160009054906101000a900473ffffffffffffffffffffffffffffffffffffffff169050919050565b600061091282610f8b565b90508073ffffffffffffffffffffffffffffffffffffffff16610933611a08565b73ffffffffffffffffffffffffffffffffffffffff16146109965761095f8161095a611a08565b61161d565b610995576040517fcfb3b94200000000000000000000000000000000000000000000000000000000815260040160405180910390fd5b5b826006600084815260200190815260200160002060000160006101000a81548173ffffffffffffffffffffffffffffffffffffffff021916908373ffffffffffffffffffffffffffffffffffffffff160217905550818373ffffffffffffffffffffffffffffffffffffffff168273ffffffffffffffffffffffffffffffffffffffff167f8c5be1e5ebec7d5bd14f71427d1e84f3dd0314c0f7b2291e5b200ac8c7c3b92560405160405180910390a4505050565b6000610a55611a10565b6001546000540303905090565b6000610a6d82611a15565b90508373ffffffffffffffffffffffffffffffffffffffff168173ffffffffffffffffffffffffffffffffffffffff1614610ad4576040517fa114810000000000000000000000000000000000000000000000000000000000815260040160405180910390fd5b600080610ae084611ae3565b91509150610af68187610af1611a08565b611b0a565b610b4257610b0b86610b06611a08565b61161d565b610b41576040517f59c896be00000000000000000000000000000000000000000000000000000000815260040160405180910390fd5b5b600073ffffffffffffffffffffffffffffffffffffffff168573ffffffffffffffffffffffffffffffffffffffff161415610ba9576040517fea553b3400000000000000000000000000000000000000000000000000000000815260040160405180910390fd5b610bb68686866001611b4e565b8015610bc157600082555b600560008773ffffffffffffffffffffffffffffffffffffffff1673ffffffffffffffffffffffffffffffffffffffff168152602001908152602001600020600081546001900391905081905550600560008673ffffffffffffffffffffffffffffffffffffffff1673ffffffffffffffffffffffffffffffffffffffff1681526020019081526020016000206000815460010191905081905550610c8f85610c6b888887611b54565b7c020000000000000000000000000000000000000000000000000000000017611b7c565b600460008681526020019081526020016000208190555060007c020000000000000000000000000000000000000000000000000000000084161415610d17576000600185019050600060046000838152602001908152602001600020541415610d15576000548114610d14578360046000838152602001908152602001600020819055505b5b505b838573ffffffffffffffffffffffffffffffffffffffff168773ffffffffffffffffffffffffffffffffffffffff167fddf252ad1be2c89b69c2b068fc378daa952ba7f163c4a11628f55a4df523b3ef60405160405180910390a4610d7f8686866001611ba7565b505050505050565b600080600980549050905060005b81811015610e4b578373ffffffffffffffffffffffffffffffffffffffff1660098281548110610dee577f4e487b7100000000000000000000000000000000000000000000000000000000600052603260045260246000fd5b9060005260206000200160009054906101000a900473ffffffffffffffffffffffffffffffffffffffff1673ffffffffffffffffffffffffffffffffffffffff161415610e4057600192505050610e52565b806001019050610d95565b5060009150505b919050565b610e72838383604051806020016040528060008152506113b7565b505050565b600860149054906101000a900460ff1681565b6040518060400160405280600581526020017f2e6a736f6e00000000000000000000000000000000000000000000000000000081525081565b60006040518060400160405280601081526020017f4e6f742072657665616c65642079657400000000000000000000000000000000815250604051602001610f0b9190612948565b60405160208183030381529060405280519060200120600a8360148110610f5b577f4e487b7100000000000000000000000000000000000000000000000000000000600052603260045260246000fd5b01604051602001610f6c9190612990565b6040516020818303038152906040528051906020012014159050919050565b6000610f9682611a15565b9050919050565b60008073ffffffffffffffffffffffffffffffffffffffff168273ffffffffffffffffffffffffffffffffffffffff161415611005576040517f8f4eb60400000000000000000000000000000000000000000000000000000000815260040160405180910390fd5b67ffffffffffffffff600560008473ffffffffffffffffffffffffffffffffffffffff1673ffffffffffffffffffffffffffffffffffffffff16815260200190815260200160002054169050919050565b61105e6119a1565b73ffffffffffffffffffffffffffffffffffffffff1661107c611102565b73ffffffffffffffffffffffffffffffffffffffff16146110d2576040517f08c379a00000000000000000000000000000000000000000000000000000000081526004016110c990612aab565b60405180910390fd5b6110dc6000611bad565b565b7f000000000000000000000000000000000000000000000000000000000000000081565b6000600860009054906101000a900473ffffffffffffffffffffffffffffffffffffffff16905090565b60606003805461113b90612d45565b80601f016020809104026020016040519081016040528092919081815260200182805461116790612d45565b80156111b45780601f10611189576101008083540402835291602001916111b4565b820191906000526020600020905b81548152906001019060200180831161119757829003601f168201915b5050505050905090565b7f0000000000000000000000000000000000000000000000000000000000000000816111e8610a4b565b6111f29190612bd4565b10611232576040517f08c379a000000000000000000000000000000000000000000000000000000000815260040161122990612aeb565b60405180910390fd5b61123c3382611c73565b50565b611247611a08565b73ffffffffffffffffffffffffffffffffffffffff168273ffffffffffffffffffffffffffffffffffffffff1614156112ac576040517fb06307db00000000000000000000000000000000000000000000000000000000815260040160405180910390fd5b80600760006112b9611a08565b73ffffffffffffffffffffffffffffffffffffffff1673ffffffffffffffffffffffffffffffffffffffff16815260200190815260200160002060008473ffffffffffffffffffffffffffffffffffffffff1673ffffffffffffffffffffffffffffffffffffffff16815260200190815260200160002060006101000a81548160ff0219169083151502179055508173ffffffffffffffffffffffffffffffffffffffff16611366611a08565b73ffffffffffffffffffffffffffffffffffffffff167f17307eab39ab6107e8899845ad3d59bd9653f200f220920489ca2b5937696c31836040516113ab9190612a0e565b60405180910390a35050565b6113c2848484610a62565b60008373ffffffffffffffffffffffffffffffffffffffff163b14611424576113ed84848484611e30565b611423576040517fd1a57ed600000000000000000000000000000000000000000000000000000000815260040160405180910390fd5b5b50505050565b6060611435826119a9565b611474576040517f08c379a000000000000000000000000000000000000000000000000000000000815260040161146b90612a8b565b60405180910390fd5b601482108015611489575061148882610ec3565b5b1561155957600a82601481106114c8577f4e487b7100000000000000000000000000000000000000000000000000000000600052603260045260246000fd5b0180546114d490612d45565b80601f016020809104026020016040519081016040528092919081815260200182805461150090612d45565b801561154d5780601f106115225761010080835404028352916020019161154d565b820191906000526020600020905b81548152906001019060200180831161153057829003601f168201915b505050505090506115e9565b6000611563611f90565b9050600081511161158357604051806020016040528060008152506115e5565b8061158d84611fb0565b6040518060400160405280600581526020017f2e6a736f6e0000000000000000000000000000000000000000000000000000008152506040516020016115d59392919061295f565b6040516020818303038152906040525b9150505b919050565b60606115f8611f90565b905090565b606060405180606001604052806036815260200161308e60369139905090565b6000600760008473ffffffffffffffffffffffffffffffffffffffff1673ffffffffffffffffffffffffffffffffffffffff16815260200190815260200160002060008373ffffffffffffffffffffffffffffffffffffffff1673ffffffffffffffffffffffffffffffffffffffff16815260200190815260200160002060009054906101000a900460ff16905092915050565b6116b96119a1565b73ffffffffffffffffffffffffffffffffffffffff166116d7611102565b73ffffffffffffffffffffffffffffffffffffffff161461172d576040517f08c379a000000000000000000000000000000000000000000000000000000000815260040161172490612aab565b60405180910390fd5b6009600061173b9190612176565b81816009919061174c929190612197565b505050565b6117596119a1565b73ffffffffffffffffffffffffffffffffffffffff16611777611102565b73ffffffffffffffffffffffffffffffffffffffff16146117cd576040517f08c379a00000000000000000000000000000000000000000000000000000000081526004016117c490612aab565b60405180910390fd5b600073ffffffffffffffffffffffffffffffffffffffff168173ffffffffffffffffffffffffffffffffffffffff16141561183d576040517f08c379a000000000000000000000000000000000000000000000000000000000815260040161183490612a4b565b60405180910390fd5b61184681611bad565b50565b6118516119a1565b73ffffffffffffffffffffffffffffffffffffffff1661186f611102565b73ffffffffffffffffffffffffffffffffffffffff16146118c5576040517f08c379a00000000000000000000000000000000000000000000000000000000081526004016118bc90612aab565b60405180910390fd5b60148310611908576040517f08c379a00000000000000000000000000000000000000000000000000000000081526004016118ff90612a6b565b60405180910390fd5b61191183610ec3565b15611951576040517f08c379a000000000000000000000000000000000000000000000000000000000815260040161194890612acb565b60405180910390fd5b8181600a856014811061198d577f4e487b7100000000000000000000000000000000000000000000000000000000600052603260045260246000fd5b01919061199b929190612237565b50505050565b600033905090565b6000816119b4611a10565b111580156119c3575060005482105b8015611a01575060007c0100000000000000000000000000000000000000000000000000000000600460008581526020019081526020016000205416145b9050919050565b600033905090565b600090565b60008082905080611a24611a10565b11611aac57600054811015611aab5760006004600083815260200190815260200160002054905060007c010000000000000000000000000000000000000000000000000000000082161415611aa9575b6000811415611a9f576004600083600190039350838152602001908152602001600020549050611a74565b8092505050611ade565b505b5b6040517fdf2d9b4200000000000000000000000000000000000000000000000000000000815260040160405180910390fd5b919050565b60008060006006600085815260200190815260200160002090508092508254915050915091565b600073ffffffffffffffffffffffffffffffffffffffff8316925073ffffffffffffffffffffffffffffffffffffffff821691508382148383141790509392505050565b50505050565b60008060e883901c905060e8611b6b86868461215d565b62ffffff16901b9150509392505050565b600073ffffffffffffffffffffffffffffffffffffffff83169250814260a01b178317905092915050565b50505050565b6000600860009054906101000a900473ffffffffffffffffffffffffffffffffffffffff16905081600860006101000a81548173ffffffffffffffffffffffffffffffffffffffff021916908373ffffffffffffffffffffffffffffffffffffffff1602179055508173ffffffffffffffffffffffffffffffffffffffff168173ffffffffffffffffffffffffffffffffffffffff167f8be0079c531659141344cd1fd0a4f28419497f9722a3daafe3b4186f6b6457e060405160405180910390a35050565b6000805490506000821415611cb4576040517fb562e8dd00000000000000000000000000000000000000000000000000000000815260040160405180910390fd5b611cc16000848385611b4e565b600160406001901b178202600560008573ffffffffffffffffffffffffffffffffffffffff1673ffffffffffffffffffffffffffffffffffffffff16815260200190815260200160002060008282540192505081905550611d3883611d296000866000611b54565b611d3285612166565b17611b7c565b6004600083815260200190815260200160002081905550600080838301905073ffffffffffffffffffffffffffffffffffffffff85169150828260007fddf252ad1be2c89b69c2b068fc378daa952ba7f163c4a11628f55a4df523b3ef600080a4600183015b818114611dd957808360007fddf252ad1be2c89b69c2b068fc378daa952ba7f163c4a11628f55a4df523b3ef600080a4600181019050611d9e565b506000821415611e15576040517f2e07630000000000000000000000000000000000000000000000000000000000815260040160405180910390fd5b806000819055505050611e2b6000848385611ba7565b505050565b60008373ffffffffffffffffffffffffffffffffffffffff1663150b7a02611e56611a08565b8786866040518563ffffffff1660e01b8152600401611e7894939291906129c2565b602060405180830381600087803b158015611e9257600080fd5b505af1925050508015611ec357506040513d601f19601f82011682018060405250810190611ec0919061267d565b60015b611f3d573d8060008114611ef3576040519150601f19603f3d011682016040523d82523d6000602084013e611ef8565b606091505b50600081511415611f35576040517fd1a57ed600000000000000000000000000000000000000000000000000000000815260040160405180910390fd5b805181602001fd5b63150b7a0260e01b7bffffffffffffffffffffffffffffffffffffffffffffffffffffffff1916817bffffffffffffffffffffffffffffffffffffffffffffffffffffffff191614915050949350505050565b60606040518060600160405280603681526020016130c460369139905090565b60606000821415611ff8576040518060400160405280600181526020017f30000000000000000000000000000000000000000000000000000000000000008152509050612158565b600082905060005b6000821461202a57808061201390612da8565b915050600a826120239190612c2a565b9150612000565b60008167ffffffffffffffff81111561206c577f4e487b7100000000000000000000000000000000000000000000000000000000600052604160045260246000fd5b6040519080825280601f01601f19166020018201604052801561209e5781602001600182028036833780820191505090505b5090505b60008514612151576001826120b79190612c5b565b9150600a856120c69190612df1565b60306120d29190612bd4565b60f81b81838151811061210e577f4e487b7100000000000000000000000000000000000000000000000000000000600052603260045260246000fd5b60200101907effffffffffffffffffffffffffffffffffffffffffffffffffffffffffffff1916908160001a905350600a8561214a9190612c2a565b94506120a2565b8093505050505b919050565b60009392505050565b60006001821460e11b9050919050565b508054600082559060005260206000209081019061219491906122bd565b50565b828054828255906000526020600020908101928215612226579160200282015b8281111561222557823573ffffffffffffffffffffffffffffffffffffffff168260006101000a81548173ffffffffffffffffffffffffffffffffffffffff021916908373ffffffffffffffffffffffffffffffffffffffff160217905550916020019190600101906121b7565b5b50905061223391906122bd565b5090565b82805461224390612d45565b90600052602060002090601f01602090048101928261226557600085556122ac565b82601f1061227e57803560ff19168380011785556122ac565b828001600101855582156122ac579182015b828111156122ab578235825591602001919060010190612290565b5b5090506122b991906122bd565b5090565b5b808211156122d65760008160009055506001016122be565b5090565b60006122ed6122e884612b4b565b612b26565b90508281526020810184848401111561230557600080fd5b612310848285612d03565b509392505050565b60008135905061232781613031565b92915050565b60008083601f84011261233f57600080fd5b8235905067ffffffffffffffff81111561235857600080fd5b60208301915083602082028301111561237057600080fd5b9250929050565b60008135905061238681613048565b92915050565b60008135905061239b8161305f565b92915050565b6000815190506123b08161305f565b92915050565b600082601f8301126123c757600080fd5b81356123d78482602086016122da565b91505092915050565b60008083601f8401126123f257600080fd5b8235905067ffffffffffffffff81111561240b57600080fd5b60208301915083600182028301111561242357600080fd5b9250929050565b60008135905061243981613076565b92915050565b60006020828403121561245157600080fd5b600061245f84828501612318565b91505092915050565b6000806040838503121561247b57600080fd5b600061248985828601612318565b925050602061249a85828601612318565b9150509250929050565b6000806000606084860312156124b957600080fd5b60006124c786828701612318565b93505060206124d886828701612318565b92505060406124e98682870161242a565b9150509250925092565b6000806000806080858703121561250957600080fd5b600061251787828801612318565b945050602061252887828801612318565b93505060406125398782880161242a565b925050606085013567ffffffffffffffff81111561255657600080fd5b612562878288016123b6565b91505092959194509250565b6000806040838503121561258157600080fd5b600061258f85828601612318565b92505060206125a085828601612377565b9150509250929050565b600080604083850312156125bd57600080fd5b60006125cb85828601612318565b92505060206125dc8582860161242a565b9150509250929050565b600080602083850312156125f957600080fd5b600083013567ffffffffffffffff81111561261357600080fd5b61261f8582860161232d565b92509250509250929050565b60006020828403121561263d57600080fd5b600061264b84828501612377565b91505092915050565b60006020828403121561266657600080fd5b60006126748482850161238c565b91505092915050565b60006020828403121561268f57600080fd5b600061269d848285016123a1565b91505092915050565b6000602082840312156126b857600080fd5b60006126c68482850161242a565b91505092915050565b6000806000604084860312156126e457600080fd5b60006126f28682870161242a565b935050602084013567ffffffffffffffff81111561270f57600080fd5b61271b868287016123e0565b92509250509250925092565b61273081612c8f565b82525050565b61273f81612ca1565b82525050565b600061275082612b91565b61275a8185612ba7565b935061276a818560208601612d12565b61277381612ede565b840191505092915050565b600061278982612b9c565b6127938185612bb8565b93506127a3818560208601612d12565b6127ac81612ede565b840191505092915050565b60006127c282612b9c565b6127cc8185612bc9565b93506127dc818560208601612d12565b80840191505092915050565b600081546127f581612d45565b6127ff8186612bc9565b9450600182166000811461281a576001811461282b5761285e565b60ff1983168652818601935061285e565b61283485612b7c565b60005b8381101561285657815481890152600182019150602081019050612837565b838801955050505b50505092915050565b6000612874602683612bb8565b915061287f82612eef565b604082019050919050565b6000612897602083612bb8565b91506128a282612f3e565b602082019050919050565b60006128ba603083612bb8565b91506128c582612f67565b604082019050919050565b60006128dd602083612bb8565b91506128e882612fb6565b602082019050919050565b6000612900602083612bb8565b915061290b82612fdf565b602082019050919050565b6000612923602083612bb8565b915061292e82613008565b602082019050919050565b61294281612cf9565b82525050565b600061295482846127b7565b915081905092915050565b600061296b82866127b7565b915061297782856127b7565b915061298382846127b7565b9150819050949350505050565b600061299c82846127e8565b915081905092915050565b60006020820190506129bc6000830184612727565b92915050565b60006080820190506129d76000830187612727565b6129e46020830186612727565b6129f16040830185612939565b8181036060830152612a038184612745565b905095945050505050565b6000602082019050612a236000830184612736565b92915050565b60006020820190508181036000830152612a43818461277e565b905092915050565b60006020820190508181036000830152612a6481612867565b9050919050565b60006020820190508181036000830152612a848161288a565b9050919050565b60006020820190508181036000830152612aa4816128ad565b9050919050565b60006020820190508181036000830152612ac4816128d0565b9050919050565b60006020820190508181036000830152612ae4816128f3565b9050919050565b60006020820190508181036000830152612b0481612916565b9050919050565b6000602082019050612b206000830184612939565b92915050565b6000612b30612b41565b9050612b3c8282612d77565b919050565b6000604051905090565b600067ffffffffffffffff821115612b6657612b65612eaf565b5b612b6f82612ede565b9050602081019050919050565b60008190508160005260206000209050919050565b600081519050919050565b600081519050919050565b600082825260208201905092915050565b600082825260208201905092915050565b600081905092915050565b6000612bdf82612cf9565b9150612bea83612cf9565b9250827fffffffffffffffffffffffffffffffffffffffffffffffffffffffffffffffff03821115612c1f57612c1e612e22565b5b828201905092915050565b6000612c3582612cf9565b9150612c4083612cf9565b925082612c5057612c4f612e51565b5b828204905092915050565b6000612c6682612cf9565b9150612c7183612cf9565b925082821015612c8457612c83612e22565b5b828203905092915050565b6000612c9a82612cd9565b9050919050565b60008115159050919050565b60007fffffffff0000000000000000000000000000000000000000000000000000000082169050919050565b600073ffffffffffffffffffffffffffffffffffffffff82169050919050565b6000819050919050565b82818337600083830152505050565b60005b83811015612d30578082015181840152602081019050612d15565b83811115612d3f576000848401525b50505050565b60006002820490506001821680612d5d57607f821691505b60208210811415612d7157612d70612e80565b5b50919050565b612d8082612ede565b810181811067ffffffffffffffff82111715612d9f57612d9e612eaf565b5b80604052505050565b6000612db382612cf9565b91507fffffffffffffffffffffffffffffffffffffffffffffffffffffffffffffffff821415612de657612de5612e22565b5b600182019050919050565b6000612dfc82612cf9565b9150612e0783612cf9565b925082612e1757612e16612e51565b5b828206905092915050565b7f4e487b7100000000000000000000000000000000000000000000000000000000600052601160045260246000fd5b7f4e487b7100000000000000000000000000000000000000000000000000000000600052601260045260246000fd5b7f4e487b7100000000000000000000000000000000000000000000000000000000600052602260045260246000fd5b7f4e487b7100000000000000000000000000000000000000000000000000000000600052604160045260246000fd5b6000601f19601f8301169050919050565b7f4f776e61626c653a206e6577206f776e657220697320746865207a65726f206160008201527f6464726573730000000000000000000000000000000000000000000000000000602082015250565b7f746f6b656e4964206d757374206265206265747765656e203020616e64203230600082015250565b7f4552433732314d657461646174613a2055524920717565727920666f72206e6f60008201527f6e6578697374656e7420746f6b656e2000000000000000000000000000000000602082015250565b7f4f776e61626c653a2063616c6c6572206973206e6f7420746865206f776e6572600082015250565b7f756e6b6f776e2068617320616c7265616479206265656e2072657665616c6564600082015250565b7f43616e6e6f74206d696e74206d6f7265207468616e206d617820737570706c79600082015250565b61303a81612c8f565b811461304557600080fd5b50565b61305181612ca1565b811461305c57600080fd5b50565b61306881612cad565b811461307357600080fd5b50565b61307f81612cf9565b811461308a57600080fd5b5056fe697066733a2f2f516d57426a727834516e77774c577a7531476f73614c7731777633696b764335547137734a556371457a7233536f2f697066733a2f2f516d627839696f364c70706d70766176583345715a593869675178505a68376b6f557a57336d50524c6b4c5169722fa2646970667358221220401290ae7081c2a1d60dedd5328bfa7d765b09691c5c2e722941468cc8acfc5a64736f6c63430008040033",
  "linkReferences": {},
  "deployedLinkReferences": {}
}