{
  "_format": "hh-sol-artifact-1",
  "contractName": "NFT",
  "sourceName": "src/backend/contracts/NFT.sol",
  "abi": [
    {
      "inputs": [
        {
          "internalType": "address",
          "name": "teamAddress",
          "type": "address"
        },
        {
          "internalType": "address[]",
          "name": "_usersToWhitelist",
          "type": "address[]"
        }
      ],
      "stateMutability": "nonpayable",
      "type": "constructor"
    },
    {
      "inputs": [],
      "name": "ApprovalCallerNotOwnerNorApproved",
      "type": "error"
    },
    {
      "inputs": [],
      "name": "ApprovalQueryForNonexistentToken",
      "type": "error"
    },
    {
      "inputs": [],
      "name": "ApproveToCaller",
      "type": "error"
    },
    {
      "inputs": [],
      "name": "BalanceQueryForZeroAddress",
      "type": "error"
    },
    {
      "inputs": [],
      "name": "MintERC2309QuantityExceedsLimit",
      "type": "error"
    },
    {
      "inputs": [],
      "name": "MintToZeroAddress",
      "type": "error"
    },
    {
      "inputs": [],
      "name": "MintZeroQuantity",
      "type": "error"
    },
    {
      "inputs": [],
      "name": "OwnerQueryForNonexistentToken",
      "type": "error"
    },
    {
      "inputs": [],
      "name": "OwnershipNotInitializedForExtraData",
      "type": "error"
    },
    {
      "inputs": [],
      "name": "TransferCallerNotOwnerNorApproved",
      "type": "error"
    },
    {
      "inputs": [],
      "name": "TransferFromIncorrectOwner",
      "type": "error"
    },
    {
      "inputs": [],
      "name": "TransferToNonERC721ReceiverImplementer",
      "type": "error"
    },
    {
      "inputs": [],
      "name": "TransferToZeroAddress",
      "type": "error"
    },
    {
      "inputs": [],
      "name": "URIQueryForNonexistentToken",
      "type": "error"
    },
    {
      "anonymous": false,
      "inputs": [
        {
          "indexed": true,
          "internalType": "address",
          "name": "owner",
          "type": "address"
        },
        {
          "indexed": true,
          "internalType": "address",
          "name": "approved",
          "type": "address"
        },
        {
          "indexed": true,
          "internalType": "uint256",
          "name": "tokenId",
          "type": "uint256"
        }
      ],
      "name": "Approval",
      "type": "event"
    },
    {
      "anonymous": false,
      "inputs": [
        {
          "indexed": true,
          "internalType": "address",
          "name": "owner",
          "type": "address"
        },
        {
          "indexed": true,
          "internalType": "address",
          "name": "operator",
          "type": "address"
        },
        {
          "indexed": false,
          "internalType": "bool",
          "name": "approved",
          "type": "bool"
        }
      ],
      "name": "ApprovalForAll",
      "type": "event"
    },
    {
      "anonymous": false,
      "inputs": [
        {
          "indexed": true,
          "internalType": "uint256",
          "name": "fromTokenId",
          "type": "uint256"
        },
        {
          "indexed": false,
          "internalType": "uint256",
          "name": "toTokenId",
          "type": "uint256"
        },
        {
          "indexed": true,
          "internalType": "address",
          "name": "from",
          "type": "address"
        },
        {
          "indexed": true,
          "internalType": "address",
          "name": "to",
          "type": "address"
        }
      ],
      "name": "ConsecutiveTransfer",
      "type": "event"
    },
    {
      "anonymous": false,
      "inputs": [
        {
          "indexed": true,
          "internalType": "address",
          "name": "previousOwner",
          "type": "address"
        },
        {
          "indexed": true,
          "internalType": "address",
          "name": "newOwner",
          "type": "address"
        }
      ],
      "name": "OwnershipTransferred",
      "type": "event"
    },
    {
      "anonymous": false,
      "inputs": [
        {
          "indexed": true,
          "internalType": "address",
          "name": "from",
          "type": "address"
        },
        {
          "indexed": true,
          "internalType": "address",
          "name": "to",
          "type": "address"
        },
        {
          "indexed": true,
          "internalType": "uint256",
          "name": "tokenId",
          "type": "uint256"
        }
      ],
      "name": "Transfer",
      "type": "event"
    },
    {
      "inputs": [
        {
          "internalType": "address",
          "name": "to",
          "type": "address"
        },
        {
          "internalType": "uint256",
          "name": "tokenId",
          "type": "uint256"
        }
      ],
      "name": "approve",
      "outputs": [],
      "stateMutability": "nonpayable",
      "type": "function"
    },
    {
      "inputs": [
        {
          "internalType": "address",
          "name": "owner",
          "type": "address"
        }
      ],
      "name": "balanceOf",
      "outputs": [
        {
          "internalType": "uint256",
          "name": "",
          "type": "uint256"
        }
      ],
      "stateMutability": "view",
      "type": "function"
    },
    {
      "inputs": [],
      "name": "baseTokenURI",
      "outputs": [
        {
          "internalType": "string",
          "name": "",
          "type": "string"
        }
      ],
      "stateMutability": "pure",
      "type": "function"
    },
    {
      "inputs": [],
      "name": "contractURI",
      "outputs": [
        {
          "internalType": "string",
          "name": "",
          "type": "string"
        }
      ],
      "stateMutability": "pure",
      "type": "function"
    },
    {
      "inputs": [
        {
          "internalType": "uint256",
          "name": "tokenId",
          "type": "uint256"
        }
      ],
      "name": "getApproved",
      "outputs": [
        {
          "internalType": "address",
          "name": "",
          "type": "address"
        }
      ],
      "stateMutability": "view",
      "type": "function"
    },
    {
      "inputs": [
        {
          "internalType": "address",
          "name": "owner",
          "type": "address"
        },
        {
          "internalType": "address",
          "name": "operator",
          "type": "address"
        }
      ],
      "name": "isApprovedForAll",
      "outputs": [
        {
          "internalType": "bool",
          "name": "",
          "type": "bool"
        }
      ],
      "stateMutability": "view",
      "type": "function"
    },
    {
      "inputs": [
        {
          "internalType": "address",
          "name": "_user",
          "type": "address"
        }
      ],
      "name": "isWhitelisted",
      "outputs": [
        {
          "internalType": "bool",
          "name": "",
          "type": "bool"
        }
      ],
      "stateMutability": "view",
      "type": "function"
    },
    {
      "inputs": [],
      "name": "max_supply",
      "outputs": [
        {
          "internalType": "uint256",
          "name": "",
          "type": "uint256"
        }
      ],
      "stateMutability": "view",
      "type": "function"
    },
    {
      "inputs": [
        {
          "internalType": "uint256",
          "name": "quantity",
          "type": "uint256"
        }
      ],
      "name": "mint",
      "outputs": [],
      "stateMutability": "payable",
      "type": "function"
    },
    {
      "inputs": [],
      "name": "name",
      "outputs": [
        {
          "internalType": "string",
          "name": "",
          "type": "string"
        }
      ],
      "stateMutability": "view",
      "type": "function"
    },
    {
      "inputs": [],
      "name": "owner",
      "outputs": [
        {
          "internalType": "address",
          "name": "",
          "type": "address"
        }
      ],
      "stateMutability": "view",
      "type": "function"
    },
    {
      "inputs": [
        {
          "internalType": "uint256",
          "name": "tokenId",
          "type": "uint256"
        }
      ],
      "name": "ownerOf",
      "outputs": [
        {
          "internalType": "address",
          "name": "",
          "type": "address"
        }
      ],
      "stateMutability": "view",
      "type": "function"
    },
    {
      "inputs": [],
      "name": "renounceOwnership",
      "outputs": [],
      "stateMutability": "nonpayable",
      "type": "function"
    },
    {
      "inputs": [],
      "name": "revealCollection",
      "outputs": [],
      "stateMutability": "nonpayable",
      "type": "function"
    },
    {
      "inputs": [
        {
          "internalType": "uint256",
          "name": "_tokenId",
          "type": "uint256"
        },
        {
          "internalType": "string",
          "name": "tokenUri",
          "type": "string"
        }
      ],
      "name": "revealUnkown",
      "outputs": [],
      "stateMutability": "nonpayable",
      "type": "function"
    },
    {
      "inputs": [
        {
          "internalType": "address",
          "name": "from",
          "type": "address"
        },
        {
          "internalType": "address",
          "name": "to",
          "type": "address"
        },
        {
          "internalType": "uint256",
          "name": "tokenId",
          "type": "uint256"
        }
      ],
      "name": "safeTransferFrom",
      "outputs": [],
      "stateMutability": "nonpayable",
      "type": "function"
    },
    {
      "inputs": [
        {
          "internalType": "address",
          "name": "from",
          "type": "address"
        },
        {
          "internalType": "address",
          "name": "to",
          "type": "address"
        },
        {
          "internalType": "uint256",
          "name": "tokenId",
          "type": "uint256"
        },
        {
          "internalType": "bytes",
          "name": "_data",
          "type": "bytes"
        }
      ],
      "name": "safeTransferFrom",
      "outputs": [],
      "stateMutability": "nonpayable",
      "type": "function"
    },
    {
      "inputs": [
        {
          "internalType": "address",
          "name": "operator",
          "type": "address"
        },
        {
          "internalType": "bool",
          "name": "approved",
          "type": "bool"
        }
      ],
      "name": "setApprovalForAll",
      "outputs": [],
      "stateMutability": "nonpayable",
      "type": "function"
    },
    {
      "inputs": [
        {
          "internalType": "bool",
          "name": "_state",
          "type": "bool"
        }
      ],
      "name": "setWhitelistEnabled",
      "outputs": [],
      "stateMutability": "nonpayable",
      "type": "function"
    },
    {
      "inputs": [
        {
          "internalType": "bytes4",
          "name": "interfaceId",
          "type": "bytes4"
        }
      ],
      "name": "supportsInterface",
      "outputs": [
        {
          "internalType": "bool",
          "name": "",
          "type": "bool"
        }
      ],
      "stateMutability": "view",
      "type": "function"
    },
    {
      "inputs": [],
      "name": "symbol",
      "outputs": [
        {
          "internalType": "string",
          "name": "",
          "type": "string"
        }
      ],
      "stateMutability": "view",
      "type": "function"
    },
    {
      "inputs": [
        {
          "internalType": "uint256",
          "name": "_tokenId",
          "type": "uint256"
        }
      ],
      "name": "tokenURI",
      "outputs": [
        {
          "internalType": "string",
          "name": "",
          "type": "string"
        }
      ],
      "stateMutability": "view",
      "type": "function"
    },
    {
      "inputs": [],
      "name": "totalSupply",
      "outputs": [
        {
          "internalType": "uint256",
          "name": "",
          "type": "uint256"
        }
      ],
      "stateMutability": "view",
      "type": "function"
    },
    {
      "inputs": [
        {
          "internalType": "address",
          "name": "from",
          "type": "address"
        },
        {
          "internalType": "address",
          "name": "to",
          "type": "address"
        },
        {
          "internalType": "uint256",
          "name": "tokenId",
          "type": "uint256"
        }
      ],
      "name": "transferFrom",
      "outputs": [],
      "stateMutability": "nonpayable",
      "type": "function"
    },
    {
      "inputs": [
        {
          "internalType": "address",
          "name": "newOwner",
          "type": "address"
        }
      ],
      "name": "transferOwnership",
      "outputs": [],
      "stateMutability": "nonpayable",
      "type": "function"
    },
    {
      "inputs": [],
      "name": "uriPrefix",
      "outputs": [
        {
          "internalType": "string",
          "name": "",
          "type": "string"
        }
      ],
      "stateMutability": "view",
      "type": "function"
    },
    {
      "inputs": [],
      "name": "uriSuffix",
      "outputs": [
        {
          "internalType": "string",
          "name": "",
          "type": "string"
        }
      ],
      "stateMutability": "view",
      "type": "function"
    },
    {
      "inputs": [],
      "name": "whitelistEnabled",
      "outputs": [
        {
          "internalType": "bool",
          "name": "",
          "type": "bool"
        }
      ],
      "stateMutability": "view",
      "type": "function"
    },
    {
      "inputs": [
        {
          "internalType": "address[]",
          "name": "_users",
          "type": "address[]"
        }
      ],
      "name": "whitelistUsers",
      "outputs": [],
      "stateMutability": "nonpayable",
      "type": "function"
    },
    {
      "inputs": [
        {
          "internalType": "uint256",
          "name": "",
          "type": "uint256"
        }
      ],
      "name": "whitelistedAddresses",
      "outputs": [
        {
          "internalType": "address",
          "name": "",
          "type": "address"
        }
      ],
      "stateMutability": "view",
      "type": "function"
    }
  ],
  "bytecode": "0x608060405260405180602001604052806000815250600990805190602001906200002b92919062000618565b506040518060400160405280600581526020017f2e6a736f6e000000000000000000000000000000000000000000000000000000815250600a90805190602001906200007992919062000618565b5061270f600b556001600c60006101000a81548160ff0219169083151502179055506000600e60006101000a81548160ff02191690831515021790555060405180606001604052806035815260200162003d7060359139600f9080519060200190620000e792919062000618565b5060405180602001604052806000815250601090805190602001906200010f92919062000618565b503480156200011d57600080fd5b5060405162003da538038062003da58339818101604052810190620001439190620008cb565b6040518060400160405280600a81526020017f47656c61746f204e4654000000000000000000000000000000000000000000008152506040518060400160405280600381526020017f474c4e00000000000000000000000000000000000000000000000000000000008152508160029080519060200190620001c792919062000618565b508060039080519060200190620001e092919062000618565b50620001f1620002dc60201b60201c565b6000819055505050620002196200020d620002e160201b60201c565b620002e960201b60201c565b600d6000620002299190620006a9565b80600d908051906020019062000241929190620006cc565b50620002568261014d620003af60201b60201c565b60005b6014811015620002d357601060118260148110620002a0577f4e487b7100000000000000000000000000000000000000000000000000000000600052603260045260246000fd5b01908054620002af90620009bb565b620002bc9291906200075b565b508080620002ca9062000a27565b91505062000259565b50505062000b2d565b600090565b600033905090565b6000600860009054906101000a900473ffffffffffffffffffffffffffffffffffffffff16905081600860006101000a81548173ffffffffffffffffffffffffffffffffffffffff021916908373ffffffffffffffffffffffffffffffffffffffff1602179055508173ffffffffffffffffffffffffffffffffffffffff168173ffffffffffffffffffffffffffffffffffffffff167f8be0079c531659141344cd1fd0a4f28419497f9722a3daafe3b4186f6b6457e060405160405180910390a35050565b6000805490506000821415620003f1576040517fb562e8dd00000000000000000000000000000000000000000000000000000000815260040160405180910390fd5b6200040660008483856200059860201b60201c565b600160406001901b178202600560008573ffffffffffffffffffffffffffffffffffffffff1673ffffffffffffffffffffffffffffffffffffffff1681526020019081526020016000206000828254019250508190555062000495836200047760008660006200059e60201b60201c565b6200048885620005ce60201b60201c565b17620005de60201b60201c565b6004600083815260200190815260200160002081905550600080838301905073ffffffffffffffffffffffffffffffffffffffff85169150828260007fddf252ad1be2c89b69c2b068fc378daa952ba7f163c4a11628f55a4df523b3ef600080a4600183015b8181146200053857808360007fddf252ad1be2c89b69c2b068fc378daa952ba7f163c4a11628f55a4df523b3ef600080a4600181019050620004fb565b50600082141562000575576040517f2e07630000000000000000000000000000000000000000000000000000000000815260040160405180910390fd5b8060008190555050506200059360008483856200060960201b60201c565b505050565b50505050565b60008060e883901c905060e8620005bd8686846200060f60201b60201c565b62ffffff16901b9150509392505050565b60006001821460e11b9050919050565b600073ffffffffffffffffffffffffffffffffffffffff83169250814260a01b178317905092915050565b50505050565b60009392505050565b8280546200062690620009bb565b90600052602060002090601f0160209004810192826200064a576000855562000696565b82601f106200066557805160ff191683800117855562000696565b8280016001018555821562000696579182015b828111156200069557825182559160200191906001019062000678565b5b509050620006a59190620007f3565b5090565b5080546000825590600052602060002090810190620006c99190620007f3565b50565b82805482825590600052602060002090810192821562000748579160200282015b82811115620007475782518260006101000a81548173ffffffffffffffffffffffffffffffffffffffff021916908373ffffffffffffffffffffffffffffffffffffffff16021790555091602001919060010190620006ed565b5b509050620007579190620007f3565b5090565b8280546200076990620009bb565b90600052602060002090601f0160209004810192826200078d5760008555620007e0565b82601f10620007a05780548555620007e0565b82800160010185558215620007e057600052602060002091601f016020900482015b82811115620007df578254825591600101919060010190620007c2565b5b509050620007ef9190620007f3565b5090565b5b808211156200080e576000816000905550600101620007f4565b5090565b60006200082962000823846200094e565b62000925565b905080838252602082019050828560208602820111156200084957600080fd5b60005b858110156200087d578162000862888262000887565b8452602084019350602083019250506001810190506200084c565b5050509392505050565b600081519050620008988162000b13565b92915050565b600082601f830112620008b057600080fd5b8151620008c284826020860162000812565b91505092915050565b60008060408385031215620008df57600080fd5b6000620008ef8582860162000887565b925050602083015167ffffffffffffffff8111156200090d57600080fd5b6200091b858286016200089e565b9150509250929050565b60006200093162000944565b90506200093f8282620009f1565b919050565b6000604051905090565b600067ffffffffffffffff8211156200096c576200096b62000ad3565b5b602082029050602081019050919050565b60006200098a8262000991565b9050919050565b600073ffffffffffffffffffffffffffffffffffffffff82169050919050565b6000819050919050565b60006002820490506001821680620009d457607f821691505b60208210811415620009eb57620009ea62000aa4565b5b50919050565b620009fc8262000b02565b810181811067ffffffffffffffff8211171562000a1e5762000a1d62000ad3565b5b80604052505050565b600062000a3482620009b1565b91507fffffffffffffffffffffffffffffffffffffffffffffffffffffffffffffffff82141562000a6a5762000a6962000a75565b5b600182019050919050565b7f4e487b7100000000000000000000000000000000000000000000000000000000600052601160045260246000fd5b7f4e487b7100000000000000000000000000000000000000000000000000000000600052602260045260246000fd5b7f4e487b7100000000000000000000000000000000000000000000000000000000600052604160045260246000fd5b6000601f19601f8301169050919050565b62000b1e816200097d565b811462000b2a57600080fd5b50565b6132338062000b3d6000396000f3fe6080604052600436106101cd5760003560e01c8063715018a6116100f7578063ba4e5c4911610095578063e985e9c511610064578063e985e9c51461066b578063edec5f27146106a8578063f2fde38b146106d1578063fb268517146106fa576101cd565b8063ba4e5c491461059b578063c87b56dd146105d8578063d547cfb714610615578063e8a3d48514610640576101cd565b806395d89b41116100d157806395d89b4114610502578063a0712d681461052d578063a22cb46514610549578063b88d4fde14610572576101cd565b8063715018a6146104955780638a333b50146104ac5780638da5cb5b146104d7576101cd565b80633af32abf1161016f5780635503a0e81161013e5780635503a0e8146103c557806362b99ad4146103f05780636352211e1461041b57806370a0823114610458576101cd565b80633af32abf1461031d57806340d0b4a91461035a57806342842e0e1461037157806351fb012d1461039a576101cd565b8063081812fc116101ab578063081812fc14610263578063095ea7b3146102a057806318160ddd146102c957806323b872dd146102f4576101cd565b806301ffc9a7146101d2578063052d9e7e1461020f57806306fdde0314610238575b600080fd5b3480156101de57600080fd5b506101f960048036038101906101f491906127ae565b610723565b6040516102069190612b2a565b60405180910390f35b34801561021b57600080fd5b5061023660048036038101906102319190612785565b6107b5565b005b34801561024457600080fd5b5061024d61084e565b60405161025a9190612b45565b60405180910390f35b34801561026f57600080fd5b5061028a60048036038101906102859190612800565b6108e0565b6040516102979190612ac3565b60405180910390f35b3480156102ac57600080fd5b506102c760048036038101906102c29190612704565b61095f565b005b3480156102d557600080fd5b506102de610aa3565b6040516102eb9190612c07565b60405180910390f35b34801561030057600080fd5b5061031b600480360381019061031691906125fe565b610aba565b005b34801561032957600080fd5b50610344600480360381019061033f9190612599565b610ddf565b6040516103519190612b2a565b60405180910390f35b34801561036657600080fd5b5061036f610eb4565b005b34801561037d57600080fd5b50610398600480360381019061039391906125fe565b610ed1565b005b3480156103a657600080fd5b506103af610ef1565b6040516103bc9190612b2a565b60405180910390f35b3480156103d157600080fd5b506103da610f04565b6040516103e79190612b45565b60405180910390f35b3480156103fc57600080fd5b50610405610f92565b6040516104129190612b45565b60405180910390f35b34801561042757600080fd5b50610442600480360381019061043d9190612800565b611020565b60405161044f9190612ac3565b60405180910390f35b34801561046457600080fd5b5061047f600480360381019061047a9190612599565b611032565b60405161048c9190612c07565b60405180910390f35b3480156104a157600080fd5b506104aa6110eb565b005b3480156104b857600080fd5b506104c1611173565b6040516104ce9190612c07565b60405180910390f35b3480156104e357600080fd5b506104ec611179565b6040516104f99190612ac3565b60405180910390f35b34801561050e57600080fd5b506105176111a3565b6040516105249190612b45565b60405180910390f35b61054760048036038101906105429190612800565b611235565b005b34801561055557600080fd5b50610570600480360381019061056b91906126c8565b611242565b005b34801561057e57600080fd5b506105996004803603810190610594919061264d565b6113ba565b005b3480156105a757600080fd5b506105c260048036038101906105bd9190612800565b61142d565b6040516105cf9190612ac3565b60405180910390f35b3480156105e457600080fd5b506105ff60048036038101906105fa9190612800565b61146c565b60405161060c9190612b45565b60405180910390f35b34801561062157600080fd5b5061062a611699565b6040516106379190612b45565b60405180910390f35b34801561064c57600080fd5b506106556116a8565b6040516106629190612b45565b60405180910390f35b34801561067757600080fd5b50610692600480360381019061068d91906125c2565b6116c8565b60405161069f9190612b2a565b60405180910390f35b3480156106b457600080fd5b506106cf60048036038101906106ca9190612740565b61175c565b005b3480156106dd57600080fd5b506106f860048036038101906106f39190612599565b6117fc565b005b34801561070657600080fd5b50610721600480360381019061071c9190612829565b6118f4565b005b60006301ffc9a760e01b827bffffffffffffffffffffffffffffffffffffffffffffffffffffffff1916148061077e57506380ac58cd60e01b827bffffffffffffffffffffffffffffffffffffffffffffffffffffffff1916145b806107ae5750635b5e139f60e01b827bffffffffffffffffffffffffffffffffffffffffffffffffffffffff1916145b9050919050565b6107bd611add565b73ffffffffffffffffffffffffffffffffffffffff166107db611179565b73ffffffffffffffffffffffffffffffffffffffff1614610831576040517f08c379a000000000000000000000000000000000000000000000000000000000815260040161082890612ba7565b60405180910390fd5b80600c60006101000a81548160ff02191690831515021790555050565b60606002805461085d90612e72565b80601f016020809104026020016040519081016040528092919081815260200182805461088990612e72565b80156108d65780601f106108ab576101008083540402835291602001916108d6565b820191906000526020600020905b8154815290600101906020018083116108b957829003601f168201915b5050505050905090565b60006108eb82611ae5565b610921576040517fcf4700e400000000000000000000000000000000000000000000000000000000815260040160405180910390fd5b6006600083815260200190815260200160002060000160009054906101000a900473ffffffffffffffffffffffffffffffffffffffff169050919050565b600061096a82611020565b90508073ffffffffffffffffffffffffffffffffffffffff1661098b611b44565b73ffffffffffffffffffffffffffffffffffffffff16146109ee576109b7816109b2611b44565b6116c8565b6109ed576040517fcfb3b94200000000000000000000000000000000000000000000000000000000815260040160405180910390fd5b5b826006600084815260200190815260200160002060000160006101000a81548173ffffffffffffffffffffffffffffffffffffffff021916908373ffffffffffffffffffffffffffffffffffffffff160217905550818373ffffffffffffffffffffffffffffffffffffffff168273ffffffffffffffffffffffffffffffffffffffff167f8c5be1e5ebec7d5bd14f71427d1e84f3dd0314c0f7b2291e5b200ac8c7c3b92560405160405180910390a4505050565b6000610aad611b4c565b6001546000540303905090565b6000610ac582611b51565b90508373ffffffffffffffffffffffffffffffffffffffff168173ffffffffffffffffffffffffffffffffffffffff1614610b2c576040517fa114810000000000000000000000000000000000000000000000000000000000815260040160405180910390fd5b600080610b3884611c1f565b91509150610b4e8187610b49611b44565b611c46565b610b9a57610b6386610b5e611b44565b6116c8565b610b99576040517f59c896be00000000000000000000000000000000000000000000000000000000815260040160405180910390fd5b5b600073ffffffffffffffffffffffffffffffffffffffff168573ffffffffffffffffffffffffffffffffffffffff161415610c01576040517fea553b3400000000000000000000000000000000000000000000000000000000815260040160405180910390fd5b610c0e8686866001611c8a565b8015610c1957600082555b600560008773ffffffffffffffffffffffffffffffffffffffff1673ffffffffffffffffffffffffffffffffffffffff168152602001908152602001600020600081546001900391905081905550600560008673ffffffffffffffffffffffffffffffffffffffff1673ffffffffffffffffffffffffffffffffffffffff1681526020019081526020016000206000815460010191905081905550610ce785610cc3888887611c90565b7c020000000000000000000000000000000000000000000000000000000017611cb8565b600460008681526020019081526020016000208190555060007c020000000000000000000000000000000000000000000000000000000084161415610d6f576000600185019050600060046000838152602001908152602001600020541415610d6d576000548114610d6c578360046000838152602001908152602001600020819055505b5b505b838573ffffffffffffffffffffffffffffffffffffffff168773ffffffffffffffffffffffffffffffffffffffff167fddf252ad1be2c89b69c2b068fc378daa952ba7f163c4a11628f55a4df523b3ef60405160405180910390a4610dd78686866001611ce3565b505050505050565b600080600090505b600d80549050811015610ea9578273ffffffffffffffffffffffffffffffffffffffff16600d8281548110610e45577f4e487b7100000000000000000000000000000000000000000000000000000000600052603260045260246000fd5b9060005260206000200160009054906101000a900473ffffffffffffffffffffffffffffffffffffffff1673ffffffffffffffffffffffffffffffffffffffff161415610e96576001915050610eaf565b8080610ea190612ed5565b915050610de7565b50600090505b919050565b6001600e60006101000a81548160ff021916908315150217905550565b610eec838383604051806020016040528060008152506113ba565b505050565b600c60009054906101000a900460ff1681565b600a8054610f1190612e72565b80601f0160208091040260200160405190810160405280929190818152602001828054610f3d90612e72565b8015610f8a5780601f10610f5f57610100808354040283529160200191610f8a565b820191906000526020600020905b815481529060010190602001808311610f6d57829003601f168201915b505050505081565b60098054610f9f90612e72565b80601f0160208091040260200160405190810160405280929190818152602001828054610fcb90612e72565b80156110185780601f10610fed57610100808354040283529160200191611018565b820191906000526020600020905b815481529060010190602001808311610ffb57829003601f168201915b505050505081565b600061102b82611b51565b9050919050565b60008073ffffffffffffffffffffffffffffffffffffffff168273ffffffffffffffffffffffffffffffffffffffff16141561109a576040517f8f4eb60400000000000000000000000000000000000000000000000000000000815260040160405180910390fd5b67ffffffffffffffff600560008473ffffffffffffffffffffffffffffffffffffffff1673ffffffffffffffffffffffffffffffffffffffff16815260200190815260200160002054169050919050565b6110f3611add565b73ffffffffffffffffffffffffffffffffffffffff16611111611179565b73ffffffffffffffffffffffffffffffffffffffff1614611167576040517f08c379a000000000000000000000000000000000000000000000000000000000815260040161115e90612ba7565b60405180910390fd5b6111716000611ce9565b565b600b5481565b6000600860009054906101000a900473ffffffffffffffffffffffffffffffffffffffff16905090565b6060600380546111b290612e72565b80601f01602080910402602001604051908101604052809291908181526020018280546111de90612e72565b801561122b5780601f106112005761010080835404028352916020019161122b565b820191906000526020600020905b81548152906001019060200180831161120e57829003601f168201915b5050505050905090565b61123f3382611daf565b50565b61124a611b44565b73ffffffffffffffffffffffffffffffffffffffff168273ffffffffffffffffffffffffffffffffffffffff1614156112af576040517fb06307db00000000000000000000000000000000000000000000000000000000815260040160405180910390fd5b80600760006112bc611b44565b73ffffffffffffffffffffffffffffffffffffffff1673ffffffffffffffffffffffffffffffffffffffff16815260200190815260200160002060008473ffffffffffffffffffffffffffffffffffffffff1673ffffffffffffffffffffffffffffffffffffffff16815260200190815260200160002060006101000a81548160ff0219169083151502179055508173ffffffffffffffffffffffffffffffffffffffff16611369611b44565b73ffffffffffffffffffffffffffffffffffffffff167f17307eab39ab6107e8899845ad3d59bd9653f200f220920489ca2b5937696c31836040516113ae9190612b2a565b60405180910390a35050565b6113c5848484610aba565b60008373ffffffffffffffffffffffffffffffffffffffff163b14611427576113f084848484611f6c565b611426576040517fd1a57ed600000000000000000000000000000000000000000000000000000000815260040160405180910390fd5b5b50505050565b600d818154811061143d57600080fd5b906000526020600020016000915054906101000a900473ffffffffffffffffffffffffffffffffffffffff1681565b606061147782611ae5565b6114b6576040517f08c379a00000000000000000000000000000000000000000000000000000000081526004016114ad90612bc7565b60405180910390fd5b60001515600e60009054906101000a900460ff161515141561156457600f80546114df90612e72565b80601f016020809104026020016040519081016040528092919081815260200182805461150b90612e72565b80156115585780601f1061152d57610100808354040283529160200191611558565b820191906000526020600020905b81548152906001019060200180831161153b57829003601f168201915b50505050509050611694565b601482101561163857601182601481106115a7577f4e487b7100000000000000000000000000000000000000000000000000000000600052603260045260246000fd5b0180546115b390612e72565b80601f01602080910402602001604051908101604052809291908181526020018280546115df90612e72565b801561162c5780601f106116015761010080835404028352916020019161162c565b820191906000526020600020905b81548152906001019060200180831161160f57829003601f168201915b50505050509050611694565b60006116426120cc565b905060008151116116625760405180602001604052806000815250611690565b8061166c846120ec565b600a60405160200161168093929190612a7b565b6040516020818303038152906040525b9150505b919050565b60606116a36120cc565b905090565b60606040518060600160405280603681526020016131c860369139905090565b6000600760008473ffffffffffffffffffffffffffffffffffffffff1673ffffffffffffffffffffffffffffffffffffffff16815260200190815260200160002060008373ffffffffffffffffffffffffffffffffffffffff1673ffffffffffffffffffffffffffffffffffffffff16815260200190815260200160002060009054906101000a900460ff16905092915050565b611764611add565b73ffffffffffffffffffffffffffffffffffffffff16611782611179565b73ffffffffffffffffffffffffffffffffffffffff16146117d8576040517f08c379a00000000000000000000000000000000000000000000000000000000081526004016117cf90612ba7565b60405180910390fd5b600d60006117e691906122b2565b8181600d91906117f79291906122d3565b505050565b611804611add565b73ffffffffffffffffffffffffffffffffffffffff16611822611179565b73ffffffffffffffffffffffffffffffffffffffff1614611878576040517f08c379a000000000000000000000000000000000000000000000000000000000815260040161186f90612ba7565b60405180910390fd5b600073ffffffffffffffffffffffffffffffffffffffff168173ffffffffffffffffffffffffffffffffffffffff1614156118e8576040517f08c379a00000000000000000000000000000000000000000000000000000000081526004016118df90612b67565b60405180910390fd5b6118f181611ce9565b50565b6118fc611add565b73ffffffffffffffffffffffffffffffffffffffff1661191a611179565b73ffffffffffffffffffffffffffffffffffffffff1614611970576040517f08c379a000000000000000000000000000000000000000000000000000000000815260040161196790612ba7565b60405180910390fd5b600082101580156119815750601482105b6119c0576040517f08c379a00000000000000000000000000000000000000000000000000000000081526004016119b790612b87565b60405180910390fd5b60106040516020016119d29190612aac565b6040516020818303038152906040528051906020012060118360148110611a22577f4e487b7100000000000000000000000000000000000000000000000000000000600052603260045260246000fd5b01604051602001611a339190612aac565b6040516020818303038152906040528051906020012014611a89576040517f08c379a0000000000000000000000000000000000000000000000000000000008152600401611a8090612be7565b60405180910390fd5b8060118360148110611ac4577f4e487b7100000000000000000000000000000000000000000000000000000000600052603260045260246000fd5b019080519060200190611ad8929190612373565b505050565b600033905090565b600081611af0611b4c565b11158015611aff575060005482105b8015611b3d575060007c0100000000000000000000000000000000000000000000000000000000600460008581526020019081526020016000205416145b9050919050565b600033905090565b600090565b60008082905080611b60611b4c565b11611be857600054811015611be75760006004600083815260200190815260200160002054905060007c010000000000000000000000000000000000000000000000000000000082161415611be5575b6000811415611bdb576004600083600190039350838152602001908152602001600020549050611bb0565b8092505050611c1a565b505b5b6040517fdf2d9b4200000000000000000000000000000000000000000000000000000000815260040160405180910390fd5b919050565b60008060006006600085815260200190815260200160002090508092508254915050915091565b600073ffffffffffffffffffffffffffffffffffffffff8316925073ffffffffffffffffffffffffffffffffffffffff821691508382148383141790509392505050565b50505050565b60008060e883901c905060e8611ca7868684612299565b62ffffff16901b9150509392505050565b600073ffffffffffffffffffffffffffffffffffffffff83169250814260a01b178317905092915050565b50505050565b6000600860009054906101000a900473ffffffffffffffffffffffffffffffffffffffff16905081600860006101000a81548173ffffffffffffffffffffffffffffffffffffffff021916908373ffffffffffffffffffffffffffffffffffffffff1602179055508173ffffffffffffffffffffffffffffffffffffffff168173ffffffffffffffffffffffffffffffffffffffff167f8be0079c531659141344cd1fd0a4f28419497f9722a3daafe3b4186f6b6457e060405160405180910390a35050565b6000805490506000821415611df0576040517fb562e8dd00000000000000000000000000000000000000000000000000000000815260040160405180910390fd5b611dfd6000848385611c8a565b600160406001901b178202600560008573ffffffffffffffffffffffffffffffffffffffff1673ffffffffffffffffffffffffffffffffffffffff16815260200190815260200160002060008282540192505081905550611e7483611e656000866000611c90565b611e6e856122a2565b17611cb8565b6004600083815260200190815260200160002081905550600080838301905073ffffffffffffffffffffffffffffffffffffffff85169150828260007fddf252ad1be2c89b69c2b068fc378daa952ba7f163c4a11628f55a4df523b3ef600080a4600183015b818114611f1557808360007fddf252ad1be2c89b69c2b068fc378daa952ba7f163c4a11628f55a4df523b3ef600080a4600181019050611eda565b506000821415611f51576040517f2e07630000000000000000000000000000000000000000000000000000000000815260040160405180910390fd5b806000819055505050611f676000848385611ce3565b505050565b60008373ffffffffffffffffffffffffffffffffffffffff1663150b7a02611f92611b44565b8786866040518563ffffffff1660e01b8152600401611fb49493929190612ade565b602060405180830381600087803b158015611fce57600080fd5b505af1925050508015611fff57506040513d601f19601f82011682018060405250810190611ffc91906127d7565b60015b612079573d806000811461202f576040519150601f19603f3d011682016040523d82523d6000602084013e612034565b606091505b50600081511415612071576040517fd1a57ed600000000000000000000000000000000000000000000000000000000815260040160405180910390fd5b805181602001fd5b63150b7a0260e01b7bffffffffffffffffffffffffffffffffffffffffffffffffffffffff1916817bffffffffffffffffffffffffffffffffffffffffffffffffffffffff191614915050949350505050565b606060405180606001604052806036815260200161319260369139905090565b60606000821415612134576040518060400160405280600181526020017f30000000000000000000000000000000000000000000000000000000000000008152509050612294565b600082905060005b6000821461216657808061214f90612ed5565b915050600a8261215f9190612d57565b915061213c565b60008167ffffffffffffffff8111156121a8577f4e487b7100000000000000000000000000000000000000000000000000000000600052604160045260246000fd5b6040519080825280601f01601f1916602001820160405280156121da5781602001600182028036833780820191505090505b5090505b6000851461228d576001826121f39190612d88565b9150600a856122029190612f1e565b603061220e9190612d01565b60f81b81838151811061224a577f4e487b7100000000000000000000000000000000000000000000000000000000600052603260045260246000fd5b60200101907effffffffffffffffffffffffffffffffffffffffffffffffffffffffffffff1916908160001a905350600a856122869190612d57565b94506121de565b8093505050505b919050565b60009392505050565b60006001821460e11b9050919050565b50805460008255906000526020600020908101906122d091906123f9565b50565b828054828255906000526020600020908101928215612362579160200282015b8281111561236157823573ffffffffffffffffffffffffffffffffffffffff168260006101000a81548173ffffffffffffffffffffffffffffffffffffffff021916908373ffffffffffffffffffffffffffffffffffffffff160217905550916020019190600101906122f3565b5b50905061236f91906123f9565b5090565b82805461237f90612e72565b90600052602060002090601f0160209004810192826123a157600085556123e8565b82601f106123ba57805160ff19168380011785556123e8565b828001600101855582156123e8579182015b828111156123e75782518255916020019190600101906123cc565b5b5090506123f591906123f9565b5090565b5b808211156124125760008160009055506001016123fa565b5090565b600061242961242484612c47565b612c22565b90508281526020810184848401111561244157600080fd5b61244c848285612e30565b509392505050565b600061246761246284612c78565b612c22565b90508281526020810184848401111561247f57600080fd5b61248a848285612e30565b509392505050565b6000813590506124a181613135565b92915050565b60008083601f8401126124b957600080fd5b8235905067ffffffffffffffff8111156124d257600080fd5b6020830191508360208202830111156124ea57600080fd5b9250929050565b6000813590506125008161314c565b92915050565b60008135905061251581613163565b92915050565b60008151905061252a81613163565b92915050565b600082601f83011261254157600080fd5b8135612551848260208601612416565b91505092915050565b600082601f83011261256b57600080fd5b813561257b848260208601612454565b91505092915050565b6000813590506125938161317a565b92915050565b6000602082840312156125ab57600080fd5b60006125b984828501612492565b91505092915050565b600080604083850312156125d557600080fd5b60006125e385828601612492565b92505060206125f485828601612492565b9150509250929050565b60008060006060848603121561261357600080fd5b600061262186828701612492565b935050602061263286828701612492565b925050604061264386828701612584565b9150509250925092565b6000806000806080858703121561266357600080fd5b600061267187828801612492565b945050602061268287828801612492565b935050604061269387828801612584565b925050606085013567ffffffffffffffff8111156126b057600080fd5b6126bc87828801612530565b91505092959194509250565b600080604083850312156126db57600080fd5b60006126e985828601612492565b92505060206126fa858286016124f1565b9150509250929050565b6000806040838503121561271757600080fd5b600061272585828601612492565b925050602061273685828601612584565b9150509250929050565b6000806020838503121561275357600080fd5b600083013567ffffffffffffffff81111561276d57600080fd5b612779858286016124a7565b92509250509250929050565b60006020828403121561279757600080fd5b60006127a5848285016124f1565b91505092915050565b6000602082840312156127c057600080fd5b60006127ce84828501612506565b91505092915050565b6000602082840312156127e957600080fd5b60006127f78482850161251b565b91505092915050565b60006020828403121561281257600080fd5b600061282084828501612584565b91505092915050565b6000806040838503121561283c57600080fd5b600061284a85828601612584565b925050602083013567ffffffffffffffff81111561286757600080fd5b6128738582860161255a565b9150509250929050565b61288681612dbc565b82525050565b61289581612dce565b82525050565b60006128a682612cbe565b6128b08185612cd4565b93506128c0818560208601612e3f565b6128c98161300b565b840191505092915050565b60006128df82612cc9565b6128e98185612ce5565b93506128f9818560208601612e3f565b6129028161300b565b840191505092915050565b600061291882612cc9565b6129228185612cf6565b9350612932818560208601612e3f565b80840191505092915050565b6000815461294b81612e72565b6129558186612cf6565b945060018216600081146129705760018114612981576129b4565b60ff198316865281860193506129b4565b61298a85612ca9565b60005b838110156129ac5781548189015260018201915060208101905061298d565b838801955050505b50505092915050565b60006129ca602683612ce5565b91506129d58261301c565b604082019050919050565b60006129ed602083612ce5565b91506129f88261306b565b602082019050919050565b6000612a10602083612ce5565b9150612a1b82613094565b602082019050919050565b6000612a33602f83612ce5565b9150612a3e826130bd565b604082019050919050565b6000612a56602083612ce5565b9150612a618261310c565b602082019050919050565b612a7581612e26565b82525050565b6000612a87828661290d565b9150612a93828561290d565b9150612a9f828461293e565b9150819050949350505050565b6000612ab8828461293e565b915081905092915050565b6000602082019050612ad8600083018461287d565b92915050565b6000608082019050612af3600083018761287d565b612b00602083018661287d565b612b0d6040830185612a6c565b8181036060830152612b1f818461289b565b905095945050505050565b6000602082019050612b3f600083018461288c565b92915050565b60006020820190508181036000830152612b5f81846128d4565b905092915050565b60006020820190508181036000830152612b80816129bd565b9050919050565b60006020820190508181036000830152612ba0816129e0565b9050919050565b60006020820190508181036000830152612bc081612a03565b9050919050565b60006020820190508181036000830152612be081612a26565b9050919050565b60006020820190508181036000830152612c0081612a49565b9050919050565b6000602082019050612c1c6000830184612a6c565b92915050565b6000612c2c612c3d565b9050612c388282612ea4565b919050565b6000604051905090565b600067ffffffffffffffff821115612c6257612c61612fdc565b5b612c6b8261300b565b9050602081019050919050565b600067ffffffffffffffff821115612c9357612c92612fdc565b5b612c9c8261300b565b9050602081019050919050565b60008190508160005260206000209050919050565b600081519050919050565b600081519050919050565b600082825260208201905092915050565b600082825260208201905092915050565b600081905092915050565b6000612d0c82612e26565b9150612d1783612e26565b9250827fffffffffffffffffffffffffffffffffffffffffffffffffffffffffffffffff03821115612d4c57612d4b612f4f565b5b828201905092915050565b6000612d6282612e26565b9150612d6d83612e26565b925082612d7d57612d7c612f7e565b5b828204905092915050565b6000612d9382612e26565b9150612d9e83612e26565b925082821015612db157612db0612f4f565b5b828203905092915050565b6000612dc782612e06565b9050919050565b60008115159050919050565b60007fffffffff0000000000000000000000000000000000000000000000000000000082169050919050565b600073ffffffffffffffffffffffffffffffffffffffff82169050919050565b6000819050919050565b82818337600083830152505050565b60005b83811015612e5d578082015181840152602081019050612e42565b83811115612e6c576000848401525b50505050565b60006002820490506001821680612e8a57607f821691505b60208210811415612e9e57612e9d612fad565b5b50919050565b612ead8261300b565b810181811067ffffffffffffffff82111715612ecc57612ecb612fdc565b5b80604052505050565b6000612ee082612e26565b91507fffffffffffffffffffffffffffffffffffffffffffffffffffffffffffffffff821415612f1357612f12612f4f565b5b600182019050919050565b6000612f2982612e26565b9150612f3483612e26565b925082612f4457612f43612f7e565b5b828206905092915050565b7f4e487b7100000000000000000000000000000000000000000000000000000000600052601160045260246000fd5b7f4e487b7100000000000000000000000000000000000000000000000000000000600052601260045260246000fd5b7f4e487b7100000000000000000000000000000000000000000000000000000000600052602260045260246000fd5b7f4e487b7100000000000000000000000000000000000000000000000000000000600052604160045260246000fd5b6000601f19601f8301169050919050565b7f4f776e61626c653a206e6577206f776e657220697320746865207a65726f206160008201527f6464726573730000000000000000000000000000000000000000000000000000602082015250565b7f746f6b656e4964206d757374206265206265747765656e203020616e64203230600082015250565b7f4f776e61626c653a2063616c6c6572206973206e6f7420746865206f776e6572600082015250565b7f4552433732314d657461646174613a2055524920717565727920666f72206e6f60008201527f6e6578697374656e7420746f6b656e0000000000000000000000000000000000602082015250565b7f756e6b6f776e2068617320616c7265616479206265656e2072657665616c6564600082015250565b61313e81612dbc565b811461314957600080fd5b50565b61315581612dce565b811461316057600080fd5b50565b61316c81612dda565b811461317757600080fd5b50565b61318381612e26565b811461318e57600080fd5b5056fe697066733a2f2f516d4e6d424856484d4874386b765432567450446a5a36736a476a796a4a354c4273723144686e4c767a545a73732f697066733a2f2f516d54413431637867693632696b3836673365316d387362677650757337534c5a776f4e6a4672434455477678712fa2646970667358221220eb7b0a5e67c26d8d16fd7264f3ff45857f8270aca58d731ede590e9693a9e05764736f6c63430008040033697066733a2f2f516d5466713552577058336b3664716275326e474e633533335956314e6872423933696d52683157446e55685742",
  "linkReferences": {},
  "deployedLinkReferences": {}
}