{
  "_format": "hh-sol-artifact-1",
  "contractName": "NFT",
  "sourceName": "src/backend/contracts/NFT.sol",
  "abi": [
    {
      "inputs": [
        {
          "internalType": "address",
          "name": "teamAddress",
          "type": "address"
        },
        {
          "internalType": "bytes32",
          "name": "_whitelistRoot",
          "type": "bytes32"
        }
      ],
      "stateMutability": "nonpayable",
      "type": "constructor"
    },
    {
      "inputs": [],
      "name": "ApprovalCallerNotOwnerNorApproved",
      "type": "error"
    },
    {
      "inputs": [],
      "name": "ApprovalQueryForNonexistentToken",
      "type": "error"
    },
    {
      "inputs": [],
      "name": "ApproveToCaller",
      "type": "error"
    },
    {
      "inputs": [],
      "name": "BalanceQueryForZeroAddress",
      "type": "error"
    },
    {
      "inputs": [],
      "name": "MintERC2309QuantityExceedsLimit",
      "type": "error"
    },
    {
      "inputs": [],
      "name": "MintToZeroAddress",
      "type": "error"
    },
    {
      "inputs": [],
      "name": "MintZeroQuantity",
      "type": "error"
    },
    {
      "inputs": [
        {
          "internalType": "address",
          "name": "operator",
          "type": "address"
        }
      ],
      "name": "OperatorNotAllowed",
      "type": "error"
    },
    {
      "inputs": [],
      "name": "OwnerQueryForNonexistentToken",
      "type": "error"
    },
    {
      "inputs": [],
      "name": "OwnershipNotInitializedForExtraData",
      "type": "error"
    },
    {
      "inputs": [],
      "name": "TransferCallerNotOwnerNorApproved",
      "type": "error"
    },
    {
      "inputs": [],
      "name": "TransferFromIncorrectOwner",
      "type": "error"
    },
    {
      "inputs": [],
      "name": "TransferToNonERC721ReceiverImplementer",
      "type": "error"
    },
    {
      "inputs": [],
      "name": "TransferToZeroAddress",
      "type": "error"
    },
    {
      "inputs": [],
      "name": "URIQueryForNonexistentToken",
      "type": "error"
    },
    {
      "anonymous": false,
      "inputs": [
        {
          "indexed": true,
          "internalType": "address",
          "name": "owner",
          "type": "address"
        },
        {
          "indexed": true,
          "internalType": "address",
          "name": "approved",
          "type": "address"
        },
        {
          "indexed": true,
          "internalType": "uint256",
          "name": "tokenId",
          "type": "uint256"
        }
      ],
      "name": "Approval",
      "type": "event"
    },
    {
      "anonymous": false,
      "inputs": [
        {
          "indexed": true,
          "internalType": "address",
          "name": "owner",
          "type": "address"
        },
        {
          "indexed": true,
          "internalType": "address",
          "name": "operator",
          "type": "address"
        },
        {
          "indexed": false,
          "internalType": "bool",
          "name": "approved",
          "type": "bool"
        }
      ],
      "name": "ApprovalForAll",
      "type": "event"
    },
    {
      "anonymous": false,
      "inputs": [
        {
          "indexed": true,
          "internalType": "uint256",
          "name": "fromTokenId",
          "type": "uint256"
        },
        {
          "indexed": false,
          "internalType": "uint256",
          "name": "toTokenId",
          "type": "uint256"
        },
        {
          "indexed": true,
          "internalType": "address",
          "name": "from",
          "type": "address"
        },
        {
          "indexed": true,
          "internalType": "address",
          "name": "to",
          "type": "address"
        }
      ],
      "name": "ConsecutiveTransfer",
      "type": "event"
    },
    {
      "anonymous": false,
      "inputs": [
        {
          "indexed": false,
          "internalType": "address",
          "name": "user",
          "type": "address"
        }
      ],
      "name": "MintSuccessful",
      "type": "event"
    },
    {
      "anonymous": false,
      "inputs": [
        {
          "indexed": true,
          "internalType": "address",
          "name": "previousOwner",
          "type": "address"
        },
        {
          "indexed": true,
          "internalType": "address",
          "name": "newOwner",
          "type": "address"
        }
      ],
      "name": "OwnershipTransferred",
      "type": "event"
    },
    {
      "anonymous": false,
      "inputs": [
        {
          "indexed": true,
          "internalType": "address",
          "name": "from",
          "type": "address"
        },
        {
          "indexed": true,
          "internalType": "address",
          "name": "to",
          "type": "address"
        },
        {
          "indexed": true,
          "internalType": "uint256",
          "name": "tokenId",
          "type": "uint256"
        }
      ],
      "name": "Transfer",
      "type": "event"
    },
    {
      "inputs": [],
      "name": "amountMintPerAccount",
      "outputs": [
        {
          "internalType": "uint256",
          "name": "",
          "type": "uint256"
        }
      ],
      "stateMutability": "view",
      "type": "function"
    },
    {
      "inputs": [
        {
          "internalType": "address",
          "name": "to",
          "type": "address"
        },
        {
          "internalType": "uint256",
          "name": "tokenId",
          "type": "uint256"
        }
      ],
      "name": "approve",
      "outputs": [],
      "stateMutability": "nonpayable",
      "type": "function"
    },
    {
      "inputs": [
        {
          "internalType": "address",
          "name": "owner",
          "type": "address"
        }
      ],
      "name": "balanceOf",
      "outputs": [
        {
          "internalType": "uint256",
          "name": "",
          "type": "uint256"
        }
      ],
      "stateMutability": "view",
      "type": "function"
    },
    {
      "inputs": [],
      "name": "baseTokenURI",
      "outputs": [
        {
          "internalType": "string",
          "name": "",
          "type": "string"
        }
      ],
      "stateMutability": "pure",
      "type": "function"
    },
    {
      "inputs": [],
      "name": "contractURI",
      "outputs": [
        {
          "internalType": "string",
          "name": "",
          "type": "string"
        }
      ],
      "stateMutability": "pure",
      "type": "function"
    },
    {
      "inputs": [
        {
          "internalType": "uint256",
          "name": "tokenId",
          "type": "uint256"
        }
      ],
      "name": "getApproved",
      "outputs": [
        {
          "internalType": "address",
          "name": "",
          "type": "address"
        }
      ],
      "stateMutability": "view",
      "type": "function"
    },
    {
      "inputs": [],
      "name": "getPrice",
      "outputs": [
        {
          "internalType": "uint256",
          "name": "",
          "type": "uint256"
        }
      ],
      "stateMutability": "view",
      "type": "function"
    },
    {
      "inputs": [
        {
          "internalType": "address",
          "name": "owner",
          "type": "address"
        },
        {
          "internalType": "address",
          "name": "operator",
          "type": "address"
        }
      ],
      "name": "isApprovedForAll",
      "outputs": [
        {
          "internalType": "bool",
          "name": "",
          "type": "bool"
        }
      ],
      "stateMutability": "view",
      "type": "function"
    },
    {
      "inputs": [
        {
          "internalType": "uint256",
          "name": "_tokenId",
          "type": "uint256"
        }
      ],
      "name": "isUnkownRevealed",
      "outputs": [
        {
          "internalType": "bool",
          "name": "",
          "type": "bool"
        }
      ],
      "stateMutability": "view",
      "type": "function"
    },
    {
      "inputs": [
        {
          "internalType": "bytes32[]",
          "name": "_proof",
          "type": "bytes32[]"
        },
        {
          "internalType": "bytes32",
          "name": "_leaf",
          "type": "bytes32"
        }
      ],
      "name": "isValid",
      "outputs": [
        {
          "internalType": "bool",
          "name": "",
          "type": "bool"
        }
      ],
      "stateMutability": "view",
      "type": "function"
    },
    {
      "inputs": [],
      "name": "max_supply",
      "outputs": [
        {
          "internalType": "uint256",
          "name": "",
          "type": "uint256"
        }
      ],
      "stateMutability": "view",
      "type": "function"
    },
    {
      "inputs": [
        {
          "internalType": "uint256",
          "name": "quantity",
          "type": "uint256"
        },
        {
          "internalType": "bytes32[]",
          "name": "_proof",
          "type": "bytes32[]"
        }
      ],
      "name": "mint",
      "outputs": [],
      "stateMutability": "payable",
      "type": "function"
    },
    {
      "inputs": [],
      "name": "name",
      "outputs": [
        {
          "internalType": "string",
          "name": "",
          "type": "string"
        }
      ],
      "stateMutability": "view",
      "type": "function"
    },
    {
      "inputs": [],
      "name": "owner",
      "outputs": [
        {
          "internalType": "address",
          "name": "",
          "type": "address"
        }
      ],
      "stateMutability": "view",
      "type": "function"
    },
    {
      "inputs": [
        {
          "internalType": "uint256",
          "name": "tokenId",
          "type": "uint256"
        }
      ],
      "name": "ownerOf",
      "outputs": [
        {
          "internalType": "address",
          "name": "",
          "type": "address"
        }
      ],
      "stateMutability": "view",
      "type": "function"
    },
    {
      "inputs": [],
      "name": "price",
      "outputs": [
        {
          "internalType": "uint256",
          "name": "",
          "type": "uint256"
        }
      ],
      "stateMutability": "view",
      "type": "function"
    },
    {
      "inputs": [],
      "name": "publicSaleEnabled",
      "outputs": [
        {
          "internalType": "bool",
          "name": "",
          "type": "bool"
        }
      ],
      "stateMutability": "view",
      "type": "function"
    },
    {
      "inputs": [],
      "name": "renounceOwnership",
      "outputs": [],
      "stateMutability": "nonpayable",
      "type": "function"
    },
    {
      "inputs": [
        {
          "internalType": "uint256",
          "name": "_tokenId",
          "type": "uint256"
        },
        {
          "internalType": "string",
          "name": "tokenUri",
          "type": "string"
        }
      ],
      "name": "revealUnkown",
      "outputs": [],
      "stateMutability": "nonpayable",
      "type": "function"
    },
    {
      "inputs": [
        {
          "internalType": "address",
          "name": "from",
          "type": "address"
        },
        {
          "internalType": "address",
          "name": "to",
          "type": "address"
        },
        {
          "internalType": "uint256",
          "name": "tokenId",
          "type": "uint256"
        }
      ],
      "name": "safeTransferFrom",
      "outputs": [],
      "stateMutability": "nonpayable",
      "type": "function"
    },
    {
      "inputs": [
        {
          "internalType": "address",
          "name": "from",
          "type": "address"
        },
        {
          "internalType": "address",
          "name": "to",
          "type": "address"
        },
        {
          "internalType": "uint256",
          "name": "tokenId",
          "type": "uint256"
        },
        {
          "internalType": "bytes",
          "name": "data",
          "type": "bytes"
        }
      ],
      "name": "safeTransferFrom",
      "outputs": [],
      "stateMutability": "nonpayable",
      "type": "function"
    },
    {
      "inputs": [
        {
          "internalType": "uint256",
          "name": "_amountMintPerAccount",
          "type": "uint256"
        }
      ],
      "name": "setAmountMintPerAccount",
      "outputs": [],
      "stateMutability": "nonpayable",
      "type": "function"
    },
    {
      "inputs": [
        {
          "internalType": "address",
          "name": "operator",
          "type": "address"
        },
        {
          "internalType": "bool",
          "name": "approved",
          "type": "bool"
        }
      ],
      "name": "setApprovalForAll",
      "outputs": [],
      "stateMutability": "nonpayable",
      "type": "function"
    },
    {
      "inputs": [
        {
          "internalType": "uint256",
          "name": "_price",
          "type": "uint256"
        }
      ],
      "name": "setPrice",
      "outputs": [],
      "stateMutability": "nonpayable",
      "type": "function"
    },
    {
      "inputs": [
        {
          "internalType": "bool",
          "name": "_state",
          "type": "bool"
        }
      ],
      "name": "setPublicSaleEnabled",
      "outputs": [],
      "stateMutability": "nonpayable",
      "type": "function"
    },
    {
      "inputs": [
        {
          "internalType": "bytes32",
          "name": "_whitelistRoot",
          "type": "bytes32"
        }
      ],
      "name": "setWhitelistRoot",
      "outputs": [],
      "stateMutability": "nonpayable",
      "type": "function"
    },
    {
      "inputs": [
        {
          "internalType": "bytes4",
          "name": "interfaceId",
          "type": "bytes4"
        }
      ],
      "name": "supportsInterface",
      "outputs": [
        {
          "internalType": "bool",
          "name": "",
          "type": "bool"
        }
      ],
      "stateMutability": "view",
      "type": "function"
    },
    {
      "inputs": [],
      "name": "symbol",
      "outputs": [
        {
          "internalType": "string",
          "name": "",
          "type": "string"
        }
      ],
      "stateMutability": "view",
      "type": "function"
    },
    {
      "inputs": [
        {
          "internalType": "uint256",
          "name": "_tokenId",
          "type": "uint256"
        }
      ],
      "name": "tokenURI",
      "outputs": [
        {
          "internalType": "string",
          "name": "",
          "type": "string"
        }
      ],
      "stateMutability": "view",
      "type": "function"
    },
    {
      "inputs": [],
      "name": "totalSupply",
      "outputs": [
        {
          "internalType": "uint256",
          "name": "",
          "type": "uint256"
        }
      ],
      "stateMutability": "view",
      "type": "function"
    },
    {
      "inputs": [
        {
          "internalType": "address",
          "name": "from",
          "type": "address"
        },
        {
          "internalType": "address",
          "name": "to",
          "type": "address"
        },
        {
          "internalType": "uint256",
          "name": "tokenId",
          "type": "uint256"
        }
      ],
      "name": "transferFrom",
      "outputs": [],
      "stateMutability": "nonpayable",
      "type": "function"
    },
    {
      "inputs": [
        {
          "internalType": "address",
          "name": "newOwner",
          "type": "address"
        }
      ],
      "name": "transferOwnership",
      "outputs": [],
      "stateMutability": "nonpayable",
      "type": "function"
    },
    {
      "inputs": [],
      "name": "uriSuffix",
      "outputs": [
        {
          "internalType": "string",
          "name": "",
          "type": "string"
        }
      ],
      "stateMutability": "view",
      "type": "function"
    },
    {
      "inputs": [],
      "name": "whitelistRoot",
      "outputs": [
        {
          "internalType": "bytes32",
          "name": "",
          "type": "bytes32"
        }
      ],
      "stateMutability": "view",
      "type": "function"
    },
    {
      "inputs": [],
      "name": "withdraw",
      "outputs": [],
      "stateMutability": "nonpayable",
      "type": "function"
    }
  ],
  "bytecode": "0x60a06040526126d5608090815250600a6009553480156200001f57600080fd5b50604051620044f8380380620044f8833981810160405281019062000045919062000870565b733cc6cdda760b79bafa08df41ecfa224f810dceb660016040518060400160405280601381526020017f47656c61746f76657273652047656e65736973000000000000000000000000008152506040518060400160405280600281526020017f47470000000000000000000000000000000000000000000000000000000000008152508160029080519060200190620000e09291906200071b565b508060039080519060200190620000f99291906200071b565b506200010a620003e160201b60201c565b60008190555050506200013262000126620003e660201b60201c565b620003ee60201b60201c565b60006daaeb6d7670e522a718067333cd4e73ffffffffffffffffffffffffffffffffffffffff163b111562000327578015620001ed576daaeb6d7670e522a718067333cd4e73ffffffffffffffffffffffffffffffffffffffff16637d3e3dbe30846040518363ffffffff1660e01b8152600401620001b3929190620008c8565b600060405180830381600087803b158015620001ce57600080fd5b505af1158015620001e3573d6000803e3d6000fd5b5050505062000326565b600073ffffffffffffffffffffffffffffffffffffffff168273ffffffffffffffffffffffffffffffffffffffff1614620002a7576daaeb6d7670e522a718067333cd4e73ffffffffffffffffffffffffffffffffffffffff1663a0af290330846040518363ffffffff1660e01b81526004016200026d929190620008c8565b600060405180830381600087803b1580156200028857600080fd5b505af11580156200029d573d6000803e3d6000fd5b5050505062000325565b6daaeb6d7670e522a718067333cd4e73ffffffffffffffffffffffffffffffffffffffff16634420e486306040518263ffffffff1660e01b8152600401620002f09190620008f5565b600060405180830381600087803b1580156200030b57600080fd5b505af115801562000320573d6000803e3d6000fd5b505050505b5b5b505080600a81905550620003448261014d620004b460201b60201c565b60006014905060005b81811015620003c6576040518060400160405280601081526020017f4e6f742072657665616c65642079657400000000000000000000000000000000815250600c8260148110620003a357620003a262000912565b5b019080519060200190620003b99291906200071b565b508060010190506200034d565b50620003d883620003ee60201b60201c565b505050620009a5565b600090565b600033905090565b6000600860009054906101000a900473ffffffffffffffffffffffffffffffffffffffff16905081600860006101000a81548173ffffffffffffffffffffffffffffffffffffffff021916908373ffffffffffffffffffffffffffffffffffffffff1602179055508173ffffffffffffffffffffffffffffffffffffffff168173ffffffffffffffffffffffffffffffffffffffff167f8be0079c531659141344cd1fd0a4f28419497f9722a3daafe3b4186f6b6457e060405160405180910390a35050565b60008054905060008203620004f5576040517fb562e8dd00000000000000000000000000000000000000000000000000000000815260040160405180910390fd5b6200050a60008483856200069b60201b60201c565b600160406001901b178202600560008573ffffffffffffffffffffffffffffffffffffffff1673ffffffffffffffffffffffffffffffffffffffff1681526020019081526020016000206000828254019250508190555062000599836200057b6000866000620006a160201b60201c565b6200058c85620006d160201b60201c565b17620006e160201b60201c565b6004600083815260200190815260200160002081905550600080838301905073ffffffffffffffffffffffffffffffffffffffff85169150828260007fddf252ad1be2c89b69c2b068fc378daa952ba7f163c4a11628f55a4df523b3ef600080a4600183015b8181146200063c57808360007fddf252ad1be2c89b69c2b068fc378daa952ba7f163c4a11628f55a4df523b3ef600080a4600181019050620005ff565b506000820362000678576040517f2e07630000000000000000000000000000000000000000000000000000000000815260040160405180910390fd5b8060008190555050506200069660008483856200070c60201b60201c565b505050565b50505050565b60008060e883901c905060e8620006c08686846200071260201b60201c565b62ffffff16901b9150509392505050565b60006001821460e11b9050919050565b600073ffffffffffffffffffffffffffffffffffffffff83169250814260a01b178317905092915050565b50505050565b60009392505050565b828054620007299062000970565b90600052602060002090601f0160209004810192826200074d576000855562000799565b82601f106200076857805160ff191683800117855562000799565b8280016001018555821562000799579182015b82811115620007985782518255916020019190600101906200077b565b5b509050620007a89190620007ac565b5090565b5b80821115620007c7576000816000905550600101620007ad565b5090565b600080fd5b600073ffffffffffffffffffffffffffffffffffffffff82169050919050565b6000620007fd82620007d0565b9050919050565b6200080f81620007f0565b81146200081b57600080fd5b50565b6000815190506200082f8162000804565b92915050565b6000819050919050565b6200084a8162000835565b81146200085657600080fd5b50565b6000815190506200086a816200083f565b92915050565b600080604083850312156200088a5762000889620007cb565b5b60006200089a858286016200081e565b9250506020620008ad8582860162000859565b9150509250929050565b620008c281620007f0565b82525050565b6000604082019050620008df6000830185620008b7565b620008ee6020830184620008b7565b9392505050565b60006020820190506200090c6000830184620008b7565b92915050565b7f4e487b7100000000000000000000000000000000000000000000000000000000600052603260045260246000fd5b7f4e487b7100000000000000000000000000000000000000000000000000000000600052602260045260246000fd5b600060028204905060018216806200098957607f821691505b6020821081036200099f576200099e62000941565b5b50919050565b608051613b30620009c86000396000818161114b01526115c60152613b306000f3fe6080604052600436106102045760003560e01c80638a333b5011610118578063b8a20ed0116100a0578063e8a3d4851161006f578063e8a3d4851461074a578063e985e9c514610775578063f2fde38b146107b2578063f5aa406d146107db578063fb2685171461080457610204565b8063b8a20ed014610689578063ba41b0c6146106c6578063c87b56dd146106e2578063d547cfb71461071f57610204565b806398d5fdca116100e757806398d5fdca146105b6578063a035b1fe146105e1578063a22cb4651461060c578063a827b5ff14610635578063b88d4fde1461066057610204565b80638a333b501461050c5780638da5cb5b1461053757806391b7f5ed1461056257806395d89b411461058b57610204565b8063386bfc981161019b5780635cd8f9a11161016a5780635cd8f9a1146104155780636352211e1461045257806370a082311461048f578063715018a6146104cc5780638720fbef146104e357610204565b8063386bfc981461037f5780633ccfd60b146103aa57806342842e0e146103c15780635503a0e8146103ea57610204565b806311296660116101d757806311296660146102d757806318160ddd1461030057806323b872dd1461032b5780632ab91bba1461035457610204565b806301ffc9a71461020957806306fdde0314610246578063081812fc14610271578063095ea7b3146102ae575b600080fd5b34801561021557600080fd5b50610230600480360381019061022b9190612973565b61082d565b60405161023d91906129bb565b60405180910390f35b34801561025257600080fd5b5061025b6108bf565b6040516102689190612a6f565b60405180910390f35b34801561027d57600080fd5b5061029860048036038101906102939190612ac7565b610951565b6040516102a59190612b35565b60405180910390f35b3480156102ba57600080fd5b506102d560048036038101906102d09190612b7c565b6109d0565b005b3480156102e357600080fd5b506102fe60048036038101906102f99190612ac7565b610b14565b005b34801561030c57600080fd5b50610315610b26565b6040516103229190612bcb565b60405180910390f35b34801561033757600080fd5b50610352600480360381019061034d9190612be6565b610b3d565b005b34801561036057600080fd5b50610369610d1f565b60405161037691906129bb565b60405180910390f35b34801561038b57600080fd5b50610394610d32565b6040516103a19190612c52565b60405180910390f35b3480156103b657600080fd5b506103bf610d38565b005b3480156103cd57600080fd5b506103e860048036038101906103e39190612be6565b610d89565b005b3480156103f657600080fd5b506103ff610f6b565b60405161040c9190612a6f565b60405180910390f35b34801561042157600080fd5b5061043c60048036038101906104379190612ac7565b610fa4565b60405161044991906129bb565b60405180910390f35b34801561045e57600080fd5b5061047960048036038101906104749190612ac7565b611046565b6040516104869190612b35565b60405180910390f35b34801561049b57600080fd5b506104b660048036038101906104b19190612c6d565b611058565b6040516104c39190612bcb565b60405180910390f35b3480156104d857600080fd5b506104e1611110565b005b3480156104ef57600080fd5b5061050a60048036038101906105059190612cc6565b611124565b005b34801561051857600080fd5b50610521611149565b60405161052e9190612bcb565b60405180910390f35b34801561054357600080fd5b5061054c61116d565b6040516105599190612b35565b60405180910390f35b34801561056e57600080fd5b5061058960048036038101906105849190612ac7565b611197565b005b34801561059757600080fd5b506105a06111a9565b6040516105ad9190612a6f565b60405180910390f35b3480156105c257600080fd5b506105cb61123b565b6040516105d89190612bcb565b60405180910390f35b3480156105ed57600080fd5b506105f6611245565b6040516106039190612bcb565b60405180910390f35b34801561061857600080fd5b50610633600480360381019061062e9190612cf3565b61124b565b005b34801561064157600080fd5b5061064a6113c2565b6040516106579190612bcb565b60405180910390f35b34801561066c57600080fd5b5061068760048036038101906106829190612e68565b6113c8565b005b34801561069557600080fd5b506106b060048036038101906106ab9190612fdf565b6115ad565b6040516106bd91906129bb565b60405180910390f35b6106e060048036038101906106db919061303b565b6115c4565b005b3480156106ee57600080fd5b5061070960048036038101906107049190612ac7565b611799565b6040516107169190612a6f565b60405180910390f35b34801561072b57600080fd5b50610734611937565b6040516107419190612a6f565b60405180910390f35b34801561075657600080fd5b5061075f611946565b60405161076c9190612a6f565b60405180910390f35b34801561078157600080fd5b5061079c60048036038101906107979190613097565b611966565b6040516107a991906129bb565b60405180910390f35b3480156107be57600080fd5b506107d960048036038101906107d49190612c6d565b6119fa565b005b3480156107e757600080fd5b5061080260048036038101906107fd91906130d7565b611a7d565b005b34801561081057600080fd5b5061082b6004803603810190610826919061315f565b611a8f565b005b60006301ffc9a760e01b827bffffffffffffffffffffffffffffffffffffffffffffffffffffffff1916148061088857506380ac58cd60e01b827bffffffffffffffffffffffffffffffffffffffffffffffffffffffff1916145b806108b85750635b5e139f60e01b827bffffffffffffffffffffffffffffffffffffffffffffffffffffffff1916145b9050919050565b6060600280546108ce906131ee565b80601f01602080910402602001604051908101604052809291908181526020018280546108fa906131ee565b80156109475780601f1061091c57610100808354040283529160200191610947565b820191906000526020600020905b81548152906001019060200180831161092a57829003601f168201915b5050505050905090565b600061095c82611b4d565b610992576040517fcf4700e400000000000000000000000000000000000000000000000000000000815260040160405180910390fd5b6006600083815260200190815260200160002060000160009054906101000a900473ffffffffffffffffffffffffffffffffffffffff169050919050565b60006109db82611046565b90508073ffffffffffffffffffffffffffffffffffffffff166109fc611bac565b73ffffffffffffffffffffffffffffffffffffffff1614610a5f57610a2881610a23611bac565b611966565b610a5e576040517fcfb3b94200000000000000000000000000000000000000000000000000000000815260040160405180910390fd5b5b826006600084815260200190815260200160002060000160006101000a81548173ffffffffffffffffffffffffffffffffffffffff021916908373ffffffffffffffffffffffffffffffffffffffff160217905550818373ffffffffffffffffffffffffffffffffffffffff168273ffffffffffffffffffffffffffffffffffffffff167f8c5be1e5ebec7d5bd14f71427d1e84f3dd0314c0f7b2291e5b200ac8c7c3b92560405160405180910390a4505050565b610b1c611bb4565b8060098190555050565b6000610b30611c32565b6001546000540303905090565b8260006daaeb6d7670e522a718067333cd4e73ffffffffffffffffffffffffffffffffffffffff163b1115610d0d573373ffffffffffffffffffffffffffffffffffffffff168173ffffffffffffffffffffffffffffffffffffffff1603610baf57610baa848484611c37565b610d19565b6daaeb6d7670e522a718067333cd4e73ffffffffffffffffffffffffffffffffffffffff1663c617113430336040518363ffffffff1660e01b8152600401610bf892919061321f565b602060405180830381865afa158015610c15573d6000803e3d6000fd5b505050506040513d601f19601f82011682018060405250810190610c39919061325d565b8015610ccb57506daaeb6d7670e522a718067333cd4e73ffffffffffffffffffffffffffffffffffffffff1663c617113430836040518363ffffffff1660e01b8152600401610c8992919061321f565b602060405180830381865afa158015610ca6573d6000803e3d6000fd5b505050506040513d601f19601f82011682018060405250810190610cca919061325d565b5b610d0c57336040517fede71dcc000000000000000000000000000000000000000000000000000000008152600401610d039190612b35565b60405180910390fd5b5b610d18848484611c37565b5b50505050565b600b60009054906101000a900460ff1681565b600a5481565b610d40611bb4565b3373ffffffffffffffffffffffffffffffffffffffff166108fc479081150290604051600060405180830381858888f19350505050158015610d86573d6000803e3d6000fd5b50565b8260006daaeb6d7670e522a718067333cd4e73ffffffffffffffffffffffffffffffffffffffff163b1115610f59573373ffffffffffffffffffffffffffffffffffffffff168173ffffffffffffffffffffffffffffffffffffffff1603610dfb57610df6848484611f59565b610f65565b6daaeb6d7670e522a718067333cd4e73ffffffffffffffffffffffffffffffffffffffff1663c617113430336040518363ffffffff1660e01b8152600401610e4492919061321f565b602060405180830381865afa158015610e61573d6000803e3d6000fd5b505050506040513d601f19601f82011682018060405250810190610e85919061325d565b8015610f1757506daaeb6d7670e522a718067333cd4e73ffffffffffffffffffffffffffffffffffffffff1663c617113430836040518363ffffffff1660e01b8152600401610ed592919061321f565b602060405180830381865afa158015610ef2573d6000803e3d6000fd5b505050506040513d601f19601f82011682018060405250810190610f16919061325d565b5b610f5857336040517fede71dcc000000000000000000000000000000000000000000000000000000008152600401610f4f9190612b35565b60405180910390fd5b5b610f64848484611f59565b5b50505050565b6040518060400160405280600581526020017f2e6a736f6e00000000000000000000000000000000000000000000000000000081525081565b60006040518060400160405280601081526020017f4e6f742072657665616c65642079657400000000000000000000000000000000815250604051602001610fec91906132c6565b60405160208183030381529060405280519060200120600c8360148110611016576110156132dd565b5b0160405160200161102791906133a0565b6040516020818303038152906040528051906020012014159050919050565b600061105182611f79565b9050919050565b60008073ffffffffffffffffffffffffffffffffffffffff168273ffffffffffffffffffffffffffffffffffffffff16036110bf576040517f8f4eb60400000000000000000000000000000000000000000000000000000000815260040160405180910390fd5b67ffffffffffffffff600560008473ffffffffffffffffffffffffffffffffffffffff1673ffffffffffffffffffffffffffffffffffffffff16815260200190815260200160002054169050919050565b611118611bb4565b6111226000612045565b565b61112c611bb4565b80600b60006101000a81548160ff02191690831515021790555050565b7f000000000000000000000000000000000000000000000000000000000000000081565b6000600860009054906101000a900473ffffffffffffffffffffffffffffffffffffffff16905090565b61119f611bb4565b8060208190555050565b6060600380546111b8906131ee565b80601f01602080910402602001604051908101604052809291908181526020018280546111e4906131ee565b80156112315780601f1061120657610100808354040283529160200191611231565b820191906000526020600020905b81548152906001019060200180831161121457829003601f168201915b5050505050905090565b6000602054905090565b60205481565b611253611bac565b73ffffffffffffffffffffffffffffffffffffffff168273ffffffffffffffffffffffffffffffffffffffff16036112b7576040517fb06307db00000000000000000000000000000000000000000000000000000000815260040160405180910390fd5b80600760006112c4611bac565b73ffffffffffffffffffffffffffffffffffffffff1673ffffffffffffffffffffffffffffffffffffffff16815260200190815260200160002060008473ffffffffffffffffffffffffffffffffffffffff1673ffffffffffffffffffffffffffffffffffffffff16815260200190815260200160002060006101000a81548160ff0219169083151502179055508173ffffffffffffffffffffffffffffffffffffffff16611371611bac565b73ffffffffffffffffffffffffffffffffffffffff167f17307eab39ab6107e8899845ad3d59bd9653f200f220920489ca2b5937696c31836040516113b691906129bb565b60405180910390a35050565b60095481565b8360006daaeb6d7670e522a718067333cd4e73ffffffffffffffffffffffffffffffffffffffff163b1115611599573373ffffffffffffffffffffffffffffffffffffffff168173ffffffffffffffffffffffffffffffffffffffff160361143b576114368585858561210b565b6115a6565b6daaeb6d7670e522a718067333cd4e73ffffffffffffffffffffffffffffffffffffffff1663c617113430336040518363ffffffff1660e01b815260040161148492919061321f565b602060405180830381865afa1580156114a1573d6000803e3d6000fd5b505050506040513d601f19601f820116820180604052508101906114c5919061325d565b801561155757506daaeb6d7670e522a718067333cd4e73ffffffffffffffffffffffffffffffffffffffff1663c617113430836040518363ffffffff1660e01b815260040161151592919061321f565b602060405180830381865afa158015611532573d6000803e3d6000fd5b505050506040513d601f19601f82011682018060405250810190611556919061325d565b5b61159857336040517fede71dcc00000000000000000000000000000000000000000000000000000000815260040161158f9190612b35565b60405180910390fd5b5b6115a58585858561210b565b5b5050505050565b60006115bc83600a548461217e565b905092915050565b7f0000000000000000000000000000000000000000000000000000000000000000826115ee610b26565b6115f891906133e6565b10611638576040517f08c379a000000000000000000000000000000000000000000000000000000000815260040161162f90613488565b60405180910390fd5b600b60009054906101000a900460ff168061167f575061167e813360405160200161166391906134f0565b604051602081830303815290604052805190602001206115ad565b5b6116be576040517f08c379a00000000000000000000000000000000000000000000000000000000081526004016116b590613557565b60405180910390fd5b6009546116ca33611058565b1061170a576040517f08c379a0000000000000000000000000000000000000000000000000000000008152600401611701906135e9565b60405180910390fd5b61171261123b565b341015611754576040517f08c379a000000000000000000000000000000000000000000000000000000000815260040161174b9061367b565b60405180910390fd5b61175e3383612195565b7ff5535ccd9f40eb4bc73fac8710dbb2effbf3329da83f62b35d9aa88161bb85ca3360405161178d9190612b35565b60405180910390a15050565b60606117a482611b4d565b6117e3576040517f08c379a00000000000000000000000000000000000000000000000000000000081526004016117da9061370d565b60405180910390fd5b6014821080156117f857506117f782610fa4565b5b156118a257600c8260148110611811576118106132dd565b5b01805461181d906131ee565b80601f0160208091040260200160405190810160405280929190818152602001828054611849906131ee565b80156118965780601f1061186b57610100808354040283529160200191611896565b820191906000526020600020905b81548152906001019060200180831161187957829003601f168201915b50505050509050611932565b60006118ac612350565b905060008151116118cc576040518060200160405280600081525061192e565b806118d684612370565b6040518060400160405280600581526020017f2e6a736f6e00000000000000000000000000000000000000000000000000000081525060405160200161191e9392919061372d565b6040516020818303038152906040525b9150505b919050565b6060611941612350565b905090565b6060604051806060016040528060368152602001613a8f60369139905090565b6000600760008473ffffffffffffffffffffffffffffffffffffffff1673ffffffffffffffffffffffffffffffffffffffff16815260200190815260200160002060008373ffffffffffffffffffffffffffffffffffffffff1673ffffffffffffffffffffffffffffffffffffffff16815260200190815260200160002060009054906101000a900460ff16905092915050565b611a02611bb4565b600073ffffffffffffffffffffffffffffffffffffffff168173ffffffffffffffffffffffffffffffffffffffff1603611a71576040517f08c379a0000000000000000000000000000000000000000000000000000000008152600401611a68906137d0565b60405180910390fd5b611a7a81612045565b50565b611a85611bb4565b80600a8190555050565b611a97611bb4565b60148310611ada576040517f08c379a0000000000000000000000000000000000000000000000000000000008152600401611ad19061383c565b60405180910390fd5b611ae383610fa4565b15611b23576040517f08c379a0000000000000000000000000000000000000000000000000000000008152600401611b1a906138a8565b60405180910390fd5b8181600c8560148110611b3957611b386132dd565b5b019190611b47929190612864565b50505050565b600081611b58611c32565b11158015611b67575060005482105b8015611ba5575060007c0100000000000000000000000000000000000000000000000000000000600460008581526020019081526020016000205416145b9050919050565b600033905090565b611bbc61243e565b73ffffffffffffffffffffffffffffffffffffffff16611bda61116d565b73ffffffffffffffffffffffffffffffffffffffff1614611c30576040517f08c379a0000000000000000000000000000000000000000000000000000000008152600401611c2790613914565b60405180910390fd5b565b600090565b6000611c4282611f79565b90508373ffffffffffffffffffffffffffffffffffffffff168173ffffffffffffffffffffffffffffffffffffffff1614611ca9576040517fa114810000000000000000000000000000000000000000000000000000000000815260040160405180910390fd5b600080611cb584612446565b91509150611ccb8187611cc6611bac565b61246d565b611d1757611ce086611cdb611bac565b611966565b611d16576040517f59c896be00000000000000000000000000000000000000000000000000000000815260040160405180910390fd5b5b600073ffffffffffffffffffffffffffffffffffffffff168573ffffffffffffffffffffffffffffffffffffffff1603611d7d576040517fea553b3400000000000000000000000000000000000000000000000000000000815260040160405180910390fd5b611d8a86868660016124b1565b8015611d9557600082555b600560008773ffffffffffffffffffffffffffffffffffffffff1673ffffffffffffffffffffffffffffffffffffffff168152602001908152602001600020600081546001900391905081905550600560008673ffffffffffffffffffffffffffffffffffffffff1673ffffffffffffffffffffffffffffffffffffffff1681526020019081526020016000206000815460010191905081905550611e6385611e3f8888876124b7565b7c0200000000000000000000000000000000000000000000000000000000176124df565b600460008681526020019081526020016000208190555060007c0200000000000000000000000000000000000000000000000000000000841603611ee95760006001850190506000600460008381526020019081526020016000205403611ee7576000548114611ee6578360046000838152602001908152602001600020819055505b5b505b838573ffffffffffffffffffffffffffffffffffffffff168773ffffffffffffffffffffffffffffffffffffffff167fddf252ad1be2c89b69c2b068fc378daa952ba7f163c4a11628f55a4df523b3ef60405160405180910390a4611f51868686600161250a565b505050505050565b611f74838383604051806020016040528060008152506113c8565b505050565b60008082905080611f88611c32565b1161200e5760005481101561200d5760006004600083815260200190815260200160002054905060007c010000000000000000000000000000000000000000000000000000000082160361200b575b60008103612001576004600083600190039350838152602001908152602001600020549050611fd7565b8092505050612040565b505b5b6040517fdf2d9b4200000000000000000000000000000000000000000000000000000000815260040160405180910390fd5b919050565b6000600860009054906101000a900473ffffffffffffffffffffffffffffffffffffffff16905081600860006101000a81548173ffffffffffffffffffffffffffffffffffffffff021916908373ffffffffffffffffffffffffffffffffffffffff1602179055508173ffffffffffffffffffffffffffffffffffffffff168173ffffffffffffffffffffffffffffffffffffffff167f8be0079c531659141344cd1fd0a4f28419497f9722a3daafe3b4186f6b6457e060405160405180910390a35050565b612116848484610b3d565b60008373ffffffffffffffffffffffffffffffffffffffff163b146121785761214184848484612510565b612177576040517fd1a57ed600000000000000000000000000000000000000000000000000000000815260040160405180910390fd5b5b50505050565b60008261218b8584612660565b1490509392505050565b600080549050600082036121d5576040517fb562e8dd00000000000000000000000000000000000000000000000000000000815260040160405180910390fd5b6121e260008483856124b1565b600160406001901b178202600560008573ffffffffffffffffffffffffffffffffffffffff1673ffffffffffffffffffffffffffffffffffffffff168152602001908152602001600020600082825401925050819055506122598361224a60008660006124b7565b612253856126b6565b176124df565b6004600083815260200190815260200160002081905550600080838301905073ffffffffffffffffffffffffffffffffffffffff85169150828260007fddf252ad1be2c89b69c2b068fc378daa952ba7f163c4a11628f55a4df523b3ef600080a4600183015b8181146122fa57808360007fddf252ad1be2c89b69c2b068fc378daa952ba7f163c4a11628f55a4df523b3ef600080a46001810190506122bf565b5060008203612335576040517f2e07630000000000000000000000000000000000000000000000000000000000815260040160405180910390fd5b80600081905550505061234b600084838561250a565b505050565b6060604051806060016040528060368152602001613ac560369139905090565b60606000600161237f846126c6565b01905060008167ffffffffffffffff81111561239e5761239d612d3d565b5b6040519080825280601f01601f1916602001820160405280156123d05781602001600182028036833780820191505090505b509050600082602001820190505b600115612433578080600190039150507f3031323334353637383961626364656600000000000000000000000000000000600a86061a8153600a858161242757612426613934565b5b049450600085036123de575b819350505050919050565b600033905090565b60008060006006600085815260200190815260200160002090508092508254915050915091565b600073ffffffffffffffffffffffffffffffffffffffff8316925073ffffffffffffffffffffffffffffffffffffffff821691508382148383141790509392505050565b50505050565b60008060e883901c905060e86124ce868684612819565b62ffffff16901b9150509392505050565b600073ffffffffffffffffffffffffffffffffffffffff83169250814260a01b178317905092915050565b50505050565b60008373ffffffffffffffffffffffffffffffffffffffff1663150b7a02612536611bac565b8786866040518563ffffffff1660e01b815260040161255894939291906139b8565b6020604051808303816000875af192505050801561259457506040513d601f19601f820116820180604052508101906125919190613a19565b60015b61260d573d80600081146125c4576040519150601f19603f3d011682016040523d82523d6000602084013e6125c9565b606091505b506000815103612605576040517fd1a57ed600000000000000000000000000000000000000000000000000000000815260040160405180910390fd5b805181602001fd5b63150b7a0260e01b7bffffffffffffffffffffffffffffffffffffffffffffffffffffffff1916817bffffffffffffffffffffffffffffffffffffffffffffffffffffffff191614915050949350505050565b60008082905060005b84518110156126ab5761269682868381518110612689576126886132dd565b5b6020026020010151612822565b915080806126a390613a46565b915050612669565b508091505092915050565b60006001821460e11b9050919050565b600080600090507a184f03e93ff9f4daa797ed6e38ed64bf6a1f0100000000000000008310612724577a184f03e93ff9f4daa797ed6e38ed64bf6a1f010000000000000000838161271a57612719613934565b5b0492506040810190505b6d04ee2d6d415b85acef81000000008310612761576d04ee2d6d415b85acef8100000000838161275757612756613934565b5b0492506020810190505b662386f26fc10000831061279057662386f26fc10000838161278657612785613934565b5b0492506010810190505b6305f5e10083106127b9576305f5e10083816127af576127ae613934565b5b0492506008810190505b61271083106127de5761271083816127d4576127d3613934565b5b0492506004810190505b6064831061280157606483816127f7576127f6613934565b5b0492506002810190505b600a8310612810576001810190505b80915050919050565b60009392505050565b600081831061283a57612835828461284d565b612845565b612844838361284d565b5b905092915050565b600082600052816020526040600020905092915050565b828054612870906131ee565b90600052602060002090601f01602090048101928261289257600085556128d9565b82601f106128ab57803560ff19168380011785556128d9565b828001600101855582156128d9579182015b828111156128d85782358255916020019190600101906128bd565b5b5090506128e691906128ea565b5090565b5b808211156129035760008160009055506001016128eb565b5090565b6000604051905090565b600080fd5b600080fd5b60007fffffffff0000000000000000000000000000000000000000000000000000000082169050919050565b6129508161291b565b811461295b57600080fd5b50565b60008135905061296d81612947565b92915050565b60006020828403121561298957612988612911565b5b60006129978482850161295e565b91505092915050565b60008115159050919050565b6129b5816129a0565b82525050565b60006020820190506129d060008301846129ac565b92915050565b600081519050919050565b600082825260208201905092915050565b60005b83811015612a105780820151818401526020810190506129f5565b83811115612a1f576000848401525b50505050565b6000601f19601f8301169050919050565b6000612a41826129d6565b612a4b81856129e1565b9350612a5b8185602086016129f2565b612a6481612a25565b840191505092915050565b60006020820190508181036000830152612a898184612a36565b905092915050565b6000819050919050565b612aa481612a91565b8114612aaf57600080fd5b50565b600081359050612ac181612a9b565b92915050565b600060208284031215612add57612adc612911565b5b6000612aeb84828501612ab2565b91505092915050565b600073ffffffffffffffffffffffffffffffffffffffff82169050919050565b6000612b1f82612af4565b9050919050565b612b2f81612b14565b82525050565b6000602082019050612b4a6000830184612b26565b92915050565b612b5981612b14565b8114612b6457600080fd5b50565b600081359050612b7681612b50565b92915050565b60008060408385031215612b9357612b92612911565b5b6000612ba185828601612b67565b9250506020612bb285828601612ab2565b9150509250929050565b612bc581612a91565b82525050565b6000602082019050612be06000830184612bbc565b92915050565b600080600060608486031215612bff57612bfe612911565b5b6000612c0d86828701612b67565b9350506020612c1e86828701612b67565b9250506040612c2f86828701612ab2565b9150509250925092565b6000819050919050565b612c4c81612c39565b82525050565b6000602082019050612c676000830184612c43565b92915050565b600060208284031215612c8357612c82612911565b5b6000612c9184828501612b67565b91505092915050565b612ca3816129a0565b8114612cae57600080fd5b50565b600081359050612cc081612c9a565b92915050565b600060208284031215612cdc57612cdb612911565b5b6000612cea84828501612cb1565b91505092915050565b60008060408385031215612d0a57612d09612911565b5b6000612d1885828601612b67565b9250506020612d2985828601612cb1565b9150509250929050565b600080fd5b600080fd5b7f4e487b7100000000000000000000000000000000000000000000000000000000600052604160045260246000fd5b612d7582612a25565b810181811067ffffffffffffffff82111715612d9457612d93612d3d565b5b80604052505050565b6000612da7612907565b9050612db38282612d6c565b919050565b600067ffffffffffffffff821115612dd357612dd2612d3d565b5b612ddc82612a25565b9050602081019050919050565b82818337600083830152505050565b6000612e0b612e0684612db8565b612d9d565b905082815260208101848484011115612e2757612e26612d38565b5b612e32848285612de9565b509392505050565b600082601f830112612e4f57612e4e612d33565b5b8135612e5f848260208601612df8565b91505092915050565b60008060008060808587031215612e8257612e81612911565b5b6000612e9087828801612b67565b9450506020612ea187828801612b67565b9350506040612eb287828801612ab2565b925050606085013567ffffffffffffffff811115612ed357612ed2612916565b5b612edf87828801612e3a565b91505092959194509250565b600067ffffffffffffffff821115612f0657612f05612d3d565b5b602082029050602081019050919050565b600080fd5b612f2581612c39565b8114612f3057600080fd5b50565b600081359050612f4281612f1c565b92915050565b6000612f5b612f5684612eeb565b612d9d565b90508083825260208201905060208402830185811115612f7e57612f7d612f17565b5b835b81811015612fa75780612f938882612f33565b845260208401935050602081019050612f80565b5050509392505050565b600082601f830112612fc657612fc5612d33565b5b8135612fd6848260208601612f48565b91505092915050565b60008060408385031215612ff657612ff5612911565b5b600083013567ffffffffffffffff81111561301457613013612916565b5b61302085828601612fb1565b925050602061303185828601612f33565b9150509250929050565b6000806040838503121561305257613051612911565b5b600061306085828601612ab2565b925050602083013567ffffffffffffffff81111561308157613080612916565b5b61308d85828601612fb1565b9150509250929050565b600080604083850312156130ae576130ad612911565b5b60006130bc85828601612b67565b92505060206130cd85828601612b67565b9150509250929050565b6000602082840312156130ed576130ec612911565b5b60006130fb84828501612f33565b91505092915050565b600080fd5b60008083601f84011261311f5761311e612d33565b5b8235905067ffffffffffffffff81111561313c5761313b613104565b5b60208301915083600182028301111561315857613157612f17565b5b9250929050565b60008060006040848603121561317857613177612911565b5b600061318686828701612ab2565b935050602084013567ffffffffffffffff8111156131a7576131a6612916565b5b6131b386828701613109565b92509250509250925092565b7f4e487b7100000000000000000000000000000000000000000000000000000000600052602260045260246000fd5b6000600282049050600182168061320657607f821691505b602082108103613219576132186131bf565b5b50919050565b60006040820190506132346000830185612b26565b6132416020830184612b26565b9392505050565b60008151905061325781612c9a565b92915050565b60006020828403121561327357613272612911565b5b600061328184828501613248565b91505092915050565b600081905092915050565b60006132a0826129d6565b6132aa818561328a565b93506132ba8185602086016129f2565b80840191505092915050565b60006132d28284613295565b915081905092915050565b7f4e487b7100000000000000000000000000000000000000000000000000000000600052603260045260246000fd5b60008190508160005260206000209050919050565b6000815461332e816131ee565b613338818661328a565b94506001821660008114613353576001811461336457613397565b60ff19831686528186019350613397565b61336d8561330c565b60005b8381101561338f57815481890152600182019150602081019050613370565b838801955050505b50505092915050565b60006133ac8284613321565b915081905092915050565b7f4e487b7100000000000000000000000000000000000000000000000000000000600052601160045260246000fd5b60006133f182612a91565b91506133fc83612a91565b9250827fffffffffffffffffffffffffffffffffffffffffffffffffffffffffffffffff03821115613431576134306133b7565b5b828201905092915050565b7f43616e6e6f74206d696e74206d6f7265207468616e206d617820737570706c79600082015250565b60006134726020836129e1565b915061347d8261343c565b602082019050919050565b600060208201905081810360008301526134a181613465565b9050919050565b60008160601b9050919050565b60006134c0826134a8565b9050919050565b60006134d2826134b5565b9050919050565b6134ea6134e582612b14565b6134c7565b82525050565b60006134fc82846134d9565b60148201915081905092915050565b7f596f7520617265206e6f742077686974656c6973746564000000000000000000600082015250565b60006135416017836129e1565b915061354c8261350b565b602082019050919050565b6000602082019050818103600083015261357081613534565b9050919050565b7f456163682061646472657373206d6179206f6e6c79206d696e742078204e465460008201527f7321000000000000000000000000000000000000000000000000000000000000602082015250565b60006135d36022836129e1565b91506135de82613577565b604082019050919050565b60006020820190508181036000830152613602816135c6565b9050919050565b7f4e6f7420656e6f756768204554482073656e743b20636865636b20707269636560008201527f2100000000000000000000000000000000000000000000000000000000000000602082015250565b60006136656021836129e1565b915061367082613609565b604082019050919050565b6000602082019050818103600083015261369481613658565b9050919050565b7f4552433732314d657461646174613a2055524920717565727920666f72206e6f60008201527f6e6578697374656e7420746f6b656e2000000000000000000000000000000000602082015250565b60006136f76030836129e1565b91506137028261369b565b604082019050919050565b60006020820190508181036000830152613726816136ea565b9050919050565b60006137398286613295565b91506137458285613295565b91506137518284613295565b9150819050949350505050565b7f4f776e61626c653a206e6577206f776e657220697320746865207a65726f206160008201527f6464726573730000000000000000000000000000000000000000000000000000602082015250565b60006137ba6026836129e1565b91506137c58261375e565b604082019050919050565b600060208201905081810360008301526137e9816137ad565b9050919050565b7f746f6b656e4964206d757374206265206265747765656e203020616e64203230600082015250565b60006138266020836129e1565b9150613831826137f0565b602082019050919050565b6000602082019050818103600083015261385581613819565b9050919050565b7f756e6b6f776e2068617320616c7265616479206265656e2072657665616c6564600082015250565b60006138926020836129e1565b915061389d8261385c565b602082019050919050565b600060208201905081810360008301526138c181613885565b9050919050565b7f4f776e61626c653a2063616c6c6572206973206e6f7420746865206f776e6572600082015250565b60006138fe6020836129e1565b9150613909826138c8565b602082019050919050565b6000602082019050818103600083015261392d816138f1565b9050919050565b7f4e487b7100000000000000000000000000000000000000000000000000000000600052601260045260246000fd5b600081519050919050565b600082825260208201905092915050565b600061398a82613963565b613994818561396e565b93506139a48185602086016129f2565b6139ad81612a25565b840191505092915050565b60006080820190506139cd6000830187612b26565b6139da6020830186612b26565b6139e76040830185612bbc565b81810360608301526139f9818461397f565b905095945050505050565b600081519050613a1381612947565b92915050565b600060208284031215613a2f57613a2e612911565b5b6000613a3d84828501613a04565b91505092915050565b6000613a5182612a91565b91507fffffffffffffffffffffffffffffffffffffffffffffffffffffffffffffffff8203613a8357613a826133b7565b5b60018201905091905056fe697066733a2f2f516d57426a727834516e77774c577a7531476f73614c7731777633696b764335547137734a556371457a7233536f2f697066733a2f2f516d627839696f364c70706d70766176583345715a593869675178505a68376b6f557a57336d50524c6b4c5169722fa2646970667358221220a7cfbba67ec5e910c294a5c31d1dc0065013b26911c7ed9d8b957cecbb96e9b564736f6c634300080d0033",
  "linkReferences": {},
  "deployedLinkReferences": {}
}