{
  "_format": "hh-sol-artifact-1",
  "contractName": "NFT",
  "sourceName": "src/backend/contracts/NFT.sol",
  "abi": [
    {
      "inputs": [
        {
          "internalType": "address",
          "name": "teamAddress",
          "type": "address"
        },
        {
          "internalType": "bytes32",
          "name": "_whitelistRoot",
          "type": "bytes32"
        }
      ],
      "stateMutability": "nonpayable",
      "type": "constructor"
    },
    {
      "inputs": [],
      "name": "ApprovalCallerNotOwnerNorApproved",
      "type": "error"
    },
    {
      "inputs": [],
      "name": "ApprovalQueryForNonexistentToken",
      "type": "error"
    },
    {
      "inputs": [],
      "name": "ApproveToCaller",
      "type": "error"
    },
    {
      "inputs": [],
      "name": "BalanceQueryForZeroAddress",
      "type": "error"
    },
    {
      "inputs": [],
      "name": "MintERC2309QuantityExceedsLimit",
      "type": "error"
    },
    {
      "inputs": [],
      "name": "MintToZeroAddress",
      "type": "error"
    },
    {
      "inputs": [],
      "name": "MintZeroQuantity",
      "type": "error"
    },
    {
      "inputs": [
        {
          "internalType": "address",
          "name": "operator",
          "type": "address"
        }
      ],
      "name": "OperatorNotAllowed",
      "type": "error"
    },
    {
      "inputs": [],
      "name": "OwnerQueryForNonexistentToken",
      "type": "error"
    },
    {
      "inputs": [],
      "name": "OwnershipNotInitializedForExtraData",
      "type": "error"
    },
    {
      "inputs": [],
      "name": "TransferCallerNotOwnerNorApproved",
      "type": "error"
    },
    {
      "inputs": [],
      "name": "TransferFromIncorrectOwner",
      "type": "error"
    },
    {
      "inputs": [],
      "name": "TransferToNonERC721ReceiverImplementer",
      "type": "error"
    },
    {
      "inputs": [],
      "name": "TransferToZeroAddress",
      "type": "error"
    },
    {
      "inputs": [],
      "name": "URIQueryForNonexistentToken",
      "type": "error"
    },
    {
      "anonymous": false,
      "inputs": [
        {
          "indexed": true,
          "internalType": "address",
          "name": "owner",
          "type": "address"
        },
        {
          "indexed": true,
          "internalType": "address",
          "name": "approved",
          "type": "address"
        },
        {
          "indexed": true,
          "internalType": "uint256",
          "name": "tokenId",
          "type": "uint256"
        }
      ],
      "name": "Approval",
      "type": "event"
    },
    {
      "anonymous": false,
      "inputs": [
        {
          "indexed": true,
          "internalType": "address",
          "name": "owner",
          "type": "address"
        },
        {
          "indexed": true,
          "internalType": "address",
          "name": "operator",
          "type": "address"
        },
        {
          "indexed": false,
          "internalType": "bool",
          "name": "approved",
          "type": "bool"
        }
      ],
      "name": "ApprovalForAll",
      "type": "event"
    },
    {
      "anonymous": false,
      "inputs": [
        {
          "indexed": true,
          "internalType": "uint256",
          "name": "fromTokenId",
          "type": "uint256"
        },
        {
          "indexed": false,
          "internalType": "uint256",
          "name": "toTokenId",
          "type": "uint256"
        },
        {
          "indexed": true,
          "internalType": "address",
          "name": "from",
          "type": "address"
        },
        {
          "indexed": true,
          "internalType": "address",
          "name": "to",
          "type": "address"
        }
      ],
      "name": "ConsecutiveTransfer",
      "type": "event"
    },
    {
      "anonymous": false,
      "inputs": [
        {
          "indexed": false,
          "internalType": "address",
          "name": "user",
          "type": "address"
        }
      ],
      "name": "MintSuccessful",
      "type": "event"
    },
    {
      "anonymous": false,
      "inputs": [
        {
          "indexed": true,
          "internalType": "address",
          "name": "previousOwner",
          "type": "address"
        },
        {
          "indexed": true,
          "internalType": "address",
          "name": "newOwner",
          "type": "address"
        }
      ],
      "name": "OwnershipTransferred",
      "type": "event"
    },
    {
      "anonymous": false,
      "inputs": [
        {
          "indexed": true,
          "internalType": "address",
          "name": "from",
          "type": "address"
        },
        {
          "indexed": true,
          "internalType": "address",
          "name": "to",
          "type": "address"
        },
        {
          "indexed": true,
          "internalType": "uint256",
          "name": "tokenId",
          "type": "uint256"
        }
      ],
      "name": "Transfer",
      "type": "event"
    },
    {
      "inputs": [],
      "name": "amountMintPerAccount",
      "outputs": [
        {
          "internalType": "uint256",
          "name": "",
          "type": "uint256"
        }
      ],
      "stateMutability": "view",
      "type": "function"
    },
    {
      "inputs": [
        {
          "internalType": "address",
          "name": "to",
          "type": "address"
        },
        {
          "internalType": "uint256",
          "name": "tokenId",
          "type": "uint256"
        }
      ],
      "name": "approve",
      "outputs": [],
      "stateMutability": "nonpayable",
      "type": "function"
    },
    {
      "inputs": [
        {
          "internalType": "address",
          "name": "owner",
          "type": "address"
        }
      ],
      "name": "balanceOf",
      "outputs": [
        {
          "internalType": "uint256",
          "name": "",
          "type": "uint256"
        }
      ],
      "stateMutability": "view",
      "type": "function"
    },
    {
      "inputs": [],
      "name": "baseTokenURI",
      "outputs": [
        {
          "internalType": "string",
          "name": "",
          "type": "string"
        }
      ],
      "stateMutability": "pure",
      "type": "function"
    },
    {
      "inputs": [],
      "name": "contractURI",
      "outputs": [
        {
          "internalType": "string",
          "name": "",
          "type": "string"
        }
      ],
      "stateMutability": "pure",
      "type": "function"
    },
    {
      "inputs": [
        {
          "internalType": "uint256",
          "name": "tokenId",
          "type": "uint256"
        }
      ],
      "name": "getApproved",
      "outputs": [
        {
          "internalType": "address",
          "name": "",
          "type": "address"
        }
      ],
      "stateMutability": "view",
      "type": "function"
    },
    {
      "inputs": [],
      "name": "getPrice",
      "outputs": [
        {
          "internalType": "uint256",
          "name": "",
          "type": "uint256"
        }
      ],
      "stateMutability": "view",
      "type": "function"
    },
    {
      "inputs": [
        {
          "internalType": "address",
          "name": "owner",
          "type": "address"
        },
        {
          "internalType": "address",
          "name": "operator",
          "type": "address"
        }
      ],
      "name": "isApprovedForAll",
      "outputs": [
        {
          "internalType": "bool",
          "name": "",
          "type": "bool"
        }
      ],
      "stateMutability": "view",
      "type": "function"
    },
    {
      "inputs": [
        {
          "internalType": "uint256",
          "name": "_tokenId",
          "type": "uint256"
        }
      ],
      "name": "isUnkownRevealed",
      "outputs": [
        {
          "internalType": "bool",
          "name": "",
          "type": "bool"
        }
      ],
      "stateMutability": "view",
      "type": "function"
    },
    {
      "inputs": [
        {
          "internalType": "bytes32[]",
          "name": "_proof",
          "type": "bytes32[]"
        },
        {
          "internalType": "bytes32",
          "name": "_leaf",
          "type": "bytes32"
        }
      ],
      "name": "isValid",
      "outputs": [
        {
          "internalType": "bool",
          "name": "",
          "type": "bool"
        }
      ],
      "stateMutability": "view",
      "type": "function"
    },
    {
      "inputs": [],
      "name": "max_supply",
      "outputs": [
        {
          "internalType": "uint256",
          "name": "",
          "type": "uint256"
        }
      ],
      "stateMutability": "view",
      "type": "function"
    },
    {
      "inputs": [
        {
          "internalType": "uint256",
          "name": "quantity",
          "type": "uint256"
        },
        {
          "internalType": "bytes32[]",
          "name": "_proof",
          "type": "bytes32[]"
        }
      ],
      "name": "mint",
      "outputs": [],
      "stateMutability": "payable",
      "type": "function"
    },
    {
      "inputs": [],
      "name": "mintEnabled",
      "outputs": [
        {
          "internalType": "bool",
          "name": "",
          "type": "bool"
        }
      ],
      "stateMutability": "view",
      "type": "function"
    },
    {
      "inputs": [],
      "name": "name",
      "outputs": [
        {
          "internalType": "string",
          "name": "",
          "type": "string"
        }
      ],
      "stateMutability": "view",
      "type": "function"
    },
    {
      "inputs": [],
      "name": "owner",
      "outputs": [
        {
          "internalType": "address",
          "name": "",
          "type": "address"
        }
      ],
      "stateMutability": "view",
      "type": "function"
    },
    {
      "inputs": [
        {
          "internalType": "uint256",
          "name": "tokenId",
          "type": "uint256"
        }
      ],
      "name": "ownerOf",
      "outputs": [
        {
          "internalType": "address",
          "name": "",
          "type": "address"
        }
      ],
      "stateMutability": "view",
      "type": "function"
    },
    {
      "inputs": [],
      "name": "price",
      "outputs": [
        {
          "internalType": "uint256",
          "name": "",
          "type": "uint256"
        }
      ],
      "stateMutability": "view",
      "type": "function"
    },
    {
      "inputs": [],
      "name": "publicSaleEnabled",
      "outputs": [
        {
          "internalType": "bool",
          "name": "",
          "type": "bool"
        }
      ],
      "stateMutability": "view",
      "type": "function"
    },
    {
      "inputs": [],
      "name": "renounceOwnership",
      "outputs": [],
      "stateMutability": "nonpayable",
      "type": "function"
    },
    {
      "inputs": [
        {
          "internalType": "uint256",
          "name": "_tokenId",
          "type": "uint256"
        },
        {
          "internalType": "string",
          "name": "tokenUri",
          "type": "string"
        }
      ],
      "name": "revealUnkown",
      "outputs": [],
      "stateMutability": "nonpayable",
      "type": "function"
    },
    {
      "inputs": [
        {
          "internalType": "address",
          "name": "from",
          "type": "address"
        },
        {
          "internalType": "address",
          "name": "to",
          "type": "address"
        },
        {
          "internalType": "uint256",
          "name": "tokenId",
          "type": "uint256"
        }
      ],
      "name": "safeTransferFrom",
      "outputs": [],
      "stateMutability": "nonpayable",
      "type": "function"
    },
    {
      "inputs": [
        {
          "internalType": "address",
          "name": "from",
          "type": "address"
        },
        {
          "internalType": "address",
          "name": "to",
          "type": "address"
        },
        {
          "internalType": "uint256",
          "name": "tokenId",
          "type": "uint256"
        },
        {
          "internalType": "bytes",
          "name": "data",
          "type": "bytes"
        }
      ],
      "name": "safeTransferFrom",
      "outputs": [],
      "stateMutability": "nonpayable",
      "type": "function"
    },
    {
      "inputs": [
        {
          "internalType": "uint256",
          "name": "_amountMintPerAccount",
          "type": "uint256"
        }
      ],
      "name": "setAmountMintPerAccount",
      "outputs": [],
      "stateMutability": "nonpayable",
      "type": "function"
    },
    {
      "inputs": [
        {
          "internalType": "address",
          "name": "operator",
          "type": "address"
        },
        {
          "internalType": "bool",
          "name": "approved",
          "type": "bool"
        }
      ],
      "name": "setApprovalForAll",
      "outputs": [],
      "stateMutability": "nonpayable",
      "type": "function"
    },
    {
      "inputs": [
        {
          "internalType": "bool",
          "name": "_state",
          "type": "bool"
        }
      ],
      "name": "setMintEnabled",
      "outputs": [],
      "stateMutability": "nonpayable",
      "type": "function"
    },
    {
      "inputs": [
        {
          "internalType": "uint256",
          "name": "_price",
          "type": "uint256"
        }
      ],
      "name": "setPrice",
      "outputs": [],
      "stateMutability": "nonpayable",
      "type": "function"
    },
    {
      "inputs": [
        {
          "internalType": "bool",
          "name": "_state",
          "type": "bool"
        }
      ],
      "name": "setPublicSaleEnabled",
      "outputs": [],
      "stateMutability": "nonpayable",
      "type": "function"
    },
    {
      "inputs": [
        {
          "internalType": "bytes32",
          "name": "_whitelistRoot",
          "type": "bytes32"
        }
      ],
      "name": "setWhitelistRoot",
      "outputs": [],
      "stateMutability": "nonpayable",
      "type": "function"
    },
    {
      "inputs": [
        {
          "internalType": "bytes4",
          "name": "interfaceId",
          "type": "bytes4"
        }
      ],
      "name": "supportsInterface",
      "outputs": [
        {
          "internalType": "bool",
          "name": "",
          "type": "bool"
        }
      ],
      "stateMutability": "view",
      "type": "function"
    },
    {
      "inputs": [],
      "name": "symbol",
      "outputs": [
        {
          "internalType": "string",
          "name": "",
          "type": "string"
        }
      ],
      "stateMutability": "view",
      "type": "function"
    },
    {
      "inputs": [
        {
          "internalType": "uint256",
          "name": "_tokenId",
          "type": "uint256"
        }
      ],
      "name": "tokenURI",
      "outputs": [
        {
          "internalType": "string",
          "name": "",
          "type": "string"
        }
      ],
      "stateMutability": "view",
      "type": "function"
    },
    {
      "inputs": [],
      "name": "totalSupply",
      "outputs": [
        {
          "internalType": "uint256",
          "name": "",
          "type": "uint256"
        }
      ],
      "stateMutability": "view",
      "type": "function"
    },
    {
      "inputs": [
        {
          "internalType": "address",
          "name": "from",
          "type": "address"
        },
        {
          "internalType": "address",
          "name": "to",
          "type": "address"
        },
        {
          "internalType": "uint256",
          "name": "tokenId",
          "type": "uint256"
        }
      ],
      "name": "transferFrom",
      "outputs": [],
      "stateMutability": "nonpayable",
      "type": "function"
    },
    {
      "inputs": [
        {
          "internalType": "address",
          "name": "newOwner",
          "type": "address"
        }
      ],
      "name": "transferOwnership",
      "outputs": [],
      "stateMutability": "nonpayable",
      "type": "function"
    },
    {
      "inputs": [],
      "name": "uriSuffix",
      "outputs": [
        {
          "internalType": "string",
          "name": "",
          "type": "string"
        }
      ],
      "stateMutability": "view",
      "type": "function"
    },
    {
      "inputs": [],
      "name": "whitelistRoot",
      "outputs": [
        {
          "internalType": "bytes32",
          "name": "",
          "type": "bytes32"
        }
      ],
      "stateMutability": "view",
      "type": "function"
    },
    {
      "inputs": [],
      "name": "withdraw",
      "outputs": [],
      "stateMutability": "nonpayable",
      "type": "function"
    }
  ],
  "bytecode": "0x60a06040526126d560809081525060016009553480156200001f57600080fd5b506040516200460338038062004603833981810160405281019062000045919062000870565b733cc6cdda760b79bafa08df41ecfa224f810dceb660016040518060400160405280601381526020017f47656c61746f76657273652047656e65736973000000000000000000000000008152506040518060400160405280600281526020017f47470000000000000000000000000000000000000000000000000000000000008152508160029080519060200190620000e09291906200071b565b508060039080519060200190620000f99291906200071b565b506200010a620003e160201b60201c565b60008190555050506200013262000126620003e660201b60201c565b620003ee60201b60201c565b60006daaeb6d7670e522a718067333cd4e73ffffffffffffffffffffffffffffffffffffffff163b111562000327578015620001ed576daaeb6d7670e522a718067333cd4e73ffffffffffffffffffffffffffffffffffffffff16637d3e3dbe30846040518363ffffffff1660e01b8152600401620001b3929190620008c8565b600060405180830381600087803b158015620001ce57600080fd5b505af1158015620001e3573d6000803e3d6000fd5b5050505062000326565b600073ffffffffffffffffffffffffffffffffffffffff168273ffffffffffffffffffffffffffffffffffffffff1614620002a7576daaeb6d7670e522a718067333cd4e73ffffffffffffffffffffffffffffffffffffffff1663a0af290330846040518363ffffffff1660e01b81526004016200026d929190620008c8565b600060405180830381600087803b1580156200028857600080fd5b505af11580156200029d573d6000803e3d6000fd5b5050505062000325565b6daaeb6d7670e522a718067333cd4e73ffffffffffffffffffffffffffffffffffffffff16634420e486306040518263ffffffff1660e01b8152600401620002f09190620008f5565b600060405180830381600087803b1580156200030b57600080fd5b505af115801562000320573d6000803e3d6000fd5b505050505b5b5b505080600a81905550620003448261014d620004b460201b60201c565b60006014905060005b81811015620003c6576040518060400160405280601081526020017f4e6f742072657665616c65642079657400000000000000000000000000000000815250600c8260148110620003a357620003a262000912565b5b019080519060200190620003b99291906200071b565b508060010190506200034d565b50620003d883620003ee60201b60201c565b505050620009a5565b600090565b600033905090565b6000600860009054906101000a900473ffffffffffffffffffffffffffffffffffffffff16905081600860006101000a81548173ffffffffffffffffffffffffffffffffffffffff021916908373ffffffffffffffffffffffffffffffffffffffff1602179055508173ffffffffffffffffffffffffffffffffffffffff168173ffffffffffffffffffffffffffffffffffffffff167f8be0079c531659141344cd1fd0a4f28419497f9722a3daafe3b4186f6b6457e060405160405180910390a35050565b60008054905060008203620004f5576040517fb562e8dd00000000000000000000000000000000000000000000000000000000815260040160405180910390fd5b6200050a60008483856200069b60201b60201c565b600160406001901b178202600560008573ffffffffffffffffffffffffffffffffffffffff1673ffffffffffffffffffffffffffffffffffffffff1681526020019081526020016000206000828254019250508190555062000599836200057b6000866000620006a160201b60201c565b6200058c85620006d160201b60201c565b17620006e160201b60201c565b6004600083815260200190815260200160002081905550600080838301905073ffffffffffffffffffffffffffffffffffffffff85169150828260007fddf252ad1be2c89b69c2b068fc378daa952ba7f163c4a11628f55a4df523b3ef600080a4600183015b8181146200063c57808360007fddf252ad1be2c89b69c2b068fc378daa952ba7f163c4a11628f55a4df523b3ef600080a4600181019050620005ff565b506000820362000678576040517f2e07630000000000000000000000000000000000000000000000000000000000815260040160405180910390fd5b8060008190555050506200069660008483856200070c60201b60201c565b505050565b50505050565b60008060e883901c905060e8620006c08686846200071260201b60201c565b62ffffff16901b9150509392505050565b60006001821460e11b9050919050565b600073ffffffffffffffffffffffffffffffffffffffff83169250814260a01b178317905092915050565b50505050565b60009392505050565b828054620007299062000970565b90600052602060002090601f0160209004810192826200074d576000855562000799565b82601f106200076857805160ff191683800117855562000799565b8280016001018555821562000799579182015b82811115620007985782518255916020019190600101906200077b565b5b509050620007a89190620007ac565b5090565b5b80821115620007c7576000816000905550600101620007ad565b5090565b600080fd5b600073ffffffffffffffffffffffffffffffffffffffff82169050919050565b6000620007fd82620007d0565b9050919050565b6200080f81620007f0565b81146200081b57600080fd5b50565b6000815190506200082f8162000804565b92915050565b6000819050919050565b6200084a8162000835565b81146200085657600080fd5b50565b6000815190506200086a816200083f565b92915050565b600080604083850312156200088a5762000889620007cb565b5b60006200089a858286016200081e565b9250506020620008ad8582860162000859565b9150509250929050565b620008c281620007f0565b82525050565b6000604082019050620008df6000830185620008b7565b620008ee6020830184620008b7565b9392505050565b60006020820190506200090c6000830184620008b7565b92915050565b7f4e487b7100000000000000000000000000000000000000000000000000000000600052603260045260246000fd5b7f4e487b7100000000000000000000000000000000000000000000000000000000600052602260045260246000fd5b600060028204905060018216806200098957607f821691505b6020821081036200099f576200099e62000941565b5b50919050565b608051613c3b620009c8600039600081816111b5015261167f0152613c3b6000f3fe60806040526004361061021a5760003560e01c80638da5cb5b11610123578063ba41b0c6116100ab578063e985e9c51161006f578063e985e9c5146107b6578063f2fde38b146107f3578063f46a04eb1461081c578063f5aa406d14610845578063fb2685171461086e5761021a565b8063ba41b0c6146106dc578063c87b56dd146106f8578063d123973014610735578063d547cfb714610760578063e8a3d4851461078b5761021a565b8063a035b1fe116100f2578063a035b1fe146105f7578063a22cb46514610622578063a827b5ff1461064b578063b88d4fde14610676578063b8a20ed01461069f5761021a565b80638da5cb5b1461054d57806391b7f5ed1461057857806395d89b41146105a157806398d5fdca146105cc5761021a565b80633ccfd60b116101a65780636352211e116101755780636352211e1461046857806370a08231146104a5578063715018a6146104e25780638720fbef146104f95780638a333b50146105225761021a565b80633ccfd60b146103c057806342842e0e146103d75780635503a0e8146104005780635cd8f9a11461042b5761021a565b806311296660116101ed57806311296660146102ed57806318160ddd1461031657806323b872dd146103415780632ab91bba1461036a578063386bfc98146103955761021a565b806301ffc9a71461021f57806306fdde031461025c578063081812fc14610287578063095ea7b3146102c4575b600080fd5b34801561022b57600080fd5b5061024660048036038101906102419190612a7e565b610897565b6040516102539190612ac6565b60405180910390f35b34801561026857600080fd5b50610271610929565b60405161027e9190612b7a565b60405180910390f35b34801561029357600080fd5b506102ae60048036038101906102a99190612bd2565b6109bb565b6040516102bb9190612c40565b60405180910390f35b3480156102d057600080fd5b506102eb60048036038101906102e69190612c87565b610a3a565b005b3480156102f957600080fd5b50610314600480360381019061030f9190612bd2565b610b7e565b005b34801561032257600080fd5b5061032b610b90565b6040516103389190612cd6565b60405180910390f35b34801561034d57600080fd5b5061036860048036038101906103639190612cf1565b610ba7565b005b34801561037657600080fd5b5061037f610d89565b60405161038c9190612ac6565b60405180910390f35b3480156103a157600080fd5b506103aa610d9c565b6040516103b79190612d5d565b60405180910390f35b3480156103cc57600080fd5b506103d5610da2565b005b3480156103e357600080fd5b506103fe60048036038101906103f99190612cf1565b610df3565b005b34801561040c57600080fd5b50610415610fd5565b6040516104229190612b7a565b60405180910390f35b34801561043757600080fd5b50610452600480360381019061044d9190612bd2565b61100e565b60405161045f9190612ac6565b60405180910390f35b34801561047457600080fd5b5061048f600480360381019061048a9190612bd2565b6110b0565b60405161049c9190612c40565b60405180910390f35b3480156104b157600080fd5b506104cc60048036038101906104c79190612d78565b6110c2565b6040516104d99190612cd6565b60405180910390f35b3480156104ee57600080fd5b506104f761117a565b005b34801561050557600080fd5b50610520600480360381019061051b9190612dd1565b61118e565b005b34801561052e57600080fd5b506105376111b3565b6040516105449190612cd6565b60405180910390f35b34801561055957600080fd5b506105626111d7565b60405161056f9190612c40565b60405180910390f35b34801561058457600080fd5b5061059f600480360381019061059a9190612bd2565b611201565b005b3480156105ad57600080fd5b506105b6611213565b6040516105c39190612b7a565b60405180910390f35b3480156105d857600080fd5b506105e16112a5565b6040516105ee9190612cd6565b60405180910390f35b34801561060357600080fd5b5061060c6112af565b6040516106199190612cd6565b60405180910390f35b34801561062e57600080fd5b5061064960048036038101906106449190612dfe565b6112b5565b005b34801561065757600080fd5b5061066061142c565b60405161066d9190612cd6565b60405180910390f35b34801561068257600080fd5b5061069d60048036038101906106989190612f73565b611432565b005b3480156106ab57600080fd5b506106c660048036038101906106c191906130ea565b611617565b6040516106d39190612ac6565b60405180910390f35b6106f660048036038101906106f19190613146565b61162e565b005b34801561070457600080fd5b5061071f600480360381019061071a9190612bd2565b61185e565b60405161072c9190612b7a565b60405180910390f35b34801561074157600080fd5b5061074a6119fc565b6040516107579190612ac6565b60405180910390f35b34801561076c57600080fd5b50610775611a0f565b6040516107829190612b7a565b60405180910390f35b34801561079757600080fd5b506107a0611a1e565b6040516107ad9190612b7a565b60405180910390f35b3480156107c257600080fd5b506107dd60048036038101906107d891906131a2565b611a3e565b6040516107ea9190612ac6565b60405180910390f35b3480156107ff57600080fd5b5061081a60048036038101906108159190612d78565b611ad2565b005b34801561082857600080fd5b50610843600480360381019061083e9190612dd1565b611b55565b005b34801561085157600080fd5b5061086c600480360381019061086791906131e2565b611b7a565b005b34801561087a57600080fd5b506108956004803603810190610890919061326a565b611b8c565b005b60006301ffc9a760e01b827bffffffffffffffffffffffffffffffffffffffffffffffffffffffff191614806108f257506380ac58cd60e01b827bffffffffffffffffffffffffffffffffffffffffffffffffffffffff1916145b806109225750635b5e139f60e01b827bffffffffffffffffffffffffffffffffffffffffffffffffffffffff1916145b9050919050565b606060028054610938906132f9565b80601f0160208091040260200160405190810160405280929190818152602001828054610964906132f9565b80156109b15780601f10610986576101008083540402835291602001916109b1565b820191906000526020600020905b81548152906001019060200180831161099457829003601f168201915b5050505050905090565b60006109c682611c01565b6109fc576040517fcf4700e400000000000000000000000000000000000000000000000000000000815260040160405180910390fd5b6006600083815260200190815260200160002060000160009054906101000a900473ffffffffffffffffffffffffffffffffffffffff169050919050565b6000610a45826110b0565b90508073ffffffffffffffffffffffffffffffffffffffff16610a66611c60565b73ffffffffffffffffffffffffffffffffffffffff1614610ac957610a9281610a8d611c60565b611a3e565b610ac8576040517fcfb3b94200000000000000000000000000000000000000000000000000000000815260040160405180910390fd5b5b826006600084815260200190815260200160002060000160006101000a81548173ffffffffffffffffffffffffffffffffffffffff021916908373ffffffffffffffffffffffffffffffffffffffff160217905550818373ffffffffffffffffffffffffffffffffffffffff168273ffffffffffffffffffffffffffffffffffffffff167f8c5be1e5ebec7d5bd14f71427d1e84f3dd0314c0f7b2291e5b200ac8c7c3b92560405160405180910390a4505050565b610b86611c68565b8060098190555050565b6000610b9a611ce6565b6001546000540303905090565b8260006daaeb6d7670e522a718067333cd4e73ffffffffffffffffffffffffffffffffffffffff163b1115610d77573373ffffffffffffffffffffffffffffffffffffffff168173ffffffffffffffffffffffffffffffffffffffff1603610c1957610c14848484611ceb565b610d83565b6daaeb6d7670e522a718067333cd4e73ffffffffffffffffffffffffffffffffffffffff1663c617113430336040518363ffffffff1660e01b8152600401610c6292919061332a565b602060405180830381865afa158015610c7f573d6000803e3d6000fd5b505050506040513d601f19601f82011682018060405250810190610ca39190613368565b8015610d3557506daaeb6d7670e522a718067333cd4e73ffffffffffffffffffffffffffffffffffffffff1663c617113430836040518363ffffffff1660e01b8152600401610cf392919061332a565b602060405180830381865afa158015610d10573d6000803e3d6000fd5b505050506040513d601f19601f82011682018060405250810190610d349190613368565b5b610d7657336040517fede71dcc000000000000000000000000000000000000000000000000000000008152600401610d6d9190612c40565b60405180910390fd5b5b610d82848484611ceb565b5b50505050565b600b60019054906101000a900460ff1681565b600a5481565b610daa611c68565b3373ffffffffffffffffffffffffffffffffffffffff166108fc479081150290604051600060405180830381858888f19350505050158015610df0573d6000803e3d6000fd5b50565b8260006daaeb6d7670e522a718067333cd4e73ffffffffffffffffffffffffffffffffffffffff163b1115610fc3573373ffffffffffffffffffffffffffffffffffffffff168173ffffffffffffffffffffffffffffffffffffffff1603610e6557610e6084848461200d565b610fcf565b6daaeb6d7670e522a718067333cd4e73ffffffffffffffffffffffffffffffffffffffff1663c617113430336040518363ffffffff1660e01b8152600401610eae92919061332a565b602060405180830381865afa158015610ecb573d6000803e3d6000fd5b505050506040513d601f19601f82011682018060405250810190610eef9190613368565b8015610f8157506daaeb6d7670e522a718067333cd4e73ffffffffffffffffffffffffffffffffffffffff1663c617113430836040518363ffffffff1660e01b8152600401610f3f92919061332a565b602060405180830381865afa158015610f5c573d6000803e3d6000fd5b505050506040513d601f19601f82011682018060405250810190610f809190613368565b5b610fc257336040517fede71dcc000000000000000000000000000000000000000000000000000000008152600401610fb99190612c40565b60405180910390fd5b5b610fce84848461200d565b5b50505050565b6040518060400160405280600581526020017f2e6a736f6e00000000000000000000000000000000000000000000000000000081525081565b60006040518060400160405280601081526020017f4e6f742072657665616c6564207965740000000000000000000000000000000081525060405160200161105691906133d1565b60405160208183030381529060405280519060200120600c83601481106110805761107f6133e8565b5b0160405160200161109191906134ab565b6040516020818303038152906040528051906020012014159050919050565b60006110bb8261202d565b9050919050565b60008073ffffffffffffffffffffffffffffffffffffffff168273ffffffffffffffffffffffffffffffffffffffff1603611129576040517f8f4eb60400000000000000000000000000000000000000000000000000000000815260040160405180910390fd5b67ffffffffffffffff600560008473ffffffffffffffffffffffffffffffffffffffff1673ffffffffffffffffffffffffffffffffffffffff16815260200190815260200160002054169050919050565b611182611c68565b61118c60006120f9565b565b611196611c68565b80600b60016101000a81548160ff02191690831515021790555050565b7f000000000000000000000000000000000000000000000000000000000000000081565b6000600860009054906101000a900473ffffffffffffffffffffffffffffffffffffffff16905090565b611209611c68565b8060208190555050565b606060038054611222906132f9565b80601f016020809104026020016040519081016040528092919081815260200182805461124e906132f9565b801561129b5780601f106112705761010080835404028352916020019161129b565b820191906000526020600020905b81548152906001019060200180831161127e57829003601f168201915b5050505050905090565b6000602054905090565b60205481565b6112bd611c60565b73ffffffffffffffffffffffffffffffffffffffff168273ffffffffffffffffffffffffffffffffffffffff1603611321576040517fb06307db00000000000000000000000000000000000000000000000000000000815260040160405180910390fd5b806007600061132e611c60565b73ffffffffffffffffffffffffffffffffffffffff1673ffffffffffffffffffffffffffffffffffffffff16815260200190815260200160002060008473ffffffffffffffffffffffffffffffffffffffff1673ffffffffffffffffffffffffffffffffffffffff16815260200190815260200160002060006101000a81548160ff0219169083151502179055508173ffffffffffffffffffffffffffffffffffffffff166113db611c60565b73ffffffffffffffffffffffffffffffffffffffff167f17307eab39ab6107e8899845ad3d59bd9653f200f220920489ca2b5937696c31836040516114209190612ac6565b60405180910390a35050565b60095481565b8360006daaeb6d7670e522a718067333cd4e73ffffffffffffffffffffffffffffffffffffffff163b1115611603573373ffffffffffffffffffffffffffffffffffffffff168173ffffffffffffffffffffffffffffffffffffffff16036114a5576114a0858585856121bf565b611610565b6daaeb6d7670e522a718067333cd4e73ffffffffffffffffffffffffffffffffffffffff1663c617113430336040518363ffffffff1660e01b81526004016114ee92919061332a565b602060405180830381865afa15801561150b573d6000803e3d6000fd5b505050506040513d601f19601f8201168201806040525081019061152f9190613368565b80156115c157506daaeb6d7670e522a718067333cd4e73ffffffffffffffffffffffffffffffffffffffff1663c617113430836040518363ffffffff1660e01b815260040161157f92919061332a565b602060405180830381865afa15801561159c573d6000803e3d6000fd5b505050506040513d601f19601f820116820180604052508101906115c09190613368565b5b61160257336040517fede71dcc0000000000000000000000000000000000000000000000000000000081526004016115f99190612c40565b60405180910390fd5b5b61160f858585856121bf565b5b5050505050565b600061162683600a5484612232565b905092915050565b600b60009054906101000a900460ff1661167d576040517f08c379a00000000000000000000000000000000000000000000000000000000081526004016116749061350e565b60405180910390fd5b7f0000000000000000000000000000000000000000000000000000000000000000826116a7610b90565b6116b1919061355d565b106116f1576040517f08c379a00000000000000000000000000000000000000000000000000000000081526004016116e8906135ff565b60405180910390fd5b600b60019054906101000a900460ff16806117385750611737813360405160200161171c9190613667565b60405160208183030381529060405280519060200120611617565b5b611777576040517f08c379a000000000000000000000000000000000000000000000000000000000815260040161176e906136ce565b60405180910390fd5b6009548261178433612249565b61178e919061355d565b11156117cf576040517f08c379a00000000000000000000000000000000000000000000000000000000081526004016117c690613760565b60405180910390fd5b6117d76112a5565b341015611819576040517f08c379a0000000000000000000000000000000000000000000000000000000008152600401611810906137f2565b60405180910390fd5b61182333836122a0565b7ff5535ccd9f40eb4bc73fac8710dbb2effbf3329da83f62b35d9aa88161bb85ca336040516118529190612c40565b60405180910390a15050565b606061186982611c01565b6118a8576040517f08c379a000000000000000000000000000000000000000000000000000000000815260040161189f90613884565b60405180910390fd5b6014821080156118bd57506118bc8261100e565b5b1561196757600c82601481106118d6576118d56133e8565b5b0180546118e2906132f9565b80601f016020809104026020016040519081016040528092919081815260200182805461190e906132f9565b801561195b5780601f106119305761010080835404028352916020019161195b565b820191906000526020600020905b81548152906001019060200180831161193e57829003601f168201915b505050505090506119f7565b600061197161245b565b9050600081511161199157604051806020016040528060008152506119f3565b8061199b8461247b565b6040518060400160405280600581526020017f2e6a736f6e0000000000000000000000000000000000000000000000000000008152506040516020016119e3939291906138a4565b6040516020818303038152906040525b9150505b919050565b600b60009054906101000a900460ff1681565b6060611a1961245b565b905090565b6060604051806060016040528060368152602001613b9a60369139905090565b6000600760008473ffffffffffffffffffffffffffffffffffffffff1673ffffffffffffffffffffffffffffffffffffffff16815260200190815260200160002060008373ffffffffffffffffffffffffffffffffffffffff1673ffffffffffffffffffffffffffffffffffffffff16815260200190815260200160002060009054906101000a900460ff16905092915050565b611ada611c68565b600073ffffffffffffffffffffffffffffffffffffffff168173ffffffffffffffffffffffffffffffffffffffff1603611b49576040517f08c379a0000000000000000000000000000000000000000000000000000000008152600401611b4090613947565b60405180910390fd5b611b52816120f9565b50565b611b5d611c68565b80600b60006101000a81548160ff02191690831515021790555050565b611b82611c68565b80600a8190555050565b611b94611c68565b60148310611bd7576040517f08c379a0000000000000000000000000000000000000000000000000000000008152600401611bce906139b3565b60405180910390fd5b8181600c8560148110611bed57611bec6133e8565b5b019190611bfb92919061296f565b50505050565b600081611c0c611ce6565b11158015611c1b575060005482105b8015611c59575060007c0100000000000000000000000000000000000000000000000000000000600460008581526020019081526020016000205416145b9050919050565b600033905090565b611c70612549565b73ffffffffffffffffffffffffffffffffffffffff16611c8e6111d7565b73ffffffffffffffffffffffffffffffffffffffff1614611ce4576040517f08c379a0000000000000000000000000000000000000000000000000000000008152600401611cdb90613a1f565b60405180910390fd5b565b600090565b6000611cf68261202d565b90508373ffffffffffffffffffffffffffffffffffffffff168173ffffffffffffffffffffffffffffffffffffffff1614611d5d576040517fa114810000000000000000000000000000000000000000000000000000000000815260040160405180910390fd5b600080611d6984612551565b91509150611d7f8187611d7a611c60565b612578565b611dcb57611d9486611d8f611c60565b611a3e565b611dca576040517f59c896be00000000000000000000000000000000000000000000000000000000815260040160405180910390fd5b5b600073ffffffffffffffffffffffffffffffffffffffff168573ffffffffffffffffffffffffffffffffffffffff1603611e31576040517fea553b3400000000000000000000000000000000000000000000000000000000815260040160405180910390fd5b611e3e86868660016125bc565b8015611e4957600082555b600560008773ffffffffffffffffffffffffffffffffffffffff1673ffffffffffffffffffffffffffffffffffffffff168152602001908152602001600020600081546001900391905081905550600560008673ffffffffffffffffffffffffffffffffffffffff1673ffffffffffffffffffffffffffffffffffffffff1681526020019081526020016000206000815460010191905081905550611f1785611ef38888876125c2565b7c0200000000000000000000000000000000000000000000000000000000176125ea565b600460008681526020019081526020016000208190555060007c0200000000000000000000000000000000000000000000000000000000841603611f9d5760006001850190506000600460008381526020019081526020016000205403611f9b576000548114611f9a578360046000838152602001908152602001600020819055505b5b505b838573ffffffffffffffffffffffffffffffffffffffff168773ffffffffffffffffffffffffffffffffffffffff167fddf252ad1be2c89b69c2b068fc378daa952ba7f163c4a11628f55a4df523b3ef60405160405180910390a46120058686866001612615565b505050505050565b61202883838360405180602001604052806000815250611432565b505050565b6000808290508061203c611ce6565b116120c2576000548110156120c15760006004600083815260200190815260200160002054905060007c01000000000000000000000000000000000000000000000000000000008216036120bf575b600081036120b557600460008360019003935083815260200190815260200160002054905061208b565b80925050506120f4565b505b5b6040517fdf2d9b4200000000000000000000000000000000000000000000000000000000815260040160405180910390fd5b919050565b6000600860009054906101000a900473ffffffffffffffffffffffffffffffffffffffff16905081600860006101000a81548173ffffffffffffffffffffffffffffffffffffffff021916908373ffffffffffffffffffffffffffffffffffffffff1602179055508173ffffffffffffffffffffffffffffffffffffffff168173ffffffffffffffffffffffffffffffffffffffff167f8be0079c531659141344cd1fd0a4f28419497f9722a3daafe3b4186f6b6457e060405160405180910390a35050565b6121ca848484610ba7565b60008373ffffffffffffffffffffffffffffffffffffffff163b1461222c576121f58484848461261b565b61222b576040517fd1a57ed600000000000000000000000000000000000000000000000000000000815260040160405180910390fd5b5b50505050565b60008261223f858461276b565b1490509392505050565b600067ffffffffffffffff6040600560008573ffffffffffffffffffffffffffffffffffffffff1673ffffffffffffffffffffffffffffffffffffffff16815260200190815260200160002054901c169050919050565b600080549050600082036122e0576040517fb562e8dd00000000000000000000000000000000000000000000000000000000815260040160405180910390fd5b6122ed60008483856125bc565b600160406001901b178202600560008573ffffffffffffffffffffffffffffffffffffffff1673ffffffffffffffffffffffffffffffffffffffff168152602001908152602001600020600082825401925050819055506123648361235560008660006125c2565b61235e856127c1565b176125ea565b6004600083815260200190815260200160002081905550600080838301905073ffffffffffffffffffffffffffffffffffffffff85169150828260007fddf252ad1be2c89b69c2b068fc378daa952ba7f163c4a11628f55a4df523b3ef600080a4600183015b81811461240557808360007fddf252ad1be2c89b69c2b068fc378daa952ba7f163c4a11628f55a4df523b3ef600080a46001810190506123ca565b5060008203612440576040517f2e07630000000000000000000000000000000000000000000000000000000000815260040160405180910390fd5b8060008190555050506124566000848385612615565b505050565b6060604051806060016040528060368152602001613bd060369139905090565b60606000600161248a846127d1565b01905060008167ffffffffffffffff8111156124a9576124a8612e48565b5b6040519080825280601f01601f1916602001820160405280156124db5781602001600182028036833780820191505090505b509050600082602001820190505b60011561253e578080600190039150507f3031323334353637383961626364656600000000000000000000000000000000600a86061a8153600a858161253257612531613a3f565b5b049450600085036124e9575b819350505050919050565b600033905090565b60008060006006600085815260200190815260200160002090508092508254915050915091565b600073ffffffffffffffffffffffffffffffffffffffff8316925073ffffffffffffffffffffffffffffffffffffffff821691508382148383141790509392505050565b50505050565b60008060e883901c905060e86125d9868684612924565b62ffffff16901b9150509392505050565b600073ffffffffffffffffffffffffffffffffffffffff83169250814260a01b178317905092915050565b50505050565b60008373ffffffffffffffffffffffffffffffffffffffff1663150b7a02612641611c60565b8786866040518563ffffffff1660e01b81526004016126639493929190613ac3565b6020604051808303816000875af192505050801561269f57506040513d601f19601f8201168201806040525081019061269c9190613b24565b60015b612718573d80600081146126cf576040519150601f19603f3d011682016040523d82523d6000602084013e6126d4565b606091505b506000815103612710576040517fd1a57ed600000000000000000000000000000000000000000000000000000000815260040160405180910390fd5b805181602001fd5b63150b7a0260e01b7bffffffffffffffffffffffffffffffffffffffffffffffffffffffff1916817bffffffffffffffffffffffffffffffffffffffffffffffffffffffff191614915050949350505050565b60008082905060005b84518110156127b6576127a182868381518110612794576127936133e8565b5b602002602001015161292d565b915080806127ae90613b51565b915050612774565b508091505092915050565b60006001821460e11b9050919050565b600080600090507a184f03e93ff9f4daa797ed6e38ed64bf6a1f010000000000000000831061282f577a184f03e93ff9f4daa797ed6e38ed64bf6a1f010000000000000000838161282557612824613a3f565b5b0492506040810190505b6d04ee2d6d415b85acef8100000000831061286c576d04ee2d6d415b85acef8100000000838161286257612861613a3f565b5b0492506020810190505b662386f26fc10000831061289b57662386f26fc10000838161289157612890613a3f565b5b0492506010810190505b6305f5e10083106128c4576305f5e10083816128ba576128b9613a3f565b5b0492506008810190505b61271083106128e95761271083816128df576128de613a3f565b5b0492506004810190505b6064831061290c576064838161290257612901613a3f565b5b0492506002810190505b600a831061291b576001810190505b80915050919050565b60009392505050565b6000818310612945576129408284612958565b612950565b61294f8383612958565b5b905092915050565b600082600052816020526040600020905092915050565b82805461297b906132f9565b90600052602060002090601f01602090048101928261299d57600085556129e4565b82601f106129b657803560ff19168380011785556129e4565b828001600101855582156129e4579182015b828111156129e35782358255916020019190600101906129c8565b5b5090506129f191906129f5565b5090565b5b80821115612a0e5760008160009055506001016129f6565b5090565b6000604051905090565b600080fd5b600080fd5b60007fffffffff0000000000000000000000000000000000000000000000000000000082169050919050565b612a5b81612a26565b8114612a6657600080fd5b50565b600081359050612a7881612a52565b92915050565b600060208284031215612a9457612a93612a1c565b5b6000612aa284828501612a69565b91505092915050565b60008115159050919050565b612ac081612aab565b82525050565b6000602082019050612adb6000830184612ab7565b92915050565b600081519050919050565b600082825260208201905092915050565b60005b83811015612b1b578082015181840152602081019050612b00565b83811115612b2a576000848401525b50505050565b6000601f19601f8301169050919050565b6000612b4c82612ae1565b612b568185612aec565b9350612b66818560208601612afd565b612b6f81612b30565b840191505092915050565b60006020820190508181036000830152612b948184612b41565b905092915050565b6000819050919050565b612baf81612b9c565b8114612bba57600080fd5b50565b600081359050612bcc81612ba6565b92915050565b600060208284031215612be857612be7612a1c565b5b6000612bf684828501612bbd565b91505092915050565b600073ffffffffffffffffffffffffffffffffffffffff82169050919050565b6000612c2a82612bff565b9050919050565b612c3a81612c1f565b82525050565b6000602082019050612c556000830184612c31565b92915050565b612c6481612c1f565b8114612c6f57600080fd5b50565b600081359050612c8181612c5b565b92915050565b60008060408385031215612c9e57612c9d612a1c565b5b6000612cac85828601612c72565b9250506020612cbd85828601612bbd565b9150509250929050565b612cd081612b9c565b82525050565b6000602082019050612ceb6000830184612cc7565b92915050565b600080600060608486031215612d0a57612d09612a1c565b5b6000612d1886828701612c72565b9350506020612d2986828701612c72565b9250506040612d3a86828701612bbd565b9150509250925092565b6000819050919050565b612d5781612d44565b82525050565b6000602082019050612d726000830184612d4e565b92915050565b600060208284031215612d8e57612d8d612a1c565b5b6000612d9c84828501612c72565b91505092915050565b612dae81612aab565b8114612db957600080fd5b50565b600081359050612dcb81612da5565b92915050565b600060208284031215612de757612de6612a1c565b5b6000612df584828501612dbc565b91505092915050565b60008060408385031215612e1557612e14612a1c565b5b6000612e2385828601612c72565b9250506020612e3485828601612dbc565b9150509250929050565b600080fd5b600080fd5b7f4e487b7100000000000000000000000000000000000000000000000000000000600052604160045260246000fd5b612e8082612b30565b810181811067ffffffffffffffff82111715612e9f57612e9e612e48565b5b80604052505050565b6000612eb2612a12565b9050612ebe8282612e77565b919050565b600067ffffffffffffffff821115612ede57612edd612e48565b5b612ee782612b30565b9050602081019050919050565b82818337600083830152505050565b6000612f16612f1184612ec3565b612ea8565b905082815260208101848484011115612f3257612f31612e43565b5b612f3d848285612ef4565b509392505050565b600082601f830112612f5a57612f59612e3e565b5b8135612f6a848260208601612f03565b91505092915050565b60008060008060808587031215612f8d57612f8c612a1c565b5b6000612f9b87828801612c72565b9450506020612fac87828801612c72565b9350506040612fbd87828801612bbd565b925050606085013567ffffffffffffffff811115612fde57612fdd612a21565b5b612fea87828801612f45565b91505092959194509250565b600067ffffffffffffffff82111561301157613010612e48565b5b602082029050602081019050919050565b600080fd5b61303081612d44565b811461303b57600080fd5b50565b60008135905061304d81613027565b92915050565b600061306661306184612ff6565b612ea8565b9050808382526020820190506020840283018581111561308957613088613022565b5b835b818110156130b2578061309e888261303e565b84526020840193505060208101905061308b565b5050509392505050565b600082601f8301126130d1576130d0612e3e565b5b81356130e1848260208601613053565b91505092915050565b6000806040838503121561310157613100612a1c565b5b600083013567ffffffffffffffff81111561311f5761311e612a21565b5b61312b858286016130bc565b925050602061313c8582860161303e565b9150509250929050565b6000806040838503121561315d5761315c612a1c565b5b600061316b85828601612bbd565b925050602083013567ffffffffffffffff81111561318c5761318b612a21565b5b613198858286016130bc565b9150509250929050565b600080604083850312156131b9576131b8612a1c565b5b60006131c785828601612c72565b92505060206131d885828601612c72565b9150509250929050565b6000602082840312156131f8576131f7612a1c565b5b60006132068482850161303e565b91505092915050565b600080fd5b60008083601f84011261322a57613229612e3e565b5b8235905067ffffffffffffffff8111156132475761324661320f565b5b60208301915083600182028301111561326357613262613022565b5b9250929050565b60008060006040848603121561328357613282612a1c565b5b600061329186828701612bbd565b935050602084013567ffffffffffffffff8111156132b2576132b1612a21565b5b6132be86828701613214565b92509250509250925092565b7f4e487b7100000000000000000000000000000000000000000000000000000000600052602260045260246000fd5b6000600282049050600182168061331157607f821691505b602082108103613324576133236132ca565b5b50919050565b600060408201905061333f6000830185612c31565b61334c6020830184612c31565b9392505050565b60008151905061336281612da5565b92915050565b60006020828403121561337e5761337d612a1c565b5b600061338c84828501613353565b91505092915050565b600081905092915050565b60006133ab82612ae1565b6133b58185613395565b93506133c5818560208601612afd565b80840191505092915050565b60006133dd82846133a0565b915081905092915050565b7f4e487b7100000000000000000000000000000000000000000000000000000000600052603260045260246000fd5b60008190508160005260206000209050919050565b60008154613439816132f9565b6134438186613395565b9450600182166000811461345e576001811461346f576134a2565b60ff198316865281860193506134a2565b61347885613417565b60005b8381101561349a5781548189015260018201915060208101905061347b565b838801955050505b50505092915050565b60006134b7828461342c565b915081905092915050565b7f4d696e742064697361626c656400000000000000000000000000000000000000600082015250565b60006134f8600d83612aec565b9150613503826134c2565b602082019050919050565b60006020820190508181036000830152613527816134eb565b9050919050565b7f4e487b7100000000000000000000000000000000000000000000000000000000600052601160045260246000fd5b600061356882612b9c565b915061357383612b9c565b9250827fffffffffffffffffffffffffffffffffffffffffffffffffffffffffffffffff038211156135a8576135a761352e565b5b828201905092915050565b7f43616e6e6f74206d696e74206d6f7265207468616e206d617820737570706c79600082015250565b60006135e9602083612aec565b91506135f4826135b3565b602082019050919050565b60006020820190508181036000830152613618816135dc565b9050919050565b60008160601b9050919050565b60006136378261361f565b9050919050565b60006136498261362c565b9050919050565b61366161365c82612c1f565b61363e565b82525050565b60006136738284613650565b60148201915081905092915050565b7f596f7520617265206e6f742077686974656c6973746564000000000000000000600082015250565b60006136b8601783612aec565b91506136c382613682565b602082019050919050565b600060208201905081810360008301526136e7816136ab565b9050919050565b7f456163682061646472657373206d6179206f6e6c79206d696e742078204e465460008201527f7321000000000000000000000000000000000000000000000000000000000000602082015250565b600061374a602283612aec565b9150613755826136ee565b604082019050919050565b600060208201905081810360008301526137798161373d565b9050919050565b7f4e6f7420656e6f756768204554482073656e743b20636865636b20707269636560008201527f2100000000000000000000000000000000000000000000000000000000000000602082015250565b60006137dc602183612aec565b91506137e782613780565b604082019050919050565b6000602082019050818103600083015261380b816137cf565b9050919050565b7f4552433732314d657461646174613a2055524920717565727920666f72206e6f60008201527f6e6578697374656e7420746f6b656e2000000000000000000000000000000000602082015250565b600061386e603083612aec565b915061387982613812565b604082019050919050565b6000602082019050818103600083015261389d81613861565b9050919050565b60006138b082866133a0565b91506138bc82856133a0565b91506138c882846133a0565b9150819050949350505050565b7f4f776e61626c653a206e6577206f776e657220697320746865207a65726f206160008201527f6464726573730000000000000000000000000000000000000000000000000000602082015250565b6000613931602683612aec565b915061393c826138d5565b604082019050919050565b6000602082019050818103600083015261396081613924565b9050919050565b7f746f6b656e4964206d757374206265206265747765656e203020616e64203230600082015250565b600061399d602083612aec565b91506139a882613967565b602082019050919050565b600060208201905081810360008301526139cc81613990565b9050919050565b7f4f776e61626c653a2063616c6c6572206973206e6f7420746865206f776e6572600082015250565b6000613a09602083612aec565b9150613a14826139d3565b602082019050919050565b60006020820190508181036000830152613a38816139fc565b9050919050565b7f4e487b7100000000000000000000000000000000000000000000000000000000600052601260045260246000fd5b600081519050919050565b600082825260208201905092915050565b6000613a9582613a6e565b613a9f8185613a79565b9350613aaf818560208601612afd565b613ab881612b30565b840191505092915050565b6000608082019050613ad86000830187612c31565b613ae56020830186612c31565b613af26040830185612cc7565b8181036060830152613b048184613a8a565b905095945050505050565b600081519050613b1e81612a52565b92915050565b600060208284031215613b3a57613b39612a1c565b5b6000613b4884828501613b0f565b91505092915050565b6000613b5c82612b9c565b91507fffffffffffffffffffffffffffffffffffffffffffffffffffffffffffffffff8203613b8e57613b8d61352e565b5b60018201905091905056fe697066733a2f2f516d57426a727834516e77774c577a7531476f73614c7731777633696b764335547137734a556371457a7233536f2f697066733a2f2f516d627839696f364c70706d70766176583345715a593869675178505a68376b6f557a57336d50524c6b4c5169722fa2646970667358221220fee429b5724ac1b6b7cfa6156be1bc99c5f1b0c8688a2901971d253ddc52b57364736f6c634300080d0033",
  "linkReferences": {},
  "deployedLinkReferences": {}
}