{
  "_format": "hh-sol-artifact-1",
  "contractName": "NFTStaker",
  "sourceName": "src/backend/contracts/NFTStaker.sol",
  "abi": [
    {
      "inputs": [
        {
          "internalType": "address",
          "name": "nftAddress",
          "type": "address"
        }
      ],
      "stateMutability": "nonpayable",
      "type": "constructor"
    },
    {
      "anonymous": false,
      "inputs": [
        {
          "indexed": true,
          "internalType": "address",
          "name": "previousOwner",
          "type": "address"
        },
        {
          "indexed": true,
          "internalType": "address",
          "name": "newOwner",
          "type": "address"
        }
      ],
      "name": "OwnershipTransferred",
      "type": "event"
    },
    {
      "anonymous": false,
      "inputs": [
        {
          "indexed": false,
          "internalType": "uint256",
          "name": "tokenId",
          "type": "uint256"
        },
        {
          "indexed": false,
          "internalType": "uint256",
          "name": "timestamp",
          "type": "uint256"
        }
      ],
      "name": "StakeSuccessful",
      "type": "event"
    },
    {
      "anonymous": false,
      "inputs": [
        {
          "indexed": false,
          "internalType": "uint256",
          "name": "tokenId",
          "type": "uint256"
        },
        {
          "indexed": false,
          "internalType": "uint256",
          "name": "reward",
          "type": "uint256"
        }
      ],
      "name": "UnstakeSuccessful",
      "type": "event"
    },
    {
      "inputs": [],
      "name": "claimReward",
      "outputs": [],
      "stateMutability": "nonpayable",
      "type": "function"
    },
    {
      "inputs": [
        {
          "internalType": "address",
          "name": "_user",
          "type": "address"
        }
      ],
      "name": "getRewardFromActiveMission",
      "outputs": [
        {
          "internalType": "uint256",
          "name": "",
          "type": "uint256"
        }
      ],
      "stateMutability": "view",
      "type": "function"
    },
    {
      "inputs": [
        {
          "internalType": "address",
          "name": "_user",
          "type": "address"
        }
      ],
      "name": "getRewardToClaim",
      "outputs": [
        {
          "internalType": "uint256",
          "name": "",
          "type": "uint256"
        }
      ],
      "stateMutability": "view",
      "type": "function"
    },
    {
      "inputs": [
        {
          "internalType": "address",
          "name": "_user",
          "type": "address"
        }
      ],
      "name": "getStakedMissions",
      "outputs": [
        {
          "components": [
            {
              "internalType": "uint256",
              "name": "startTimestamp",
              "type": "uint256"
            },
            {
              "internalType": "uint256",
              "name": "duration",
              "type": "uint256"
            }
          ],
          "internalType": "struct NFTStaker.Mission[]",
          "name": "missions",
          "type": "tuple[]"
        }
      ],
      "stateMutability": "view",
      "type": "function"
    },
    {
      "inputs": [
        {
          "internalType": "address",
          "name": "_user",
          "type": "address"
        }
      ],
      "name": "getStakedTimestamps",
      "outputs": [
        {
          "internalType": "uint256[]",
          "name": "timestamps",
          "type": "uint256[]"
        }
      ],
      "stateMutability": "view",
      "type": "function"
    },
    {
      "inputs": [
        {
          "internalType": "address",
          "name": "_user",
          "type": "address"
        }
      ],
      "name": "getStakedTokens",
      "outputs": [
        {
          "internalType": "uint256[]",
          "name": "tokenIds",
          "type": "uint256[]"
        }
      ],
      "stateMutability": "view",
      "type": "function"
    },
    {
      "inputs": [],
      "name": "hoursForUnitReward",
      "outputs": [
        {
          "internalType": "uint256",
          "name": "",
          "type": "uint256"
        }
      ],
      "stateMutability": "view",
      "type": "function"
    },
    {
      "inputs": [],
      "name": "isMissionOngoing",
      "outputs": [
        {
          "internalType": "bool",
          "name": "",
          "type": "bool"
        }
      ],
      "stateMutability": "view",
      "type": "function"
    },
    {
      "inputs": [
        {
          "internalType": "uint256",
          "name": "_tokenId",
          "type": "uint256"
        }
      ],
      "name": "isTokenStaked",
      "outputs": [
        {
          "internalType": "bool",
          "name": "",
          "type": "bool"
        }
      ],
      "stateMutability": "view",
      "type": "function"
    },
    {
      "inputs": [
        {
          "internalType": "address",
          "name": "",
          "type": "address"
        },
        {
          "internalType": "address",
          "name": "",
          "type": "address"
        },
        {
          "internalType": "uint256",
          "name": "",
          "type": "uint256"
        },
        {
          "internalType": "bytes",
          "name": "",
          "type": "bytes"
        }
      ],
      "name": "onERC721Received",
      "outputs": [
        {
          "internalType": "bytes4",
          "name": "",
          "type": "bytes4"
        }
      ],
      "stateMutability": "nonpayable",
      "type": "function"
    },
    {
      "inputs": [],
      "name": "owner",
      "outputs": [
        {
          "internalType": "address",
          "name": "",
          "type": "address"
        }
      ],
      "stateMutability": "view",
      "type": "function"
    },
    {
      "inputs": [],
      "name": "parentNFT",
      "outputs": [
        {
          "internalType": "contract ERC721A",
          "name": "",
          "type": "address"
        }
      ],
      "stateMutability": "view",
      "type": "function"
    },
    {
      "inputs": [],
      "name": "renounceOwnership",
      "outputs": [],
      "stateMutability": "nonpayable",
      "type": "function"
    },
    {
      "inputs": [],
      "name": "rewardsToken",
      "outputs": [
        {
          "internalType": "contract ERC20",
          "name": "",
          "type": "address"
        }
      ],
      "stateMutability": "view",
      "type": "function"
    },
    {
      "inputs": [
        {
          "internalType": "uint256[]",
          "name": "_tokenIds",
          "type": "uint256[]"
        }
      ],
      "name": "sendAllInactiveToMission",
      "outputs": [],
      "stateMutability": "nonpayable",
      "type": "function"
    },
    {
      "inputs": [
        {
          "internalType": "uint256",
          "name": "_hoursForUnitReward",
          "type": "uint256"
        }
      ],
      "name": "setHoursForUnitReward",
      "outputs": [],
      "stateMutability": "nonpayable",
      "type": "function"
    },
    {
      "inputs": [
        {
          "internalType": "address",
          "name": "_newOwner",
          "type": "address"
        },
        {
          "internalType": "address",
          "name": "_tokenAddress",
          "type": "address"
        }
      ],
      "name": "setOwnerAndTokenAddress",
      "outputs": [],
      "stateMutability": "nonpayable",
      "type": "function"
    },
    {
      "inputs": [
        {
          "internalType": "uint256",
          "name": "_tokenId",
          "type": "uint256"
        }
      ],
      "name": "stake",
      "outputs": [],
      "stateMutability": "nonpayable",
      "type": "function"
    },
    {
      "inputs": [
        {
          "internalType": "uint256",
          "name": "_duration",
          "type": "uint256"
        }
      ],
      "name": "startMission",
      "outputs": [],
      "stateMutability": "nonpayable",
      "type": "function"
    },
    {
      "inputs": [
        {
          "internalType": "address",
          "name": "newOwner",
          "type": "address"
        }
      ],
      "name": "transferOwnership",
      "outputs": [],
      "stateMutability": "nonpayable",
      "type": "function"
    },
    {
      "inputs": [
        {
          "internalType": "uint256",
          "name": "_tokenId",
          "type": "uint256"
        }
      ],
      "name": "unstake",
      "outputs": [],
      "stateMutability": "nonpayable",
      "type": "function"
    }
  ],
  "bytecode": "0x60806040523480156200001157600080fd5b5060405162003845380380620038458339818101604052810190620000379190620001e6565b60016000819055506200005f62000053620000ae60201b60201c565b620000b660201b60201c565b80600260006101000a81548173ffffffffffffffffffffffffffffffffffffffff021916908373ffffffffffffffffffffffffffffffffffffffff160217905550600480819055505062000218565b600033905090565b6000600160009054906101000a900473ffffffffffffffffffffffffffffffffffffffff16905081600160006101000a81548173ffffffffffffffffffffffffffffffffffffffff021916908373ffffffffffffffffffffffffffffffffffffffff1602179055508173ffffffffffffffffffffffffffffffffffffffff168173ffffffffffffffffffffffffffffffffffffffff167f8be0079c531659141344cd1fd0a4f28419497f9722a3daafe3b4186f6b6457e060405160405180910390a35050565b600080fd5b600073ffffffffffffffffffffffffffffffffffffffff82169050919050565b6000620001ae8262000181565b9050919050565b620001c081620001a1565b8114620001cc57600080fd5b50565b600081519050620001e081620001b5565b92915050565b600060208284031215620001ff57620001fe6200017c565b5b60006200020f84828501620001cf565b91505092915050565b61361d80620002286000396000f3fe608060405234801561001057600080fd5b50600436106101375760003560e01c80638da5cb5b116100b8578063b8e33fb21161007c578063b8e33fb214610324578063d1af0c7d14610342578063e6d7d9d114610360578063f0a524241461037e578063f2fde38b146103ae578063fb1ab0a9146103ca57610137565b80638da5cb5b14610280578063a04ebd4b1461029e578063a694fc3a146102ce578063a7c1e29a146102ea578063b88a802f1461031a57610137565b806363c28db1116100ff57806363c28db1146101de578063647fb46c1461020e57806367eb6add1461022a578063715018a614610246578063775163f11461025057610137565b806307ec14221461013c578063150b7a021461015857806324d0b0a5146101885780632e17de78146101a65780633a7055f9146101c2575b600080fd5b61015660048036038101906101519190612853565b6103fa565b005b610172600480360381019061016d9190612a24565b61040c565b60405161017f9190612ae2565b60405180910390f35b610190610420565b60405161019d9190612b0c565b60405180910390f35b6101c060048036038101906101bb9190612853565b610426565b005b6101dc60048036038101906101d79190612853565b6108da565b005b6101f860048036038101906101f39190612b27565b610906565b6040516102059190612c12565b60405180910390f35b61022860048036038101906102239190612c34565b6109a0565b005b610244600480360381019061023f9190612d3c565b6109f6565b005b61024e610e3a565b005b61026a60048036038101906102659190612b27565b610e4e565b6040516102779190612b0c565b60405180910390f35b6102886110e6565b6040516102959190612d94565b60405180910390f35b6102b860048036038101906102b39190612b27565b611110565b6040516102c59190612c12565b60405180910390f35b6102e860048036038101906102e39190612853565b6111aa565b005b61030460048036038101906102ff9190612b27565b6114a8565b6040516103119190612e8d565b60405180910390f35b61032261155d565b005b61032c611839565b6040516103399190612f0e565b60405180910390f35b61034a61185f565b6040516103579190612f4a565b60405180910390f35b610368611885565b6040516103759190612f80565b60405180910390f35b61039860048036038101906103939190612853565b6118b4565b6040516103a59190612f80565b60405180910390f35b6103c860048036038101906103c39190612b27565b611999565b005b6103e460048036038101906103df9190612b27565b611a1c565b6040516103f19190612b0c565b60405180910390f35b610402611c08565b8060048190555050565b600063150b7a0260e01b9050949350505050565b60045481565b61042e611c86565b6000600760003373ffffffffffffffffffffffffffffffffffffffff1673ffffffffffffffffffffffffffffffffffffffff1681526020019081526020016000206040518060a0016040529081600082018054806020026020016040519081016040528092919081815260200182805480156104c957602002820191906000526020600020905b8154815260200190600101908083116104b5575b505050505081526020016001820180548060200260200160405190810160405280929190818152602001828054801561052157602002820191906000526020600020905b81548152602001906001019080831161050d575b5050505050815260200160028201805480602002602001604051908101604052809291908181526020016000905b828210156105955783829060005260206000209060020201604051806040016040529081600082015481526020016001820154815250508152602001906001019061054f565b505050508152602001600382015481526020016004820180548060200260200160405190810160405280929190818152602001828054801561061b57602002820191906000526020600020906000905b82829054906101000a900460ff161515815260200190600101906020826000010492830192600103820291508084116105e55790505b50505050508152505090506000806106338433611cd5565b9150915080610677576040517f08c379a000000000000000000000000000000000000000000000000000000000815260040161066e90612ff8565b60405180910390fd5b60006106838333611f3e565b905060006106d6856040015185815181106106a1576106a0613018565b5b602002602001015160000151866040015186815181106106c4576106c3613018565b5b602002602001015160200151426121ff565b9050600260009054906101000a900473ffffffffffffffffffffffffffffffffffffffff1673ffffffffffffffffffffffffffffffffffffffff166342842e0e3033896040518463ffffffff1660e01b815260040161073793929190613047565b600060405180830381600087803b15801561075157600080fd5b505af1158015610765573d6000803e3d6000fd5b505050508080156107985750600015158560800151858151811061078c5761078b613018565b5b60200260200101511515145b15610876576001600760003373ffffffffffffffffffffffffffffffffffffffff1673ffffffffffffffffffffffffffffffffffffffff16815260200190815260200160002060040185815481106107f3576107f2613018565b5b90600052602060002090602091828204019190066101000a81548160ff02191690831515021790555081600760003373ffffffffffffffffffffffffffffffffffffffff1673ffffffffffffffffffffffffffffffffffffffff168152602001908152602001600020600301600082825461086e91906130ad565b925050819055505b61089184600187600001515161088c9190613103565b612218565b7f97cc56283430ac8692d29c7522a69fa6c2bde7e47d781be6b58b034d80bc282886836040516108c2929190613137565b60405180910390a150505050506108d7612731565b50565b6108e2611c08565b42600560000181905550610e10816108fa9190613160565b60056001018190555050565b6060600760008373ffffffffffffffffffffffffffffffffffffffff1673ffffffffffffffffffffffffffffffffffffffff16815260200190815260200160002060000180548060200260200160405190810160405280929190818152602001828054801561099457602002820191906000526020600020905b815481526020019060010190808311610980575b50505050509050919050565b6109a8611c08565b80600360006101000a81548173ffffffffffffffffffffffffffffffffffffffff021916908373ffffffffffffffffffffffffffffffffffffffff1602179055506109f28261273b565b5050565b6109fe611c86565b610a06611885565b610a45576040517f08c379a0000000000000000000000000000000000000000000000000000000008152600401610a3c90613206565b60405180910390fd5b600081519050600042905060005b82811015610e2c57600080610a82868481518110610a7457610a73613018565b5b602002602001015133611cd5565b9150915080610ac6576040517f08c379a0000000000000000000000000000000000000000000000000000000008152600401610abd90612ff8565b60405180910390fd5b610b9b600760003373ffffffffffffffffffffffffffffffffffffffff1673ffffffffffffffffffffffffffffffffffffffff1681526020019081526020016000206002018381548110610b1d57610b1c613018565b5b906000526020600020906002020160000154600760003373ffffffffffffffffffffffffffffffffffffffff1673ffffffffffffffffffffffffffffffffffffffff1681526020019081526020016000206002018481548110610b8357610b82613018565b5b906000526020600020906002020160010154866121ff565b610bda576040517f08c379a0000000000000000000000000000000000000000000000000000000008152600401610bd190613298565b60405180910390fd5b6000610be68333611f3e565b905060001515600760003373ffffffffffffffffffffffffffffffffffffffff1673ffffffffffffffffffffffffffffffffffffffff1681526020019081526020016000206004018481548110610c4057610c3f613018565b5b90600052602060002090602091828204019190069054906101000a900460ff16151503610cc15780600760003373ffffffffffffffffffffffffffffffffffffffff1673ffffffffffffffffffffffffffffffffffffffff1681526020019081526020016000206003016000828254610cb991906130ad565b925050819055505b84600760003373ffffffffffffffffffffffffffffffffffffffff1673ffffffffffffffffffffffffffffffffffffffff1681526020019081526020016000206001018481548110610d1657610d15613018565b5b90600052602060002001819055506005600760003373ffffffffffffffffffffffffffffffffffffffff1673ffffffffffffffffffffffffffffffffffffffff1681526020019081526020016000206002018481548110610d7a57610d79613018565b5b906000526020600020906002020160008201548160000155600182015481600101559050506000600760003373ffffffffffffffffffffffffffffffffffffffff1673ffffffffffffffffffffffffffffffffffffffff1681526020019081526020016000206004018481548110610df557610df4613018565b5b90600052602060002090602091828204019190066101000a81548160ff021916908315150217905550836001019350505050610a53565b505050610e37612731565b50565b610e42611c08565b610e4c600061273b565b565b600080600760008473ffffffffffffffffffffffffffffffffffffffff1673ffffffffffffffffffffffffffffffffffffffff1681526020019081526020016000206040518060a001604052908160008201805480602002602001604051908101604052809291908181526020018280548015610eea57602002820191906000526020600020905b815481526020019060010190808311610ed6575b5050505050815260200160018201805480602002602001604051908101604052809291908181526020018280548015610f4257602002820191906000526020600020905b815481526020019060010190808311610f2e575b5050505050815260200160028201805480602002602001604051908101604052809291908181526020016000905b82821015610fb657838290600052602060002090600202016040518060400160405290816000820154815260200160018201548152505081526020019060010190610f70565b505050508152602001600382015481526020016004820180548060200260200160405190810160405280929190818152602001828054801561103c57602002820191906000526020600020906000905b82829054906101000a900460ff161515815260200190600101906020826000010492830192600103820291508084116110065790505b505050505081525050905060008061105385610906565b51905060005b818110156110da578360800151818151811061107857611077613018565b5b60200260200101516110cf57600454610e10856040015183815181106110a1576110a0613018565b5b6020026020010151602001516110b791906132e7565b6110c191906132e7565b836110cc91906130ad565b92505b806001019050611059565b50819350505050919050565b6000600160009054906101000a900473ffffffffffffffffffffffffffffffffffffffff16905090565b6060600760008373ffffffffffffffffffffffffffffffffffffffff1673ffffffffffffffffffffffffffffffffffffffff16815260200190815260200160002060010180548060200260200160405190810160405280929190818152602001828054801561119e57602002820191906000526020600020905b81548152602001906001019080831161118a575b50505050509050919050565b6111b2611c86565b6111ba611885565b6111f9576040517f08c379a00000000000000000000000000000000000000000000000000000000081526004016111f090613206565b60405180910390fd5b600760003373ffffffffffffffffffffffffffffffffffffffff1673ffffffffffffffffffffffffffffffffffffffff168152602001908152602001600020600001819080600181540180825580915050600190039060005260206000200160009091909190915055600760003373ffffffffffffffffffffffffffffffffffffffff1673ffffffffffffffffffffffffffffffffffffffff168152602001908152602001600020600101429080600181540180825580915050600190039060005260206000200160009091909190915055600760003373ffffffffffffffffffffffffffffffffffffffff1673ffffffffffffffffffffffffffffffffffffffff1681526020019081526020016000206002016005908060018154018082558091505060019003906000526020600020906002020160009091909190915060008201548160000155600182015481600101555050600760003373ffffffffffffffffffffffffffffffffffffffff1673ffffffffffffffffffffffffffffffffffffffff168152602001908152602001600020600401600090806001815401808255809150506001900390600052602060002090602091828204019190069091909190916101000a81548160ff021916908315150217905550600260009054906101000a900473ffffffffffffffffffffffffffffffffffffffff1673ffffffffffffffffffffffffffffffffffffffff166342842e0e3330846040518463ffffffff1660e01b815260040161143293929190613047565b600060405180830381600087803b15801561144c57600080fd5b505af1158015611460573d6000803e3d6000fd5b505050507fb9a8e9862e9f26d54fc878291fa9354d1629940f2a39517bd62522ec47aec1058142604051611495929190613137565b60405180910390a16114a5612731565b50565b6060600760008373ffffffffffffffffffffffffffffffffffffffff1673ffffffffffffffffffffffffffffffffffffffff168152602001908152602001600020600201805480602002602001604051908101604052809291908181526020016000905b828210156115525783829060005260206000209060020201604051806040016040529081600082015481526020016001820154815250508152602001906001019061150c565b505050509050919050565b600061156833611a1c565b9050600081116115ad576040517f08c379a00000000000000000000000000000000000000000000000000000000081526004016115a490613364565b60405180910390fd5b60011515600360009054906101000a900473ffffffffffffffffffffffffffffffffffffffff1673ffffffffffffffffffffffffffffffffffffffff1663a9059cbb33846040518363ffffffff1660e01b815260040161160e929190613384565b6020604051808303816000875af115801561162d573d6000803e3d6000fd5b505050506040513d601f19601f8201168201806040525081019061165191906133d9565b15150361183157600061166333610906565b519050600042905060005b828110156117e157600061174d600760003373ffffffffffffffffffffffffffffffffffffffff1673ffffffffffffffffffffffffffffffffffffffff16815260200190815260200160002060020183815481106116cf576116ce613018565b5b906000526020600020906002020160000154600760003373ffffffffffffffffffffffffffffffffffffffff1673ffffffffffffffffffffffffffffffffffffffff168152602001908152602001600020600201848154811061173557611734613018565b5b906000526020600020906002020160010154856121ff565b905080156117d5576001600760003373ffffffffffffffffffffffffffffffffffffffff1673ffffffffffffffffffffffffffffffffffffffff16815260200190815260200160002060040183815481106117ab576117aa613018565b5b90600052602060002090602091828204019190066101000a81548160ff0219169083151502179055505b8160010191505061166e565b506000600760003373ffffffffffffffffffffffffffffffffffffffff1673ffffffffffffffffffffffffffffffffffffffff168152602001908152602001600020600301819055505050611836565b600080fd5b50565b600260009054906101000a900473ffffffffffffffffffffffffffffffffffffffff1681565b600360009054906101000a900473ffffffffffffffffffffffffffffffffffffffff1681565b6000806005600001541180156118af5750600560010154600560000154426118ad9190613103565b105b905090565b600080600760003373ffffffffffffffffffffffffffffffffffffffff1673ffffffffffffffffffffffffffffffffffffffff16815260200190815260200160002060000180549050905060005b8181101561198d5783600760003373ffffffffffffffffffffffffffffffffffffffff1673ffffffffffffffffffffffffffffffffffffffff168152602001908152602001600020600001828154811061195f5761195e613018565b5b90600052602060002001540361197a57600192505050611994565b808061198590613406565b915050611902565b5060009150505b919050565b6119a1611c08565b600073ffffffffffffffffffffffffffffffffffffffff168173ffffffffffffffffffffffffffffffffffffffff1603611a10576040517f08c379a0000000000000000000000000000000000000000000000000000000008152600401611a07906134c0565b60405180910390fd5b611a198161273b565b50565b600080600760008473ffffffffffffffffffffffffffffffffffffffff1673ffffffffffffffffffffffffffffffffffffffff1681526020019081526020016000206003015490506000611a6f84610906565b519050600042905060005b82811015611bfc57600760008773ffffffffffffffffffffffffffffffffffffffff1673ffffffffffffffffffffffffffffffffffffffff1681526020019081526020016000206004018181548110611ad657611ad5613018565b5b90600052602060002090602091828204019190069054906101000a900460ff16158015611bd45750611bd3600760008873ffffffffffffffffffffffffffffffffffffffff1673ffffffffffffffffffffffffffffffffffffffff1681526020019081526020016000206002018281548110611b5557611b54613018565b5b906000526020600020906002020160000154600760008973ffffffffffffffffffffffffffffffffffffffff1673ffffffffffffffffffffffffffffffffffffffff1681526020019081526020016000206002018381548110611bbb57611bba613018565b5b906000526020600020906002020160010154846121ff565b5b15611bf157611be38187611f3e565b84611bee91906130ad565b93505b806001019050611a7a565b50829350505050919050565b611c10612801565b73ffffffffffffffffffffffffffffffffffffffff16611c2e6110e6565b73ffffffffffffffffffffffffffffffffffffffff1614611c84576040517f08c379a0000000000000000000000000000000000000000000000000000000008152600401611c7b9061352c565b60405180910390fd5b565b600260005403611ccb576040517f08c379a0000000000000000000000000000000000000000000000000000000008152600401611cc290613598565b60405180910390fd5b6002600081905550565b6000806000600760008573ffffffffffffffffffffffffffffffffffffffff1673ffffffffffffffffffffffffffffffffffffffff1681526020019081526020016000206040518060a001604052908160008201805480602002602001604051908101604052809291908181526020018280548015611d7357602002820191906000526020600020905b815481526020019060010190808311611d5f575b5050505050815260200160018201805480602002602001604051908101604052809291908181526020018280548015611dcb57602002820191906000526020600020905b815481526020019060010190808311611db7575b5050505050815260200160028201805480602002602001604051908101604052809291908181526020016000905b82821015611e3f57838290600052602060002090600202016040518060400160405290816000820154815260200160018201548152505081526020019060010190611df9565b5050505081526020016003820154815260200160048201805480602002602001604051908101604052809291908181526020018280548015611ec557602002820191906000526020600020906000905b82829054906101000a900460ff16151581526020019060010190602082600001049283019260010382029150808411611e8f5790505b50505050508152505090506000806000836000015151905060005b81811015611f2c578885600001518281518110611f0057611eff613018565b5b602002602001015103611f195780935060019250611f2c565b8080611f2490613406565b915050611ee0565b50828295509550505050509250929050565b600080600760008473ffffffffffffffffffffffffffffffffffffffff1673ffffffffffffffffffffffffffffffffffffffff1681526020019081526020016000206040518060a001604052908160008201805480602002602001604051908101604052809291908181526020018280548015611fda57602002820191906000526020600020905b815481526020019060010190808311611fc6575b505050505081526020016001820180548060200260200160405190810160405280929190818152602001828054801561203257602002820191906000526020600020905b81548152602001906001019080831161201e575b5050505050815260200160028201805480602002602001604051908101604052809291908181526020016000905b828210156120a657838290600052602060002090600202016040518060400160405290816000820154815260200160018201548152505081526020019060010190612060565b505050508152602001600382015481526020016004820180548060200260200160405190810160405280929190818152602001828054801561212c57602002820191906000526020600020906000905b82829054906101000a900460ff161515815260200190600101906020826000010492830192600103820291508084116120f65790505b50505050508152505090506000816040015185815181106121505761214f613018565b5b6020026020010151602001518260400151868151811061217357612172613018565b5b60200260200101516000015161218991906130ad565b9050600081421161219a574261219c565b815b90506000836020015187815181106121b7576121b6613018565b5b6020026020010151826121ca9190613103565b90506000610e10826121dc91906132e7565b90506000600454826121ee91906132e7565b905080965050505050505092915050565b600081838561220e91906130ad565b1090509392505050565b600760003373ffffffffffffffffffffffffffffffffffffffff1673ffffffffffffffffffffffffffffffffffffffff168152602001908152602001600020600101818154811061226c5761226b613018565b5b9060005260206000200154600760003373ffffffffffffffffffffffffffffffffffffffff1673ffffffffffffffffffffffffffffffffffffffff16815260200190815260200160002060010183815481106122cb576122ca613018565b5b9060005260206000200181905550600760003373ffffffffffffffffffffffffffffffffffffffff1673ffffffffffffffffffffffffffffffffffffffff16815260200190815260200160002060010180548061232b5761232a6135b8565b5b60019003818190600052602060002001600090559055600760003373ffffffffffffffffffffffffffffffffffffffff1673ffffffffffffffffffffffffffffffffffffffff168152602001908152602001600020600001818154811061239557612394613018565b5b9060005260206000200154600760003373ffffffffffffffffffffffffffffffffffffffff1673ffffffffffffffffffffffffffffffffffffffff16815260200190815260200160002060000183815481106123f4576123f3613018565b5b9060005260206000200181905550600760003373ffffffffffffffffffffffffffffffffffffffff1673ffffffffffffffffffffffffffffffffffffffff168152602001908152602001600020600001805480612454576124536135b8565b5b60019003818190600052602060002001600090559055600760003373ffffffffffffffffffffffffffffffffffffffff1673ffffffffffffffffffffffffffffffffffffffff16815260200190815260200160002060020181815481106124be576124bd613018565b5b9060005260206000209060020201600760003373ffffffffffffffffffffffffffffffffffffffff1673ffffffffffffffffffffffffffffffffffffffff16815260200190815260200160002060020183815481106125205761251f613018565b5b90600052602060002090600202016000820154816000015560018201548160010155905050600760003373ffffffffffffffffffffffffffffffffffffffff1673ffffffffffffffffffffffffffffffffffffffff168152602001908152602001600020600201805480612597576125966135b8565b5b6001900381819060005260206000209060020201600080820160009055600182016000905550509055600760003373ffffffffffffffffffffffffffffffffffffffff1673ffffffffffffffffffffffffffffffffffffffff168152602001908152602001600020600401818154811061261457612613613018565b5b90600052602060002090602091828204019190069054906101000a900460ff16600760003373ffffffffffffffffffffffffffffffffffffffff1673ffffffffffffffffffffffffffffffffffffffff168152602001908152602001600020600401838154811061268857612687613018565b5b90600052602060002090602091828204019190066101000a81548160ff021916908315150217905550600760003373ffffffffffffffffffffffffffffffffffffffff1673ffffffffffffffffffffffffffffffffffffffff168152602001908152602001600020600401805480612703576127026135b8565b5b60019003818190600052602060002090602091828204019190066101000a81549060ff021916905590555050565b6001600081905550565b6000600160009054906101000a900473ffffffffffffffffffffffffffffffffffffffff16905081600160006101000a81548173ffffffffffffffffffffffffffffffffffffffff021916908373ffffffffffffffffffffffffffffffffffffffff1602179055508173ffffffffffffffffffffffffffffffffffffffff168173ffffffffffffffffffffffffffffffffffffffff167f8be0079c531659141344cd1fd0a4f28419497f9722a3daafe3b4186f6b6457e060405160405180910390a35050565b600033905090565b6000604051905090565b600080fd5b600080fd5b6000819050919050565b6128308161281d565b811461283b57600080fd5b50565b60008135905061284d81612827565b92915050565b60006020828403121561286957612868612813565b5b60006128778482850161283e565b91505092915050565b600073ffffffffffffffffffffffffffffffffffffffff82169050919050565b60006128ab82612880565b9050919050565b6128bb816128a0565b81146128c657600080fd5b50565b6000813590506128d8816128b2565b92915050565b600080fd5b600080fd5b6000601f19601f8301169050919050565b7f4e487b7100000000000000000000000000000000000000000000000000000000600052604160045260246000fd5b612931826128e8565b810181811067ffffffffffffffff821117156129505761294f6128f9565b5b80604052505050565b6000612963612809565b905061296f8282612928565b919050565b600067ffffffffffffffff82111561298f5761298e6128f9565b5b612998826128e8565b9050602081019050919050565b82818337600083830152505050565b60006129c76129c284612974565b612959565b9050828152602081018484840111156129e3576129e26128e3565b5b6129ee8482856129a5565b509392505050565b600082601f830112612a0b57612a0a6128de565b5b8135612a1b8482602086016129b4565b91505092915050565b60008060008060808587031215612a3e57612a3d612813565b5b6000612a4c878288016128c9565b9450506020612a5d878288016128c9565b9350506040612a6e8782880161283e565b925050606085013567ffffffffffffffff811115612a8f57612a8e612818565b5b612a9b878288016129f6565b91505092959194509250565b60007fffffffff0000000000000000000000000000000000000000000000000000000082169050919050565b612adc81612aa7565b82525050565b6000602082019050612af76000830184612ad3565b92915050565b612b068161281d565b82525050565b6000602082019050612b216000830184612afd565b92915050565b600060208284031215612b3d57612b3c612813565b5b6000612b4b848285016128c9565b91505092915050565b600081519050919050565b600082825260208201905092915050565b6000819050602082019050919050565b612b898161281d565b82525050565b6000612b9b8383612b80565b60208301905092915050565b6000602082019050919050565b6000612bbf82612b54565b612bc98185612b5f565b9350612bd483612b70565b8060005b83811015612c05578151612bec8882612b8f565b9750612bf783612ba7565b925050600181019050612bd8565b5085935050505092915050565b60006020820190508181036000830152612c2c8184612bb4565b905092915050565b60008060408385031215612c4b57612c4a612813565b5b6000612c59858286016128c9565b9250506020612c6a858286016128c9565b9150509250929050565b600067ffffffffffffffff821115612c8f57612c8e6128f9565b5b602082029050602081019050919050565b600080fd5b6000612cb8612cb384612c74565b612959565b90508083825260208201905060208402830185811115612cdb57612cda612ca0565b5b835b81811015612d045780612cf0888261283e565b845260208401935050602081019050612cdd565b5050509392505050565b600082601f830112612d2357612d226128de565b5b8135612d33848260208601612ca5565b91505092915050565b600060208284031215612d5257612d51612813565b5b600082013567ffffffffffffffff811115612d7057612d6f612818565b5b612d7c84828501612d0e565b91505092915050565b612d8e816128a0565b82525050565b6000602082019050612da96000830184612d85565b92915050565b600081519050919050565b600082825260208201905092915050565b6000819050602082019050919050565b604082016000820151612df16000850182612b80565b506020820151612e046020850182612b80565b50505050565b6000612e168383612ddb565b60408301905092915050565b6000602082019050919050565b6000612e3a82612daf565b612e448185612dba565b9350612e4f83612dcb565b8060005b83811015612e80578151612e678882612e0a565b9750612e7283612e22565b925050600181019050612e53565b5085935050505092915050565b60006020820190508181036000830152612ea78184612e2f565b905092915050565b6000819050919050565b6000612ed4612ecf612eca84612880565b612eaf565b612880565b9050919050565b6000612ee682612eb9565b9050919050565b6000612ef882612edb565b9050919050565b612f0881612eed565b82525050565b6000602082019050612f236000830184612eff565b92915050565b6000612f3482612edb565b9050919050565b612f4481612f29565b82525050565b6000602082019050612f5f6000830184612f3b565b92915050565b60008115159050919050565b612f7a81612f65565b82525050565b6000602082019050612f956000830184612f71565b92915050565b600082825260208201905092915050565b7f496e646578206e6f7420666f756e6420666f722074686973207374616b65722e600082015250565b6000612fe2602083612f9b565b9150612fed82612fac565b602082019050919050565b6000602082019050818103600083015261301181612fd5565b9050919050565b7f4e487b7100000000000000000000000000000000000000000000000000000000600052603260045260246000fd5b600060608201905061305c6000830186612d85565b6130696020830185612d85565b6130766040830184612afd565b949350505050565b7f4e487b7100000000000000000000000000000000000000000000000000000000600052601160045260246000fd5b60006130b88261281d565b91506130c38361281d565b9250827fffffffffffffffffffffffffffffffffffffffffffffffffffffffffffffffff038211156130f8576130f761307e565b5b828201905092915050565b600061310e8261281d565b91506131198361281d565b92508282101561312c5761312b61307e565b5b828203905092915050565b600060408201905061314c6000830185612afd565b6131596020830184612afd565b9392505050565b600061316b8261281d565b91506131768361281d565b9250817fffffffffffffffffffffffffffffffffffffffffffffffffffffffffffffffff04831182151516156131af576131ae61307e565b5b828202905092915050565b7f5468657265206973206e6f206f6e676f696e67206d697373696f6e2100000000600082015250565b60006131f0601c83612f9b565b91506131fb826131ba565b602082019050919050565b6000602082019050818103600083015261321f816131e3565b9050919050565b7f546869732047656c61746f206973207374696c6c206f6e20616e206f6e676f6960008201527f6e67206d697373696f6e21000000000000000000000000000000000000000000602082015250565b6000613282602b83612f9b565b915061328d82613226565b604082019050919050565b600060208201905081810360008301526132b181613275565b9050919050565b7f4e487b7100000000000000000000000000000000000000000000000000000000600052601260045260246000fd5b60006132f28261281d565b91506132fd8361281d565b92508261330d5761330c6132b8565b5b828204905092915050565b7f4e6f20746f6b656e7320746f20636c61696d2e00000000000000000000000000600082015250565b600061334e601383612f9b565b915061335982613318565b602082019050919050565b6000602082019050818103600083015261337d81613341565b9050919050565b60006040820190506133996000830185612d85565b6133a66020830184612afd565b9392505050565b6133b681612f65565b81146133c157600080fd5b50565b6000815190506133d3816133ad565b92915050565b6000602082840312156133ef576133ee612813565b5b60006133fd848285016133c4565b91505092915050565b60006134118261281d565b91507fffffffffffffffffffffffffffffffffffffffffffffffffffffffffffffffff82036134435761344261307e565b5b600182019050919050565b7f4f776e61626c653a206e6577206f776e657220697320746865207a65726f206160008201527f6464726573730000000000000000000000000000000000000000000000000000602082015250565b60006134aa602683612f9b565b91506134b58261344e565b604082019050919050565b600060208201905081810360008301526134d98161349d565b9050919050565b7f4f776e61626c653a2063616c6c6572206973206e6f7420746865206f776e6572600082015250565b6000613516602083612f9b565b9150613521826134e0565b602082019050919050565b6000602082019050818103600083015261354581613509565b9050919050565b7f5265656e7472616e637947756172643a207265656e7472616e742063616c6c00600082015250565b6000613582601f83612f9b565b915061358d8261354c565b602082019050919050565b600060208201905081810360008301526135b181613575565b9050919050565b7f4e487b7100000000000000000000000000000000000000000000000000000000600052603160045260246000fdfea26469706673582212205a57a9c245df850ea16b0adea906f1ed391efd52bf29767faed88ad3b9ce867b64736f6c634300080d0033",
  "linkReferences": {},
  "deployedLinkReferences": {}
}