{
  "_format": "hh-sol-artifact-1",
  "contractName": "NFTStaker",
  "sourceName": "src/backend/contracts/NFTStaker.sol",
  "abi": [
    {
      "inputs": [
        {
          "internalType": "address",
          "name": "nftAddress",
          "type": "address"
        }
      ],
      "stateMutability": "nonpayable",
      "type": "constructor"
    },
    {
      "anonymous": false,
      "inputs": [
        {
          "indexed": true,
          "internalType": "address",
          "name": "previousOwner",
          "type": "address"
        },
        {
          "indexed": true,
          "internalType": "address",
          "name": "newOwner",
          "type": "address"
        }
      ],
      "name": "OwnershipTransferred",
      "type": "event"
    },
    {
      "anonymous": false,
      "inputs": [
        {
          "indexed": false,
          "internalType": "uint256",
          "name": "tokenId",
          "type": "uint256"
        },
        {
          "indexed": false,
          "internalType": "uint256",
          "name": "timestamp",
          "type": "uint256"
        }
      ],
      "name": "StakeSuccessful",
      "type": "event"
    },
    {
      "anonymous": false,
      "inputs": [
        {
          "indexed": false,
          "internalType": "uint256",
          "name": "tokenId",
          "type": "uint256"
        },
        {
          "indexed": false,
          "internalType": "uint256",
          "name": "reward",
          "type": "uint256"
        }
      ],
      "name": "UnstakeSuccessful",
      "type": "event"
    },
    {
      "inputs": [],
      "name": "claimReward",
      "outputs": [],
      "stateMutability": "nonpayable",
      "type": "function"
    },
    {
      "inputs": [
        {
          "internalType": "address",
          "name": "_user",
          "type": "address"
        }
      ],
      "name": "getRewardToClaim",
      "outputs": [
        {
          "internalType": "uint256",
          "name": "",
          "type": "uint256"
        }
      ],
      "stateMutability": "view",
      "type": "function"
    },
    {
      "inputs": [
        {
          "internalType": "address",
          "name": "_user",
          "type": "address"
        }
      ],
      "name": "getStakedMissions",
      "outputs": [
        {
          "components": [
            {
              "internalType": "uint256",
              "name": "startTimestamp",
              "type": "uint256"
            },
            {
              "internalType": "uint256",
              "name": "duration",
              "type": "uint256"
            }
          ],
          "internalType": "struct NFTStaker.Mission[]",
          "name": "missions",
          "type": "tuple[]"
        }
      ],
      "stateMutability": "view",
      "type": "function"
    },
    {
      "inputs": [
        {
          "internalType": "address",
          "name": "_user",
          "type": "address"
        }
      ],
      "name": "getStakedTimestamps",
      "outputs": [
        {
          "internalType": "uint256[]",
          "name": "timestamps",
          "type": "uint256[]"
        }
      ],
      "stateMutability": "view",
      "type": "function"
    },
    {
      "inputs": [
        {
          "internalType": "address",
          "name": "_user",
          "type": "address"
        }
      ],
      "name": "getStakedTokens",
      "outputs": [
        {
          "internalType": "uint256[]",
          "name": "tokenIds",
          "type": "uint256[]"
        }
      ],
      "stateMutability": "view",
      "type": "function"
    },
    {
      "inputs": [],
      "name": "isMissionOngoing",
      "outputs": [
        {
          "internalType": "bool",
          "name": "",
          "type": "bool"
        }
      ],
      "stateMutability": "view",
      "type": "function"
    },
    {
      "inputs": [
        {
          "internalType": "uint256",
          "name": "_tokenId",
          "type": "uint256"
        }
      ],
      "name": "isTokenStaked",
      "outputs": [
        {
          "internalType": "bool",
          "name": "",
          "type": "bool"
        }
      ],
      "stateMutability": "view",
      "type": "function"
    },
    {
      "inputs": [
        {
          "internalType": "address",
          "name": "",
          "type": "address"
        },
        {
          "internalType": "address",
          "name": "",
          "type": "address"
        },
        {
          "internalType": "uint256",
          "name": "",
          "type": "uint256"
        },
        {
          "internalType": "bytes",
          "name": "",
          "type": "bytes"
        }
      ],
      "name": "onERC721Received",
      "outputs": [
        {
          "internalType": "bytes4",
          "name": "",
          "type": "bytes4"
        }
      ],
      "stateMutability": "nonpayable",
      "type": "function"
    },
    {
      "inputs": [],
      "name": "owner",
      "outputs": [
        {
          "internalType": "address",
          "name": "",
          "type": "address"
        }
      ],
      "stateMutability": "view",
      "type": "function"
    },
    {
      "inputs": [],
      "name": "parentNFT",
      "outputs": [
        {
          "internalType": "contract ERC721A",
          "name": "",
          "type": "address"
        }
      ],
      "stateMutability": "view",
      "type": "function"
    },
    {
      "inputs": [],
      "name": "renounceOwnership",
      "outputs": [],
      "stateMutability": "nonpayable",
      "type": "function"
    },
    {
      "inputs": [],
      "name": "rewardRate",
      "outputs": [
        {
          "internalType": "uint256",
          "name": "",
          "type": "uint256"
        }
      ],
      "stateMutability": "view",
      "type": "function"
    },
    {
      "inputs": [],
      "name": "rewardsToken",
      "outputs": [
        {
          "internalType": "contract ERC20",
          "name": "",
          "type": "address"
        }
      ],
      "stateMutability": "view",
      "type": "function"
    },
    {
      "inputs": [
        {
          "internalType": "address",
          "name": "_newOwner",
          "type": "address"
        },
        {
          "internalType": "address",
          "name": "_tokenAddress",
          "type": "address"
        }
      ],
      "name": "setOwnerAndTokenAddress",
      "outputs": [],
      "stateMutability": "nonpayable",
      "type": "function"
    },
    {
      "inputs": [
        {
          "internalType": "uint256",
          "name": "_tokenId",
          "type": "uint256"
        }
      ],
      "name": "stake",
      "outputs": [],
      "stateMutability": "nonpayable",
      "type": "function"
    },
    {
      "inputs": [
        {
          "internalType": "uint256[]",
          "name": "_tokenIds",
          "type": "uint256[]"
        }
      ],
      "name": "stakeBatch",
      "outputs": [],
      "stateMutability": "nonpayable",
      "type": "function"
    },
    {
      "inputs": [
        {
          "internalType": "uint256",
          "name": "_duration",
          "type": "uint256"
        }
      ],
      "name": "startMission",
      "outputs": [],
      "stateMutability": "nonpayable",
      "type": "function"
    },
    {
      "inputs": [
        {
          "internalType": "address",
          "name": "newOwner",
          "type": "address"
        }
      ],
      "name": "transferOwnership",
      "outputs": [],
      "stateMutability": "nonpayable",
      "type": "function"
    },
    {
      "inputs": [
        {
          "internalType": "uint256",
          "name": "_tokenId",
          "type": "uint256"
        }
      ],
      "name": "unstake",
      "outputs": [],
      "stateMutability": "nonpayable",
      "type": "function"
    }
  ],
  "bytecode": "0x60806040523480156200001157600080fd5b50604051620027f6380380620027f6833981810160405281019062000037919062000213565b60016000819055506200005f62000053620000db60201b60201c565b620000e360201b60201c565b80600260006101000a81548173ffffffffffffffffffffffffffffffffffffffff021916908373ffffffffffffffffffffffffffffffffffffffff160217905550620151806012600a620000b49190620003d2565b6005620000c2919062000423565b620000ce9190620004b3565b60048190555050620004eb565b600033905090565b6000600160009054906101000a900473ffffffffffffffffffffffffffffffffffffffff16905081600160006101000a81548173ffffffffffffffffffffffffffffffffffffffff021916908373ffffffffffffffffffffffffffffffffffffffff1602179055508173ffffffffffffffffffffffffffffffffffffffff168173ffffffffffffffffffffffffffffffffffffffff167f8be0079c531659141344cd1fd0a4f28419497f9722a3daafe3b4186f6b6457e060405160405180910390a35050565b600080fd5b600073ffffffffffffffffffffffffffffffffffffffff82169050919050565b6000620001db82620001ae565b9050919050565b620001ed81620001ce565b8114620001f957600080fd5b50565b6000815190506200020d81620001e2565b92915050565b6000602082840312156200022c576200022b620001a9565b5b60006200023c84828501620001fc565b91505092915050565b7f4e487b7100000000000000000000000000000000000000000000000000000000600052601160045260246000fd5b60008160011c9050919050565b6000808291508390505b6001851115620002d357808604811115620002ab57620002aa62000245565b5b6001851615620002bb5780820291505b8081029050620002cb8562000274565b94506200028b565b94509492505050565b600082620002ee5760019050620003c1565b81620002fe5760009050620003c1565b8160018114620003175760028114620003225762000358565b6001915050620003c1565b60ff84111562000337576200033662000245565b5b8360020a91508482111562000351576200035062000245565b5b50620003c1565b5060208310610133831016604e8410600b8410161715620003925782820a9050838111156200038c576200038b62000245565b5b620003c1565b620003a1848484600162000281565b92509050818404811115620003bb57620003ba62000245565b5b81810290505b9392505050565b6000819050919050565b6000620003df82620003c8565b9150620003ec83620003c8565b92506200041b7fffffffffffffffffffffffffffffffffffffffffffffffffffffffffffffffff8484620002dc565b905092915050565b60006200043082620003c8565b91506200043d83620003c8565b9250817fffffffffffffffffffffffffffffffffffffffffffffffffffffffffffffffff048311821515161562000479576200047862000245565b5b828202905092915050565b7f4e487b7100000000000000000000000000000000000000000000000000000000600052601260045260246000fd5b6000620004c082620003c8565b9150620004cd83620003c8565b925082620004e057620004df62000484565b5b828204905092915050565b6122fb80620004fb6000396000f3fe608060405234801561001057600080fd5b50600436106101215760003560e01c8063a04ebd4b116100ad578063d1af0c7d11610071578063d1af0c7d146102e0578063e6d7d9d1146102fe578063f0a524241461031c578063f2fde38b1461034c578063fb1ab0a91461036857610121565b8063a04ebd4b1461023c578063a694fc3a1461026c578063a7c1e29a14610288578063b88a802f146102b8578063b8e33fb2146102c257610121565b806363c28db1116100f457806363c28db1146101aa578063647fb46c146101da578063715018a6146101f65780637b0a47ee146102005780638da5cb5b1461021e57610121565b8063150b7a0214610126578063230f436d146101565780632e17de78146101725780633a7055f91461018e575b600080fd5b610140600480360381019061013b9190611833565b610398565b60405161014d91906118f1565b60405180910390f35b610170600480360381019061016b91906119d4565b6103ac565b005b61018c60048036038101906101879190611a1d565b610447565b005b6101a860048036038101906101a39190611a1d565b610813565b005b6101c460048036038101906101bf9190611a4a565b61083f565b6040516101d19190611b35565b60405180910390f35b6101f460048036038101906101ef9190611b57565b6108d9565b005b6101fe61092f565b005b610208610943565b6040516102159190611ba6565b60405180910390f35b610226610949565b6040516102339190611bd0565b60405180910390f35b61025660048036038101906102519190611a4a565b610973565b6040516102639190611b35565b60405180910390f35b61028660048036038101906102819190611a1d565b610a0d565b005b6102a2600480360381019061029d9190611a4a565b610c86565b6040516102af9190611cc9565b60405180910390f35b6102c0610d3b565b005b6102ca610ec5565b6040516102d79190611d4a565b60405180910390f35b6102e8610eeb565b6040516102f59190611d86565b60405180910390f35b610306610f11565b6040516103139190611dbc565b60405180910390f35b61033660048036038101906103319190611a1d565b610f40565b6040516103439190611dbc565b60405180910390f35b61036660048036038101906103619190611a4a565b611025565b005b610382600480360381019061037d9190611a4a565b6110a8565b60405161038f9190611ba6565b60405180910390f35b600063150b7a0260e01b9050949350505050565b6103b46110f4565b6103bc610f11565b6103fb576040517f08c379a00000000000000000000000000000000000000000000000000000000081526004016103f290611e34565b60405180910390fd5b60008151905060005b8181101561043a5761042f83828151811061042257610421611e54565b5b6020026020010151610a0d565b806001019050610404565b5050610444611143565b50565b61044f6110f4565b6000600760003373ffffffffffffffffffffffffffffffffffffffff1673ffffffffffffffffffffffffffffffffffffffff168152602001908152602001600020604051806080016040529081600082018054806020026020016040519081016040528092919081815260200182805480156104ea57602002820191906000526020600020905b8154815260200190600101908083116104d6575b505050505081526020016001820180548060200260200160405190810160405280929190818152602001828054801561054257602002820191906000526020600020905b81548152602001906001019080831161052e575b5050505050815260200160028201805480602002602001604051908101604052809291908181526020016000905b828210156105b657838290600052602060002090600202016040518060400160405290816000820154815260200160018201548152505081526020019060010190610570565b5050505081526020016003820154815250509050600080826000015151905060005b818110156106205784846000015182815181106105f8576105f7611e54565b5b60200260200101510361060d57809250610620565b808061061890611eb2565b9150506105d8565b5060008360400151838151811061063a57610639611e54565b5b6020026020010151602001518460400151848151811061065d5761065c611e54565b5b6020026020010151600001516106739190611efa565b905060008142116106845742610686565b815b90506000856020015185815181106106a1576106a0611e54565b5b6020026020010151826106b49190611f50565b90506000600454826106c69190611f84565b9050600260009054906101000a900473ffffffffffffffffffffffffffffffffffffffff1673ffffffffffffffffffffffffffffffffffffffff166342842e0e30338b6040518463ffffffff1660e01b815260040161072793929190611fde565b600060405180830381600087803b15801561074157600080fd5b505af1158015610755573d6000803e3d6000fd5b5050505061076f8660018761076a9190611f50565b61114d565b80600760003373ffffffffffffffffffffffffffffffffffffffff1673ffffffffffffffffffffffffffffffffffffffff16815260200190815260200160002060030160008282546107c19190611efa565b925050819055507f97cc56283430ac8692d29c7522a69fa6c2bde7e47d781be6b58b034d80bc282888826040516107f9929190612015565b60405180910390a150505050505050610810611143565b50565b61081b6114f9565b42600560000181905550610e10816108339190611f84565b60056001018190555050565b6060600760008373ffffffffffffffffffffffffffffffffffffffff1673ffffffffffffffffffffffffffffffffffffffff1681526020019081526020016000206000018054806020026020016040519081016040528092919081815260200182805480156108cd57602002820191906000526020600020905b8154815260200190600101908083116108b9575b50505050509050919050565b6108e16114f9565b80600360006101000a81548173ffffffffffffffffffffffffffffffffffffffff021916908373ffffffffffffffffffffffffffffffffffffffff16021790555061092b82611577565b5050565b6109376114f9565b6109416000611577565b565b60045481565b6000600160009054906101000a900473ffffffffffffffffffffffffffffffffffffffff16905090565b6060600760008373ffffffffffffffffffffffffffffffffffffffff1673ffffffffffffffffffffffffffffffffffffffff168152602001908152602001600020600101805480602002602001604051908101604052809291908181526020018280548015610a0157602002820191906000526020600020905b8154815260200190600101908083116109ed575b50505050509050919050565b610a156110f4565b610a1d610f11565b610a5c576040517f08c379a0000000000000000000000000000000000000000000000000000000008152600401610a5390611e34565b60405180910390fd5b600760003373ffffffffffffffffffffffffffffffffffffffff1673ffffffffffffffffffffffffffffffffffffffff168152602001908152602001600020600001819080600181540180825580915050600190039060005260206000200160009091909190915055600760003373ffffffffffffffffffffffffffffffffffffffff1673ffffffffffffffffffffffffffffffffffffffff168152602001908152602001600020600101429080600181540180825580915050600190039060005260206000200160009091909190915055600760003373ffffffffffffffffffffffffffffffffffffffff1673ffffffffffffffffffffffffffffffffffffffff1681526020019081526020016000206002016005908060018154018082558091505060019003906000526020600020906002020160009091909190915060008201548160000155600182015481600101555050600260009054906101000a900473ffffffffffffffffffffffffffffffffffffffff1673ffffffffffffffffffffffffffffffffffffffff166342842e0e3330846040518463ffffffff1660e01b8152600401610c1093929190611fde565b600060405180830381600087803b158015610c2a57600080fd5b505af1158015610c3e573d6000803e3d6000fd5b505050507fb9a8e9862e9f26d54fc878291fa9354d1629940f2a39517bd62522ec47aec1058142604051610c73929190612015565b60405180910390a1610c83611143565b50565b6060600760008373ffffffffffffffffffffffffffffffffffffffff1673ffffffffffffffffffffffffffffffffffffffff168152602001908152602001600020600201805480602002602001604051908101604052809291908181526020016000905b82821015610d3057838290600052602060002090600202016040518060400160405290816000820154815260200160018201548152505081526020019060010190610cea565b505050509050919050565b6000600760003373ffffffffffffffffffffffffffffffffffffffff1673ffffffffffffffffffffffffffffffffffffffff16815260200190815260200160002060030154905060008111610dc5576040517f08c379a0000000000000000000000000000000000000000000000000000000008152600401610dbc9061208a565b60405180910390fd5b60011515600360009054906101000a900473ffffffffffffffffffffffffffffffffffffffff1673ffffffffffffffffffffffffffffffffffffffff1663a9059cbb33846040518363ffffffff1660e01b8152600401610e269291906120aa565b6020604051808303816000875af1158015610e45573d6000803e3d6000fd5b505050506040513d601f19601f82011682018060405250810190610e6991906120ff565b151503610ebd576000600760003373ffffffffffffffffffffffffffffffffffffffff1673ffffffffffffffffffffffffffffffffffffffff16815260200190815260200160002060030181905550610ec2565b600080fd5b50565b600260009054906101000a900473ffffffffffffffffffffffffffffffffffffffff1681565b600360009054906101000a900473ffffffffffffffffffffffffffffffffffffffff1681565b600080600560000154118015610f3b575060056001015460056000015442610f399190611f50565b105b905090565b600080600760003373ffffffffffffffffffffffffffffffffffffffff1673ffffffffffffffffffffffffffffffffffffffff16815260200190815260200160002060000180549050905060005b818110156110195783600760003373ffffffffffffffffffffffffffffffffffffffff1673ffffffffffffffffffffffffffffffffffffffff1681526020019081526020016000206000018281548110610feb57610fea611e54565b5b90600052602060002001540361100657600192505050611020565b808061101190611eb2565b915050610f8e565b5060009150505b919050565b61102d6114f9565b600073ffffffffffffffffffffffffffffffffffffffff168173ffffffffffffffffffffffffffffffffffffffff160361109c576040517f08c379a00000000000000000000000000000000000000000000000000000000081526004016110939061219e565b60405180910390fd5b6110a581611577565b50565b6000600760008373ffffffffffffffffffffffffffffffffffffffff1673ffffffffffffffffffffffffffffffffffffffff168152602001908152602001600020600301549050919050565b600260005403611139576040517f08c379a00000000000000000000000000000000000000000000000000000000081526004016111309061220a565b60405180910390fd5b6002600081905550565b6001600081905550565b600760003373ffffffffffffffffffffffffffffffffffffffff1673ffffffffffffffffffffffffffffffffffffffff16815260200190815260200160002060010181815481106111a1576111a0611e54565b5b9060005260206000200154600760003373ffffffffffffffffffffffffffffffffffffffff1673ffffffffffffffffffffffffffffffffffffffff1681526020019081526020016000206001018381548110611200576111ff611e54565b5b9060005260206000200181905550600760003373ffffffffffffffffffffffffffffffffffffffff1673ffffffffffffffffffffffffffffffffffffffff1681526020019081526020016000206001018054806112605761125f61222a565b5b60019003818190600052602060002001600090559055600760003373ffffffffffffffffffffffffffffffffffffffff1673ffffffffffffffffffffffffffffffffffffffff16815260200190815260200160002060000181815481106112ca576112c9611e54565b5b9060005260206000200154600760003373ffffffffffffffffffffffffffffffffffffffff1673ffffffffffffffffffffffffffffffffffffffff168152602001908152602001600020600001838154811061132957611328611e54565b5b9060005260206000200181905550600760003373ffffffffffffffffffffffffffffffffffffffff1673ffffffffffffffffffffffffffffffffffffffff1681526020019081526020016000206000018054806113895761138861222a565b5b60019003818190600052602060002001600090559055600760003373ffffffffffffffffffffffffffffffffffffffff1673ffffffffffffffffffffffffffffffffffffffff16815260200190815260200160002060020181815481106113f3576113f2611e54565b5b9060005260206000209060020201600760003373ffffffffffffffffffffffffffffffffffffffff1673ffffffffffffffffffffffffffffffffffffffff168152602001908152602001600020600201838154811061145557611454611e54565b5b90600052602060002090600202016000820154816000015560018201548160010155905050600760003373ffffffffffffffffffffffffffffffffffffffff1673ffffffffffffffffffffffffffffffffffffffff1681526020019081526020016000206002018054806114cc576114cb61222a565b5b60019003818190600052602060002090600202016000808201600090556001820160009055505090555050565b61150161163d565b73ffffffffffffffffffffffffffffffffffffffff1661151f610949565b73ffffffffffffffffffffffffffffffffffffffff1614611575576040517f08c379a000000000000000000000000000000000000000000000000000000000815260040161156c906122a5565b60405180910390fd5b565b6000600160009054906101000a900473ffffffffffffffffffffffffffffffffffffffff16905081600160006101000a81548173ffffffffffffffffffffffffffffffffffffffff021916908373ffffffffffffffffffffffffffffffffffffffff1602179055508173ffffffffffffffffffffffffffffffffffffffff168173ffffffffffffffffffffffffffffffffffffffff167f8be0079c531659141344cd1fd0a4f28419497f9722a3daafe3b4186f6b6457e060405160405180910390a35050565b600033905090565b6000604051905090565b600080fd5b600080fd5b600073ffffffffffffffffffffffffffffffffffffffff82169050919050565b600061168482611659565b9050919050565b61169481611679565b811461169f57600080fd5b50565b6000813590506116b18161168b565b92915050565b6000819050919050565b6116ca816116b7565b81146116d557600080fd5b50565b6000813590506116e7816116c1565b92915050565b600080fd5b600080fd5b6000601f19601f8301169050919050565b7f4e487b7100000000000000000000000000000000000000000000000000000000600052604160045260246000fd5b611740826116f7565b810181811067ffffffffffffffff8211171561175f5761175e611708565b5b80604052505050565b6000611772611645565b905061177e8282611737565b919050565b600067ffffffffffffffff82111561179e5761179d611708565b5b6117a7826116f7565b9050602081019050919050565b82818337600083830152505050565b60006117d66117d184611783565b611768565b9050828152602081018484840111156117f2576117f16116f2565b5b6117fd8482856117b4565b509392505050565b600082601f83011261181a576118196116ed565b5b813561182a8482602086016117c3565b91505092915050565b6000806000806080858703121561184d5761184c61164f565b5b600061185b878288016116a2565b945050602061186c878288016116a2565b935050604061187d878288016116d8565b925050606085013567ffffffffffffffff81111561189e5761189d611654565b5b6118aa87828801611805565b91505092959194509250565b60007fffffffff0000000000000000000000000000000000000000000000000000000082169050919050565b6118eb816118b6565b82525050565b600060208201905061190660008301846118e2565b92915050565b600067ffffffffffffffff82111561192757611926611708565b5b602082029050602081019050919050565b600080fd5b600061195061194b8461190c565b611768565b9050808382526020820190506020840283018581111561197357611972611938565b5b835b8181101561199c578061198888826116d8565b845260208401935050602081019050611975565b5050509392505050565b600082601f8301126119bb576119ba6116ed565b5b81356119cb84826020860161193d565b91505092915050565b6000602082840312156119ea576119e961164f565b5b600082013567ffffffffffffffff811115611a0857611a07611654565b5b611a14848285016119a6565b91505092915050565b600060208284031215611a3357611a3261164f565b5b6000611a41848285016116d8565b91505092915050565b600060208284031215611a6057611a5f61164f565b5b6000611a6e848285016116a2565b91505092915050565b600081519050919050565b600082825260208201905092915050565b6000819050602082019050919050565b611aac816116b7565b82525050565b6000611abe8383611aa3565b60208301905092915050565b6000602082019050919050565b6000611ae282611a77565b611aec8185611a82565b9350611af783611a93565b8060005b83811015611b28578151611b0f8882611ab2565b9750611b1a83611aca565b925050600181019050611afb565b5085935050505092915050565b60006020820190508181036000830152611b4f8184611ad7565b905092915050565b60008060408385031215611b6e57611b6d61164f565b5b6000611b7c858286016116a2565b9250506020611b8d858286016116a2565b9150509250929050565b611ba0816116b7565b82525050565b6000602082019050611bbb6000830184611b97565b92915050565b611bca81611679565b82525050565b6000602082019050611be56000830184611bc1565b92915050565b600081519050919050565b600082825260208201905092915050565b6000819050602082019050919050565b604082016000820151611c2d6000850182611aa3565b506020820151611c406020850182611aa3565b50505050565b6000611c528383611c17565b60408301905092915050565b6000602082019050919050565b6000611c7682611beb565b611c808185611bf6565b9350611c8b83611c07565b8060005b83811015611cbc578151611ca38882611c46565b9750611cae83611c5e565b925050600181019050611c8f565b5085935050505092915050565b60006020820190508181036000830152611ce38184611c6b565b905092915050565b6000819050919050565b6000611d10611d0b611d0684611659565b611ceb565b611659565b9050919050565b6000611d2282611cf5565b9050919050565b6000611d3482611d17565b9050919050565b611d4481611d29565b82525050565b6000602082019050611d5f6000830184611d3b565b92915050565b6000611d7082611d17565b9050919050565b611d8081611d65565b82525050565b6000602082019050611d9b6000830184611d77565b92915050565b60008115159050919050565b611db681611da1565b82525050565b6000602082019050611dd16000830184611dad565b92915050565b600082825260208201905092915050565b7f5468657265206973206e6f206f6e676f696e67206d697373696f6e2100000000600082015250565b6000611e1e601c83611dd7565b9150611e2982611de8565b602082019050919050565b60006020820190508181036000830152611e4d81611e11565b9050919050565b7f4e487b7100000000000000000000000000000000000000000000000000000000600052603260045260246000fd5b7f4e487b7100000000000000000000000000000000000000000000000000000000600052601160045260246000fd5b6000611ebd826116b7565b91507fffffffffffffffffffffffffffffffffffffffffffffffffffffffffffffffff8203611eef57611eee611e83565b5b600182019050919050565b6000611f05826116b7565b9150611f10836116b7565b9250827fffffffffffffffffffffffffffffffffffffffffffffffffffffffffffffffff03821115611f4557611f44611e83565b5b828201905092915050565b6000611f5b826116b7565b9150611f66836116b7565b925082821015611f7957611f78611e83565b5b828203905092915050565b6000611f8f826116b7565b9150611f9a836116b7565b9250817fffffffffffffffffffffffffffffffffffffffffffffffffffffffffffffffff0483118215151615611fd357611fd2611e83565b5b828202905092915050565b6000606082019050611ff36000830186611bc1565b6120006020830185611bc1565b61200d6040830184611b97565b949350505050565b600060408201905061202a6000830185611b97565b6120376020830184611b97565b9392505050565b7f4e6f20746f6b656e7320746f20636c61696d0000000000000000000000000000600082015250565b6000612074601283611dd7565b915061207f8261203e565b602082019050919050565b600060208201905081810360008301526120a381612067565b9050919050565b60006040820190506120bf6000830185611bc1565b6120cc6020830184611b97565b9392505050565b6120dc81611da1565b81146120e757600080fd5b50565b6000815190506120f9816120d3565b92915050565b6000602082840312156121155761211461164f565b5b6000612123848285016120ea565b91505092915050565b7f4f776e61626c653a206e6577206f776e657220697320746865207a65726f206160008201527f6464726573730000000000000000000000000000000000000000000000000000602082015250565b6000612188602683611dd7565b91506121938261212c565b604082019050919050565b600060208201905081810360008301526121b78161217b565b9050919050565b7f5265656e7472616e637947756172643a207265656e7472616e742063616c6c00600082015250565b60006121f4601f83611dd7565b91506121ff826121be565b602082019050919050565b60006020820190508181036000830152612223816121e7565b9050919050565b7f4e487b7100000000000000000000000000000000000000000000000000000000600052603160045260246000fd5b7f4f776e61626c653a2063616c6c6572206973206e6f7420746865206f776e6572600082015250565b600061228f602083611dd7565b915061229a82612259565b602082019050919050565b600060208201905081810360008301526122be81612282565b905091905056fea2646970667358221220bb1d2122c04a4f58b7896d0c054325d1f3a5c1b55535d964dc4400643c4bdc2e64736f6c634300080d0033",
  "linkReferences": {},
  "deployedLinkReferences": {}
}