{
  "_format": "hh-sol-artifact-1",
  "contractName": "NFTStaker",
  "sourceName": "src/backend/contracts/NFTStaker.sol",
  "abi": [
    {
      "inputs": [
        {
          "internalType": "address",
          "name": "nftAddress",
          "type": "address"
        }
      ],
      "stateMutability": "nonpayable",
      "type": "constructor"
    },
    {
      "anonymous": false,
      "inputs": [
        {
          "indexed": true,
          "internalType": "address",
          "name": "previousOwner",
          "type": "address"
        },
        {
          "indexed": true,
          "internalType": "address",
          "name": "newOwner",
          "type": "address"
        }
      ],
      "name": "OwnershipTransferred",
      "type": "event"
    },
    {
      "anonymous": false,
      "inputs": [
        {
          "indexed": false,
          "internalType": "uint256",
          "name": "tokenId",
          "type": "uint256"
        },
        {
          "indexed": false,
          "internalType": "uint256",
          "name": "timestamp",
          "type": "uint256"
        }
      ],
      "name": "StakeSuccessful",
      "type": "event"
    },
    {
      "anonymous": false,
      "inputs": [
        {
          "indexed": false,
          "internalType": "uint256",
          "name": "tokenId",
          "type": "uint256"
        },
        {
          "indexed": false,
          "internalType": "uint256",
          "name": "reward",
          "type": "uint256"
        }
      ],
      "name": "UnstakeSuccessful",
      "type": "event"
    },
    {
      "inputs": [],
      "name": "claimReward",
      "outputs": [],
      "stateMutability": "nonpayable",
      "type": "function"
    },
    {
      "inputs": [
        {
          "internalType": "address",
          "name": "_user",
          "type": "address"
        }
      ],
      "name": "getRewardToClaim",
      "outputs": [
        {
          "internalType": "uint256",
          "name": "",
          "type": "uint256"
        }
      ],
      "stateMutability": "view",
      "type": "function"
    },
    {
      "inputs": [
        {
          "internalType": "address",
          "name": "_user",
          "type": "address"
        }
      ],
      "name": "getStakedMissions",
      "outputs": [
        {
          "components": [
            {
              "internalType": "uint256",
              "name": "startTimestamp",
              "type": "uint256"
            },
            {
              "internalType": "uint256",
              "name": "duration",
              "type": "uint256"
            }
          ],
          "internalType": "struct NFTStaker.Mission[]",
          "name": "missions",
          "type": "tuple[]"
        }
      ],
      "stateMutability": "view",
      "type": "function"
    },
    {
      "inputs": [
        {
          "internalType": "address",
          "name": "_user",
          "type": "address"
        }
      ],
      "name": "getStakedTimestamps",
      "outputs": [
        {
          "internalType": "uint256[]",
          "name": "timestamps",
          "type": "uint256[]"
        }
      ],
      "stateMutability": "view",
      "type": "function"
    },
    {
      "inputs": [
        {
          "internalType": "address",
          "name": "_user",
          "type": "address"
        }
      ],
      "name": "getStakedTokens",
      "outputs": [
        {
          "internalType": "uint256[]",
          "name": "tokenIds",
          "type": "uint256[]"
        }
      ],
      "stateMutability": "view",
      "type": "function"
    },
    {
      "inputs": [],
      "name": "isMissionOngoing",
      "outputs": [
        {
          "internalType": "bool",
          "name": "",
          "type": "bool"
        }
      ],
      "stateMutability": "view",
      "type": "function"
    },
    {
      "inputs": [
        {
          "internalType": "uint256",
          "name": "_tokenId",
          "type": "uint256"
        }
      ],
      "name": "isTokenStaked",
      "outputs": [
        {
          "internalType": "bool",
          "name": "",
          "type": "bool"
        }
      ],
      "stateMutability": "view",
      "type": "function"
    },
    {
      "inputs": [
        {
          "internalType": "address",
          "name": "",
          "type": "address"
        },
        {
          "internalType": "address",
          "name": "",
          "type": "address"
        },
        {
          "internalType": "uint256",
          "name": "",
          "type": "uint256"
        },
        {
          "internalType": "bytes",
          "name": "",
          "type": "bytes"
        }
      ],
      "name": "onERC721Received",
      "outputs": [
        {
          "internalType": "bytes4",
          "name": "",
          "type": "bytes4"
        }
      ],
      "stateMutability": "nonpayable",
      "type": "function"
    },
    {
      "inputs": [],
      "name": "owner",
      "outputs": [
        {
          "internalType": "address",
          "name": "",
          "type": "address"
        }
      ],
      "stateMutability": "view",
      "type": "function"
    },
    {
      "inputs": [],
      "name": "parentNFT",
      "outputs": [
        {
          "internalType": "contract ERC721A",
          "name": "",
          "type": "address"
        }
      ],
      "stateMutability": "view",
      "type": "function"
    },
    {
      "inputs": [],
      "name": "renounceOwnership",
      "outputs": [],
      "stateMutability": "nonpayable",
      "type": "function"
    },
    {
      "inputs": [],
      "name": "rewardRate",
      "outputs": [
        {
          "internalType": "uint256",
          "name": "",
          "type": "uint256"
        }
      ],
      "stateMutability": "view",
      "type": "function"
    },
    {
      "inputs": [],
      "name": "rewardsToken",
      "outputs": [
        {
          "internalType": "contract ERC20",
          "name": "",
          "type": "address"
        }
      ],
      "stateMutability": "view",
      "type": "function"
    },
    {
      "inputs": [
        {
          "internalType": "uint256[]",
          "name": "_tokenIds",
          "type": "uint256[]"
        }
      ],
      "name": "sendAllInactiveToMission",
      "outputs": [],
      "stateMutability": "nonpayable",
      "type": "function"
    },
    {
      "inputs": [
        {
          "internalType": "address",
          "name": "_newOwner",
          "type": "address"
        },
        {
          "internalType": "address",
          "name": "_tokenAddress",
          "type": "address"
        }
      ],
      "name": "setOwnerAndTokenAddress",
      "outputs": [],
      "stateMutability": "nonpayable",
      "type": "function"
    },
    {
      "inputs": [
        {
          "internalType": "uint256",
          "name": "_tokenId",
          "type": "uint256"
        }
      ],
      "name": "stake",
      "outputs": [],
      "stateMutability": "nonpayable",
      "type": "function"
    },
    {
      "inputs": [
        {
          "internalType": "uint256[]",
          "name": "_tokenIds",
          "type": "uint256[]"
        }
      ],
      "name": "stakeBatch",
      "outputs": [],
      "stateMutability": "nonpayable",
      "type": "function"
    },
    {
      "inputs": [
        {
          "internalType": "uint256",
          "name": "_duration",
          "type": "uint256"
        }
      ],
      "name": "startMission",
      "outputs": [],
      "stateMutability": "nonpayable",
      "type": "function"
    },
    {
      "inputs": [
        {
          "internalType": "address",
          "name": "newOwner",
          "type": "address"
        }
      ],
      "name": "transferOwnership",
      "outputs": [],
      "stateMutability": "nonpayable",
      "type": "function"
    },
    {
      "inputs": [
        {
          "internalType": "uint256",
          "name": "_tokenId",
          "type": "uint256"
        }
      ],
      "name": "unstake",
      "outputs": [],
      "stateMutability": "nonpayable",
      "type": "function"
    }
  ],
  "bytecode": "0x60806040523480156200001157600080fd5b5060405162002fdc38038062002fdc833981810160405281019062000037919062000213565b60016000819055506200005f62000053620000db60201b60201c565b620000e360201b60201c565b80600260006101000a81548173ffffffffffffffffffffffffffffffffffffffff021916908373ffffffffffffffffffffffffffffffffffffffff160217905550620151806012600a620000b49190620003d2565b6005620000c2919062000423565b620000ce9190620004b3565b60048190555050620004eb565b600033905090565b6000600160009054906101000a900473ffffffffffffffffffffffffffffffffffffffff16905081600160006101000a81548173ffffffffffffffffffffffffffffffffffffffff021916908373ffffffffffffffffffffffffffffffffffffffff1602179055508173ffffffffffffffffffffffffffffffffffffffff168173ffffffffffffffffffffffffffffffffffffffff167f8be0079c531659141344cd1fd0a4f28419497f9722a3daafe3b4186f6b6457e060405160405180910390a35050565b600080fd5b600073ffffffffffffffffffffffffffffffffffffffff82169050919050565b6000620001db82620001ae565b9050919050565b620001ed81620001ce565b8114620001f957600080fd5b50565b6000815190506200020d81620001e2565b92915050565b6000602082840312156200022c576200022b620001a9565b5b60006200023c84828501620001fc565b91505092915050565b7f4e487b7100000000000000000000000000000000000000000000000000000000600052601160045260246000fd5b60008160011c9050919050565b6000808291508390505b6001851115620002d357808604811115620002ab57620002aa62000245565b5b6001851615620002bb5780820291505b8081029050620002cb8562000274565b94506200028b565b94509492505050565b600082620002ee5760019050620003c1565b81620002fe5760009050620003c1565b8160018114620003175760028114620003225762000358565b6001915050620003c1565b60ff84111562000337576200033662000245565b5b8360020a91508482111562000351576200035062000245565b5b50620003c1565b5060208310610133831016604e8410600b8410161715620003925782820a9050838111156200038c576200038b62000245565b5b620003c1565b620003a1848484600162000281565b92509050818404811115620003bb57620003ba62000245565b5b81810290505b9392505050565b6000819050919050565b6000620003df82620003c8565b9150620003ec83620003c8565b92506200041b7fffffffffffffffffffffffffffffffffffffffffffffffffffffffffffffffff8484620002dc565b905092915050565b60006200043082620003c8565b91506200043d83620003c8565b9250817fffffffffffffffffffffffffffffffffffffffffffffffffffffffffffffffff048311821515161562000479576200047862000245565b5b828202905092915050565b7f4e487b7100000000000000000000000000000000000000000000000000000000600052601260045260246000fd5b6000620004c082620003c8565b9150620004cd83620003c8565b925082620004e057620004df62000484565b5b828204905092915050565b612ae180620004fb6000396000f3fe608060405234801561001057600080fd5b506004361061012c5760003560e01c8063a04ebd4b116100ad578063d1af0c7d11610071578063d1af0c7d14610307578063e6d7d9d114610325578063f0a5242414610343578063f2fde38b14610373578063fb1ab0a91461038f5761012c565b8063a04ebd4b14610263578063a694fc3a14610293578063a7c1e29a146102af578063b88a802f146102df578063b8e33fb2146102e95761012c565b8063647fb46c116100f4578063647fb46c146101e557806367eb6add14610201578063715018a61461021d5780637b0a47ee146102275780638da5cb5b146102455761012c565b8063150b7a0214610131578063230f436d146101615780632e17de781461017d5780633a7055f91461019957806363c28db1146101b5575b600080fd5b61014b60048036038101906101469190611f1b565b6103bf565b6040516101589190611fd9565b60405180910390f35b61017b600480360381019061017691906120bc565b6103d3565b005b61019760048036038101906101929190612105565b61046e565b005b6101b360048036038101906101ae9190612105565b61079d565b005b6101cf60048036038101906101ca9190612132565b6107c9565b6040516101dc919061221d565b60405180910390f35b6101ff60048036038101906101fa919061223f565b610863565b005b61021b600480360381019061021691906120bc565b6108b9565b005b610225610bfa565b005b61022f610c0e565b60405161023c919061228e565b60405180910390f35b61024d610c14565b60405161025a91906122b8565b60405180910390f35b61027d60048036038101906102789190612132565b610c3e565b60405161028a919061221d565b60405180910390f35b6102ad60048036038101906102a89190612105565b610cd8565b005b6102c960048036038101906102c49190612132565b610f51565b6040516102d691906123b1565b60405180910390f35b6102e7611006565b005b6102f1611190565b6040516102fe9190612432565b60405180910390f35b61030f6111b6565b60405161031c919061246e565b60405180910390f35b61032d6111dc565b60405161033a91906124a4565b60405180910390f35b61035d60048036038101906103589190612105565b61120b565b60405161036a91906124a4565b60405180910390f35b61038d60048036038101906103889190612132565b6112f0565b005b6103a960048036038101906103a49190612132565b611373565b6040516103b6919061228e565b60405180910390f35b600063150b7a0260e01b9050949350505050565b6103db6113bf565b6103e36111dc565b610422576040517f08c379a00000000000000000000000000000000000000000000000000000000081526004016104199061251c565b60405180910390fd5b60008151905060005b81811015610461576104568382815181106104495761044861253c565b5b6020026020010151610cd8565b80600101905061042b565b505061046b61140e565b50565b6104766113bf565b6000600760003373ffffffffffffffffffffffffffffffffffffffff1673ffffffffffffffffffffffffffffffffffffffff1681526020019081526020016000206040518060800160405290816000820180548060200260200160405190810160405280929190818152602001828054801561051157602002820191906000526020600020905b8154815260200190600101908083116104fd575b505050505081526020016001820180548060200260200160405190810160405280929190818152602001828054801561056957602002820191906000526020600020905b815481526020019060010190808311610555575b5050505050815260200160028201805480602002602001604051908101604052809291908181526020016000905b828210156105dd57838290600052602060002090600202016040518060400160405290816000820154815260200160018201548152505081526020019060010190610597565b50505050815260200160038201548152505090506000806105fe8433611418565b9150915080610642576040517f08c379a0000000000000000000000000000000000000000000000000000000008152600401610639906125b7565b60405180910390fd5b600061064e8333611604565b9050600260009054906101000a900473ffffffffffffffffffffffffffffffffffffffff1673ffffffffffffffffffffffffffffffffffffffff166342842e0e3033886040518463ffffffff1660e01b81526004016106af939291906125d7565b600060405180830381600087803b1580156106c957600080fd5b505af11580156106dd573d6000803e3d6000fd5b505050506106fc8360018660000151516106f7919061263d565b611835565b80600760003373ffffffffffffffffffffffffffffffffffffffff1673ffffffffffffffffffffffffffffffffffffffff168152602001908152602001600020600301600082825461074e9190612671565b925050819055507f97cc56283430ac8692d29c7522a69fa6c2bde7e47d781be6b58b034d80bc282885826040516107869291906126c7565b60405180910390a15050505061079a61140e565b50565b6107a5611be1565b42600560000181905550610e10816107bd91906126f0565b60056001018190555050565b6060600760008373ffffffffffffffffffffffffffffffffffffffff1673ffffffffffffffffffffffffffffffffffffffff16815260200190815260200160002060000180548060200260200160405190810160405280929190818152602001828054801561085757602002820191906000526020600020905b815481526020019060010190808311610843575b50505050509050919050565b61086b611be1565b80600360006101000a81548173ffffffffffffffffffffffffffffffffffffffff021916908373ffffffffffffffffffffffffffffffffffffffff1602179055506108b582611c5f565b5050565b6108c16113bf565b6108c96111dc565b610908576040517f08c379a00000000000000000000000000000000000000000000000000000000081526004016108ff9061251c565b60405180910390fd5b600081519050600042905060005b82811015610bec576000806109458684815181106109375761093661253c565b5b602002602001015133611418565b9150915080610989576040517f08c379a0000000000000000000000000000000000000000000000000000000008152600401610980906125b7565b60405180910390fd5b83600760003373ffffffffffffffffffffffffffffffffffffffff1673ffffffffffffffffffffffffffffffffffffffff16815260200190815260200160002060020183815481106109de576109dd61253c565b5b906000526020600020906002020160010154600760003373ffffffffffffffffffffffffffffffffffffffff1673ffffffffffffffffffffffffffffffffffffffff1681526020019081526020016000206001018481548110610a4457610a4361253c565b5b9060005260206000200154610a599190612671565b10610a99576040517f08c379a0000000000000000000000000000000000000000000000000000000008152600401610a90906127bc565b60405180910390fd5b6000610aa58333611604565b905084600760003373ffffffffffffffffffffffffffffffffffffffff1673ffffffffffffffffffffffffffffffffffffffff1681526020019081526020016000206001018481548110610afc57610afb61253c565b5b90600052602060002001819055506005600760003373ffffffffffffffffffffffffffffffffffffffff1673ffffffffffffffffffffffffffffffffffffffff1681526020019081526020016000206002018481548110610b6057610b5f61253c565b5b9060005260206000209060020201600082015481600001556001820154816001015590505080600760003373ffffffffffffffffffffffffffffffffffffffff1673ffffffffffffffffffffffffffffffffffffffff1681526020019081526020016000206003016000828254610bd79190612671565b92505081905550836001019350505050610916565b505050610bf761140e565b50565b610c02611be1565b610c0c6000611c5f565b565b60045481565b6000600160009054906101000a900473ffffffffffffffffffffffffffffffffffffffff16905090565b6060600760008373ffffffffffffffffffffffffffffffffffffffff1673ffffffffffffffffffffffffffffffffffffffff168152602001908152602001600020600101805480602002602001604051908101604052809291908181526020018280548015610ccc57602002820191906000526020600020905b815481526020019060010190808311610cb8575b50505050509050919050565b610ce06113bf565b610ce86111dc565b610d27576040517f08c379a0000000000000000000000000000000000000000000000000000000008152600401610d1e9061251c565b60405180910390fd5b600760003373ffffffffffffffffffffffffffffffffffffffff1673ffffffffffffffffffffffffffffffffffffffff168152602001908152602001600020600001819080600181540180825580915050600190039060005260206000200160009091909190915055600760003373ffffffffffffffffffffffffffffffffffffffff1673ffffffffffffffffffffffffffffffffffffffff168152602001908152602001600020600101429080600181540180825580915050600190039060005260206000200160009091909190915055600760003373ffffffffffffffffffffffffffffffffffffffff1673ffffffffffffffffffffffffffffffffffffffff1681526020019081526020016000206002016005908060018154018082558091505060019003906000526020600020906002020160009091909190915060008201548160000155600182015481600101555050600260009054906101000a900473ffffffffffffffffffffffffffffffffffffffff1673ffffffffffffffffffffffffffffffffffffffff166342842e0e3330846040518463ffffffff1660e01b8152600401610edb939291906125d7565b600060405180830381600087803b158015610ef557600080fd5b505af1158015610f09573d6000803e3d6000fd5b505050507fb9a8e9862e9f26d54fc878291fa9354d1629940f2a39517bd62522ec47aec1058142604051610f3e9291906126c7565b60405180910390a1610f4e61140e565b50565b6060600760008373ffffffffffffffffffffffffffffffffffffffff1673ffffffffffffffffffffffffffffffffffffffff168152602001908152602001600020600201805480602002602001604051908101604052809291908181526020016000905b82821015610ffb57838290600052602060002090600202016040518060400160405290816000820154815260200160018201548152505081526020019060010190610fb5565b505050509050919050565b6000600760003373ffffffffffffffffffffffffffffffffffffffff1673ffffffffffffffffffffffffffffffffffffffff16815260200190815260200160002060030154905060008111611090576040517f08c379a000000000000000000000000000000000000000000000000000000000815260040161108790612828565b60405180910390fd5b60011515600360009054906101000a900473ffffffffffffffffffffffffffffffffffffffff1673ffffffffffffffffffffffffffffffffffffffff1663a9059cbb33846040518363ffffffff1660e01b81526004016110f1929190612848565b6020604051808303816000875af1158015611110573d6000803e3d6000fd5b505050506040513d601f19601f82011682018060405250810190611134919061289d565b151503611188576000600760003373ffffffffffffffffffffffffffffffffffffffff1673ffffffffffffffffffffffffffffffffffffffff1681526020019081526020016000206003018190555061118d565b600080fd5b50565b600260009054906101000a900473ffffffffffffffffffffffffffffffffffffffff1681565b600360009054906101000a900473ffffffffffffffffffffffffffffffffffffffff1681565b600080600560000154118015611206575060056001015460056000015442611204919061263d565b105b905090565b600080600760003373ffffffffffffffffffffffffffffffffffffffff1673ffffffffffffffffffffffffffffffffffffffff16815260200190815260200160002060000180549050905060005b818110156112e45783600760003373ffffffffffffffffffffffffffffffffffffffff1673ffffffffffffffffffffffffffffffffffffffff16815260200190815260200160002060000182815481106112b6576112b561253c565b5b9060005260206000200154036112d1576001925050506112eb565b80806112dc906128ca565b915050611259565b5060009150505b919050565b6112f8611be1565b600073ffffffffffffffffffffffffffffffffffffffff168173ffffffffffffffffffffffffffffffffffffffff1603611367576040517f08c379a000000000000000000000000000000000000000000000000000000000815260040161135e90612984565b60405180910390fd5b61137081611c5f565b50565b6000600760008373ffffffffffffffffffffffffffffffffffffffff1673ffffffffffffffffffffffffffffffffffffffff168152602001908152602001600020600301549050919050565b600260005403611404576040517f08c379a00000000000000000000000000000000000000000000000000000000081526004016113fb906129f0565b60405180910390fd5b6002600081905550565b6001600081905550565b6000806000600760008573ffffffffffffffffffffffffffffffffffffffff1673ffffffffffffffffffffffffffffffffffffffff168152602001908152602001600020604051806080016040529081600082018054806020026020016040519081016040528092919081815260200182805480156114b657602002820191906000526020600020905b8154815260200190600101908083116114a2575b505050505081526020016001820180548060200260200160405190810160405280929190818152602001828054801561150e57602002820191906000526020600020905b8154815260200190600101908083116114fa575b5050505050815260200160028201805480602002602001604051908101604052809291908181526020016000905b828210156115825783829060005260206000209060020201604051806040016040529081600082015481526020016001820154815250508152602001906001019061153c565b50505050815260200160038201548152505090506000806000836000015151905060005b818110156115f25788856000015182815181106115c6576115c561253c565b5b6020026020010151036115df57809350600192506115f2565b80806115ea906128ca565b9150506115a6565b50828295509550505050509250929050565b600080600760008473ffffffffffffffffffffffffffffffffffffffff1673ffffffffffffffffffffffffffffffffffffffff168152602001908152602001600020604051806080016040529081600082018054806020026020016040519081016040528092919081815260200182805480156116a057602002820191906000526020600020905b81548152602001906001019080831161168c575b50505050508152602001600182018054806020026020016040519081016040528092919081815260200182805480156116f857602002820191906000526020600020905b8154815260200190600101908083116116e4575b5050505050815260200160028201805480602002602001604051908101604052809291908181526020016000905b8282101561176c57838290600052602060002090600202016040518060400160405290816000820154815260200160018201548152505081526020019060010190611726565b50505050815260200160038201548152505090506000816040015185815181106117995761179861253c565b5b602002602001015160200151826040015186815181106117bc576117bb61253c565b5b6020026020010151600001516117d29190612671565b905060008142116117e357426117e5565b815b9050600083602001518781518110611800576117ff61253c565b5b602002602001015182611813919061263d565b905060006004548261182591906126f0565b9050809550505050505092915050565b600760003373ffffffffffffffffffffffffffffffffffffffff1673ffffffffffffffffffffffffffffffffffffffff16815260200190815260200160002060010181815481106118895761188861253c565b5b9060005260206000200154600760003373ffffffffffffffffffffffffffffffffffffffff1673ffffffffffffffffffffffffffffffffffffffff16815260200190815260200160002060010183815481106118e8576118e761253c565b5b9060005260206000200181905550600760003373ffffffffffffffffffffffffffffffffffffffff1673ffffffffffffffffffffffffffffffffffffffff16815260200190815260200160002060010180548061194857611947612a10565b5b60019003818190600052602060002001600090559055600760003373ffffffffffffffffffffffffffffffffffffffff1673ffffffffffffffffffffffffffffffffffffffff16815260200190815260200160002060000181815481106119b2576119b161253c565b5b9060005260206000200154600760003373ffffffffffffffffffffffffffffffffffffffff1673ffffffffffffffffffffffffffffffffffffffff1681526020019081526020016000206000018381548110611a1157611a1061253c565b5b9060005260206000200181905550600760003373ffffffffffffffffffffffffffffffffffffffff1673ffffffffffffffffffffffffffffffffffffffff168152602001908152602001600020600001805480611a7157611a70612a10565b5b60019003818190600052602060002001600090559055600760003373ffffffffffffffffffffffffffffffffffffffff1673ffffffffffffffffffffffffffffffffffffffff1681526020019081526020016000206002018181548110611adb57611ada61253c565b5b9060005260206000209060020201600760003373ffffffffffffffffffffffffffffffffffffffff1673ffffffffffffffffffffffffffffffffffffffff1681526020019081526020016000206002018381548110611b3d57611b3c61253c565b5b90600052602060002090600202016000820154816000015560018201548160010155905050600760003373ffffffffffffffffffffffffffffffffffffffff1673ffffffffffffffffffffffffffffffffffffffff168152602001908152602001600020600201805480611bb457611bb3612a10565b5b60019003818190600052602060002090600202016000808201600090556001820160009055505090555050565b611be9611d25565b73ffffffffffffffffffffffffffffffffffffffff16611c07610c14565b73ffffffffffffffffffffffffffffffffffffffff1614611c5d576040517f08c379a0000000000000000000000000000000000000000000000000000000008152600401611c5490612a8b565b60405180910390fd5b565b6000600160009054906101000a900473ffffffffffffffffffffffffffffffffffffffff16905081600160006101000a81548173ffffffffffffffffffffffffffffffffffffffff021916908373ffffffffffffffffffffffffffffffffffffffff1602179055508173ffffffffffffffffffffffffffffffffffffffff168173ffffffffffffffffffffffffffffffffffffffff167f8be0079c531659141344cd1fd0a4f28419497f9722a3daafe3b4186f6b6457e060405160405180910390a35050565b600033905090565b6000604051905090565b600080fd5b600080fd5b600073ffffffffffffffffffffffffffffffffffffffff82169050919050565b6000611d6c82611d41565b9050919050565b611d7c81611d61565b8114611d8757600080fd5b50565b600081359050611d9981611d73565b92915050565b6000819050919050565b611db281611d9f565b8114611dbd57600080fd5b50565b600081359050611dcf81611da9565b92915050565b600080fd5b600080fd5b6000601f19601f8301169050919050565b7f4e487b7100000000000000000000000000000000000000000000000000000000600052604160045260246000fd5b611e2882611ddf565b810181811067ffffffffffffffff82111715611e4757611e46611df0565b5b80604052505050565b6000611e5a611d2d565b9050611e668282611e1f565b919050565b600067ffffffffffffffff821115611e8657611e85611df0565b5b611e8f82611ddf565b9050602081019050919050565b82818337600083830152505050565b6000611ebe611eb984611e6b565b611e50565b905082815260208101848484011115611eda57611ed9611dda565b5b611ee5848285611e9c565b509392505050565b600082601f830112611f0257611f01611dd5565b5b8135611f12848260208601611eab565b91505092915050565b60008060008060808587031215611f3557611f34611d37565b5b6000611f4387828801611d8a565b9450506020611f5487828801611d8a565b9350506040611f6587828801611dc0565b925050606085013567ffffffffffffffff811115611f8657611f85611d3c565b5b611f9287828801611eed565b91505092959194509250565b60007fffffffff0000000000000000000000000000000000000000000000000000000082169050919050565b611fd381611f9e565b82525050565b6000602082019050611fee6000830184611fca565b92915050565b600067ffffffffffffffff82111561200f5761200e611df0565b5b602082029050602081019050919050565b600080fd5b600061203861203384611ff4565b611e50565b9050808382526020820190506020840283018581111561205b5761205a612020565b5b835b8181101561208457806120708882611dc0565b84526020840193505060208101905061205d565b5050509392505050565b600082601f8301126120a3576120a2611dd5565b5b81356120b3848260208601612025565b91505092915050565b6000602082840312156120d2576120d1611d37565b5b600082013567ffffffffffffffff8111156120f0576120ef611d3c565b5b6120fc8482850161208e565b91505092915050565b60006020828403121561211b5761211a611d37565b5b600061212984828501611dc0565b91505092915050565b60006020828403121561214857612147611d37565b5b600061215684828501611d8a565b91505092915050565b600081519050919050565b600082825260208201905092915050565b6000819050602082019050919050565b61219481611d9f565b82525050565b60006121a6838361218b565b60208301905092915050565b6000602082019050919050565b60006121ca8261215f565b6121d4818561216a565b93506121df8361217b565b8060005b838110156122105781516121f7888261219a565b9750612202836121b2565b9250506001810190506121e3565b5085935050505092915050565b6000602082019050818103600083015261223781846121bf565b905092915050565b6000806040838503121561225657612255611d37565b5b600061226485828601611d8a565b925050602061227585828601611d8a565b9150509250929050565b61228881611d9f565b82525050565b60006020820190506122a3600083018461227f565b92915050565b6122b281611d61565b82525050565b60006020820190506122cd60008301846122a9565b92915050565b600081519050919050565b600082825260208201905092915050565b6000819050602082019050919050565b604082016000820151612315600085018261218b565b506020820151612328602085018261218b565b50505050565b600061233a83836122ff565b60408301905092915050565b6000602082019050919050565b600061235e826122d3565b61236881856122de565b9350612373836122ef565b8060005b838110156123a457815161238b888261232e565b975061239683612346565b925050600181019050612377565b5085935050505092915050565b600060208201905081810360008301526123cb8184612353565b905092915050565b6000819050919050565b60006123f86123f36123ee84611d41565b6123d3565b611d41565b9050919050565b600061240a826123dd565b9050919050565b600061241c826123ff565b9050919050565b61242c81612411565b82525050565b60006020820190506124476000830184612423565b92915050565b6000612458826123ff565b9050919050565b6124688161244d565b82525050565b6000602082019050612483600083018461245f565b92915050565b60008115159050919050565b61249e81612489565b82525050565b60006020820190506124b96000830184612495565b92915050565b600082825260208201905092915050565b7f5468657265206973206e6f206f6e676f696e67206d697373696f6e2100000000600082015250565b6000612506601c836124bf565b9150612511826124d0565b602082019050919050565b60006020820190508181036000830152612535816124f9565b9050919050565b7f4e487b7100000000000000000000000000000000000000000000000000000000600052603260045260246000fd5b7f496e646578206e6f7420666f756e6420666f722074686973207374616b65722e600082015250565b60006125a16020836124bf565b91506125ac8261256b565b602082019050919050565b600060208201905081810360008301526125d081612594565b9050919050565b60006060820190506125ec60008301866122a9565b6125f960208301856122a9565b612606604083018461227f565b949350505050565b7f4e487b7100000000000000000000000000000000000000000000000000000000600052601160045260246000fd5b600061264882611d9f565b915061265383611d9f565b9250828210156126665761266561260e565b5b828203905092915050565b600061267c82611d9f565b915061268783611d9f565b9250827fffffffffffffffffffffffffffffffffffffffffffffffffffffffffffffffff038211156126bc576126bb61260e565b5b828201905092915050565b60006040820190506126dc600083018561227f565b6126e9602083018461227f565b9392505050565b60006126fb82611d9f565b915061270683611d9f565b9250817fffffffffffffffffffffffffffffffffffffffffffffffffffffffffffffffff048311821515161561273f5761273e61260e565b5b828202905092915050565b7f546869732047656c61746f206973207374696c6c206f6e20616e206f6e676f6960008201527f6e67206d697373696f6e21000000000000000000000000000000000000000000602082015250565b60006127a6602b836124bf565b91506127b18261274a565b604082019050919050565b600060208201905081810360008301526127d581612799565b9050919050565b7f4e6f20746f6b656e7320746f20636c61696d2e00000000000000000000000000600082015250565b60006128126013836124bf565b915061281d826127dc565b602082019050919050565b6000602082019050818103600083015261284181612805565b9050919050565b600060408201905061285d60008301856122a9565b61286a602083018461227f565b9392505050565b61287a81612489565b811461288557600080fd5b50565b60008151905061289781612871565b92915050565b6000602082840312156128b3576128b2611d37565b5b60006128c184828501612888565b91505092915050565b60006128d582611d9f565b91507fffffffffffffffffffffffffffffffffffffffffffffffffffffffffffffffff82036129075761290661260e565b5b600182019050919050565b7f4f776e61626c653a206e6577206f776e657220697320746865207a65726f206160008201527f6464726573730000000000000000000000000000000000000000000000000000602082015250565b600061296e6026836124bf565b915061297982612912565b604082019050919050565b6000602082019050818103600083015261299d81612961565b9050919050565b7f5265656e7472616e637947756172643a207265656e7472616e742063616c6c00600082015250565b60006129da601f836124bf565b91506129e5826129a4565b602082019050919050565b60006020820190508181036000830152612a09816129cd565b9050919050565b7f4e487b7100000000000000000000000000000000000000000000000000000000600052603160045260246000fd5b7f4f776e61626c653a2063616c6c6572206973206e6f7420746865206f776e6572600082015250565b6000612a756020836124bf565b9150612a8082612a3f565b602082019050919050565b60006020820190508181036000830152612aa481612a68565b905091905056fea264697066735822122071c39319df6e047ca854d94b50dced0a95671e15c1081af57df257ec62e8d4ae64736f6c634300080d0033",
  "linkReferences": {},
  "deployedLinkReferences": {}
}