{
  "_format": "hh-sol-artifact-1",
  "contractName": "NFTStaker",
  "sourceName": "src/backend/contracts/NFTStaker.sol",
  "abi": [
    {
      "inputs": [
        {
          "internalType": "address",
          "name": "nftAddress",
          "type": "address"
        },
        {
          "internalType": "address",
          "name": "rewardsTokenAddress",
          "type": "address"
        }
      ],
      "stateMutability": "nonpayable",
      "type": "constructor"
    },
    {
      "inputs": [
        {
          "internalType": "address",
          "name": "",
          "type": "address"
        },
        {
          "internalType": "address",
          "name": "",
          "type": "address"
        },
        {
          "internalType": "uint256",
          "name": "",
          "type": "uint256"
        },
        {
          "internalType": "bytes",
          "name": "",
          "type": "bytes"
        }
      ],
      "name": "onERC721Received",
      "outputs": [
        {
          "internalType": "bytes4",
          "name": "",
          "type": "bytes4"
        }
      ],
      "stateMutability": "nonpayable",
      "type": "function"
    },
    {
      "inputs": [],
      "name": "parentNFT",
      "outputs": [
        {
          "internalType": "contract ERC721A",
          "name": "",
          "type": "address"
        }
      ],
      "stateMutability": "view",
      "type": "function"
    },
    {
      "inputs": [],
      "name": "rewardRate",
      "outputs": [
        {
          "internalType": "uint256",
          "name": "",
          "type": "uint256"
        }
      ],
      "stateMutability": "view",
      "type": "function"
    },
    {
      "inputs": [],
      "name": "rewardsToken",
      "outputs": [
        {
          "internalType": "contract ERC20",
          "name": "",
          "type": "address"
        }
      ],
      "stateMutability": "view",
      "type": "function"
    },
    {
      "inputs": [
        {
          "internalType": "uint256",
          "name": "_tokenId",
          "type": "uint256"
        }
      ],
      "name": "stake",
      "outputs": [],
      "stateMutability": "nonpayable",
      "type": "function"
    },
    {
      "inputs": [
        {
          "internalType": "address",
          "name": "",
          "type": "address"
        },
        {
          "internalType": "uint256",
          "name": "",
          "type": "uint256"
        }
      ],
      "name": "stakes",
      "outputs": [
        {
          "internalType": "uint256",
          "name": "",
          "type": "uint256"
        }
      ],
      "stateMutability": "view",
      "type": "function"
    },
    {
      "inputs": [
        {
          "internalType": "uint256",
          "name": "_tokenId",
          "type": "uint256"
        }
      ],
      "name": "unstake",
      "outputs": [],
      "stateMutability": "nonpayable",
      "type": "function"
    }
  ],
  "bytecode": "0x60806040523480156200001157600080fd5b5060405162000fde38038062000fde8339818101604052810190620000379190620001c7565b816000806101000a81548173ffffffffffffffffffffffffffffffffffffffff021916908373ffffffffffffffffffffffffffffffffffffffff16021790555080600160006101000a81548173ffffffffffffffffffffffffffffffffffffffff021916908373ffffffffffffffffffffffffffffffffffffffff16021790555062015180600160009054906101000a900473ffffffffffffffffffffffffffffffffffffffff1673ffffffffffffffffffffffffffffffffffffffff1663313ce5676040518163ffffffff1660e01b815260040160206040518083038186803b1580156200012557600080fd5b505afa1580156200013a573d6000803e3d6000fd5b505050506040513d601f19601f8201168201806040525081019062000160919062000208565b60ff16600a620001719190620002c7565b60056200017f919062000404565b6200018b919062000234565b60028190555050506200054f565b600081519050620001aa816200051b565b92915050565b600081519050620001c18162000535565b92915050565b60008060408385031215620001db57600080fd5b6000620001eb8582860162000199565b9250506020620001fe8582860162000199565b9150509250929050565b6000602082840312156200021b57600080fd5b60006200022b84828501620001b0565b91505092915050565b6000620002418262000499565b91506200024e8362000499565b925082620002615762000260620004df565b5b828204905092915050565b6000808291508390505b6001851115620002be57808604811115620002965762000295620004b0565b5b6001851615620002a65780820291505b8081029050620002b6856200050e565b945062000276565b94509492505050565b6000620002d48262000499565b9150620002e18362000499565b9250620003107fffffffffffffffffffffffffffffffffffffffffffffffffffffffffffffffff848462000318565b905092915050565b6000826200032a5760019050620003fd565b816200033a5760009050620003fd565b81600181146200035357600281146200035e5762000394565b6001915050620003fd565b60ff841115620003735762000372620004b0565b5b8360020a9150848211156200038d576200038c620004b0565b5b50620003fd565b5060208310610133831016604e8410600b8410161715620003ce5782820a905083811115620003c857620003c7620004b0565b5b620003fd565b620003dd84848460016200026c565b92509050818404811115620003f757620003f6620004b0565b5b81810290505b9392505050565b6000620004118262000499565b91506200041e8362000499565b9250817fffffffffffffffffffffffffffffffffffffffffffffffffffffffffffffffff04831182151516156200045a5762000459620004b0565b5b828202905092915050565b6000620004728262000479565b9050919050565b600073ffffffffffffffffffffffffffffffffffffffff82169050919050565b6000819050919050565b600060ff82169050919050565b7f4e487b7100000000000000000000000000000000000000000000000000000000600052601160045260246000fd5b7f4e487b7100000000000000000000000000000000000000000000000000000000600052601260045260246000fd5b60008160011c9050919050565b620005268162000465565b81146200053257600080fd5b50565b6200054081620004a3565b81146200054c57600080fd5b50565b610a7f806200055f6000396000f3fe608060405234801561001057600080fd5b506004361061007d5760003560e01c80637b0a47ee1161005b5780637b0a47ee146100fe578063a694fc3a1461011c578063b8e33fb214610138578063d1af0c7d146101565761007d565b8063150b7a02146100825780632e17de78146100b2578063584b62a1146100ce575b600080fd5b61009c60048036038101906100979190610595565b610174565b6040516100a99190610749565b60405180910390f35b6100cc60048036038101906100c79190610675565b610188565b005b6100e860048036038101906100e39190610610565b610392565b6040516100f5919061079a565b60405180910390f35b6101066103b7565b604051610113919061079a565b60405180910390f35b61013660048036038101906101319190610675565b6103bd565b005b6101406104a4565b60405161014d919061077f565b60405180910390f35b61015e6104c8565b60405161016b9190610764565b60405180910390f35b600063150b7a0260e01b9050949350505050565b60008054906101000a900473ffffffffffffffffffffffffffffffffffffffff1673ffffffffffffffffffffffffffffffffffffffff166342842e0e3033846040518463ffffffff1660e01b81526004016101e5939291906106e9565b600060405180830381600087803b1580156101ff57600080fd5b505af1158015610213573d6000803e3d6000fd5b505050506000600360003373ffffffffffffffffffffffffffffffffffffffff1673ffffffffffffffffffffffffffffffffffffffff168152602001908152602001600020600083815260200190815260200160002054426102759190610865565b9050600060025482610287919061080b565b9050600160009054906101000a900473ffffffffffffffffffffffffffffffffffffffff1673ffffffffffffffffffffffffffffffffffffffff1663a9059cbb33836040518363ffffffff1660e01b81526004016102e6929190610720565b602060405180830381600087803b15801561030057600080fd5b505af1158015610314573d6000803e3d6000fd5b505050506040513d601f19601f82011682018060405250810190610338919061064c565b50600360003373ffffffffffffffffffffffffffffffffffffffff1673ffffffffffffffffffffffffffffffffffffffff168152602001908152602001600020600084815260200190815260200160002060009055505050565b6003602052816000526040600020602052806000526040600020600091509150505481565b60025481565b42600360003373ffffffffffffffffffffffffffffffffffffffff1673ffffffffffffffffffffffffffffffffffffffff16815260200190815260200160002060008381526020019081526020016000208190555060008054906101000a900473ffffffffffffffffffffffffffffffffffffffff1673ffffffffffffffffffffffffffffffffffffffff166342842e0e3330846040518463ffffffff1660e01b815260040161046f939291906106e9565b600060405180830381600087803b15801561048957600080fd5b505af115801561049d573d6000803e3d6000fd5b5050505050565b60008054906101000a900473ffffffffffffffffffffffffffffffffffffffff1681565b600160009054906101000a900473ffffffffffffffffffffffffffffffffffffffff1681565b60006105016104fc846107da565b6107b5565b90508281526020810184848401111561051957600080fd5b610524848285610955565b509392505050565b60008135905061053b81610a04565b92915050565b60008151905061055081610a1b565b92915050565b600082601f83011261056757600080fd5b81356105778482602086016104ee565b91505092915050565b60008135905061058f81610a32565b92915050565b600080600080608085870312156105ab57600080fd5b60006105b98782880161052c565b94505060206105ca8782880161052c565b93505060406105db87828801610580565b925050606085013567ffffffffffffffff8111156105f857600080fd5b61060487828801610556565b91505092959194509250565b6000806040838503121561062357600080fd5b60006106318582860161052c565b925050602061064285828601610580565b9150509250929050565b60006020828403121561065e57600080fd5b600061066c84828501610541565b91505092915050565b60006020828403121561068757600080fd5b600061069584828501610580565b91505092915050565b6106a781610899565b82525050565b6106b6816108b7565b82525050565b6106c58161090d565b82525050565b6106d481610931565b82525050565b6106e381610903565b82525050565b60006060820190506106fe600083018661069e565b61070b602083018561069e565b61071860408301846106da565b949350505050565b6000604082019050610735600083018561069e565b61074260208301846106da565b9392505050565b600060208201905061075e60008301846106ad565b92915050565b600060208201905061077960008301846106bc565b92915050565b600060208201905061079460008301846106cb565b92915050565b60006020820190506107af60008301846106da565b92915050565b60006107bf6107d0565b90506107cb8282610964565b919050565b6000604051905090565b600067ffffffffffffffff8211156107f5576107f46109c4565b5b6107fe826109f3565b9050602081019050919050565b600061081682610903565b915061082183610903565b9250817fffffffffffffffffffffffffffffffffffffffffffffffffffffffffffffffff048311821515161561085a57610859610995565b5b828202905092915050565b600061087082610903565b915061087b83610903565b92508282101561088e5761088d610995565b5b828203905092915050565b60006108a4826108e3565b9050919050565b60008115159050919050565b60007fffffffff0000000000000000000000000000000000000000000000000000000082169050919050565b600073ffffffffffffffffffffffffffffffffffffffff82169050919050565b6000819050919050565b60006109188261091f565b9050919050565b600061092a826108e3565b9050919050565b600061093c82610943565b9050919050565b600061094e826108e3565b9050919050565b82818337600083830152505050565b61096d826109f3565b810181811067ffffffffffffffff8211171561098c5761098b6109c4565b5b80604052505050565b7f4e487b7100000000000000000000000000000000000000000000000000000000600052601160045260246000fd5b7f4e487b7100000000000000000000000000000000000000000000000000000000600052604160045260246000fd5b6000601f19601f8301169050919050565b610a0d81610899565b8114610a1857600080fd5b50565b610a24816108ab565b8114610a2f57600080fd5b50565b610a3b81610903565b8114610a4657600080fd5b5056fea264697066735822122043df4b5a019504fd2233cdf2462e8b67fa6f294e680e7996eac98cbac5c5f63464736f6c63430008040033",
  "linkReferences": {},
  "deployedLinkReferences": {}
}