{
  "_format": "hh-sol-artifact-1",
  "contractName": "NFTStaker",
  "sourceName": "src/backend/contracts/NFTStaker.sol",
  "abi": [
    {
      "inputs": [
        {
          "internalType": "address",
          "name": "nftAddress",
          "type": "address"
        },
        {
          "internalType": "address",
          "name": "rewardsTokenAddress",
          "type": "address"
        }
      ],
      "stateMutability": "nonpayable",
      "type": "constructor"
    },
    {
      "inputs": [],
      "name": "parentNFT",
      "outputs": [
        {
          "internalType": "contract ERC721A",
          "name": "",
          "type": "address"
        }
      ],
      "stateMutability": "view",
      "type": "function"
    },
    {
      "inputs": [],
      "name": "rewardRate",
      "outputs": [
        {
          "internalType": "uint256",
          "name": "",
          "type": "uint256"
        }
      ],
      "stateMutability": "view",
      "type": "function"
    },
    {
      "inputs": [],
      "name": "rewardsToken",
      "outputs": [
        {
          "internalType": "contract ERC20",
          "name": "",
          "type": "address"
        }
      ],
      "stateMutability": "view",
      "type": "function"
    },
    {
      "inputs": [
        {
          "internalType": "uint256",
          "name": "_tokenId",
          "type": "uint256"
        }
      ],
      "name": "stake",
      "outputs": [],
      "stateMutability": "nonpayable",
      "type": "function"
    },
    {
      "inputs": [
        {
          "internalType": "address",
          "name": "",
          "type": "address"
        },
        {
          "internalType": "uint256",
          "name": "",
          "type": "uint256"
        }
      ],
      "name": "stakes",
      "outputs": [
        {
          "internalType": "uint256",
          "name": "",
          "type": "uint256"
        }
      ],
      "stateMutability": "view",
      "type": "function"
    },
    {
      "inputs": [
        {
          "internalType": "uint256",
          "name": "_tokenId",
          "type": "uint256"
        }
      ],
      "name": "unstake",
      "outputs": [],
      "stateMutability": "nonpayable",
      "type": "function"
    }
  ],
  "bytecode": "0x60806040523480156200001157600080fd5b5060405162000d7038038062000d708339818101604052810190620000379190620001c7565b816000806101000a81548173ffffffffffffffffffffffffffffffffffffffff021916908373ffffffffffffffffffffffffffffffffffffffff16021790555080600160006101000a81548173ffffffffffffffffffffffffffffffffffffffff021916908373ffffffffffffffffffffffffffffffffffffffff16021790555062015180600160009054906101000a900473ffffffffffffffffffffffffffffffffffffffff1673ffffffffffffffffffffffffffffffffffffffff1663313ce5676040518163ffffffff1660e01b815260040160206040518083038186803b1580156200012557600080fd5b505afa1580156200013a573d6000803e3d6000fd5b505050506040513d601f19601f8201168201806040525081019062000160919062000208565b60ff16600a620001719190620002c7565b60056200017f919062000404565b6200018b919062000234565b60028190555050506200054f565b600081519050620001aa816200051b565b92915050565b600081519050620001c18162000535565b92915050565b60008060408385031215620001db57600080fd5b6000620001eb8582860162000199565b9250506020620001fe8582860162000199565b9150509250929050565b6000602082840312156200021b57600080fd5b60006200022b84828501620001b0565b91505092915050565b6000620002418262000499565b91506200024e8362000499565b925082620002615762000260620004df565b5b828204905092915050565b6000808291508390505b6001851115620002be57808604811115620002965762000295620004b0565b5b6001851615620002a65780820291505b8081029050620002b6856200050e565b945062000276565b94509492505050565b6000620002d48262000499565b9150620002e18362000499565b9250620003107fffffffffffffffffffffffffffffffffffffffffffffffffffffffffffffffff848462000318565b905092915050565b6000826200032a5760019050620003fd565b816200033a5760009050620003fd565b81600181146200035357600281146200035e5762000394565b6001915050620003fd565b60ff841115620003735762000372620004b0565b5b8360020a9150848211156200038d576200038c620004b0565b5b50620003fd565b5060208310610133831016604e8410600b8410161715620003ce5782820a905083811115620003c857620003c7620004b0565b5b620003fd565b620003dd84848460016200026c565b92509050818404811115620003f757620003f6620004b0565b5b81810290505b9392505050565b6000620004118262000499565b91506200041e8362000499565b9250817fffffffffffffffffffffffffffffffffffffffffffffffffffffffffffffffff04831182151516156200045a5762000459620004b0565b5b828202905092915050565b6000620004728262000479565b9050919050565b600073ffffffffffffffffffffffffffffffffffffffff82169050919050565b6000819050919050565b600060ff82169050919050565b7f4e487b7100000000000000000000000000000000000000000000000000000000600052601160045260246000fd5b7f4e487b7100000000000000000000000000000000000000000000000000000000600052601260045260246000fd5b60008160011c9050919050565b620005268162000465565b81146200053257600080fd5b50565b6200054081620004a3565b81146200054c57600080fd5b50565b610811806200055f6000396000f3fe608060405234801561001057600080fd5b50600436106100625760003560e01c80632e17de7814610067578063584b62a1146100835780637b0a47ee146100b3578063a694fc3a146100d1578063b8e33fb2146100ed578063d1af0c7d1461010b575b600080fd5b610081600480360381019061007c9190610533565b610129565b005b61009d600480360381019061009891906104ce565b610333565b6040516100aa919061062e565b60405180910390f35b6100bb610358565b6040516100c8919061062e565b60405180910390f35b6100eb60048036038101906100e69190610533565b61035e565b005b6100f5610445565b6040516101029190610613565b60405180910390f35b610113610469565b60405161012091906105f8565b60405180910390f35b60008054906101000a900473ffffffffffffffffffffffffffffffffffffffff1673ffffffffffffffffffffffffffffffffffffffff166342842e0e3033846040518463ffffffff1660e01b815260040161018693929190610598565b600060405180830381600087803b1580156101a057600080fd5b505af11580156101b4573d6000803e3d6000fd5b505050506000600360003373ffffffffffffffffffffffffffffffffffffffff1673ffffffffffffffffffffffffffffffffffffffff1681526020019081526020016000206000838152602001908152602001600020544261021691906106a3565b90506000600254826102289190610649565b9050600160009054906101000a900473ffffffffffffffffffffffffffffffffffffffff1673ffffffffffffffffffffffffffffffffffffffff1663a9059cbb33836040518363ffffffff1660e01b81526004016102879291906105cf565b602060405180830381600087803b1580156102a157600080fd5b505af11580156102b5573d6000803e3d6000fd5b505050506040513d601f19601f820116820180604052508101906102d9919061050a565b50600360003373ffffffffffffffffffffffffffffffffffffffff1673ffffffffffffffffffffffffffffffffffffffff168152602001908152602001600020600084815260200190815260200160002060009055505050565b6003602052816000526040600020602052806000526040600020600091509150505481565b60025481565b42600360003373ffffffffffffffffffffffffffffffffffffffff1673ffffffffffffffffffffffffffffffffffffffff16815260200190815260200160002060008381526020019081526020016000208190555060008054906101000a900473ffffffffffffffffffffffffffffffffffffffff1673ffffffffffffffffffffffffffffffffffffffff166342842e0e3330846040518463ffffffff1660e01b815260040161041093929190610598565b600060405180830381600087803b15801561042a57600080fd5b505af115801561043e573d6000803e3d6000fd5b5050505050565b60008054906101000a900473ffffffffffffffffffffffffffffffffffffffff1681565b600160009054906101000a900473ffffffffffffffffffffffffffffffffffffffff1681565b60008135905061049e81610796565b92915050565b6000815190506104b3816107ad565b92915050565b6000813590506104c8816107c4565b92915050565b600080604083850312156104e157600080fd5b60006104ef8582860161048f565b9250506020610500858286016104b9565b9150509250929050565b60006020828403121561051c57600080fd5b600061052a848285016104a4565b91505092915050565b60006020828403121561054557600080fd5b6000610553848285016104b9565b91505092915050565b610565816106d7565b82525050565b6105748161071f565b82525050565b61058381610743565b82525050565b61059281610715565b82525050565b60006060820190506105ad600083018661055c565b6105ba602083018561055c565b6105c76040830184610589565b949350505050565b60006040820190506105e4600083018561055c565b6105f16020830184610589565b9392505050565b600060208201905061060d600083018461056b565b92915050565b6000602082019050610628600083018461057a565b92915050565b60006020820190506106436000830184610589565b92915050565b600061065482610715565b915061065f83610715565b9250817fffffffffffffffffffffffffffffffffffffffffffffffffffffffffffffffff048311821515161561069857610697610767565b5b828202905092915050565b60006106ae82610715565b91506106b983610715565b9250828210156106cc576106cb610767565b5b828203905092915050565b60006106e2826106f5565b9050919050565b60008115159050919050565b600073ffffffffffffffffffffffffffffffffffffffff82169050919050565b6000819050919050565b600061072a82610731565b9050919050565b600061073c826106f5565b9050919050565b600061074e82610755565b9050919050565b6000610760826106f5565b9050919050565b7f4e487b7100000000000000000000000000000000000000000000000000000000600052601160045260246000fd5b61079f816106d7565b81146107aa57600080fd5b50565b6107b6816106e9565b81146107c157600080fd5b50565b6107cd81610715565b81146107d857600080fd5b5056fea2646970667358221220371c6a8e42a76b0dd6285d88ba8f4d38268201df0fd02c3292dda493570a8ac164736f6c63430008040033",
  "linkReferences": {},
  "deployedLinkReferences": {}
}