{
  "_format": "hh-sol-artifact-1",
  "contractName": "NFTStaker",
  "sourceName": "src/backend/contracts/NFTStaker.sol",
  "abi": [
    {
      "inputs": [
        {
          "internalType": "address",
          "name": "nftAddress",
          "type": "address"
        }
      ],
      "stateMutability": "nonpayable",
      "type": "constructor"
    },
    {
      "anonymous": false,
      "inputs": [
        {
          "indexed": true,
          "internalType": "address",
          "name": "previousOwner",
          "type": "address"
        },
        {
          "indexed": true,
          "internalType": "address",
          "name": "newOwner",
          "type": "address"
        }
      ],
      "name": "OwnershipTransferred",
      "type": "event"
    },
    {
      "anonymous": false,
      "inputs": [
        {
          "indexed": false,
          "internalType": "uint256",
          "name": "tokenId",
          "type": "uint256"
        },
        {
          "indexed": false,
          "internalType": "uint256",
          "name": "timestamp",
          "type": "uint256"
        }
      ],
      "name": "StakeSuccessful",
      "type": "event"
    },
    {
      "anonymous": false,
      "inputs": [
        {
          "indexed": false,
          "internalType": "uint256",
          "name": "tokenId",
          "type": "uint256"
        },
        {
          "indexed": false,
          "internalType": "uint256",
          "name": "reward",
          "type": "uint256"
        }
      ],
      "name": "UnstakeSuccessful",
      "type": "event"
    },
    {
      "inputs": [],
      "name": "claimReward",
      "outputs": [],
      "stateMutability": "nonpayable",
      "type": "function"
    },
    {
      "inputs": [
        {
          "internalType": "address",
          "name": "_user",
          "type": "address"
        }
      ],
      "name": "getRewardToClaim",
      "outputs": [
        {
          "internalType": "uint256",
          "name": "",
          "type": "uint256"
        }
      ],
      "stateMutability": "view",
      "type": "function"
    },
    {
      "inputs": [
        {
          "internalType": "address",
          "name": "_user",
          "type": "address"
        }
      ],
      "name": "getStakedMissions",
      "outputs": [
        {
          "components": [
            {
              "internalType": "uint256",
              "name": "startTimestamp",
              "type": "uint256"
            },
            {
              "internalType": "uint256",
              "name": "duration",
              "type": "uint256"
            }
          ],
          "internalType": "struct NFTStaker.Mission[]",
          "name": "missions",
          "type": "tuple[]"
        }
      ],
      "stateMutability": "view",
      "type": "function"
    },
    {
      "inputs": [
        {
          "internalType": "address",
          "name": "_user",
          "type": "address"
        }
      ],
      "name": "getStakedTimestamps",
      "outputs": [
        {
          "internalType": "uint256[]",
          "name": "timestamps",
          "type": "uint256[]"
        }
      ],
      "stateMutability": "view",
      "type": "function"
    },
    {
      "inputs": [
        {
          "internalType": "address",
          "name": "_user",
          "type": "address"
        }
      ],
      "name": "getStakedTokens",
      "outputs": [
        {
          "internalType": "uint256[]",
          "name": "tokenIds",
          "type": "uint256[]"
        }
      ],
      "stateMutability": "view",
      "type": "function"
    },
    {
      "inputs": [],
      "name": "hoursForUnitReward",
      "outputs": [
        {
          "internalType": "uint256",
          "name": "",
          "type": "uint256"
        }
      ],
      "stateMutability": "view",
      "type": "function"
    },
    {
      "inputs": [],
      "name": "isMissionOngoing",
      "outputs": [
        {
          "internalType": "bool",
          "name": "",
          "type": "bool"
        }
      ],
      "stateMutability": "view",
      "type": "function"
    },
    {
      "inputs": [
        {
          "internalType": "uint256",
          "name": "_tokenId",
          "type": "uint256"
        }
      ],
      "name": "isTokenStaked",
      "outputs": [
        {
          "internalType": "bool",
          "name": "",
          "type": "bool"
        }
      ],
      "stateMutability": "view",
      "type": "function"
    },
    {
      "inputs": [
        {
          "internalType": "address",
          "name": "",
          "type": "address"
        },
        {
          "internalType": "address",
          "name": "",
          "type": "address"
        },
        {
          "internalType": "uint256",
          "name": "",
          "type": "uint256"
        },
        {
          "internalType": "bytes",
          "name": "",
          "type": "bytes"
        }
      ],
      "name": "onERC721Received",
      "outputs": [
        {
          "internalType": "bytes4",
          "name": "",
          "type": "bytes4"
        }
      ],
      "stateMutability": "nonpayable",
      "type": "function"
    },
    {
      "inputs": [],
      "name": "owner",
      "outputs": [
        {
          "internalType": "address",
          "name": "",
          "type": "address"
        }
      ],
      "stateMutability": "view",
      "type": "function"
    },
    {
      "inputs": [],
      "name": "parentNFT",
      "outputs": [
        {
          "internalType": "contract ERC721A",
          "name": "",
          "type": "address"
        }
      ],
      "stateMutability": "view",
      "type": "function"
    },
    {
      "inputs": [],
      "name": "renounceOwnership",
      "outputs": [],
      "stateMutability": "nonpayable",
      "type": "function"
    },
    {
      "inputs": [],
      "name": "rewardsToken",
      "outputs": [
        {
          "internalType": "contract ERC20",
          "name": "",
          "type": "address"
        }
      ],
      "stateMutability": "view",
      "type": "function"
    },
    {
      "inputs": [
        {
          "internalType": "uint256[]",
          "name": "_tokenIds",
          "type": "uint256[]"
        }
      ],
      "name": "sendAllInactiveToMission",
      "outputs": [],
      "stateMutability": "nonpayable",
      "type": "function"
    },
    {
      "inputs": [
        {
          "internalType": "address",
          "name": "_newOwner",
          "type": "address"
        },
        {
          "internalType": "address",
          "name": "_tokenAddress",
          "type": "address"
        }
      ],
      "name": "setOwnerAndTokenAddress",
      "outputs": [],
      "stateMutability": "nonpayable",
      "type": "function"
    },
    {
      "inputs": [
        {
          "internalType": "uint256",
          "name": "_tokenId",
          "type": "uint256"
        }
      ],
      "name": "stake",
      "outputs": [],
      "stateMutability": "nonpayable",
      "type": "function"
    },
    {
      "inputs": [
        {
          "internalType": "uint256",
          "name": "_duration",
          "type": "uint256"
        }
      ],
      "name": "startMission",
      "outputs": [],
      "stateMutability": "nonpayable",
      "type": "function"
    },
    {
      "inputs": [
        {
          "internalType": "address",
          "name": "newOwner",
          "type": "address"
        }
      ],
      "name": "transferOwnership",
      "outputs": [],
      "stateMutability": "nonpayable",
      "type": "function"
    },
    {
      "inputs": [
        {
          "internalType": "uint256",
          "name": "_tokenId",
          "type": "uint256"
        }
      ],
      "name": "unstake",
      "outputs": [],
      "stateMutability": "nonpayable",
      "type": "function"
    }
  ],
  "bytecode": "0x60806040523480156200001157600080fd5b5060405162002d3238038062002d328339818101604052810190620000379190620001e6565b60016000819055506200005f62000053620000ae60201b60201c565b620000b660201b60201c565b80600260006101000a81548173ffffffffffffffffffffffffffffffffffffffff021916908373ffffffffffffffffffffffffffffffffffffffff160217905550600480819055505062000218565b600033905090565b6000600160009054906101000a900473ffffffffffffffffffffffffffffffffffffffff16905081600160006101000a81548173ffffffffffffffffffffffffffffffffffffffff021916908373ffffffffffffffffffffffffffffffffffffffff1602179055508173ffffffffffffffffffffffffffffffffffffffff168173ffffffffffffffffffffffffffffffffffffffff167f8be0079c531659141344cd1fd0a4f28419497f9722a3daafe3b4186f6b6457e060405160405180910390a35050565b600080fd5b600073ffffffffffffffffffffffffffffffffffffffff82169050919050565b6000620001ae8262000181565b9050919050565b620001c081620001a1565b8114620001cc57600080fd5b50565b600081519050620001e081620001b5565b92915050565b600060208284031215620001ff57620001fe6200017c565b5b60006200020f84828501620001cf565b91505092915050565b612b0a80620002286000396000f3fe608060405234801561001057600080fd5b50600436106101215760003560e01c8063a04ebd4b116100ad578063d1af0c7d11610071578063d1af0c7d146102e0578063e6d7d9d1146102fe578063f0a524241461031c578063f2fde38b1461034c578063fb1ab0a91461036857610121565b8063a04ebd4b1461023c578063a694fc3a1461026c578063a7c1e29a14610288578063b88a802f146102b8578063b8e33fb2146102c257610121565b806363c28db1116100f457806363c28db1146101ac578063647fb46c146101dc57806367eb6add146101f8578063715018a6146102145780638da5cb5b1461021e57610121565b8063150b7a021461012657806324d0b0a5146101565780632e17de78146101745780633a7055f914610190575b600080fd5b610140600480360381019061013b9190611ee4565b610398565b60405161014d9190611fa2565b60405180910390f35b61015e6103ac565b60405161016b9190611fcc565b60405180910390f35b61018e60048036038101906101899190611fe7565b6103b2565b005b6101aa60048036038101906101a59190611fe7565b61073c565b005b6101c660048036038101906101c19190612014565b610768565b6040516101d391906120ff565b60405180910390f35b6101f660048036038101906101f19190612121565b610802565b005b610212600480360381019061020d9190612229565b610858565b005b61021c610b9d565b005b610226610bb1565b6040516102339190612281565b60405180910390f35b61025660048036038101906102519190612014565b610bdb565b60405161026391906120ff565b60405180910390f35b61028660048036038101906102819190611fe7565b610c75565b005b6102a2600480360381019061029d9190612014565b610eee565b6040516102af919061237a565b60405180910390f35b6102c0610fa3565b005b6102ca61112d565b6040516102d791906123fb565b60405180910390f35b6102e8611153565b6040516102f59190612437565b60405180910390f35b610306611179565b604051610313919061246d565b60405180910390f35b61033660048036038101906103319190611fe7565b6111a8565b604051610343919061246d565b60405180910390f35b61036660048036038101906103619190612014565b61128d565b005b610382600480360381019061037d9190612014565b611310565b60405161038f9190611fcc565b60405180910390f35b600063150b7a0260e01b9050949350505050565b60045481565b6103ba61135c565b6000600760003373ffffffffffffffffffffffffffffffffffffffff1673ffffffffffffffffffffffffffffffffffffffff1681526020019081526020016000206040518060800160405290816000820180548060200260200160405190810160405280929190818152602001828054801561045557602002820191906000526020600020905b815481526020019060010190808311610441575b50505050508152602001600182018054806020026020016040519081016040528092919081815260200182805480156104ad57602002820191906000526020600020905b815481526020019060010190808311610499575b5050505050815260200160028201805480602002602001604051908101604052809291908181526020016000905b82821015610521578382906000526020600020906002020160405180604001604052908160008201548152602001600182015481525050815260200190600101906104db565b505050508152602001600382015481525050905060008061054284336113ab565b9150915080610586576040517f08c379a000000000000000000000000000000000000000000000000000000000815260040161057d906124e5565b60405180910390fd5b60006105928333611597565b905060006105e5856040015185815181106105b0576105af612505565b5b602002602001015160000151866040015186815181106105d3576105d2612505565b5b602002602001015160200151426117db565b9050600260009054906101000a900473ffffffffffffffffffffffffffffffffffffffff1673ffffffffffffffffffffffffffffffffffffffff166342842e0e3033896040518463ffffffff1660e01b815260040161064693929190612534565b600060405180830381600087803b15801561066057600080fd5b505af1158015610674573d6000803e3d6000fd5b5050505061069384600187600001515161068e919061259a565b6117f4565b80156106f35781600760003373ffffffffffffffffffffffffffffffffffffffff1673ffffffffffffffffffffffffffffffffffffffff16815260200190815260200160002060030160008282546106eb91906125ce565b925050819055505b7f97cc56283430ac8692d29c7522a69fa6c2bde7e47d781be6b58b034d80bc28288683604051610724929190612624565b60405180910390a15050505050610739611ba0565b50565b610744611baa565b42600560000181905550610e108161075c919061264d565b60056001018190555050565b6060600760008373ffffffffffffffffffffffffffffffffffffffff1673ffffffffffffffffffffffffffffffffffffffff1681526020019081526020016000206000018054806020026020016040519081016040528092919081815260200182805480156107f657602002820191906000526020600020905b8154815260200190600101908083116107e2575b50505050509050919050565b61080a611baa565b80600360006101000a81548173ffffffffffffffffffffffffffffffffffffffff021916908373ffffffffffffffffffffffffffffffffffffffff16021790555061085482611c28565b5050565b61086061135c565b610868611179565b6108a7576040517f08c379a000000000000000000000000000000000000000000000000000000000815260040161089e906126f3565b60405180910390fd5b600081519050600042905060005b82811015610b8f576000806108e48684815181106108d6576108d5612505565b5b6020026020010151336113ab565b9150915080610928576040517f08c379a000000000000000000000000000000000000000000000000000000000815260040161091f906124e5565b60405180910390fd5b6109fd600760003373ffffffffffffffffffffffffffffffffffffffff1673ffffffffffffffffffffffffffffffffffffffff168152602001908152602001600020600201838154811061097f5761097e612505565b5b906000526020600020906002020160000154600760003373ffffffffffffffffffffffffffffffffffffffff1673ffffffffffffffffffffffffffffffffffffffff16815260200190815260200160002060020184815481106109e5576109e4612505565b5b906000526020600020906002020160010154866117db565b610a3c576040517f08c379a0000000000000000000000000000000000000000000000000000000008152600401610a3390612785565b60405180910390fd5b6000610a488333611597565b905084600760003373ffffffffffffffffffffffffffffffffffffffff1673ffffffffffffffffffffffffffffffffffffffff1681526020019081526020016000206001018481548110610a9f57610a9e612505565b5b90600052602060002001819055506005600760003373ffffffffffffffffffffffffffffffffffffffff1673ffffffffffffffffffffffffffffffffffffffff1681526020019081526020016000206002018481548110610b0357610b02612505565b5b9060005260206000209060020201600082015481600001556001820154816001015590505080600760003373ffffffffffffffffffffffffffffffffffffffff1673ffffffffffffffffffffffffffffffffffffffff1681526020019081526020016000206003016000828254610b7a91906125ce565b925050819055508360010193505050506108b5565b505050610b9a611ba0565b50565b610ba5611baa565b610baf6000611c28565b565b6000600160009054906101000a900473ffffffffffffffffffffffffffffffffffffffff16905090565b6060600760008373ffffffffffffffffffffffffffffffffffffffff1673ffffffffffffffffffffffffffffffffffffffff168152602001908152602001600020600101805480602002602001604051908101604052809291908181526020018280548015610c6957602002820191906000526020600020905b815481526020019060010190808311610c55575b50505050509050919050565b610c7d61135c565b610c85611179565b610cc4576040517f08c379a0000000000000000000000000000000000000000000000000000000008152600401610cbb906126f3565b60405180910390fd5b600760003373ffffffffffffffffffffffffffffffffffffffff1673ffffffffffffffffffffffffffffffffffffffff168152602001908152602001600020600001819080600181540180825580915050600190039060005260206000200160009091909190915055600760003373ffffffffffffffffffffffffffffffffffffffff1673ffffffffffffffffffffffffffffffffffffffff168152602001908152602001600020600101429080600181540180825580915050600190039060005260206000200160009091909190915055600760003373ffffffffffffffffffffffffffffffffffffffff1673ffffffffffffffffffffffffffffffffffffffff1681526020019081526020016000206002016005908060018154018082558091505060019003906000526020600020906002020160009091909190915060008201548160000155600182015481600101555050600260009054906101000a900473ffffffffffffffffffffffffffffffffffffffff1673ffffffffffffffffffffffffffffffffffffffff166342842e0e3330846040518463ffffffff1660e01b8152600401610e7893929190612534565b600060405180830381600087803b158015610e9257600080fd5b505af1158015610ea6573d6000803e3d6000fd5b505050507fb9a8e9862e9f26d54fc878291fa9354d1629940f2a39517bd62522ec47aec1058142604051610edb929190612624565b60405180910390a1610eeb611ba0565b50565b6060600760008373ffffffffffffffffffffffffffffffffffffffff1673ffffffffffffffffffffffffffffffffffffffff168152602001908152602001600020600201805480602002602001604051908101604052809291908181526020016000905b82821015610f9857838290600052602060002090600202016040518060400160405290816000820154815260200160018201548152505081526020019060010190610f52565b505050509050919050565b6000600760003373ffffffffffffffffffffffffffffffffffffffff1673ffffffffffffffffffffffffffffffffffffffff1681526020019081526020016000206003015490506000811161102d576040517f08c379a0000000000000000000000000000000000000000000000000000000008152600401611024906127f1565b60405180910390fd5b60011515600360009054906101000a900473ffffffffffffffffffffffffffffffffffffffff1673ffffffffffffffffffffffffffffffffffffffff1663a9059cbb33846040518363ffffffff1660e01b815260040161108e929190612811565b6020604051808303816000875af11580156110ad573d6000803e3d6000fd5b505050506040513d601f19601f820116820180604052508101906110d19190612866565b151503611125576000600760003373ffffffffffffffffffffffffffffffffffffffff1673ffffffffffffffffffffffffffffffffffffffff1681526020019081526020016000206003018190555061112a565b600080fd5b50565b600260009054906101000a900473ffffffffffffffffffffffffffffffffffffffff1681565b600360009054906101000a900473ffffffffffffffffffffffffffffffffffffffff1681565b6000806005600001541180156111a35750600560010154600560000154426111a1919061259a565b105b905090565b600080600760003373ffffffffffffffffffffffffffffffffffffffff1673ffffffffffffffffffffffffffffffffffffffff16815260200190815260200160002060000180549050905060005b818110156112815783600760003373ffffffffffffffffffffffffffffffffffffffff1673ffffffffffffffffffffffffffffffffffffffff168152602001908152602001600020600001828154811061125357611252612505565b5b90600052602060002001540361126e57600192505050611288565b808061127990612893565b9150506111f6565b5060009150505b919050565b611295611baa565b600073ffffffffffffffffffffffffffffffffffffffff168173ffffffffffffffffffffffffffffffffffffffff1603611304576040517f08c379a00000000000000000000000000000000000000000000000000000000081526004016112fb9061294d565b60405180910390fd5b61130d81611c28565b50565b6000600760008373ffffffffffffffffffffffffffffffffffffffff1673ffffffffffffffffffffffffffffffffffffffff168152602001908152602001600020600301549050919050565b6002600054036113a1576040517f08c379a0000000000000000000000000000000000000000000000000000000008152600401611398906129b9565b60405180910390fd5b6002600081905550565b6000806000600760008573ffffffffffffffffffffffffffffffffffffffff1673ffffffffffffffffffffffffffffffffffffffff1681526020019081526020016000206040518060800160405290816000820180548060200260200160405190810160405280929190818152602001828054801561144957602002820191906000526020600020905b815481526020019060010190808311611435575b50505050508152602001600182018054806020026020016040519081016040528092919081815260200182805480156114a157602002820191906000526020600020905b81548152602001906001019080831161148d575b5050505050815260200160028201805480602002602001604051908101604052809291908181526020016000905b82821015611515578382906000526020600020906002020160405180604001604052908160008201548152602001600182015481525050815260200190600101906114cf565b50505050815260200160038201548152505090506000806000836000015151905060005b8181101561158557888560000151828151811061155957611558612505565b5b6020026020010151036115725780935060019250611585565b808061157d90612893565b915050611539565b50828295509550505050509250929050565b600080600760008473ffffffffffffffffffffffffffffffffffffffff1673ffffffffffffffffffffffffffffffffffffffff1681526020019081526020016000206040518060800160405290816000820180548060200260200160405190810160405280929190818152602001828054801561163357602002820191906000526020600020905b81548152602001906001019080831161161f575b505050505081526020016001820180548060200260200160405190810160405280929190818152602001828054801561168b57602002820191906000526020600020905b815481526020019060010190808311611677575b5050505050815260200160028201805480602002602001604051908101604052809291908181526020016000905b828210156116ff578382906000526020600020906002020160405180604001604052908160008201548152602001600182015481525050815260200190600101906116b9565b505050508152602001600382015481525050905060008160400151858151811061172c5761172b612505565b5b6020026020010151602001518260400151868151811061174f5761174e612505565b5b60200260200101516000015161176591906125ce565b905060008142116117765742611778565b815b905060008360200151878151811061179357611792612505565b5b6020026020010151826117a6919061259a565b90506000610e10826117b89190612a08565b90506000600454826117ca9190612a08565b905080965050505050505092915050565b60008183856117ea91906125ce565b1090509392505050565b600760003373ffffffffffffffffffffffffffffffffffffffff1673ffffffffffffffffffffffffffffffffffffffff168152602001908152602001600020600101818154811061184857611847612505565b5b9060005260206000200154600760003373ffffffffffffffffffffffffffffffffffffffff1673ffffffffffffffffffffffffffffffffffffffff16815260200190815260200160002060010183815481106118a7576118a6612505565b5b9060005260206000200181905550600760003373ffffffffffffffffffffffffffffffffffffffff1673ffffffffffffffffffffffffffffffffffffffff16815260200190815260200160002060010180548061190757611906612a39565b5b60019003818190600052602060002001600090559055600760003373ffffffffffffffffffffffffffffffffffffffff1673ffffffffffffffffffffffffffffffffffffffff168152602001908152602001600020600001818154811061197157611970612505565b5b9060005260206000200154600760003373ffffffffffffffffffffffffffffffffffffffff1673ffffffffffffffffffffffffffffffffffffffff16815260200190815260200160002060000183815481106119d0576119cf612505565b5b9060005260206000200181905550600760003373ffffffffffffffffffffffffffffffffffffffff1673ffffffffffffffffffffffffffffffffffffffff168152602001908152602001600020600001805480611a3057611a2f612a39565b5b60019003818190600052602060002001600090559055600760003373ffffffffffffffffffffffffffffffffffffffff1673ffffffffffffffffffffffffffffffffffffffff1681526020019081526020016000206002018181548110611a9a57611a99612505565b5b9060005260206000209060020201600760003373ffffffffffffffffffffffffffffffffffffffff1673ffffffffffffffffffffffffffffffffffffffff1681526020019081526020016000206002018381548110611afc57611afb612505565b5b90600052602060002090600202016000820154816000015560018201548160010155905050600760003373ffffffffffffffffffffffffffffffffffffffff1673ffffffffffffffffffffffffffffffffffffffff168152602001908152602001600020600201805480611b7357611b72612a39565b5b60019003818190600052602060002090600202016000808201600090556001820160009055505090555050565b6001600081905550565b611bb2611cee565b73ffffffffffffffffffffffffffffffffffffffff16611bd0610bb1565b73ffffffffffffffffffffffffffffffffffffffff1614611c26576040517f08c379a0000000000000000000000000000000000000000000000000000000008152600401611c1d90612ab4565b60405180910390fd5b565b6000600160009054906101000a900473ffffffffffffffffffffffffffffffffffffffff16905081600160006101000a81548173ffffffffffffffffffffffffffffffffffffffff021916908373ffffffffffffffffffffffffffffffffffffffff1602179055508173ffffffffffffffffffffffffffffffffffffffff168173ffffffffffffffffffffffffffffffffffffffff167f8be0079c531659141344cd1fd0a4f28419497f9722a3daafe3b4186f6b6457e060405160405180910390a35050565b600033905090565b6000604051905090565b600080fd5b600080fd5b600073ffffffffffffffffffffffffffffffffffffffff82169050919050565b6000611d3582611d0a565b9050919050565b611d4581611d2a565b8114611d5057600080fd5b50565b600081359050611d6281611d3c565b92915050565b6000819050919050565b611d7b81611d68565b8114611d8657600080fd5b50565b600081359050611d9881611d72565b92915050565b600080fd5b600080fd5b6000601f19601f8301169050919050565b7f4e487b7100000000000000000000000000000000000000000000000000000000600052604160045260246000fd5b611df182611da8565b810181811067ffffffffffffffff82111715611e1057611e0f611db9565b5b80604052505050565b6000611e23611cf6565b9050611e2f8282611de8565b919050565b600067ffffffffffffffff821115611e4f57611e4e611db9565b5b611e5882611da8565b9050602081019050919050565b82818337600083830152505050565b6000611e87611e8284611e34565b611e19565b905082815260208101848484011115611ea357611ea2611da3565b5b611eae848285611e65565b509392505050565b600082601f830112611ecb57611eca611d9e565b5b8135611edb848260208601611e74565b91505092915050565b60008060008060808587031215611efe57611efd611d00565b5b6000611f0c87828801611d53565b9450506020611f1d87828801611d53565b9350506040611f2e87828801611d89565b925050606085013567ffffffffffffffff811115611f4f57611f4e611d05565b5b611f5b87828801611eb6565b91505092959194509250565b60007fffffffff0000000000000000000000000000000000000000000000000000000082169050919050565b611f9c81611f67565b82525050565b6000602082019050611fb76000830184611f93565b92915050565b611fc681611d68565b82525050565b6000602082019050611fe16000830184611fbd565b92915050565b600060208284031215611ffd57611ffc611d00565b5b600061200b84828501611d89565b91505092915050565b60006020828403121561202a57612029611d00565b5b600061203884828501611d53565b91505092915050565b600081519050919050565b600082825260208201905092915050565b6000819050602082019050919050565b61207681611d68565b82525050565b6000612088838361206d565b60208301905092915050565b6000602082019050919050565b60006120ac82612041565b6120b6818561204c565b93506120c18361205d565b8060005b838110156120f25781516120d9888261207c565b97506120e483612094565b9250506001810190506120c5565b5085935050505092915050565b6000602082019050818103600083015261211981846120a1565b905092915050565b6000806040838503121561213857612137611d00565b5b600061214685828601611d53565b925050602061215785828601611d53565b9150509250929050565b600067ffffffffffffffff82111561217c5761217b611db9565b5b602082029050602081019050919050565b600080fd5b60006121a56121a084612161565b611e19565b905080838252602082019050602084028301858111156121c8576121c761218d565b5b835b818110156121f157806121dd8882611d89565b8452602084019350506020810190506121ca565b5050509392505050565b600082601f8301126122105761220f611d9e565b5b8135612220848260208601612192565b91505092915050565b60006020828403121561223f5761223e611d00565b5b600082013567ffffffffffffffff81111561225d5761225c611d05565b5b612269848285016121fb565b91505092915050565b61227b81611d2a565b82525050565b60006020820190506122966000830184612272565b92915050565b600081519050919050565b600082825260208201905092915050565b6000819050602082019050919050565b6040820160008201516122de600085018261206d565b5060208201516122f1602085018261206d565b50505050565b600061230383836122c8565b60408301905092915050565b6000602082019050919050565b60006123278261229c565b61233181856122a7565b935061233c836122b8565b8060005b8381101561236d57815161235488826122f7565b975061235f8361230f565b925050600181019050612340565b5085935050505092915050565b60006020820190508181036000830152612394818461231c565b905092915050565b6000819050919050565b60006123c16123bc6123b784611d0a565b61239c565b611d0a565b9050919050565b60006123d3826123a6565b9050919050565b60006123e5826123c8565b9050919050565b6123f5816123da565b82525050565b600060208201905061241060008301846123ec565b92915050565b6000612421826123c8565b9050919050565b61243181612416565b82525050565b600060208201905061244c6000830184612428565b92915050565b60008115159050919050565b61246781612452565b82525050565b6000602082019050612482600083018461245e565b92915050565b600082825260208201905092915050565b7f496e646578206e6f7420666f756e6420666f722074686973207374616b65722e600082015250565b60006124cf602083612488565b91506124da82612499565b602082019050919050565b600060208201905081810360008301526124fe816124c2565b9050919050565b7f4e487b7100000000000000000000000000000000000000000000000000000000600052603260045260246000fd5b60006060820190506125496000830186612272565b6125566020830185612272565b6125636040830184611fbd565b949350505050565b7f4e487b7100000000000000000000000000000000000000000000000000000000600052601160045260246000fd5b60006125a582611d68565b91506125b083611d68565b9250828210156125c3576125c261256b565b5b828203905092915050565b60006125d982611d68565b91506125e483611d68565b9250827fffffffffffffffffffffffffffffffffffffffffffffffffffffffffffffffff038211156126195761261861256b565b5b828201905092915050565b60006040820190506126396000830185611fbd565b6126466020830184611fbd565b9392505050565b600061265882611d68565b915061266383611d68565b9250817fffffffffffffffffffffffffffffffffffffffffffffffffffffffffffffffff048311821515161561269c5761269b61256b565b5b828202905092915050565b7f5468657265206973206e6f206f6e676f696e67206d697373696f6e2100000000600082015250565b60006126dd601c83612488565b91506126e8826126a7565b602082019050919050565b6000602082019050818103600083015261270c816126d0565b9050919050565b7f546869732047656c61746f206973207374696c6c206f6e20616e206f6e676f6960008201527f6e67206d697373696f6e21000000000000000000000000000000000000000000602082015250565b600061276f602b83612488565b915061277a82612713565b604082019050919050565b6000602082019050818103600083015261279e81612762565b9050919050565b7f4e6f20746f6b656e7320746f20636c61696d2e00000000000000000000000000600082015250565b60006127db601383612488565b91506127e6826127a5565b602082019050919050565b6000602082019050818103600083015261280a816127ce565b9050919050565b60006040820190506128266000830185612272565b6128336020830184611fbd565b9392505050565b61284381612452565b811461284e57600080fd5b50565b6000815190506128608161283a565b92915050565b60006020828403121561287c5761287b611d00565b5b600061288a84828501612851565b91505092915050565b600061289e82611d68565b91507fffffffffffffffffffffffffffffffffffffffffffffffffffffffffffffffff82036128d0576128cf61256b565b5b600182019050919050565b7f4f776e61626c653a206e6577206f776e657220697320746865207a65726f206160008201527f6464726573730000000000000000000000000000000000000000000000000000602082015250565b6000612937602683612488565b9150612942826128db565b604082019050919050565b600060208201905081810360008301526129668161292a565b9050919050565b7f5265656e7472616e637947756172643a207265656e7472616e742063616c6c00600082015250565b60006129a3601f83612488565b91506129ae8261296d565b602082019050919050565b600060208201905081810360008301526129d281612996565b9050919050565b7f4e487b7100000000000000000000000000000000000000000000000000000000600052601260045260246000fd5b6000612a1382611d68565b9150612a1e83611d68565b925082612a2e57612a2d6129d9565b5b828204905092915050565b7f4e487b7100000000000000000000000000000000000000000000000000000000600052603160045260246000fd5b7f4f776e61626c653a2063616c6c6572206973206e6f7420746865206f776e6572600082015250565b6000612a9e602083612488565b9150612aa982612a68565b602082019050919050565b60006020820190508181036000830152612acd81612a91565b905091905056fea2646970667358221220614334202f9e1074d423636f523fa3065a3d17ab2431035fc42b1a076879bd1d64736f6c634300080d0033",
  "linkReferences": {},
  "deployedLinkReferences": {}
}