{
  "_format": "hh-sol-artifact-1",
  "contractName": "NFTStaker",
  "sourceName": "src/backend/contracts/NFTStaker.sol",
  "abi": [
    {
      "inputs": [
        {
          "internalType": "address",
          "name": "nftAddress",
          "type": "address"
        },
        {
          "internalType": "address",
          "name": "rewardsTokenAddress",
          "type": "address"
        }
      ],
      "stateMutability": "nonpayable",
      "type": "constructor"
    },
    {
      "inputs": [],
      "name": "duration",
      "outputs": [
        {
          "internalType": "uint256",
          "name": "",
          "type": "uint256"
        }
      ],
      "stateMutability": "view",
      "type": "function"
    },
    {
      "inputs": [],
      "name": "finishAt",
      "outputs": [
        {
          "internalType": "uint256",
          "name": "",
          "type": "uint256"
        }
      ],
      "stateMutability": "view",
      "type": "function"
    },
    {
      "inputs": [
        {
          "internalType": "address",
          "name": "operator",
          "type": "address"
        },
        {
          "internalType": "address",
          "name": "from",
          "type": "address"
        },
        {
          "internalType": "uint256",
          "name": "id",
          "type": "uint256"
        },
        {
          "internalType": "uint256",
          "name": "value",
          "type": "uint256"
        },
        {
          "internalType": "bytes",
          "name": "data",
          "type": "bytes"
        }
      ],
      "name": "onERC721AReceived",
      "outputs": [
        {
          "internalType": "bytes4",
          "name": "",
          "type": "bytes4"
        }
      ],
      "stateMutability": "nonpayable",
      "type": "function"
    },
    {
      "inputs": [],
      "name": "parentNFT",
      "outputs": [
        {
          "internalType": "contract ERC721A",
          "name": "",
          "type": "address"
        }
      ],
      "stateMutability": "view",
      "type": "function"
    },
    {
      "inputs": [],
      "name": "rewardRate",
      "outputs": [
        {
          "internalType": "uint256",
          "name": "",
          "type": "uint256"
        }
      ],
      "stateMutability": "view",
      "type": "function"
    },
    {
      "inputs": [],
      "name": "rewardsToken",
      "outputs": [
        {
          "internalType": "contract IERC20",
          "name": "",
          "type": "address"
        }
      ],
      "stateMutability": "view",
      "type": "function"
    },
    {
      "inputs": [
        {
          "internalType": "uint256",
          "name": "_tokenId",
          "type": "uint256"
        }
      ],
      "name": "stake",
      "outputs": [],
      "stateMutability": "nonpayable",
      "type": "function"
    },
    {
      "inputs": [
        {
          "internalType": "address",
          "name": "",
          "type": "address"
        },
        {
          "internalType": "uint256",
          "name": "",
          "type": "uint256"
        }
      ],
      "name": "stakes",
      "outputs": [
        {
          "internalType": "uint256",
          "name": "",
          "type": "uint256"
        }
      ],
      "stateMutability": "view",
      "type": "function"
    },
    {
      "inputs": [
        {
          "internalType": "uint256",
          "name": "_tokenId",
          "type": "uint256"
        }
      ],
      "name": "unstake",
      "outputs": [],
      "stateMutability": "nonpayable",
      "type": "function"
    }
  ],
  "bytecode": "0x60a060405234801561001057600080fd5b50604051610b86380380610b86833981810160405281019061003291906100c5565b816000806101000a81548173ffffffffffffffffffffffffffffffffffffffff021916908373ffffffffffffffffffffffffffffffffffffffff1602179055508073ffffffffffffffffffffffffffffffffffffffff1660808173ffffffffffffffffffffffffffffffffffffffff1660601b81525050505061014a565b6000815190506100bf81610133565b92915050565b600080604083850312156100d857600080fd5b60006100e6858286016100b0565b92505060206100f7858286016100b0565b9150509250929050565b600061010c82610113565b9050919050565b600073ffffffffffffffffffffffffffffffffffffffff82169050919050565b61013c81610101565b811461014757600080fd5b50565b60805160601c610a1761016f600039600081816102cf01526105410152610a176000f3fe608060405234801561001057600080fd5b50600436106100935760003560e01c80637b0a47ee116100665780637b0a47ee146101205780638c06539e1461013e578063a694fc3a1461016e578063b8e33fb21461018a578063d1af0c7d146101a857610093565b80630fb5a6b4146100985780632e17de78146100b6578063584b62a1146100d257806367d3b48814610102575b600080fd5b6100a06101c6565b6040516100ad9190610808565b60405180910390f35b6100d060048036038101906100cb91906106e3565b6101cc565b005b6100ec60048036038101906100e7919061067e565b6103d4565b6040516100f99190610808565b60405180910390f35b61010a6103f9565b6040516101179190610808565b60405180910390f35b6101286103ff565b6040516101359190610808565b60405180910390f35b610158600480360381019061015391906105ec565b610405565b60405161016591906107b7565b60405180910390f35b610188600480360381019061018391906106e3565b610434565b005b61019261051b565b60405161019f91906107d2565b60405180910390f35b6101b061053f565b6040516101bd91906107ed565b60405180910390f35b60015481565b60008054906101000a900473ffffffffffffffffffffffffffffffffffffffff1673ffffffffffffffffffffffffffffffffffffffff166342842e0e3033846040518463ffffffff1660e01b815260040161022993929190610757565b600060405180830381600087803b15801561024357600080fd5b505af1158015610257573d6000803e3d6000fd5b505050506000600460003373ffffffffffffffffffffffffffffffffffffffff1673ffffffffffffffffffffffffffffffffffffffff168152602001908152602001600020600083815260200190815260200160002054426102b9919061087d565b90506000600354826102cb9190610823565b90507f000000000000000000000000000000000000000000000000000000000000000073ffffffffffffffffffffffffffffffffffffffff1663a9059cbb33836040518363ffffffff1660e01b815260040161032892919061078e565b602060405180830381600087803b15801561034257600080fd5b505af1158015610356573d6000803e3d6000fd5b505050506040513d601f19601f8201168201806040525081019061037a91906106ba565b50600460003373ffffffffffffffffffffffffffffffffffffffff1673ffffffffffffffffffffffffffffffffffffffff168152602001908152602001600020600084815260200190815260200160002060009055505050565b6004602052816000526040600020602052806000526040600020600091509150505481565b60025481565b60035481565b60007f8c06539ed5d7e747ca288c771894d51d8dbedbbd00014a35ca7b112345a6d64790509695505050505050565b42600460003373ffffffffffffffffffffffffffffffffffffffff1673ffffffffffffffffffffffffffffffffffffffff16815260200190815260200160002060008381526020019081526020016000208190555060008054906101000a900473ffffffffffffffffffffffffffffffffffffffff1673ffffffffffffffffffffffffffffffffffffffff166342842e0e3330846040518463ffffffff1660e01b81526004016104e693929190610757565b600060405180830381600087803b15801561050057600080fd5b505af1158015610514573d6000803e3d6000fd5b5050505050565b60008054906101000a900473ffffffffffffffffffffffffffffffffffffffff1681565b7f000000000000000000000000000000000000000000000000000000000000000081565b6000813590506105728161099c565b92915050565b600081519050610587816109b3565b92915050565b60008083601f84011261059f57600080fd5b8235905067ffffffffffffffff8111156105b857600080fd5b6020830191508360018202830111156105d057600080fd5b9250929050565b6000813590506105e6816109ca565b92915050565b60008060008060008060a0878903121561060557600080fd5b600061061389828a01610563565b965050602061062489828a01610563565b955050604061063589828a016105d7565b945050606061064689828a016105d7565b935050608087013567ffffffffffffffff81111561066357600080fd5b61066f89828a0161058d565b92509250509295509295509295565b6000806040838503121561069157600080fd5b600061069f85828601610563565b92505060206106b0858286016105d7565b9150509250929050565b6000602082840312156106cc57600080fd5b60006106da84828501610578565b91505092915050565b6000602082840312156106f557600080fd5b6000610703848285016105d7565b91505092915050565b610715816108b1565b82525050565b610724816108cf565b82525050565b61073381610925565b82525050565b61074281610949565b82525050565b6107518161091b565b82525050565b600060608201905061076c600083018661070c565b610779602083018561070c565b6107866040830184610748565b949350505050565b60006040820190506107a3600083018561070c565b6107b06020830184610748565b9392505050565b60006020820190506107cc600083018461071b565b92915050565b60006020820190506107e7600083018461072a565b92915050565b60006020820190506108026000830184610739565b92915050565b600060208201905061081d6000830184610748565b92915050565b600061082e8261091b565b91506108398361091b565b9250817fffffffffffffffffffffffffffffffffffffffffffffffffffffffffffffffff04831182151516156108725761087161096d565b5b828202905092915050565b60006108888261091b565b91506108938361091b565b9250828210156108a6576108a561096d565b5b828203905092915050565b60006108bc826108fb565b9050919050565b60008115159050919050565b60007fffffffff0000000000000000000000000000000000000000000000000000000082169050919050565b600073ffffffffffffffffffffffffffffffffffffffff82169050919050565b6000819050919050565b600061093082610937565b9050919050565b6000610942826108fb565b9050919050565b60006109548261095b565b9050919050565b6000610966826108fb565b9050919050565b7f4e487b7100000000000000000000000000000000000000000000000000000000600052601160045260246000fd5b6109a5816108b1565b81146109b057600080fd5b50565b6109bc816108c3565b81146109c757600080fd5b50565b6109d38161091b565b81146109de57600080fd5b5056fea2646970667358221220fd6df5154cef07e001131cf1192fd9bae22285472ca4f36ca9d5b89672bfe96a64736f6c63430008040033",
  "linkReferences": {},
  "deployedLinkReferences": {}
}