{
  "_format": "hh-sol-artifact-1",
  "contractName": "NFTStaker",
  "sourceName": "src/backend/contracts/NFTStaker.sol",
  "abi": [
    {
      "inputs": [
        {
          "internalType": "address",
          "name": "nftAddress",
          "type": "address"
        },
        {
          "internalType": "address",
          "name": "rewardsTokenAddress",
          "type": "address"
        }
      ],
      "stateMutability": "nonpayable",
      "type": "constructor"
    },
    {
      "inputs": [
        {
          "internalType": "uint256",
          "name": "_tokenId",
          "type": "uint256"
        }
      ],
      "name": "isTokenStaked",
      "outputs": [
        {
          "internalType": "bool",
          "name": "",
          "type": "bool"
        }
      ],
      "stateMutability": "view",
      "type": "function"
    },
    {
      "inputs": [
        {
          "internalType": "address",
          "name": "",
          "type": "address"
        },
        {
          "internalType": "address",
          "name": "",
          "type": "address"
        },
        {
          "internalType": "uint256",
          "name": "",
          "type": "uint256"
        },
        {
          "internalType": "bytes",
          "name": "",
          "type": "bytes"
        }
      ],
      "name": "onERC721Received",
      "outputs": [
        {
          "internalType": "bytes4",
          "name": "",
          "type": "bytes4"
        }
      ],
      "stateMutability": "nonpayable",
      "type": "function"
    },
    {
      "inputs": [],
      "name": "parentNFT",
      "outputs": [
        {
          "internalType": "contract ERC721A",
          "name": "",
          "type": "address"
        }
      ],
      "stateMutability": "view",
      "type": "function"
    },
    {
      "inputs": [],
      "name": "rewardRate",
      "outputs": [
        {
          "internalType": "uint256",
          "name": "",
          "type": "uint256"
        }
      ],
      "stateMutability": "view",
      "type": "function"
    },
    {
      "inputs": [],
      "name": "rewardsToken",
      "outputs": [
        {
          "internalType": "contract Token",
          "name": "",
          "type": "address"
        }
      ],
      "stateMutability": "view",
      "type": "function"
    },
    {
      "inputs": [
        {
          "internalType": "uint256",
          "name": "_tokenId",
          "type": "uint256"
        }
      ],
      "name": "stake",
      "outputs": [],
      "stateMutability": "nonpayable",
      "type": "function"
    },
    {
      "inputs": [
        {
          "internalType": "address",
          "name": "",
          "type": "address"
        },
        {
          "internalType": "uint256",
          "name": "",
          "type": "uint256"
        }
      ],
      "name": "stakes",
      "outputs": [
        {
          "internalType": "uint256",
          "name": "",
          "type": "uint256"
        }
      ],
      "stateMutability": "view",
      "type": "function"
    },
    {
      "inputs": [
        {
          "internalType": "uint256",
          "name": "_tokenId",
          "type": "uint256"
        }
      ],
      "name": "unstake",
      "outputs": [],
      "stateMutability": "nonpayable",
      "type": "function"
    }
  ],
  "bytecode": "0x60806040523480156200001157600080fd5b506040516200120538038062001205833981810160405281019062000037919062000254565b600160008190555081600160006101000a81548173ffffffffffffffffffffffffffffffffffffffff021916908373ffffffffffffffffffffffffffffffffffffffff16021790555080600260006101000a81548173ffffffffffffffffffffffffffffffffffffffff021916908373ffffffffffffffffffffffffffffffffffffffff160217905550600260009054906101000a900473ffffffffffffffffffffffffffffffffffffffff1673ffffffffffffffffffffffffffffffffffffffff16630a249cff6040518163ffffffff1660e01b8152600401600060405180830381600087803b1580156200012c57600080fd5b505af115801562000141573d6000803e3d6000fd5b5050505062015180600260009054906101000a900473ffffffffffffffffffffffffffffffffffffffff1673ffffffffffffffffffffffffffffffffffffffff1663313ce5676040518163ffffffff1660e01b815260040160206040518083038186803b158015620001b257600080fd5b505afa158015620001c7573d6000803e3d6000fd5b505050506040513d601f19601f82011682018060405250810190620001ed919062000295565b60ff16600a620001fe919062000354565b60056200020c919062000491565b620002189190620002c1565b6003819055505050620005dc565b6000815190506200023781620005a8565b92915050565b6000815190506200024e81620005c2565b92915050565b600080604083850312156200026857600080fd5b6000620002788582860162000226565b92505060206200028b8582860162000226565b9150509250929050565b600060208284031215620002a857600080fd5b6000620002b8848285016200023d565b91505092915050565b6000620002ce8262000526565b9150620002db8362000526565b925082620002ee57620002ed6200056c565b5b828204905092915050565b6000808291508390505b60018511156200034b578086048111156200032357620003226200053d565b5b6001851615620003335780820291505b808102905062000343856200059b565b945062000303565b94509492505050565b6000620003618262000526565b91506200036e8362000526565b92506200039d7fffffffffffffffffffffffffffffffffffffffffffffffffffffffffffffffff8484620003a5565b905092915050565b600082620003b757600190506200048a565b81620003c757600090506200048a565b8160018114620003e05760028114620003eb5762000421565b60019150506200048a565b60ff8411156200040057620003ff6200053d565b5b8360020a9150848211156200041a57620004196200053d565b5b506200048a565b5060208310610133831016604e8410600b84101617156200045b5782820a9050838111156200045557620004546200053d565b5b6200048a565b6200046a8484846001620002f9565b925090508184048111156200048457620004836200053d565b5b81810290505b9392505050565b60006200049e8262000526565b9150620004ab8362000526565b9250817fffffffffffffffffffffffffffffffffffffffffffffffffffffffffffffffff0483118215151615620004e757620004e66200053d565b5b828202905092915050565b6000620004ff8262000506565b9050919050565b600073ffffffffffffffffffffffffffffffffffffffff82169050919050565b6000819050919050565b600060ff82169050919050565b7f4e487b7100000000000000000000000000000000000000000000000000000000600052601160045260246000fd5b7f4e487b7100000000000000000000000000000000000000000000000000000000600052601260045260246000fd5b60008160011c9050919050565b620005b381620004f2565b8114620005bf57600080fd5b50565b620005cd8162000530565b8114620005d957600080fd5b50565b610c1980620005ec6000396000f3fe608060405234801561001057600080fd5b50600436106100885760003560e01c8063a694fc3a1161005b578063a694fc3a14610127578063b8e33fb214610143578063d1af0c7d14610161578063f0a524241461017f57610088565b8063150b7a021461008d5780632e17de78146100bd578063584b62a1146100d95780637b0a47ee14610109575b600080fd5b6100a760048036038101906100a29190610688565b6101af565b6040516100b49190610889565b60405180910390f35b6100d760048036038101906100d29190610768565b6101c3565b005b6100f360048036038101906100ee9190610703565b610425565b60405161010091906108fa565b60405180910390f35b61011161044a565b60405161011e91906108fa565b60405180910390f35b610141600480360381019061013c9190610768565b610450565b005b61014b610539565b60405161015891906108a4565b60405180910390f35b61016961055f565b60405161017691906108bf565b60405180910390f35b61019960048036038101906101949190610768565b610585565b6040516101a6919061086e565b60405180910390f35b600063150b7a0260e01b9050949350505050565b60026000541415610209576040517f08c379a0000000000000000000000000000000000000000000000000000000008152600401610200906108da565b60405180910390fd5b6002600081905550600160009054906101000a900473ffffffffffffffffffffffffffffffffffffffff1673ffffffffffffffffffffffffffffffffffffffff166342842e0e3033846040518463ffffffff1660e01b81526004016102709392919061080e565b600060405180830381600087803b15801561028a57600080fd5b505af115801561029e573d6000803e3d6000fd5b505050506000600460003373ffffffffffffffffffffffffffffffffffffffff1673ffffffffffffffffffffffffffffffffffffffff1681526020019081526020016000206000838152602001908152602001600020544261030091906109d6565b9050600060035482610312919061097c565b9050600260009054906101000a900473ffffffffffffffffffffffffffffffffffffffff1673ffffffffffffffffffffffffffffffffffffffff1663a9059cbb33836040518363ffffffff1660e01b8152600401610371929190610845565b602060405180830381600087803b15801561038b57600080fd5b505af115801561039f573d6000803e3d6000fd5b505050506040513d601f19601f820116820180604052508101906103c3919061073f565b50600460003373ffffffffffffffffffffffffffffffffffffffff1673ffffffffffffffffffffffffffffffffffffffff1681526020019081526020016000206000848152602001908152602001600020600090555050600160008190555050565b6004602052816000526040600020602052806000526040600020600091509150505481565b60035481565b42600460003373ffffffffffffffffffffffffffffffffffffffff1673ffffffffffffffffffffffffffffffffffffffff168152602001908152602001600020600083815260200190815260200160002081905550600160009054906101000a900473ffffffffffffffffffffffffffffffffffffffff1673ffffffffffffffffffffffffffffffffffffffff166342842e0e3330846040518463ffffffff1660e01b81526004016105049392919061080e565b600060405180830381600087803b15801561051e57600080fd5b505af1158015610532573d6000803e3d6000fd5b5050505050565b600160009054906101000a900473ffffffffffffffffffffffffffffffffffffffff1681565b600260009054906101000a900473ffffffffffffffffffffffffffffffffffffffff1681565b600080600460003373ffffffffffffffffffffffffffffffffffffffff1673ffffffffffffffffffffffffffffffffffffffff168152602001908152602001600020600084815260200190815260200160002054119050919050565b60006105f46105ef8461093a565b610915565b90508281526020810184848401111561060c57600080fd5b610617848285610ac6565b509392505050565b60008135905061062e81610b9e565b92915050565b60008151905061064381610bb5565b92915050565b600082601f83011261065a57600080fd5b813561066a8482602086016105e1565b91505092915050565b60008135905061068281610bcc565b92915050565b6000806000806080858703121561069e57600080fd5b60006106ac8782880161061f565b94505060206106bd8782880161061f565b93505060406106ce87828801610673565b925050606085013567ffffffffffffffff8111156106eb57600080fd5b6106f787828801610649565b91505092959194509250565b6000806040838503121561071657600080fd5b60006107248582860161061f565b925050602061073585828601610673565b9150509250929050565b60006020828403121561075157600080fd5b600061075f84828501610634565b91505092915050565b60006020828403121561077a57600080fd5b600061078884828501610673565b91505092915050565b61079a81610a0a565b82525050565b6107a981610a1c565b82525050565b6107b881610a28565b82525050565b6107c781610a7e565b82525050565b6107d681610aa2565b82525050565b60006107e9601f8361096b565b91506107f482610b75565b602082019050919050565b61080881610a74565b82525050565b60006060820190506108236000830186610791565b6108306020830185610791565b61083d60408301846107ff565b949350505050565b600060408201905061085a6000830185610791565b61086760208301846107ff565b9392505050565b600060208201905061088360008301846107a0565b92915050565b600060208201905061089e60008301846107af565b92915050565b60006020820190506108b960008301846107be565b92915050565b60006020820190506108d460008301846107cd565b92915050565b600060208201905081810360008301526108f3816107dc565b9050919050565b600060208201905061090f60008301846107ff565b92915050565b600061091f610930565b905061092b8282610ad5565b919050565b6000604051905090565b600067ffffffffffffffff82111561095557610954610b35565b5b61095e82610b64565b9050602081019050919050565b600082825260208201905092915050565b600061098782610a74565b915061099283610a74565b9250817fffffffffffffffffffffffffffffffffffffffffffffffffffffffffffffffff04831182151516156109cb576109ca610b06565b5b828202905092915050565b60006109e182610a74565b91506109ec83610a74565b9250828210156109ff576109fe610b06565b5b828203905092915050565b6000610a1582610a54565b9050919050565b60008115159050919050565b60007fffffffff0000000000000000000000000000000000000000000000000000000082169050919050565b600073ffffffffffffffffffffffffffffffffffffffff82169050919050565b6000819050919050565b6000610a8982610a90565b9050919050565b6000610a9b82610a54565b9050919050565b6000610aad82610ab4565b9050919050565b6000610abf82610a54565b9050919050565b82818337600083830152505050565b610ade82610b64565b810181811067ffffffffffffffff82111715610afd57610afc610b35565b5b80604052505050565b7f4e487b7100000000000000000000000000000000000000000000000000000000600052601160045260246000fd5b7f4e487b7100000000000000000000000000000000000000000000000000000000600052604160045260246000fd5b6000601f19601f8301169050919050565b7f5265656e7472616e637947756172643a207265656e7472616e742063616c6c00600082015250565b610ba781610a0a565b8114610bb257600080fd5b50565b610bbe81610a1c565b8114610bc957600080fd5b50565b610bd581610a74565b8114610be057600080fd5b5056fea264697066735822122005a8e1bddd404fec9264b927380c2d5b0f1f6f40bda0904b27d0037106c9e91064736f6c63430008040033",
  "linkReferences": {},
  "deployedLinkReferences": {}
}