{
  "_format": "hh-sol-artifact-1",
  "contractName": "NFTStaker",
  "sourceName": "src/backend/contracts/NFTStaker.sol",
  "abi": [
    {
      "inputs": [
        {
          "internalType": "address",
          "name": "nftAddress",
          "type": "address"
        }
      ],
      "stateMutability": "nonpayable",
      "type": "constructor"
    },
    {
      "anonymous": false,
      "inputs": [
        {
          "indexed": true,
          "internalType": "address",
          "name": "previousOwner",
          "type": "address"
        },
        {
          "indexed": true,
          "internalType": "address",
          "name": "newOwner",
          "type": "address"
        }
      ],
      "name": "OwnershipTransferred",
      "type": "event"
    },
    {
      "anonymous": false,
      "inputs": [
        {
          "indexed": false,
          "internalType": "uint256",
          "name": "tokenId",
          "type": "uint256"
        },
        {
          "indexed": false,
          "internalType": "uint256",
          "name": "timestamp",
          "type": "uint256"
        }
      ],
      "name": "StakeSuccessful",
      "type": "event"
    },
    {
      "anonymous": false,
      "inputs": [
        {
          "indexed": false,
          "internalType": "uint256",
          "name": "tokenId",
          "type": "uint256"
        },
        {
          "indexed": false,
          "internalType": "uint256",
          "name": "reward",
          "type": "uint256"
        }
      ],
      "name": "UnstakeSuccessful",
      "type": "event"
    },
    {
      "inputs": [
        {
          "internalType": "address",
          "name": "_user",
          "type": "address"
        }
      ],
      "name": "getStakedMissions",
      "outputs": [
        {
          "components": [
            {
              "internalType": "uint256",
              "name": "startTimestamp",
              "type": "uint256"
            },
            {
              "internalType": "uint256",
              "name": "duration",
              "type": "uint256"
            }
          ],
          "internalType": "struct NFTStaker.Mission[]",
          "name": "missions",
          "type": "tuple[]"
        }
      ],
      "stateMutability": "view",
      "type": "function"
    },
    {
      "inputs": [
        {
          "internalType": "address",
          "name": "_user",
          "type": "address"
        }
      ],
      "name": "getStakedTimestamps",
      "outputs": [
        {
          "internalType": "uint256[]",
          "name": "timestamps",
          "type": "uint256[]"
        }
      ],
      "stateMutability": "view",
      "type": "function"
    },
    {
      "inputs": [
        {
          "internalType": "address",
          "name": "_user",
          "type": "address"
        }
      ],
      "name": "getStakedTokens",
      "outputs": [
        {
          "internalType": "uint256[]",
          "name": "tokenIds",
          "type": "uint256[]"
        }
      ],
      "stateMutability": "view",
      "type": "function"
    },
    {
      "inputs": [],
      "name": "isMissionOngoing",
      "outputs": [
        {
          "internalType": "bool",
          "name": "",
          "type": "bool"
        }
      ],
      "stateMutability": "view",
      "type": "function"
    },
    {
      "inputs": [
        {
          "internalType": "uint256",
          "name": "_tokenId",
          "type": "uint256"
        }
      ],
      "name": "isTokenStaked",
      "outputs": [
        {
          "internalType": "bool",
          "name": "",
          "type": "bool"
        }
      ],
      "stateMutability": "view",
      "type": "function"
    },
    {
      "inputs": [
        {
          "internalType": "address",
          "name": "",
          "type": "address"
        },
        {
          "internalType": "address",
          "name": "",
          "type": "address"
        },
        {
          "internalType": "uint256",
          "name": "",
          "type": "uint256"
        },
        {
          "internalType": "bytes",
          "name": "",
          "type": "bytes"
        }
      ],
      "name": "onERC721Received",
      "outputs": [
        {
          "internalType": "bytes4",
          "name": "",
          "type": "bytes4"
        }
      ],
      "stateMutability": "nonpayable",
      "type": "function"
    },
    {
      "inputs": [],
      "name": "owner",
      "outputs": [
        {
          "internalType": "address",
          "name": "",
          "type": "address"
        }
      ],
      "stateMutability": "view",
      "type": "function"
    },
    {
      "inputs": [],
      "name": "parentNFT",
      "outputs": [
        {
          "internalType": "contract ERC721A",
          "name": "",
          "type": "address"
        }
      ],
      "stateMutability": "view",
      "type": "function"
    },
    {
      "inputs": [],
      "name": "renounceOwnership",
      "outputs": [],
      "stateMutability": "nonpayable",
      "type": "function"
    },
    {
      "inputs": [],
      "name": "rewardRate",
      "outputs": [
        {
          "internalType": "uint256",
          "name": "",
          "type": "uint256"
        }
      ],
      "stateMutability": "view",
      "type": "function"
    },
    {
      "inputs": [],
      "name": "rewardsToken",
      "outputs": [
        {
          "internalType": "contract ERC20",
          "name": "",
          "type": "address"
        }
      ],
      "stateMutability": "view",
      "type": "function"
    },
    {
      "inputs": [
        {
          "internalType": "address",
          "name": "_newOwner",
          "type": "address"
        },
        {
          "internalType": "address",
          "name": "_tokenAddress",
          "type": "address"
        }
      ],
      "name": "setOwnerAndTokenAddress",
      "outputs": [],
      "stateMutability": "nonpayable",
      "type": "function"
    },
    {
      "inputs": [
        {
          "internalType": "uint256",
          "name": "_tokenId",
          "type": "uint256"
        }
      ],
      "name": "stake",
      "outputs": [],
      "stateMutability": "nonpayable",
      "type": "function"
    },
    {
      "inputs": [
        {
          "internalType": "uint256",
          "name": "_duration",
          "type": "uint256"
        }
      ],
      "name": "startMission",
      "outputs": [],
      "stateMutability": "nonpayable",
      "type": "function"
    },
    {
      "inputs": [
        {
          "internalType": "address",
          "name": "newOwner",
          "type": "address"
        }
      ],
      "name": "transferOwnership",
      "outputs": [],
      "stateMutability": "nonpayable",
      "type": "function"
    },
    {
      "inputs": [
        {
          "internalType": "uint256",
          "name": "_tokenId",
          "type": "uint256"
        }
      ],
      "name": "unstake",
      "outputs": [],
      "stateMutability": "nonpayable",
      "type": "function"
    }
  ],
  "bytecode": "0x60806040523480156200001157600080fd5b50604051620026d9380380620026d98339818101604052810190620000379190620001c0565b60016000819055506200005f62000053620000db60201b60201c565b620000e360201b60201c565b80600260006101000a81548173ffffffffffffffffffffffffffffffffffffffff021916908373ffffffffffffffffffffffffffffffffffffffff160217905550620151806012600a620000b491906200027f565b6005620000c29190620003bc565b620000ce9190620001ec565b60048190555050620004e0565b600033905090565b6000600160009054906101000a900473ffffffffffffffffffffffffffffffffffffffff16905081600160006101000a81548173ffffffffffffffffffffffffffffffffffffffff021916908373ffffffffffffffffffffffffffffffffffffffff1602179055508173ffffffffffffffffffffffffffffffffffffffff168173ffffffffffffffffffffffffffffffffffffffff167f8be0079c531659141344cd1fd0a4f28419497f9722a3daafe3b4186f6b6457e060405160405180910390a35050565b600081519050620001ba81620004c6565b92915050565b600060208284031215620001d357600080fd5b6000620001e384828501620001a9565b91505092915050565b6000620001f98262000451565b9150620002068362000451565b9250826200021957620002186200048a565b5b828204905092915050565b6000808291508390505b600185111562000276578086048111156200024e576200024d6200045b565b5b60018516156200025e5780820291505b80810290506200026e85620004b9565b94506200022e565b94509492505050565b60006200028c8262000451565b9150620002998362000451565b9250620002c87fffffffffffffffffffffffffffffffffffffffffffffffffffffffffffffffff8484620002d0565b905092915050565b600082620002e25760019050620003b5565b81620002f25760009050620003b5565b81600181146200030b576002811462000316576200034c565b6001915050620003b5565b60ff8411156200032b576200032a6200045b565b5b8360020a9150848211156200034557620003446200045b565b5b50620003b5565b5060208310610133831016604e8410600b8410161715620003865782820a90508381111562000380576200037f6200045b565b5b620003b5565b62000395848484600162000224565b92509050818404811115620003af57620003ae6200045b565b5b81810290505b9392505050565b6000620003c98262000451565b9150620003d68362000451565b9250817fffffffffffffffffffffffffffffffffffffffffffffffffffffffffffffffff04831182151516156200041257620004116200045b565b5b828202905092915050565b60006200042a8262000431565b9050919050565b600073ffffffffffffffffffffffffffffffffffffffff82169050919050565b6000819050919050565b7f4e487b7100000000000000000000000000000000000000000000000000000000600052601160045260246000fd5b7f4e487b7100000000000000000000000000000000000000000000000000000000600052601260045260246000fd5b60008160011c9050919050565b620004d1816200041d565b8114620004dd57600080fd5b50565b6121e980620004f06000396000f3fe608060405234801561001057600080fd5b50600436106101005760003560e01c8063a04ebd4b11610097578063d1af0c7d11610066578063d1af0c7d14610299578063e6d7d9d1146102b7578063f0a52424146102d5578063f2fde38b1461030557610100565b8063a04ebd4b146101ff578063a694fc3a1461022f578063a7c1e29a1461024b578063b8e33fb21461027b57610100565b8063647fb46c116100d3578063647fb46c1461019d578063715018a6146101b95780637b0a47ee146101c35780638da5cb5b146101e157610100565b8063150b7a02146101055780632e17de78146101355780633a7055f91461015157806363c28db11461016d575b600080fd5b61011f600480360381019061011a9190611867565b610321565b60405161012c9190611c1e565b60405180910390f35b61014f600480360381019061014a919061190b565b610335565b005b61016b6004803603810190610166919061190b565b610842565b005b61018760048036038101906101829190611802565b6108e2565b6040516101949190611be1565b60405180910390f35b6101b760048036038101906101b2919061182b565b61097c565b005b6101c1610a46565b005b6101cb610ace565b6040516101d89190611cef565b60405180910390f35b6101e9610ad4565b6040516101f69190611b44565b60405180910390f35b61021960048036038101906102149190611802565b610afe565b6040516102269190611be1565b60405180910390f35b6102496004803603810190610244919061190b565b610b98565b005b61026560048036038101906102609190611802565b610e57565b6040516102729190611bbf565b60405180910390f35b610283610f0c565b6040516102909190611c54565b60405180910390f35b6102a1610f32565b6040516102ae9190611c39565b60405180910390f35b6102bf610f58565b6040516102cc9190611c03565b60405180910390f35b6102ef60048036038101906102ea919061190b565b610f87565b6040516102fc9190611c03565b60405180910390f35b61031f600480360381019061031a9190611802565b611093565b005b600063150b7a0260e01b9050949350505050565b6002600054141561037b576040517f08c379a000000000000000000000000000000000000000000000000000000000815260040161037290611ccf565b60405180910390fd5b60026000819055506000600760003373ffffffffffffffffffffffffffffffffffffffff1673ffffffffffffffffffffffffffffffffffffffff1681526020019081526020016000206040518060600160405290816000820180548060200260200160405190810160405280929190818152602001828054801561041e57602002820191906000526020600020905b81548152602001906001019080831161040a575b505050505081526020016001820180548060200260200160405190810160405280929190818152602001828054801561047657602002820191906000526020600020905b815481526020019060010190808311610462575b5050505050815260200160028201805480602002602001604051908101604052809291908181526020016000905b828210156104ea578382906000526020600020906002020160405180604001604052908160008201548152602001600182015481525050815260200190600101906104a4565b50505050815250509050600080826000015151905060005b81811015610571578484600001518281518110610548577f4e487b7100000000000000000000000000000000000000000000000000000000600052603260045260246000fd5b6020026020010151141561055e57809250610571565b808061056990611fec565b915050610502565b506000836040015183815181106105b1577f4e487b7100000000000000000000000000000000000000000000000000000000600052603260045260246000fd5b602002602001015160200151846040015184815181106105fa577f4e487b7100000000000000000000000000000000000000000000000000000000600052603260045260246000fd5b6020026020010151600001516106109190611e0c565b905060008142116106215742610623565b815b9050600085602001518581518110610664577f4e487b7100000000000000000000000000000000000000000000000000000000600052603260045260246000fd5b6020026020010151826106779190611ebc565b90506000600454826106899190611e62565b905060011515600360009054906101000a900473ffffffffffffffffffffffffffffffffffffffff1673ffffffffffffffffffffffffffffffffffffffff1663a9059cbb33846040518363ffffffff1660e01b81526004016106ec929190611b96565b602060405180830381600087803b15801561070657600080fd5b505af115801561071a573d6000803e3d6000fd5b505050506040513d601f19601f8201168201806040525081019061073e91906118e2565b1515141561082b57600260009054906101000a900473ffffffffffffffffffffffffffffffffffffffff1673ffffffffffffffffffffffffffffffffffffffff166342842e0e30338b6040518463ffffffff1660e01b81526004016107a593929190611b5f565b600060405180830381600087803b1580156107bf57600080fd5b505af11580156107d3573d6000803e3d6000fd5b505050506107ed866001876107e89190611ebc565b61118b565b7f97cc56283430ac8692d29c7522a69fa6c2bde7e47d781be6b58b034d80bc2828888260405161081e929190611d0a565b60405180910390a1610830565b600080fd5b50505050505050600160008190555050565b61084a61168d565b73ffffffffffffffffffffffffffffffffffffffff16610868610ad4565b73ffffffffffffffffffffffffffffffffffffffff16146108be576040517f08c379a00000000000000000000000000000000000000000000000000000000081526004016108b590611c8f565b60405180910390fd5b42600560000181905550610e10816108d69190611e62565b60056001018190555050565b6060600760008373ffffffffffffffffffffffffffffffffffffffff1673ffffffffffffffffffffffffffffffffffffffff16815260200190815260200160002060000180548060200260200160405190810160405280929190818152602001828054801561097057602002820191906000526020600020905b81548152602001906001019080831161095c575b50505050509050919050565b61098461168d565b73ffffffffffffffffffffffffffffffffffffffff166109a2610ad4565b73ffffffffffffffffffffffffffffffffffffffff16146109f8576040517f08c379a00000000000000000000000000000000000000000000000000000000081526004016109ef90611c8f565b60405180910390fd5b80600360006101000a81548173ffffffffffffffffffffffffffffffffffffffff021916908373ffffffffffffffffffffffffffffffffffffffff160217905550610a4282611695565b5050565b610a4e61168d565b73ffffffffffffffffffffffffffffffffffffffff16610a6c610ad4565b73ffffffffffffffffffffffffffffffffffffffff1614610ac2576040517f08c379a0000000000000000000000000000000000000000000000000000000008152600401610ab990611c8f565b60405180910390fd5b610acc6000611695565b565b60045481565b6000600160009054906101000a900473ffffffffffffffffffffffffffffffffffffffff16905090565b6060600760008373ffffffffffffffffffffffffffffffffffffffff1673ffffffffffffffffffffffffffffffffffffffff168152602001908152602001600020600101805480602002602001604051908101604052809291908181526020018280548015610b8c57602002820191906000526020600020905b815481526020019060010190808311610b78575b50505050509050919050565b60026000541415610bde576040517f08c379a0000000000000000000000000000000000000000000000000000000008152600401610bd590611ccf565b60405180910390fd5b6002600081905550610bee610f58565b610c2d576040517f08c379a0000000000000000000000000000000000000000000000000000000008152600401610c2490611caf565b60405180910390fd5b600760003373ffffffffffffffffffffffffffffffffffffffff1673ffffffffffffffffffffffffffffffffffffffff168152602001908152602001600020600001819080600181540180825580915050600190039060005260206000200160009091909190915055600760003373ffffffffffffffffffffffffffffffffffffffff1673ffffffffffffffffffffffffffffffffffffffff168152602001908152602001600020600101429080600181540180825580915050600190039060005260206000200160009091909190915055600760003373ffffffffffffffffffffffffffffffffffffffff1673ffffffffffffffffffffffffffffffffffffffff1681526020019081526020016000206002016005908060018154018082558091505060019003906000526020600020906002020160009091909190915060008201548160000155600182015481600101555050600260009054906101000a900473ffffffffffffffffffffffffffffffffffffffff1673ffffffffffffffffffffffffffffffffffffffff166342842e0e3330846040518463ffffffff1660e01b8152600401610de193929190611b5f565b600060405180830381600087803b158015610dfb57600080fd5b505af1158015610e0f573d6000803e3d6000fd5b505050507fb9a8e9862e9f26d54fc878291fa9354d1629940f2a39517bd62522ec47aec1058142604051610e44929190611d0a565b60405180910390a1600160008190555050565b6060600760008373ffffffffffffffffffffffffffffffffffffffff1673ffffffffffffffffffffffffffffffffffffffff168152602001908152602001600020600201805480602002602001604051908101604052809291908181526020016000905b82821015610f0157838290600052602060002090600202016040518060400160405290816000820154815260200160018201548152505081526020019060010190610ebb565b505050509050919050565b600260009054906101000a900473ffffffffffffffffffffffffffffffffffffffff1681565b600360009054906101000a900473ffffffffffffffffffffffffffffffffffffffff1681565b600080600560000154118015610f82575060056001015460056000015442610f809190611ebc565b105b905090565b600080600760003373ffffffffffffffffffffffffffffffffffffffff1673ffffffffffffffffffffffffffffffffffffffff16815260200190815260200160002060000180549050905060005b818110156110875783600760003373ffffffffffffffffffffffffffffffffffffffff1673ffffffffffffffffffffffffffffffffffffffff1681526020019081526020016000206000018281548110611058577f4e487b7100000000000000000000000000000000000000000000000000000000600052603260045260246000fd5b906000526020600020015414156110745760019250505061108e565b808061107f90611fec565b915050610fd5565b5060009150505b919050565b61109b61168d565b73ffffffffffffffffffffffffffffffffffffffff166110b9610ad4565b73ffffffffffffffffffffffffffffffffffffffff161461110f576040517f08c379a000000000000000000000000000000000000000000000000000000000815260040161110690611c8f565b60405180910390fd5b600073ffffffffffffffffffffffffffffffffffffffff168173ffffffffffffffffffffffffffffffffffffffff16141561117f576040517f08c379a000000000000000000000000000000000000000000000000000000000815260040161117690611c6f565b60405180910390fd5b61118881611695565b50565b600760003373ffffffffffffffffffffffffffffffffffffffff1673ffffffffffffffffffffffffffffffffffffffff1681526020019081526020016000206001018181548110611205577f4e487b7100000000000000000000000000000000000000000000000000000000600052603260045260246000fd5b9060005260206000200154600760003373ffffffffffffffffffffffffffffffffffffffff1673ffffffffffffffffffffffffffffffffffffffff168152602001908152602001600020600101838154811061128a577f4e487b7100000000000000000000000000000000000000000000000000000000600052603260045260246000fd5b9060005260206000200181905550600760003373ffffffffffffffffffffffffffffffffffffffff1673ffffffffffffffffffffffffffffffffffffffff168152602001908152602001600020600101805480611310577f4e487b7100000000000000000000000000000000000000000000000000000000600052603160045260246000fd5b60019003818190600052602060002001600090559055600760003373ffffffffffffffffffffffffffffffffffffffff1673ffffffffffffffffffffffffffffffffffffffff16815260200190815260200160002060000181815481106113a0577f4e487b7100000000000000000000000000000000000000000000000000000000600052603260045260246000fd5b9060005260206000200154600760003373ffffffffffffffffffffffffffffffffffffffff1673ffffffffffffffffffffffffffffffffffffffff1681526020019081526020016000206000018381548110611425577f4e487b7100000000000000000000000000000000000000000000000000000000600052603260045260246000fd5b9060005260206000200181905550600760003373ffffffffffffffffffffffffffffffffffffffff1673ffffffffffffffffffffffffffffffffffffffff1681526020019081526020016000206000018054806114ab577f4e487b7100000000000000000000000000000000000000000000000000000000600052603160045260246000fd5b60019003818190600052602060002001600090559055600760003373ffffffffffffffffffffffffffffffffffffffff1673ffffffffffffffffffffffffffffffffffffffff168152602001908152602001600020600201818154811061153b577f4e487b7100000000000000000000000000000000000000000000000000000000600052603260045260246000fd5b9060005260206000209060020201600760003373ffffffffffffffffffffffffffffffffffffffff1673ffffffffffffffffffffffffffffffffffffffff16815260200190815260200160002060020183815481106115c3577f4e487b7100000000000000000000000000000000000000000000000000000000600052603260045260246000fd5b90600052602060002090600202016000820154816000015560018201548160010155905050600760003373ffffffffffffffffffffffffffffffffffffffff1673ffffffffffffffffffffffffffffffffffffffff168152602001908152602001600020600201805480611660577f4e487b7100000000000000000000000000000000000000000000000000000000600052603160045260246000fd5b60019003818190600052602060002090600202016000808201600090556001820160009055505090555050565b600033905090565b6000600160009054906101000a900473ffffffffffffffffffffffffffffffffffffffff16905081600160006101000a81548173ffffffffffffffffffffffffffffffffffffffff021916908373ffffffffffffffffffffffffffffffffffffffff1602179055508173ffffffffffffffffffffffffffffffffffffffff168173ffffffffffffffffffffffffffffffffffffffff167f8be0079c531659141344cd1fd0a4f28419497f9722a3daafe3b4186f6b6457e060405160405180910390a35050565b600061176e61176984611d58565b611d33565b90508281526020810184848401111561178657600080fd5b611791848285611fac565b509392505050565b6000813590506117a88161216e565b92915050565b6000815190506117bd81612185565b92915050565b600082601f8301126117d457600080fd5b81356117e484826020860161175b565b91505092915050565b6000813590506117fc8161219c565b92915050565b60006020828403121561181457600080fd5b600061182284828501611799565b91505092915050565b6000806040838503121561183e57600080fd5b600061184c85828601611799565b925050602061185d85828601611799565b9150509250929050565b6000806000806080858703121561187d57600080fd5b600061188b87828801611799565b945050602061189c87828801611799565b93505060406118ad878288016117ed565b925050606085013567ffffffffffffffff8111156118ca57600080fd5b6118d6878288016117c3565b91505092959194509250565b6000602082840312156118f457600080fd5b6000611902848285016117ae565b91505092915050565b60006020828403121561191d57600080fd5b600061192b848285016117ed565b91505092915050565b60006119408383611af7565b60408301905092915050565b60006119588383611b26565b60208301905092915050565b61196d81611ef0565b82525050565b600061197e82611da9565b6119888185611dd9565b935061199383611d89565b8060005b838110156119c45781516119ab8882611934565b97506119b683611dbf565b925050600181019050611997565b5085935050505092915050565b60006119dc82611db4565b6119e68185611dea565b93506119f183611d99565b8060005b83811015611a22578151611a09888261194c565b9750611a1483611dcc565b9250506001810190506119f5565b5085935050505092915050565b611a3881611f02565b82525050565b611a4781611f0e565b82525050565b611a5681611f64565b82525050565b611a6581611f88565b82525050565b6000611a78602683611dfb565b9150611a83826120a4565b604082019050919050565b6000611a9b602083611dfb565b9150611aa6826120f3565b602082019050919050565b6000611abe601c83611dfb565b9150611ac98261211c565b602082019050919050565b6000611ae1601f83611dfb565b9150611aec82612145565b602082019050919050565b604082016000820151611b0d6000850182611b26565b506020820151611b206020850182611b26565b50505050565b611b2f81611f5a565b82525050565b611b3e81611f5a565b82525050565b6000602082019050611b596000830184611964565b92915050565b6000606082019050611b746000830186611964565b611b816020830185611964565b611b8e6040830184611b35565b949350505050565b6000604082019050611bab6000830185611964565b611bb86020830184611b35565b9392505050565b60006020820190508181036000830152611bd98184611973565b905092915050565b60006020820190508181036000830152611bfb81846119d1565b905092915050565b6000602082019050611c186000830184611a2f565b92915050565b6000602082019050611c336000830184611a3e565b92915050565b6000602082019050611c4e6000830184611a4d565b92915050565b6000602082019050611c696000830184611a5c565b92915050565b60006020820190508181036000830152611c8881611a6b565b9050919050565b60006020820190508181036000830152611ca881611a8e565b9050919050565b60006020820190508181036000830152611cc881611ab1565b9050919050565b60006020820190508181036000830152611ce881611ad4565b9050919050565b6000602082019050611d046000830184611b35565b92915050565b6000604082019050611d1f6000830185611b35565b611d2c6020830184611b35565b9392505050565b6000611d3d611d4e565b9050611d498282611fbb565b919050565b6000604051905090565b600067ffffffffffffffff821115611d7357611d72612064565b5b611d7c82612093565b9050602081019050919050565b6000819050602082019050919050565b6000819050602082019050919050565b600081519050919050565b600081519050919050565b6000602082019050919050565b6000602082019050919050565b600082825260208201905092915050565b600082825260208201905092915050565b600082825260208201905092915050565b6000611e1782611f5a565b9150611e2283611f5a565b9250827fffffffffffffffffffffffffffffffffffffffffffffffffffffffffffffffff03821115611e5757611e56612035565b5b828201905092915050565b6000611e6d82611f5a565b9150611e7883611f5a565b9250817fffffffffffffffffffffffffffffffffffffffffffffffffffffffffffffffff0483118215151615611eb157611eb0612035565b5b828202905092915050565b6000611ec782611f5a565b9150611ed283611f5a565b925082821015611ee557611ee4612035565b5b828203905092915050565b6000611efb82611f3a565b9050919050565b60008115159050919050565b60007fffffffff0000000000000000000000000000000000000000000000000000000082169050919050565b600073ffffffffffffffffffffffffffffffffffffffff82169050919050565b6000819050919050565b6000611f6f82611f76565b9050919050565b6000611f8182611f3a565b9050919050565b6000611f9382611f9a565b9050919050565b6000611fa582611f3a565b9050919050565b82818337600083830152505050565b611fc482612093565b810181811067ffffffffffffffff82111715611fe357611fe2612064565b5b80604052505050565b6000611ff782611f5a565b91507fffffffffffffffffffffffffffffffffffffffffffffffffffffffffffffffff82141561202a57612029612035565b5b600182019050919050565b7f4e487b7100000000000000000000000000000000000000000000000000000000600052601160045260246000fd5b7f4e487b7100000000000000000000000000000000000000000000000000000000600052604160045260246000fd5b6000601f19601f8301169050919050565b7f4f776e61626c653a206e6577206f776e657220697320746865207a65726f206160008201527f6464726573730000000000000000000000000000000000000000000000000000602082015250565b7f4f776e61626c653a2063616c6c6572206973206e6f7420746865206f776e6572600082015250565b7f5468657265206973206e6f206f6e676f696e67206d697373696f6e2100000000600082015250565b7f5265656e7472616e637947756172643a207265656e7472616e742063616c6c00600082015250565b61217781611ef0565b811461218257600080fd5b50565b61218e81611f02565b811461219957600080fd5b50565b6121a581611f5a565b81146121b057600080fd5b5056fea2646970667358221220552e9ff7abf815031dff9ffe53c1d44b7835fcddc1469a4d852a8898d6ed84a664736f6c63430008040033",
  "linkReferences": {},
  "deployedLinkReferences": {}
}