{
  "_format": "hh-sol-artifact-1",
  "contractName": "NFTStaker",
  "sourceName": "src/backend/contracts/NFTStaker.sol",
  "abi": [
    {
      "inputs": [
        {
          "internalType": "address",
          "name": "nftAddress",
          "type": "address"
        }
      ],
      "stateMutability": "nonpayable",
      "type": "constructor"
    },
    {
      "anonymous": false,
      "inputs": [
        {
          "indexed": true,
          "internalType": "address",
          "name": "previousOwner",
          "type": "address"
        },
        {
          "indexed": true,
          "internalType": "address",
          "name": "newOwner",
          "type": "address"
        }
      ],
      "name": "OwnershipTransferred",
      "type": "event"
    },
    {
      "inputs": [
        {
          "internalType": "address",
          "name": "_user",
          "type": "address"
        }
      ],
      "name": "getStakedTokens",
      "outputs": [
        {
          "internalType": "uint256[]",
          "name": "tokenIds",
          "type": "uint256[]"
        }
      ],
      "stateMutability": "view",
      "type": "function"
    },
    {
      "inputs": [
        {
          "internalType": "uint256",
          "name": "_tokenId",
          "type": "uint256"
        }
      ],
      "name": "isTokenStaked",
      "outputs": [
        {
          "internalType": "bool",
          "name": "",
          "type": "bool"
        }
      ],
      "stateMutability": "view",
      "type": "function"
    },
    {
      "inputs": [
        {
          "internalType": "address",
          "name": "",
          "type": "address"
        },
        {
          "internalType": "address",
          "name": "",
          "type": "address"
        },
        {
          "internalType": "uint256",
          "name": "",
          "type": "uint256"
        },
        {
          "internalType": "bytes",
          "name": "",
          "type": "bytes"
        }
      ],
      "name": "onERC721Received",
      "outputs": [
        {
          "internalType": "bytes4",
          "name": "",
          "type": "bytes4"
        }
      ],
      "stateMutability": "nonpayable",
      "type": "function"
    },
    {
      "inputs": [],
      "name": "owner",
      "outputs": [
        {
          "internalType": "address",
          "name": "",
          "type": "address"
        }
      ],
      "stateMutability": "view",
      "type": "function"
    },
    {
      "inputs": [],
      "name": "parentNFT",
      "outputs": [
        {
          "internalType": "contract ERC721A",
          "name": "",
          "type": "address"
        }
      ],
      "stateMutability": "view",
      "type": "function"
    },
    {
      "inputs": [],
      "name": "renounceOwnership",
      "outputs": [],
      "stateMutability": "nonpayable",
      "type": "function"
    },
    {
      "inputs": [],
      "name": "rewardRate",
      "outputs": [
        {
          "internalType": "uint256",
          "name": "",
          "type": "uint256"
        }
      ],
      "stateMutability": "view",
      "type": "function"
    },
    {
      "inputs": [],
      "name": "rewardsToken",
      "outputs": [
        {
          "internalType": "contract ERC20",
          "name": "",
          "type": "address"
        }
      ],
      "stateMutability": "view",
      "type": "function"
    },
    {
      "inputs": [
        {
          "internalType": "address",
          "name": "_tokenAddress",
          "type": "address"
        }
      ],
      "name": "setTokenAddress",
      "outputs": [],
      "stateMutability": "nonpayable",
      "type": "function"
    },
    {
      "inputs": [
        {
          "internalType": "uint256",
          "name": "_tokenId",
          "type": "uint256"
        }
      ],
      "name": "stake",
      "outputs": [],
      "stateMutability": "nonpayable",
      "type": "function"
    },
    {
      "inputs": [
        {
          "internalType": "address",
          "name": "newOwner",
          "type": "address"
        }
      ],
      "name": "transferOwnership",
      "outputs": [],
      "stateMutability": "nonpayable",
      "type": "function"
    },
    {
      "inputs": [
        {
          "internalType": "uint256",
          "name": "_tokenId",
          "type": "uint256"
        }
      ],
      "name": "unstake",
      "outputs": [],
      "stateMutability": "nonpayable",
      "type": "function"
    }
  ],
  "bytecode": "0x60806040523480156200001157600080fd5b5060405162001f0e38038062001f0e8339818101604052810190620000379190620001c0565b60016000819055506200005f62000053620000db60201b60201c565b620000e360201b60201c565b80600260006101000a81548173ffffffffffffffffffffffffffffffffffffffff021916908373ffffffffffffffffffffffffffffffffffffffff160217905550620151806012600a620000b491906200027f565b6005620000c29190620003bc565b620000ce9190620001ec565b60048190555050620004e0565b600033905090565b6000600160009054906101000a900473ffffffffffffffffffffffffffffffffffffffff16905081600160006101000a81548173ffffffffffffffffffffffffffffffffffffffff021916908373ffffffffffffffffffffffffffffffffffffffff1602179055508173ffffffffffffffffffffffffffffffffffffffff168173ffffffffffffffffffffffffffffffffffffffff167f8be0079c531659141344cd1fd0a4f28419497f9722a3daafe3b4186f6b6457e060405160405180910390a35050565b600081519050620001ba81620004c6565b92915050565b600060208284031215620001d357600080fd5b6000620001e384828501620001a9565b91505092915050565b6000620001f98262000451565b9150620002068362000451565b9250826200021957620002186200048a565b5b828204905092915050565b6000808291508390505b600185111562000276578086048111156200024e576200024d6200045b565b5b60018516156200025e5780820291505b80810290506200026e85620004b9565b94506200022e565b94509492505050565b60006200028c8262000451565b9150620002998362000451565b9250620002c87fffffffffffffffffffffffffffffffffffffffffffffffffffffffffffffffff8484620002d0565b905092915050565b600082620002e25760019050620003b5565b81620002f25760009050620003b5565b81600181146200030b576002811462000316576200034c565b6001915050620003b5565b60ff8411156200032b576200032a6200045b565b5b8360020a9150848211156200034557620003446200045b565b5b50620003b5565b5060208310610133831016604e8410600b8410161715620003865782820a90508381111562000380576200037f6200045b565b5b620003b5565b62000395848484600162000224565b92509050818404811115620003af57620003ae6200045b565b5b81810290505b9392505050565b6000620003c98262000451565b9150620003d68362000451565b9250817fffffffffffffffffffffffffffffffffffffffffffffffffffffffffffffffff04831182151516156200041257620004116200045b565b5b828202905092915050565b60006200042a8262000431565b9050919050565b600073ffffffffffffffffffffffffffffffffffffffff82169050919050565b6000819050919050565b7f4e487b7100000000000000000000000000000000000000000000000000000000600052601160045260246000fd5b7f4e487b7100000000000000000000000000000000000000000000000000000000600052601260045260246000fd5b60008160011c9050919050565b620004d1816200041d565b8114620004dd57600080fd5b50565b611a1e80620004f06000396000f3fe608060405234801561001057600080fd5b50600436106100b45760003560e01c80638da5cb5b116100715780638da5cb5b14610179578063a694fc3a14610197578063b8e33fb2146101b3578063d1af0c7d146101d1578063f0a52424146101ef578063f2fde38b1461021f576100b4565b8063150b7a02146100b957806326a4e8d2146100e95780632e17de781461010557806363c28db114610121578063715018a6146101515780637b0a47ee1461015b575b600080fd5b6100d360048036038101906100ce9190611287565b61023b565b6040516100e09190611554565b60405180910390f35b61010360048036038101906100fe919061125e565b61024f565b005b61011f600480360381019061011a919061132b565b61030f565b005b61013b6004803603810190610136919061125e565b610be1565b6040516101489190611517565b60405180910390f35b610159610c7b565b005b610163610d03565b6040516101709190611605565b60405180910390f35b610181610d09565b60405161018e919061149c565b60405180910390f35b6101b160048036038101906101ac919061132b565b610d33565b005b6101bb610e99565b6040516101c8919061158a565b60405180910390f35b6101d9610ebf565b6040516101e6919061156f565b60405180910390f35b6102096004803603810190610204919061132b565b610ee5565b6040516102169190611539565b60405180910390f35b6102396004803603810190610234919061125e565b610ff1565b005b600063150b7a0260e01b9050949350505050565b6102576110e9565b73ffffffffffffffffffffffffffffffffffffffff16610275610d09565b73ffffffffffffffffffffffffffffffffffffffff16146102cb576040517f08c379a00000000000000000000000000000000000000000000000000000000081526004016102c2906115c5565b60405180910390fd5b80600360006101000a81548173ffffffffffffffffffffffffffffffffffffffff021916908373ffffffffffffffffffffffffffffffffffffffff16021790555050565b60026000541415610355576040517f08c379a000000000000000000000000000000000000000000000000000000000815260040161034c906115e5565b60405180910390fd5b6002600081905550600260009054906101000a900473ffffffffffffffffffffffffffffffffffffffff1673ffffffffffffffffffffffffffffffffffffffff166342842e0e3033846040518463ffffffff1660e01b81526004016103bc939291906114b7565b600060405180830381600087803b1580156103d657600080fd5b505af11580156103ea573d6000803e3d6000fd5b50505050600080600560003373ffffffffffffffffffffffffffffffffffffffff1673ffffffffffffffffffffffffffffffffffffffff16815260200190815260200160002060000180549050905060005b818110156104eb5783600560003373ffffffffffffffffffffffffffffffffffffffff1673ffffffffffffffffffffffffffffffffffffffff16815260200190815260200160002060000182815481106104bf577f4e487b7100000000000000000000000000000000000000000000000000000000600052603260045260246000fd5b906000526020600020015414156104d8578092506104eb565b80806104e39061184a565b91505061043c565b506000600560003373ffffffffffffffffffffffffffffffffffffffff1673ffffffffffffffffffffffffffffffffffffffff1681526020019081526020016000206001018381548110610568577f4e487b7100000000000000000000000000000000000000000000000000000000600052603260045260246000fd5b90600052602060002001544261057e919061171a565b905060006004548261059091906116c0565b9050600360009054906101000a900473ffffffffffffffffffffffffffffffffffffffff1673ffffffffffffffffffffffffffffffffffffffff1663a9059cbb33836040518363ffffffff1660e01b81526004016105ef9291906114ee565b602060405180830381600087803b15801561060957600080fd5b505af115801561061d573d6000803e3d6000fd5b505050506040513d601f19601f820116820180604052508101906106419190611302565b50600560003373ffffffffffffffffffffffffffffffffffffffff1673ffffffffffffffffffffffffffffffffffffffff168152602001908152602001600020600101600184610691919061171a565b815481106106c8577f4e487b7100000000000000000000000000000000000000000000000000000000600052603260045260246000fd5b9060005260206000200154600560003373ffffffffffffffffffffffffffffffffffffffff1673ffffffffffffffffffffffffffffffffffffffff168152602001908152602001600020600101858154811061074d577f4e487b7100000000000000000000000000000000000000000000000000000000600052603260045260246000fd5b9060005260206000200154600560003373ffffffffffffffffffffffffffffffffffffffff1673ffffffffffffffffffffffffffffffffffffffff16815260200190815260200160002060010186815481106107d2577f4e487b7100000000000000000000000000000000000000000000000000000000600052603260045260246000fd5b906000526020600020016000600560003373ffffffffffffffffffffffffffffffffffffffff1673ffffffffffffffffffffffffffffffffffffffff16815260200190815260200160002060010160018861082d919061171a565b81548110610864577f4e487b7100000000000000000000000000000000000000000000000000000000600052603260045260246000fd5b906000526020600020016000849190505583919050555050600560003373ffffffffffffffffffffffffffffffffffffffff1673ffffffffffffffffffffffffffffffffffffffff1681526020019081526020016000206001018054806108f4577f4e487b7100000000000000000000000000000000000000000000000000000000600052603160045260246000fd5b60019003818190600052602060002001600090559055600560003373ffffffffffffffffffffffffffffffffffffffff1673ffffffffffffffffffffffffffffffffffffffff168152602001908152602001600020600001600184610959919061171a565b81548110610990577f4e487b7100000000000000000000000000000000000000000000000000000000600052603260045260246000fd5b9060005260206000200154600560003373ffffffffffffffffffffffffffffffffffffffff1673ffffffffffffffffffffffffffffffffffffffff1681526020019081526020016000206000018581548110610a15577f4e487b7100000000000000000000000000000000000000000000000000000000600052603260045260246000fd5b9060005260206000200154600560003373ffffffffffffffffffffffffffffffffffffffff1673ffffffffffffffffffffffffffffffffffffffff1681526020019081526020016000206000018681548110610a9a577f4e487b7100000000000000000000000000000000000000000000000000000000600052603260045260246000fd5b906000526020600020016000600560003373ffffffffffffffffffffffffffffffffffffffff1673ffffffffffffffffffffffffffffffffffffffff168152602001908152602001600020600001600188610af5919061171a565b81548110610b2c577f4e487b7100000000000000000000000000000000000000000000000000000000600052603260045260246000fd5b906000526020600020016000849190505583919050555050600560003373ffffffffffffffffffffffffffffffffffffffff1673ffffffffffffffffffffffffffffffffffffffff168152602001908152602001600020600001805480610bbc577f4e487b7100000000000000000000000000000000000000000000000000000000600052603160045260246000fd5b6001900381819060005260206000200160009055905550505050600160008190555050565b6060600560008373ffffffffffffffffffffffffffffffffffffffff1673ffffffffffffffffffffffffffffffffffffffff168152602001908152602001600020600001805480602002602001604051908101604052809291908181526020018280548015610c6f57602002820191906000526020600020905b815481526020019060010190808311610c5b575b50505050509050919050565b610c836110e9565b73ffffffffffffffffffffffffffffffffffffffff16610ca1610d09565b73ffffffffffffffffffffffffffffffffffffffff1614610cf7576040517f08c379a0000000000000000000000000000000000000000000000000000000008152600401610cee906115c5565b60405180910390fd5b610d0160006110f1565b565b60045481565b6000600160009054906101000a900473ffffffffffffffffffffffffffffffffffffffff16905090565b600560003373ffffffffffffffffffffffffffffffffffffffff1673ffffffffffffffffffffffffffffffffffffffff168152602001908152602001600020600001819080600181540180825580915050600190039060005260206000200160009091909190915055600560003373ffffffffffffffffffffffffffffffffffffffff1673ffffffffffffffffffffffffffffffffffffffff168152602001908152602001600020600101429080600181540180825580915050600190039060005260206000200160009091909190915055600260009054906101000a900473ffffffffffffffffffffffffffffffffffffffff1673ffffffffffffffffffffffffffffffffffffffff166342842e0e3330846040518463ffffffff1660e01b8152600401610e64939291906114b7565b600060405180830381600087803b158015610e7e57600080fd5b505af1158015610e92573d6000803e3d6000fd5b5050505050565b600260009054906101000a900473ffffffffffffffffffffffffffffffffffffffff1681565b600360009054906101000a900473ffffffffffffffffffffffffffffffffffffffff1681565b600080600560003373ffffffffffffffffffffffffffffffffffffffff1673ffffffffffffffffffffffffffffffffffffffff16815260200190815260200160002060000180549050905060005b81811015610fe55783600560003373ffffffffffffffffffffffffffffffffffffffff1673ffffffffffffffffffffffffffffffffffffffff1681526020019081526020016000206000018281548110610fb6577f4e487b7100000000000000000000000000000000000000000000000000000000600052603260045260246000fd5b90600052602060002001541415610fd257600192505050610fec565b8080610fdd9061184a565b915050610f33565b5060009150505b919050565b610ff96110e9565b73ffffffffffffffffffffffffffffffffffffffff16611017610d09565b73ffffffffffffffffffffffffffffffffffffffff161461106d576040517f08c379a0000000000000000000000000000000000000000000000000000000008152600401611064906115c5565b60405180910390fd5b600073ffffffffffffffffffffffffffffffffffffffff168173ffffffffffffffffffffffffffffffffffffffff1614156110dd576040517f08c379a00000000000000000000000000000000000000000000000000000000081526004016110d4906115a5565b60405180910390fd5b6110e6816110f1565b50565b600033905090565b6000600160009054906101000a900473ffffffffffffffffffffffffffffffffffffffff16905081600160006101000a81548173ffffffffffffffffffffffffffffffffffffffff021916908373ffffffffffffffffffffffffffffffffffffffff1602179055508173ffffffffffffffffffffffffffffffffffffffff168173ffffffffffffffffffffffffffffffffffffffff167f8be0079c531659141344cd1fd0a4f28419497f9722a3daafe3b4186f6b6457e060405160405180910390a35050565b60006111ca6111c584611645565b611620565b9050828152602081018484840111156111e257600080fd5b6111ed84828561180a565b509392505050565b600081359050611204816119a3565b92915050565b600081519050611219816119ba565b92915050565b600082601f83011261123057600080fd5b81356112408482602086016111b7565b91505092915050565b600081359050611258816119d1565b92915050565b60006020828403121561127057600080fd5b600061127e848285016111f5565b91505092915050565b6000806000806080858703121561129d57600080fd5b60006112ab878288016111f5565b94505060206112bc878288016111f5565b93505060406112cd87828801611249565b925050606085013567ffffffffffffffff8111156112ea57600080fd5b6112f68782880161121f565b91505092959194509250565b60006020828403121561131457600080fd5b60006113228482850161120a565b91505092915050565b60006020828403121561133d57600080fd5b600061134b84828501611249565b91505092915050565b6000611360838361147e565b60208301905092915050565b6113758161174e565b82525050565b600061138682611686565b611390818561169e565b935061139b83611676565b8060005b838110156113cc5781516113b38882611354565b97506113be83611691565b92505060018101905061139f565b5085935050505092915050565b6113e281611760565b82525050565b6113f18161176c565b82525050565b611400816117c2565b82525050565b61140f816117e6565b82525050565b60006114226026836116af565b915061142d82611902565b604082019050919050565b60006114456020836116af565b915061145082611951565b602082019050919050565b6000611468601f836116af565b91506114738261197a565b602082019050919050565b611487816117b8565b82525050565b611496816117b8565b82525050565b60006020820190506114b1600083018461136c565b92915050565b60006060820190506114cc600083018661136c565b6114d9602083018561136c565b6114e6604083018461148d565b949350505050565b6000604082019050611503600083018561136c565b611510602083018461148d565b9392505050565b60006020820190508181036000830152611531818461137b565b905092915050565b600060208201905061154e60008301846113d9565b92915050565b600060208201905061156960008301846113e8565b92915050565b600060208201905061158460008301846113f7565b92915050565b600060208201905061159f6000830184611406565b92915050565b600060208201905081810360008301526115be81611415565b9050919050565b600060208201905081810360008301526115de81611438565b9050919050565b600060208201905081810360008301526115fe8161145b565b9050919050565b600060208201905061161a600083018461148d565b92915050565b600061162a61163b565b90506116368282611819565b919050565b6000604051905090565b600067ffffffffffffffff8211156116605761165f6118c2565b5b611669826118f1565b9050602081019050919050565b6000819050602082019050919050565b600081519050919050565b6000602082019050919050565b600082825260208201905092915050565b600082825260208201905092915050565b60006116cb826117b8565b91506116d6836117b8565b9250817fffffffffffffffffffffffffffffffffffffffffffffffffffffffffffffffff048311821515161561170f5761170e611893565b5b828202905092915050565b6000611725826117b8565b9150611730836117b8565b92508282101561174357611742611893565b5b828203905092915050565b600061175982611798565b9050919050565b60008115159050919050565b60007fffffffff0000000000000000000000000000000000000000000000000000000082169050919050565b600073ffffffffffffffffffffffffffffffffffffffff82169050919050565b6000819050919050565b60006117cd826117d4565b9050919050565b60006117df82611798565b9050919050565b60006117f1826117f8565b9050919050565b600061180382611798565b9050919050565b82818337600083830152505050565b611822826118f1565b810181811067ffffffffffffffff82111715611841576118406118c2565b5b80604052505050565b6000611855826117b8565b91507fffffffffffffffffffffffffffffffffffffffffffffffffffffffffffffffff82141561188857611887611893565b5b600182019050919050565b7f4e487b7100000000000000000000000000000000000000000000000000000000600052601160045260246000fd5b7f4e487b7100000000000000000000000000000000000000000000000000000000600052604160045260246000fd5b6000601f19601f8301169050919050565b7f4f776e61626c653a206e6577206f776e657220697320746865207a65726f206160008201527f6464726573730000000000000000000000000000000000000000000000000000602082015250565b7f4f776e61626c653a2063616c6c6572206973206e6f7420746865206f776e6572600082015250565b7f5265656e7472616e637947756172643a207265656e7472616e742063616c6c00600082015250565b6119ac8161174e565b81146119b757600080fd5b50565b6119c381611760565b81146119ce57600080fd5b50565b6119da816117b8565b81146119e557600080fd5b5056fea2646970667358221220457343774ac83d8cbedcc2deba288512b2a4ab4f2082bfec927a741b4e7f15f664736f6c63430008040033",
  "linkReferences": {},
  "deployedLinkReferences": {}
}