{
  "_format": "hh-sol-artifact-1",
  "contractName": "NFTStaker",
  "sourceName": "src/backend/contracts/NFTStaker.sol",
  "abi": [
    {
      "inputs": [
        {
          "internalType": "address",
          "name": "nftAddress",
          "type": "address"
        }
      ],
      "stateMutability": "nonpayable",
      "type": "constructor"
    },
    {
      "anonymous": false,
      "inputs": [
        {
          "indexed": true,
          "internalType": "address",
          "name": "previousOwner",
          "type": "address"
        },
        {
          "indexed": true,
          "internalType": "address",
          "name": "newOwner",
          "type": "address"
        }
      ],
      "name": "OwnershipTransferred",
      "type": "event"
    },
    {
      "anonymous": false,
      "inputs": [
        {
          "indexed": false,
          "internalType": "uint256",
          "name": "tokenId",
          "type": "uint256"
        },
        {
          "indexed": false,
          "internalType": "uint256",
          "name": "timestamp",
          "type": "uint256"
        }
      ],
      "name": "StakeSuccessful",
      "type": "event"
    },
    {
      "anonymous": false,
      "inputs": [
        {
          "indexed": false,
          "internalType": "uint256",
          "name": "tokenId",
          "type": "uint256"
        },
        {
          "indexed": false,
          "internalType": "uint256",
          "name": "reward",
          "type": "uint256"
        }
      ],
      "name": "UnstakeSuccessful",
      "type": "event"
    },
    {
      "inputs": [],
      "name": "claimReward",
      "outputs": [],
      "stateMutability": "nonpayable",
      "type": "function"
    },
    {
      "inputs": [
        {
          "internalType": "address",
          "name": "_user",
          "type": "address"
        }
      ],
      "name": "getRewardFromActiveMission",
      "outputs": [
        {
          "internalType": "uint256",
          "name": "",
          "type": "uint256"
        }
      ],
      "stateMutability": "view",
      "type": "function"
    },
    {
      "inputs": [
        {
          "internalType": "address",
          "name": "_user",
          "type": "address"
        }
      ],
      "name": "getRewardToClaim",
      "outputs": [
        {
          "internalType": "uint256",
          "name": "",
          "type": "uint256"
        }
      ],
      "stateMutability": "view",
      "type": "function"
    },
    {
      "inputs": [
        {
          "internalType": "address",
          "name": "_user",
          "type": "address"
        }
      ],
      "name": "getStakedMissions",
      "outputs": [
        {
          "components": [
            {
              "internalType": "uint256",
              "name": "startTimestamp",
              "type": "uint256"
            },
            {
              "internalType": "uint256",
              "name": "duration",
              "type": "uint256"
            }
          ],
          "internalType": "struct NFTStaker.Mission[]",
          "name": "missions",
          "type": "tuple[]"
        }
      ],
      "stateMutability": "view",
      "type": "function"
    },
    {
      "inputs": [
        {
          "internalType": "address",
          "name": "_user",
          "type": "address"
        }
      ],
      "name": "getStakedTimestamps",
      "outputs": [
        {
          "internalType": "uint256[]",
          "name": "timestamps",
          "type": "uint256[]"
        }
      ],
      "stateMutability": "view",
      "type": "function"
    },
    {
      "inputs": [
        {
          "internalType": "address",
          "name": "_user",
          "type": "address"
        }
      ],
      "name": "getStakedTokens",
      "outputs": [
        {
          "internalType": "uint256[]",
          "name": "tokenIds",
          "type": "uint256[]"
        }
      ],
      "stateMutability": "view",
      "type": "function"
    },
    {
      "inputs": [],
      "name": "hoursForUnitReward",
      "outputs": [
        {
          "internalType": "uint256",
          "name": "",
          "type": "uint256"
        }
      ],
      "stateMutability": "view",
      "type": "function"
    },
    {
      "inputs": [],
      "name": "isMissionOngoing",
      "outputs": [
        {
          "internalType": "bool",
          "name": "",
          "type": "bool"
        }
      ],
      "stateMutability": "view",
      "type": "function"
    },
    {
      "inputs": [
        {
          "internalType": "uint256",
          "name": "_tokenId",
          "type": "uint256"
        }
      ],
      "name": "isTokenStaked",
      "outputs": [
        {
          "internalType": "bool",
          "name": "",
          "type": "bool"
        }
      ],
      "stateMutability": "view",
      "type": "function"
    },
    {
      "inputs": [
        {
          "internalType": "address",
          "name": "",
          "type": "address"
        },
        {
          "internalType": "address",
          "name": "",
          "type": "address"
        },
        {
          "internalType": "uint256",
          "name": "",
          "type": "uint256"
        },
        {
          "internalType": "bytes",
          "name": "",
          "type": "bytes"
        }
      ],
      "name": "onERC721Received",
      "outputs": [
        {
          "internalType": "bytes4",
          "name": "",
          "type": "bytes4"
        }
      ],
      "stateMutability": "nonpayable",
      "type": "function"
    },
    {
      "inputs": [],
      "name": "owner",
      "outputs": [
        {
          "internalType": "address",
          "name": "",
          "type": "address"
        }
      ],
      "stateMutability": "view",
      "type": "function"
    },
    {
      "inputs": [],
      "name": "parentNFT",
      "outputs": [
        {
          "internalType": "contract ERC721A",
          "name": "",
          "type": "address"
        }
      ],
      "stateMutability": "view",
      "type": "function"
    },
    {
      "inputs": [],
      "name": "renounceOwnership",
      "outputs": [],
      "stateMutability": "nonpayable",
      "type": "function"
    },
    {
      "inputs": [],
      "name": "rewardsToken",
      "outputs": [
        {
          "internalType": "contract ERC20",
          "name": "",
          "type": "address"
        }
      ],
      "stateMutability": "view",
      "type": "function"
    },
    {
      "inputs": [
        {
          "internalType": "uint256[]",
          "name": "_tokenIds",
          "type": "uint256[]"
        }
      ],
      "name": "sendAllInactiveToMission",
      "outputs": [],
      "stateMutability": "nonpayable",
      "type": "function"
    },
    {
      "inputs": [
        {
          "internalType": "address",
          "name": "_newOwner",
          "type": "address"
        },
        {
          "internalType": "address",
          "name": "_tokenAddress",
          "type": "address"
        }
      ],
      "name": "setOwnerAndTokenAddress",
      "outputs": [],
      "stateMutability": "nonpayable",
      "type": "function"
    },
    {
      "inputs": [
        {
          "internalType": "uint256",
          "name": "_tokenId",
          "type": "uint256"
        }
      ],
      "name": "stake",
      "outputs": [],
      "stateMutability": "nonpayable",
      "type": "function"
    },
    {
      "inputs": [
        {
          "internalType": "uint256",
          "name": "_duration",
          "type": "uint256"
        }
      ],
      "name": "startMission",
      "outputs": [],
      "stateMutability": "nonpayable",
      "type": "function"
    },
    {
      "inputs": [
        {
          "internalType": "address",
          "name": "newOwner",
          "type": "address"
        }
      ],
      "name": "transferOwnership",
      "outputs": [],
      "stateMutability": "nonpayable",
      "type": "function"
    },
    {
      "inputs": [
        {
          "internalType": "uint256",
          "name": "_tokenId",
          "type": "uint256"
        }
      ],
      "name": "unstake",
      "outputs": [],
      "stateMutability": "nonpayable",
      "type": "function"
    }
  ],
  "bytecode": "0x60806040523480156200001157600080fd5b506040516200363a3803806200363a8339818101604052810190620000379190620001e6565b60016000819055506200005f62000053620000ae60201b60201c565b620000b660201b60201c565b80600260006101000a81548173ffffffffffffffffffffffffffffffffffffffff021916908373ffffffffffffffffffffffffffffffffffffffff160217905550600480819055505062000218565b600033905090565b6000600160009054906101000a900473ffffffffffffffffffffffffffffffffffffffff16905081600160006101000a81548173ffffffffffffffffffffffffffffffffffffffff021916908373ffffffffffffffffffffffffffffffffffffffff1602179055508173ffffffffffffffffffffffffffffffffffffffff168173ffffffffffffffffffffffffffffffffffffffff167f8be0079c531659141344cd1fd0a4f28419497f9722a3daafe3b4186f6b6457e060405160405180910390a35050565b600080fd5b600073ffffffffffffffffffffffffffffffffffffffff82169050919050565b6000620001ae8262000181565b9050919050565b620001c081620001a1565b8114620001cc57600080fd5b50565b600081519050620001e081620001b5565b92915050565b600060208284031215620001ff57620001fe6200017c565b5b60006200020f84828501620001cf565b91505092915050565b61341280620002286000396000f3fe608060405234801561001057600080fd5b506004361061012c5760003560e01c8063a04ebd4b116100ad578063d1af0c7d11610071578063d1af0c7d1461031b578063e6d7d9d114610339578063f0a5242414610357578063f2fde38b14610387578063fb1ab0a9146103a35761012c565b8063a04ebd4b14610277578063a694fc3a146102a7578063a7c1e29a146102c3578063b88a802f146102f3578063b8e33fb2146102fd5761012c565b8063647fb46c116100f4578063647fb46c146101e757806367eb6add14610203578063715018a61461021f578063775163f1146102295780638da5cb5b146102595761012c565b8063150b7a021461013157806324d0b0a5146101615780632e17de781461017f5780633a7055f91461019b57806363c28db1146101b7575b600080fd5b61014b600480360381019061014691906127ec565b6103d3565b60405161015891906128aa565b60405180910390f35b6101696103e7565b60405161017691906128d4565b60405180910390f35b610199600480360381019061019491906128ef565b6103ed565b005b6101b560048036038101906101b091906128ef565b6108a1565b005b6101d160048036038101906101cc919061291c565b6108cd565b6040516101de9190612a07565b60405180910390f35b61020160048036038101906101fc9190612a29565b610967565b005b61021d60048036038101906102189190612b31565b6109bd565b005b610227610e01565b005b610243600480360381019061023e919061291c565b610e15565b60405161025091906128d4565b60405180910390f35b610261610edb565b60405161026e9190612b89565b60405180910390f35b610291600480360381019061028c919061291c565b610f05565b60405161029e9190612a07565b60405180910390f35b6102c160048036038101906102bc91906128ef565b610f9f565b005b6102dd60048036038101906102d8919061291c565b61129d565b6040516102ea9190612c82565b60405180910390f35b6102fb611352565b005b61030561162e565b6040516103129190612d03565b60405180910390f35b610323611654565b6040516103309190612d3f565b60405180910390f35b61034161167a565b60405161034e9190612d75565b60405180910390f35b610371600480360381019061036c91906128ef565b6116a9565b60405161037e9190612d75565b60405180910390f35b6103a1600480360381019061039c919061291c565b61178e565b005b6103bd60048036038101906103b8919061291c565b611811565b6040516103ca91906128d4565b60405180910390f35b600063150b7a0260e01b9050949350505050565b60045481565b6103f56119fd565b6000600760003373ffffffffffffffffffffffffffffffffffffffff1673ffffffffffffffffffffffffffffffffffffffff1681526020019081526020016000206040518060a00160405290816000820180548060200260200160405190810160405280929190818152602001828054801561049057602002820191906000526020600020905b81548152602001906001019080831161047c575b50505050508152602001600182018054806020026020016040519081016040528092919081815260200182805480156104e857602002820191906000526020600020905b8154815260200190600101908083116104d4575b5050505050815260200160028201805480602002602001604051908101604052809291908181526020016000905b8282101561055c57838290600052602060002090600202016040518060400160405290816000820154815260200160018201548152505081526020019060010190610516565b50505050815260200160038201548152602001600482018054806020026020016040519081016040528092919081815260200182805480156105e257602002820191906000526020600020906000905b82829054906101000a900460ff161515815260200190600101906020826000010492830192600103820291508084116105ac5790505b50505050508152505090506000806105fa8433611a4c565b915091508061063e576040517f08c379a000000000000000000000000000000000000000000000000000000000815260040161063590612ded565b60405180910390fd5b600061064a8333611cb5565b9050600061069d8560400151858151811061066857610667612e0d565b5b6020026020010151600001518660400151868151811061068b5761068a612e0d565b5b60200260200101516020015142611f76565b9050600260009054906101000a900473ffffffffffffffffffffffffffffffffffffffff1673ffffffffffffffffffffffffffffffffffffffff166342842e0e3033896040518463ffffffff1660e01b81526004016106fe93929190612e3c565b600060405180830381600087803b15801561071857600080fd5b505af115801561072c573d6000803e3d6000fd5b5050505080801561075f5750600015158560800151858151811061075357610752612e0d565b5b60200260200101511515145b1561083d576001600760003373ffffffffffffffffffffffffffffffffffffffff1673ffffffffffffffffffffffffffffffffffffffff16815260200190815260200160002060040185815481106107ba576107b9612e0d565b5b90600052602060002090602091828204019190066101000a81548160ff02191690831515021790555081600760003373ffffffffffffffffffffffffffffffffffffffff1673ffffffffffffffffffffffffffffffffffffffff16815260200190815260200160002060030160008282546108359190612ea2565b925050819055505b6108588460018760000151516108539190612ef8565b611f8f565b7f97cc56283430ac8692d29c7522a69fa6c2bde7e47d781be6b58b034d80bc28288683604051610889929190612f2c565b60405180910390a1505050505061089e6124a8565b50565b6108a96124b2565b42600560000181905550610e10816108c19190612f55565b60056001018190555050565b6060600760008373ffffffffffffffffffffffffffffffffffffffff1673ffffffffffffffffffffffffffffffffffffffff16815260200190815260200160002060000180548060200260200160405190810160405280929190818152602001828054801561095b57602002820191906000526020600020905b815481526020019060010190808311610947575b50505050509050919050565b61096f6124b2565b80600360006101000a81548173ffffffffffffffffffffffffffffffffffffffff021916908373ffffffffffffffffffffffffffffffffffffffff1602179055506109b982612530565b5050565b6109c56119fd565b6109cd61167a565b610a0c576040517f08c379a0000000000000000000000000000000000000000000000000000000008152600401610a0390612ffb565b60405180910390fd5b600081519050600042905060005b82811015610df357600080610a49868481518110610a3b57610a3a612e0d565b5b602002602001015133611a4c565b9150915080610a8d576040517f08c379a0000000000000000000000000000000000000000000000000000000008152600401610a8490612ded565b60405180910390fd5b610b62600760003373ffffffffffffffffffffffffffffffffffffffff1673ffffffffffffffffffffffffffffffffffffffff1681526020019081526020016000206002018381548110610ae457610ae3612e0d565b5b906000526020600020906002020160000154600760003373ffffffffffffffffffffffffffffffffffffffff1673ffffffffffffffffffffffffffffffffffffffff1681526020019081526020016000206002018481548110610b4a57610b49612e0d565b5b90600052602060002090600202016001015486611f76565b610ba1576040517f08c379a0000000000000000000000000000000000000000000000000000000008152600401610b989061308d565b60405180910390fd5b6000610bad8333611cb5565b905060001515600760003373ffffffffffffffffffffffffffffffffffffffff1673ffffffffffffffffffffffffffffffffffffffff1681526020019081526020016000206004018481548110610c0757610c06612e0d565b5b90600052602060002090602091828204019190069054906101000a900460ff16151503610c885780600760003373ffffffffffffffffffffffffffffffffffffffff1673ffffffffffffffffffffffffffffffffffffffff1681526020019081526020016000206003016000828254610c809190612ea2565b925050819055505b84600760003373ffffffffffffffffffffffffffffffffffffffff1673ffffffffffffffffffffffffffffffffffffffff1681526020019081526020016000206001018481548110610cdd57610cdc612e0d565b5b90600052602060002001819055506005600760003373ffffffffffffffffffffffffffffffffffffffff1673ffffffffffffffffffffffffffffffffffffffff1681526020019081526020016000206002018481548110610d4157610d40612e0d565b5b906000526020600020906002020160008201548160000155600182015481600101559050506000600760003373ffffffffffffffffffffffffffffffffffffffff1673ffffffffffffffffffffffffffffffffffffffff1681526020019081526020016000206004018481548110610dbc57610dbb612e0d565b5b90600052602060002090602091828204019190066101000a81548160ff021916908315150217905550836001019350505050610a1a565b505050610dfe6124a8565b50565b610e096124b2565b610e136000612530565b565b600080600090506000610e27846108cd565b51905060005b81811015610ed057600760008673ffffffffffffffffffffffffffffffffffffffff1673ffffffffffffffffffffffffffffffffffffffff1681526020019081526020016000206004018181548110610e8957610e88612e0d565b5b90600052602060002090602091828204019190069054906101000a900460ff16610ec557610eb78186611cb5565b83610ec29190612ea2565b92505b806001019050610e2d565b508192505050919050565b6000600160009054906101000a900473ffffffffffffffffffffffffffffffffffffffff16905090565b6060600760008373ffffffffffffffffffffffffffffffffffffffff1673ffffffffffffffffffffffffffffffffffffffff168152602001908152602001600020600101805480602002602001604051908101604052809291908181526020018280548015610f9357602002820191906000526020600020905b815481526020019060010190808311610f7f575b50505050509050919050565b610fa76119fd565b610faf61167a565b610fee576040517f08c379a0000000000000000000000000000000000000000000000000000000008152600401610fe590612ffb565b60405180910390fd5b600760003373ffffffffffffffffffffffffffffffffffffffff1673ffffffffffffffffffffffffffffffffffffffff168152602001908152602001600020600001819080600181540180825580915050600190039060005260206000200160009091909190915055600760003373ffffffffffffffffffffffffffffffffffffffff1673ffffffffffffffffffffffffffffffffffffffff168152602001908152602001600020600101429080600181540180825580915050600190039060005260206000200160009091909190915055600760003373ffffffffffffffffffffffffffffffffffffffff1673ffffffffffffffffffffffffffffffffffffffff1681526020019081526020016000206002016005908060018154018082558091505060019003906000526020600020906002020160009091909190915060008201548160000155600182015481600101555050600760003373ffffffffffffffffffffffffffffffffffffffff1673ffffffffffffffffffffffffffffffffffffffff168152602001908152602001600020600401600090806001815401808255809150506001900390600052602060002090602091828204019190069091909190916101000a81548160ff021916908315150217905550600260009054906101000a900473ffffffffffffffffffffffffffffffffffffffff1673ffffffffffffffffffffffffffffffffffffffff166342842e0e3330846040518463ffffffff1660e01b815260040161122793929190612e3c565b600060405180830381600087803b15801561124157600080fd5b505af1158015611255573d6000803e3d6000fd5b505050507fb9a8e9862e9f26d54fc878291fa9354d1629940f2a39517bd62522ec47aec105814260405161128a929190612f2c565b60405180910390a161129a6124a8565b50565b6060600760008373ffffffffffffffffffffffffffffffffffffffff1673ffffffffffffffffffffffffffffffffffffffff168152602001908152602001600020600201805480602002602001604051908101604052809291908181526020016000905b8282101561134757838290600052602060002090600202016040518060400160405290816000820154815260200160018201548152505081526020019060010190611301565b505050509050919050565b600061135d33611811565b9050600081116113a2576040517f08c379a0000000000000000000000000000000000000000000000000000000008152600401611399906130f9565b60405180910390fd5b60011515600360009054906101000a900473ffffffffffffffffffffffffffffffffffffffff1673ffffffffffffffffffffffffffffffffffffffff1663a9059cbb33846040518363ffffffff1660e01b8152600401611403929190613119565b6020604051808303816000875af1158015611422573d6000803e3d6000fd5b505050506040513d601f19601f82011682018060405250810190611446919061316e565b151503611626576000611458336108cd565b519050600042905060005b828110156115d6576000611542600760003373ffffffffffffffffffffffffffffffffffffffff1673ffffffffffffffffffffffffffffffffffffffff16815260200190815260200160002060020183815481106114c4576114c3612e0d565b5b906000526020600020906002020160000154600760003373ffffffffffffffffffffffffffffffffffffffff1673ffffffffffffffffffffffffffffffffffffffff168152602001908152602001600020600201848154811061152a57611529612e0d565b5b90600052602060002090600202016001015485611f76565b905080156115ca576001600760003373ffffffffffffffffffffffffffffffffffffffff1673ffffffffffffffffffffffffffffffffffffffff16815260200190815260200160002060040183815481106115a05761159f612e0d565b5b90600052602060002090602091828204019190066101000a81548160ff0219169083151502179055505b81600101915050611463565b506000600760003373ffffffffffffffffffffffffffffffffffffffff1673ffffffffffffffffffffffffffffffffffffffff16815260200190815260200160002060030181905550505061162b565b600080fd5b50565b600260009054906101000a900473ffffffffffffffffffffffffffffffffffffffff1681565b600360009054906101000a900473ffffffffffffffffffffffffffffffffffffffff1681565b6000806005600001541180156116a45750600560010154600560000154426116a29190612ef8565b105b905090565b600080600760003373ffffffffffffffffffffffffffffffffffffffff1673ffffffffffffffffffffffffffffffffffffffff16815260200190815260200160002060000180549050905060005b818110156117825783600760003373ffffffffffffffffffffffffffffffffffffffff1673ffffffffffffffffffffffffffffffffffffffff168152602001908152602001600020600001828154811061175457611753612e0d565b5b90600052602060002001540361176f57600192505050611789565b808061177a9061319b565b9150506116f7565b5060009150505b919050565b6117966124b2565b600073ffffffffffffffffffffffffffffffffffffffff168173ffffffffffffffffffffffffffffffffffffffff1603611805576040517f08c379a00000000000000000000000000000000000000000000000000000000081526004016117fc90613255565b60405180910390fd5b61180e81612530565b50565b600080600760008473ffffffffffffffffffffffffffffffffffffffff1673ffffffffffffffffffffffffffffffffffffffff1681526020019081526020016000206003015490506000611864846108cd565b519050600042905060005b828110156119f157600760008773ffffffffffffffffffffffffffffffffffffffff1673ffffffffffffffffffffffffffffffffffffffff16815260200190815260200160002060040181815481106118cb576118ca612e0d565b5b90600052602060002090602091828204019190069054906101000a900460ff161580156119c957506119c8600760008873ffffffffffffffffffffffffffffffffffffffff1673ffffffffffffffffffffffffffffffffffffffff168152602001908152602001600020600201828154811061194a57611949612e0d565b5b906000526020600020906002020160000154600760008973ffffffffffffffffffffffffffffffffffffffff1673ffffffffffffffffffffffffffffffffffffffff16815260200190815260200160002060020183815481106119b0576119af612e0d565b5b90600052602060002090600202016001015484611f76565b5b156119e6576119d88187611cb5565b846119e39190612ea2565b93505b80600101905061186f565b50829350505050919050565b600260005403611a42576040517f08c379a0000000000000000000000000000000000000000000000000000000008152600401611a39906132c1565b60405180910390fd5b6002600081905550565b6000806000600760008573ffffffffffffffffffffffffffffffffffffffff1673ffffffffffffffffffffffffffffffffffffffff1681526020019081526020016000206040518060a001604052908160008201805480602002602001604051908101604052809291908181526020018280548015611aea57602002820191906000526020600020905b815481526020019060010190808311611ad6575b5050505050815260200160018201805480602002602001604051908101604052809291908181526020018280548015611b4257602002820191906000526020600020905b815481526020019060010190808311611b2e575b5050505050815260200160028201805480602002602001604051908101604052809291908181526020016000905b82821015611bb657838290600052602060002090600202016040518060400160405290816000820154815260200160018201548152505081526020019060010190611b70565b5050505081526020016003820154815260200160048201805480602002602001604051908101604052809291908181526020018280548015611c3c57602002820191906000526020600020906000905b82829054906101000a900460ff16151581526020019060010190602082600001049283019260010382029150808411611c065790505b50505050508152505090506000806000836000015151905060005b81811015611ca3578885600001518281518110611c7757611c76612e0d565b5b602002602001015103611c905780935060019250611ca3565b8080611c9b9061319b565b915050611c57565b50828295509550505050509250929050565b600080600760008473ffffffffffffffffffffffffffffffffffffffff1673ffffffffffffffffffffffffffffffffffffffff1681526020019081526020016000206040518060a001604052908160008201805480602002602001604051908101604052809291908181526020018280548015611d5157602002820191906000526020600020905b815481526020019060010190808311611d3d575b5050505050815260200160018201805480602002602001604051908101604052809291908181526020018280548015611da957602002820191906000526020600020905b815481526020019060010190808311611d95575b5050505050815260200160028201805480602002602001604051908101604052809291908181526020016000905b82821015611e1d57838290600052602060002090600202016040518060400160405290816000820154815260200160018201548152505081526020019060010190611dd7565b5050505081526020016003820154815260200160048201805480602002602001604051908101604052809291908181526020018280548015611ea357602002820191906000526020600020906000905b82829054906101000a900460ff16151581526020019060010190602082600001049283019260010382029150808411611e6d5790505b5050505050815250509050600081604001518581518110611ec757611ec6612e0d565b5b60200260200101516020015182604001518681518110611eea57611ee9612e0d565b5b602002602001015160000151611f009190612ea2565b90506000814211611f115742611f13565b815b9050600083602001518781518110611f2e57611f2d612e0d565b5b602002602001015182611f419190612ef8565b90506000610e1082611f539190613310565b9050600060045482611f659190613310565b905080965050505050505092915050565b6000818385611f859190612ea2565b1090509392505050565b600760003373ffffffffffffffffffffffffffffffffffffffff1673ffffffffffffffffffffffffffffffffffffffff1681526020019081526020016000206001018181548110611fe357611fe2612e0d565b5b9060005260206000200154600760003373ffffffffffffffffffffffffffffffffffffffff1673ffffffffffffffffffffffffffffffffffffffff168152602001908152602001600020600101838154811061204257612041612e0d565b5b9060005260206000200181905550600760003373ffffffffffffffffffffffffffffffffffffffff1673ffffffffffffffffffffffffffffffffffffffff1681526020019081526020016000206001018054806120a2576120a1613341565b5b60019003818190600052602060002001600090559055600760003373ffffffffffffffffffffffffffffffffffffffff1673ffffffffffffffffffffffffffffffffffffffff168152602001908152602001600020600001818154811061210c5761210b612e0d565b5b9060005260206000200154600760003373ffffffffffffffffffffffffffffffffffffffff1673ffffffffffffffffffffffffffffffffffffffff168152602001908152602001600020600001838154811061216b5761216a612e0d565b5b9060005260206000200181905550600760003373ffffffffffffffffffffffffffffffffffffffff1673ffffffffffffffffffffffffffffffffffffffff1681526020019081526020016000206000018054806121cb576121ca613341565b5b60019003818190600052602060002001600090559055600760003373ffffffffffffffffffffffffffffffffffffffff1673ffffffffffffffffffffffffffffffffffffffff168152602001908152602001600020600201818154811061223557612234612e0d565b5b9060005260206000209060020201600760003373ffffffffffffffffffffffffffffffffffffffff1673ffffffffffffffffffffffffffffffffffffffff168152602001908152602001600020600201838154811061229757612296612e0d565b5b90600052602060002090600202016000820154816000015560018201548160010155905050600760003373ffffffffffffffffffffffffffffffffffffffff1673ffffffffffffffffffffffffffffffffffffffff16815260200190815260200160002060020180548061230e5761230d613341565b5b6001900381819060005260206000209060020201600080820160009055600182016000905550509055600760003373ffffffffffffffffffffffffffffffffffffffff1673ffffffffffffffffffffffffffffffffffffffff168152602001908152602001600020600401818154811061238b5761238a612e0d565b5b90600052602060002090602091828204019190069054906101000a900460ff16600760003373ffffffffffffffffffffffffffffffffffffffff1673ffffffffffffffffffffffffffffffffffffffff16815260200190815260200160002060040183815481106123ff576123fe612e0d565b5b90600052602060002090602091828204019190066101000a81548160ff021916908315150217905550600760003373ffffffffffffffffffffffffffffffffffffffff1673ffffffffffffffffffffffffffffffffffffffff16815260200190815260200160002060040180548061247a57612479613341565b5b60019003818190600052602060002090602091828204019190066101000a81549060ff021916905590555050565b6001600081905550565b6124ba6125f6565b73ffffffffffffffffffffffffffffffffffffffff166124d8610edb565b73ffffffffffffffffffffffffffffffffffffffff161461252e576040517f08c379a0000000000000000000000000000000000000000000000000000000008152600401612525906133bc565b60405180910390fd5b565b6000600160009054906101000a900473ffffffffffffffffffffffffffffffffffffffff16905081600160006101000a81548173ffffffffffffffffffffffffffffffffffffffff021916908373ffffffffffffffffffffffffffffffffffffffff1602179055508173ffffffffffffffffffffffffffffffffffffffff168173ffffffffffffffffffffffffffffffffffffffff167f8be0079c531659141344cd1fd0a4f28419497f9722a3daafe3b4186f6b6457e060405160405180910390a35050565b600033905090565b6000604051905090565b600080fd5b600080fd5b600073ffffffffffffffffffffffffffffffffffffffff82169050919050565b600061263d82612612565b9050919050565b61264d81612632565b811461265857600080fd5b50565b60008135905061266a81612644565b92915050565b6000819050919050565b61268381612670565b811461268e57600080fd5b50565b6000813590506126a08161267a565b92915050565b600080fd5b600080fd5b6000601f19601f8301169050919050565b7f4e487b7100000000000000000000000000000000000000000000000000000000600052604160045260246000fd5b6126f9826126b0565b810181811067ffffffffffffffff82111715612718576127176126c1565b5b80604052505050565b600061272b6125fe565b905061273782826126f0565b919050565b600067ffffffffffffffff821115612757576127566126c1565b5b612760826126b0565b9050602081019050919050565b82818337600083830152505050565b600061278f61278a8461273c565b612721565b9050828152602081018484840111156127ab576127aa6126ab565b5b6127b684828561276d565b509392505050565b600082601f8301126127d3576127d26126a6565b5b81356127e384826020860161277c565b91505092915050565b6000806000806080858703121561280657612805612608565b5b60006128148782880161265b565b94505060206128258782880161265b565b935050604061283687828801612691565b925050606085013567ffffffffffffffff8111156128575761285661260d565b5b612863878288016127be565b91505092959194509250565b60007fffffffff0000000000000000000000000000000000000000000000000000000082169050919050565b6128a48161286f565b82525050565b60006020820190506128bf600083018461289b565b92915050565b6128ce81612670565b82525050565b60006020820190506128e960008301846128c5565b92915050565b60006020828403121561290557612904612608565b5b600061291384828501612691565b91505092915050565b60006020828403121561293257612931612608565b5b60006129408482850161265b565b91505092915050565b600081519050919050565b600082825260208201905092915050565b6000819050602082019050919050565b61297e81612670565b82525050565b60006129908383612975565b60208301905092915050565b6000602082019050919050565b60006129b482612949565b6129be8185612954565b93506129c983612965565b8060005b838110156129fa5781516129e18882612984565b97506129ec8361299c565b9250506001810190506129cd565b5085935050505092915050565b60006020820190508181036000830152612a2181846129a9565b905092915050565b60008060408385031215612a4057612a3f612608565b5b6000612a4e8582860161265b565b9250506020612a5f8582860161265b565b9150509250929050565b600067ffffffffffffffff821115612a8457612a836126c1565b5b602082029050602081019050919050565b600080fd5b6000612aad612aa884612a69565b612721565b90508083825260208201905060208402830185811115612ad057612acf612a95565b5b835b81811015612af95780612ae58882612691565b845260208401935050602081019050612ad2565b5050509392505050565b600082601f830112612b1857612b176126a6565b5b8135612b28848260208601612a9a565b91505092915050565b600060208284031215612b4757612b46612608565b5b600082013567ffffffffffffffff811115612b6557612b6461260d565b5b612b7184828501612b03565b91505092915050565b612b8381612632565b82525050565b6000602082019050612b9e6000830184612b7a565b92915050565b600081519050919050565b600082825260208201905092915050565b6000819050602082019050919050565b604082016000820151612be66000850182612975565b506020820151612bf96020850182612975565b50505050565b6000612c0b8383612bd0565b60408301905092915050565b6000602082019050919050565b6000612c2f82612ba4565b612c398185612baf565b9350612c4483612bc0565b8060005b83811015612c75578151612c5c8882612bff565b9750612c6783612c17565b925050600181019050612c48565b5085935050505092915050565b60006020820190508181036000830152612c9c8184612c24565b905092915050565b6000819050919050565b6000612cc9612cc4612cbf84612612565b612ca4565b612612565b9050919050565b6000612cdb82612cae565b9050919050565b6000612ced82612cd0565b9050919050565b612cfd81612ce2565b82525050565b6000602082019050612d186000830184612cf4565b92915050565b6000612d2982612cd0565b9050919050565b612d3981612d1e565b82525050565b6000602082019050612d546000830184612d30565b92915050565b60008115159050919050565b612d6f81612d5a565b82525050565b6000602082019050612d8a6000830184612d66565b92915050565b600082825260208201905092915050565b7f496e646578206e6f7420666f756e6420666f722074686973207374616b65722e600082015250565b6000612dd7602083612d90565b9150612de282612da1565b602082019050919050565b60006020820190508181036000830152612e0681612dca565b9050919050565b7f4e487b7100000000000000000000000000000000000000000000000000000000600052603260045260246000fd5b6000606082019050612e516000830186612b7a565b612e5e6020830185612b7a565b612e6b60408301846128c5565b949350505050565b7f4e487b7100000000000000000000000000000000000000000000000000000000600052601160045260246000fd5b6000612ead82612670565b9150612eb883612670565b9250827fffffffffffffffffffffffffffffffffffffffffffffffffffffffffffffffff03821115612eed57612eec612e73565b5b828201905092915050565b6000612f0382612670565b9150612f0e83612670565b925082821015612f2157612f20612e73565b5b828203905092915050565b6000604082019050612f4160008301856128c5565b612f4e60208301846128c5565b9392505050565b6000612f6082612670565b9150612f6b83612670565b9250817fffffffffffffffffffffffffffffffffffffffffffffffffffffffffffffffff0483118215151615612fa457612fa3612e73565b5b828202905092915050565b7f5468657265206973206e6f206f6e676f696e67206d697373696f6e2100000000600082015250565b6000612fe5601c83612d90565b9150612ff082612faf565b602082019050919050565b6000602082019050818103600083015261301481612fd8565b9050919050565b7f546869732047656c61746f206973207374696c6c206f6e20616e206f6e676f6960008201527f6e67206d697373696f6e21000000000000000000000000000000000000000000602082015250565b6000613077602b83612d90565b91506130828261301b565b604082019050919050565b600060208201905081810360008301526130a68161306a565b9050919050565b7f4e6f20746f6b656e7320746f20636c61696d2e00000000000000000000000000600082015250565b60006130e3601383612d90565b91506130ee826130ad565b602082019050919050565b60006020820190508181036000830152613112816130d6565b9050919050565b600060408201905061312e6000830185612b7a565b61313b60208301846128c5565b9392505050565b61314b81612d5a565b811461315657600080fd5b50565b60008151905061316881613142565b92915050565b60006020828403121561318457613183612608565b5b600061319284828501613159565b91505092915050565b60006131a682612670565b91507fffffffffffffffffffffffffffffffffffffffffffffffffffffffffffffffff82036131d8576131d7612e73565b5b600182019050919050565b7f4f776e61626c653a206e6577206f776e657220697320746865207a65726f206160008201527f6464726573730000000000000000000000000000000000000000000000000000602082015250565b600061323f602683612d90565b915061324a826131e3565b604082019050919050565b6000602082019050818103600083015261326e81613232565b9050919050565b7f5265656e7472616e637947756172643a207265656e7472616e742063616c6c00600082015250565b60006132ab601f83612d90565b91506132b682613275565b602082019050919050565b600060208201905081810360008301526132da8161329e565b9050919050565b7f4e487b7100000000000000000000000000000000000000000000000000000000600052601260045260246000fd5b600061331b82612670565b915061332683612670565b925082613336576133356132e1565b5b828204905092915050565b7f4e487b7100000000000000000000000000000000000000000000000000000000600052603160045260246000fd5b7f4f776e61626c653a2063616c6c6572206973206e6f7420746865206f776e6572600082015250565b60006133a6602083612d90565b91506133b182613370565b602082019050919050565b600060208201905081810360008301526133d581613399565b905091905056fea264697066735822122083f55ed7a88cdbf2bbac8d4abdb104b57c7de58878f8cf34b5675826e629e53564736f6c634300080d0033",
  "linkReferences": {},
  "deployedLinkReferences": {}
}