{
  "_format": "hh-sol-artifact-1",
  "contractName": "NFTStaker",
  "sourceName": "src/backend/contracts/NFTStaker.sol",
  "abi": [
    {
      "inputs": [
        {
          "internalType": "address",
          "name": "nftAddress",
          "type": "address"
        },
        {
          "internalType": "address",
          "name": "rewardsTokenAddress",
          "type": "address"
        }
      ],
      "stateMutability": "nonpayable",
      "type": "constructor"
    },
    {
      "inputs": [
        {
          "internalType": "address",
          "name": "",
          "type": "address"
        },
        {
          "internalType": "address",
          "name": "",
          "type": "address"
        },
        {
          "internalType": "uint256",
          "name": "",
          "type": "uint256"
        },
        {
          "internalType": "bytes",
          "name": "",
          "type": "bytes"
        }
      ],
      "name": "onERC721Received",
      "outputs": [
        {
          "internalType": "bytes4",
          "name": "",
          "type": "bytes4"
        }
      ],
      "stateMutability": "nonpayable",
      "type": "function"
    },
    {
      "inputs": [],
      "name": "parentNFT",
      "outputs": [
        {
          "internalType": "contract ERC721A",
          "name": "",
          "type": "address"
        }
      ],
      "stateMutability": "view",
      "type": "function"
    },
    {
      "inputs": [],
      "name": "rewardRate",
      "outputs": [
        {
          "internalType": "uint256",
          "name": "",
          "type": "uint256"
        }
      ],
      "stateMutability": "view",
      "type": "function"
    },
    {
      "inputs": [],
      "name": "rewardsToken",
      "outputs": [
        {
          "internalType": "contract Token",
          "name": "",
          "type": "address"
        }
      ],
      "stateMutability": "view",
      "type": "function"
    },
    {
      "inputs": [
        {
          "internalType": "uint256",
          "name": "_tokenId",
          "type": "uint256"
        }
      ],
      "name": "stake",
      "outputs": [],
      "stateMutability": "nonpayable",
      "type": "function"
    },
    {
      "inputs": [
        {
          "internalType": "address",
          "name": "",
          "type": "address"
        },
        {
          "internalType": "uint256",
          "name": "",
          "type": "uint256"
        }
      ],
      "name": "stakes",
      "outputs": [
        {
          "internalType": "uint256",
          "name": "",
          "type": "uint256"
        }
      ],
      "stateMutability": "view",
      "type": "function"
    },
    {
      "inputs": [
        {
          "internalType": "uint256",
          "name": "_tokenId",
          "type": "uint256"
        }
      ],
      "name": "unstake",
      "outputs": [],
      "stateMutability": "nonpayable",
      "type": "function"
    }
  ],
  "bytecode": "0x60806040523480156200001157600080fd5b50604051620013603803806200136083398181016040528101906200003791906200024b565b816000806101000a81548173ffffffffffffffffffffffffffffffffffffffff021916908373ffffffffffffffffffffffffffffffffffffffff16021790555080600160006101000a81548173ffffffffffffffffffffffffffffffffffffffff021916908373ffffffffffffffffffffffffffffffffffffffff160217905550600160009054906101000a900473ffffffffffffffffffffffffffffffffffffffff1673ffffffffffffffffffffffffffffffffffffffff16630a249cff6040518163ffffffff1660e01b8152600401600060405180830381600087803b1580156200012357600080fd5b505af115801562000138573d6000803e3d6000fd5b5050505062015180600160009054906101000a900473ffffffffffffffffffffffffffffffffffffffff1673ffffffffffffffffffffffffffffffffffffffff1663313ce5676040518163ffffffff1660e01b815260040160206040518083038186803b158015620001a957600080fd5b505afa158015620001be573d6000803e3d6000fd5b505050506040513d601f19601f82011682018060405250810190620001e491906200028c565b60ff16600a620001f591906200034b565b600562000203919062000488565b6200020f9190620002b8565b6002819055505050620005d3565b6000815190506200022e816200059f565b92915050565b6000815190506200024581620005b9565b92915050565b600080604083850312156200025f57600080fd5b60006200026f858286016200021d565b925050602062000282858286016200021d565b9150509250929050565b6000602082840312156200029f57600080fd5b6000620002af8482850162000234565b91505092915050565b6000620002c5826200051d565b9150620002d2836200051d565b925082620002e557620002e462000563565b5b828204905092915050565b6000808291508390505b600185111562000342578086048111156200031a576200031962000534565b5b60018516156200032a5780820291505b80810290506200033a8562000592565b9450620002fa565b94509492505050565b600062000358826200051d565b915062000365836200051d565b9250620003947fffffffffffffffffffffffffffffffffffffffffffffffffffffffffffffffff84846200039c565b905092915050565b600082620003ae576001905062000481565b81620003be576000905062000481565b8160018114620003d75760028114620003e25762000418565b600191505062000481565b60ff841115620003f757620003f662000534565b5b8360020a91508482111562000411576200041062000534565b5b5062000481565b5060208310610133831016604e8410600b8410161715620004525782820a9050838111156200044c576200044b62000534565b5b62000481565b620004618484846001620002f0565b925090508184048111156200047b576200047a62000534565b5b81810290505b9392505050565b600062000495826200051d565b9150620004a2836200051d565b9250817fffffffffffffffffffffffffffffffffffffffffffffffffffffffffffffffff0483118215151615620004de57620004dd62000534565b5b828202905092915050565b6000620004f682620004fd565b9050919050565b600073ffffffffffffffffffffffffffffffffffffffff82169050919050565b6000819050919050565b600060ff82169050919050565b7f4e487b7100000000000000000000000000000000000000000000000000000000600052601160045260246000fd5b7f4e487b7100000000000000000000000000000000000000000000000000000000600052601260045260246000fd5b60008160011c9050919050565b620005aa81620004e9565b8114620005b657600080fd5b50565b620005c48162000527565b8114620005d057600080fd5b50565b610d7d80620005e36000396000f3fe608060405234801561001057600080fd5b506004361061007d5760003560e01c80637b0a47ee1161005b5780637b0a47ee146100fe578063a694fc3a1461011c578063b8e33fb214610138578063d1af0c7d146101565761007d565b8063150b7a02146100825780632e17de78146100b2578063584b62a1146100ce575b600080fd5b61009c60048036038101906100979190610797565b610174565b6040516100a991906109c8565b60405180910390f35b6100cc60048036038101906100c79190610877565b610188565b005b6100e860048036038101906100e39190610812565b6104ba565b6040516100f59190610a49565b60405180910390f35b6101066104df565b6040516101139190610a49565b60405180910390f35b61013660048036038101906101319190610877565b6104e5565b005b6101406105cc565b60405161014d91906109e3565b60405180910390f35b61015e6105f0565b60405161016b91906109fe565b60405180910390f35b600063150b7a0260e01b9050949350505050565b60008054906101000a900473ffffffffffffffffffffffffffffffffffffffff1673ffffffffffffffffffffffffffffffffffffffff166342842e0e3033846040518463ffffffff1660e01b81526004016101e593929190610968565b600060405180830381600087803b1580156101ff57600080fd5b505af1158015610213573d6000803e3d6000fd5b505050506000600360003373ffffffffffffffffffffffffffffffffffffffff1673ffffffffffffffffffffffffffffffffffffffff168152602001908152602001600020600083815260200190815260200160002054426102759190610b30565b90506000600254826102879190610ad6565b90506102c86040518060400160405280600781526020017f726577617264200000000000000000000000000000000000000000000000000081525082610616565b6103b16040518060400160405280600881526020017f62616c616e636520000000000000000000000000000000000000000000000000815250600160009054906101000a900473ffffffffffffffffffffffffffffffffffffffff1673ffffffffffffffffffffffffffffffffffffffff166370a08231306040518263ffffffff1660e01b815260040161035c919061094d565b60206040518083038186803b15801561037457600080fd5b505afa158015610388573d6000803e3d6000fd5b505050506040513d601f19601f820116820180604052508101906103ac91906108a0565b610616565b600160009054906101000a900473ffffffffffffffffffffffffffffffffffffffff1673ffffffffffffffffffffffffffffffffffffffff1663a9059cbb33836040518363ffffffff1660e01b815260040161040e92919061099f565b602060405180830381600087803b15801561042857600080fd5b505af115801561043c573d6000803e3d6000fd5b505050506040513d601f19601f82011682018060405250810190610460919061084e565b50600360003373ffffffffffffffffffffffffffffffffffffffff1673ffffffffffffffffffffffffffffffffffffffff168152602001908152602001600020600084815260200190815260200160002060009055505050565b6003602052816000526040600020602052806000526040600020600091509150505481565b60025481565b42600360003373ffffffffffffffffffffffffffffffffffffffff1673ffffffffffffffffffffffffffffffffffffffff16815260200190815260200160002060008381526020019081526020016000208190555060008054906101000a900473ffffffffffffffffffffffffffffffffffffffff1673ffffffffffffffffffffffffffffffffffffffff166342842e0e3330846040518463ffffffff1660e01b815260040161059793929190610968565b600060405180830381600087803b1580156105b157600080fd5b505af11580156105c5573d6000803e3d6000fd5b5050505050565b60008054906101000a900473ffffffffffffffffffffffffffffffffffffffff1681565b600160009054906101000a900473ffffffffffffffffffffffffffffffffffffffff1681565b6106ae828260405160240161062c929190610a19565b6040516020818303038152906040527f9710a9d0000000000000000000000000000000000000000000000000000000007bffffffffffffffffffffffffffffffffffffffffffffffffffffffff19166020820180517bffffffffffffffffffffffffffffffffffffffffffffffffffffffff83818316178352505050506106b2565b5050565b60008151905060006a636f6e736f6c652e6c6f679050602083016000808483855afa5050505050565b60006106ee6106e984610a89565b610a64565b90508281526020810184848401111561070657600080fd5b610711848285610c20565b509392505050565b60008135905061072881610d02565b92915050565b60008151905061073d81610d19565b92915050565b600082601f83011261075457600080fd5b81356107648482602086016106db565b91505092915050565b60008135905061077c81610d30565b92915050565b60008151905061079181610d30565b92915050565b600080600080608085870312156107ad57600080fd5b60006107bb87828801610719565b94505060206107cc87828801610719565b93505060406107dd8782880161076d565b925050606085013567ffffffffffffffff8111156107fa57600080fd5b61080687828801610743565b91505092959194509250565b6000806040838503121561082557600080fd5b600061083385828601610719565b92505060206108448582860161076d565b9150509250929050565b60006020828403121561086057600080fd5b600061086e8482850161072e565b91505092915050565b60006020828403121561088957600080fd5b60006108978482850161076d565b91505092915050565b6000602082840312156108b257600080fd5b60006108c084828501610782565b91505092915050565b6108d281610b64565b82525050565b6108e181610b82565b82525050565b6108f081610bd8565b82525050565b6108ff81610bfc565b82525050565b600061091082610aba565b61091a8185610ac5565b935061092a818560208601610c2f565b61093381610cf1565b840191505092915050565b61094781610bce565b82525050565b600060208201905061096260008301846108c9565b92915050565b600060608201905061097d60008301866108c9565b61098a60208301856108c9565b610997604083018461093e565b949350505050565b60006040820190506109b460008301856108c9565b6109c1602083018461093e565b9392505050565b60006020820190506109dd60008301846108d8565b92915050565b60006020820190506109f860008301846108e7565b92915050565b6000602082019050610a1360008301846108f6565b92915050565b60006040820190508181036000830152610a338185610905565b9050610a42602083018461093e565b9392505050565b6000602082019050610a5e600083018461093e565b92915050565b6000610a6e610a7f565b9050610a7a8282610c62565b919050565b6000604051905090565b600067ffffffffffffffff821115610aa457610aa3610cc2565b5b610aad82610cf1565b9050602081019050919050565b600081519050919050565b600082825260208201905092915050565b6000610ae182610bce565b9150610aec83610bce565b9250817fffffffffffffffffffffffffffffffffffffffffffffffffffffffffffffffff0483118215151615610b2557610b24610c93565b5b828202905092915050565b6000610b3b82610bce565b9150610b4683610bce565b925082821015610b5957610b58610c93565b5b828203905092915050565b6000610b6f82610bae565b9050919050565b60008115159050919050565b60007fffffffff0000000000000000000000000000000000000000000000000000000082169050919050565b600073ffffffffffffffffffffffffffffffffffffffff82169050919050565b6000819050919050565b6000610be382610bea565b9050919050565b6000610bf582610bae565b9050919050565b6000610c0782610c0e565b9050919050565b6000610c1982610bae565b9050919050565b82818337600083830152505050565b60005b83811015610c4d578082015181840152602081019050610c32565b83811115610c5c576000848401525b50505050565b610c6b82610cf1565b810181811067ffffffffffffffff82111715610c8a57610c89610cc2565b5b80604052505050565b7f4e487b7100000000000000000000000000000000000000000000000000000000600052601160045260246000fd5b7f4e487b7100000000000000000000000000000000000000000000000000000000600052604160045260246000fd5b6000601f19601f8301169050919050565b610d0b81610b64565b8114610d1657600080fd5b50565b610d2281610b76565b8114610d2d57600080fd5b50565b610d3981610bce565b8114610d4457600080fd5b5056fea26469706673582212209a67e866260faf0f6a17a360ae57c388f3ae3f333a5756bc58f098688e4102d364736f6c63430008040033",
  "linkReferences": {},
  "deployedLinkReferences": {}
}