{
  "_format": "hh-sol-artifact-1",
  "contractName": "NFTStaker",
  "sourceName": "src/backend/contracts/NFTStaker.sol",
  "abi": [
    {
      "inputs": [
        {
          "internalType": "address",
          "name": "nftAddress",
          "type": "address"
        },
        {
          "internalType": "address",
          "name": "rewardsTokenAddress",
          "type": "address"
        }
      ],
      "stateMutability": "nonpayable",
      "type": "constructor"
    },
    {
      "inputs": [
        {
          "internalType": "address",
          "name": "_user",
          "type": "address"
        }
      ],
      "name": "getStakedTokens",
      "outputs": [
        {
          "internalType": "uint256[]",
          "name": "tokenIds",
          "type": "uint256[]"
        }
      ],
      "stateMutability": "view",
      "type": "function"
    },
    {
      "inputs": [
        {
          "internalType": "uint256",
          "name": "_tokenId",
          "type": "uint256"
        }
      ],
      "name": "isTokenStaked",
      "outputs": [
        {
          "internalType": "bool",
          "name": "",
          "type": "bool"
        }
      ],
      "stateMutability": "view",
      "type": "function"
    },
    {
      "inputs": [
        {
          "internalType": "address",
          "name": "",
          "type": "address"
        },
        {
          "internalType": "address",
          "name": "",
          "type": "address"
        },
        {
          "internalType": "uint256",
          "name": "",
          "type": "uint256"
        },
        {
          "internalType": "bytes",
          "name": "",
          "type": "bytes"
        }
      ],
      "name": "onERC721Received",
      "outputs": [
        {
          "internalType": "bytes4",
          "name": "",
          "type": "bytes4"
        }
      ],
      "stateMutability": "nonpayable",
      "type": "function"
    },
    {
      "inputs": [],
      "name": "parentNFT",
      "outputs": [
        {
          "internalType": "contract ERC721A",
          "name": "",
          "type": "address"
        }
      ],
      "stateMutability": "view",
      "type": "function"
    },
    {
      "inputs": [],
      "name": "rewardRate",
      "outputs": [
        {
          "internalType": "uint256",
          "name": "",
          "type": "uint256"
        }
      ],
      "stateMutability": "view",
      "type": "function"
    },
    {
      "inputs": [],
      "name": "rewardsToken",
      "outputs": [
        {
          "internalType": "contract Token",
          "name": "",
          "type": "address"
        }
      ],
      "stateMutability": "view",
      "type": "function"
    },
    {
      "inputs": [
        {
          "internalType": "uint256",
          "name": "_tokenId",
          "type": "uint256"
        }
      ],
      "name": "stake",
      "outputs": [],
      "stateMutability": "nonpayable",
      "type": "function"
    },
    {
      "inputs": [
        {
          "internalType": "uint256",
          "name": "_tokenId",
          "type": "uint256"
        }
      ],
      "name": "unstake",
      "outputs": [],
      "stateMutability": "nonpayable",
      "type": "function"
    }
  ],
  "bytecode": "0x60806040523480156200001157600080fd5b5060405162001b2d38038062001b2d833981810160405281019062000037919062000254565b600160008190555081600160006101000a81548173ffffffffffffffffffffffffffffffffffffffff021916908373ffffffffffffffffffffffffffffffffffffffff16021790555080600260006101000a81548173ffffffffffffffffffffffffffffffffffffffff021916908373ffffffffffffffffffffffffffffffffffffffff160217905550600260009054906101000a900473ffffffffffffffffffffffffffffffffffffffff1673ffffffffffffffffffffffffffffffffffffffff16630a249cff6040518163ffffffff1660e01b8152600401600060405180830381600087803b1580156200012c57600080fd5b505af115801562000141573d6000803e3d6000fd5b5050505062015180600260009054906101000a900473ffffffffffffffffffffffffffffffffffffffff1673ffffffffffffffffffffffffffffffffffffffff1663313ce5676040518163ffffffff1660e01b815260040160206040518083038186803b158015620001b257600080fd5b505afa158015620001c7573d6000803e3d6000fd5b505050506040513d601f19601f82011682018060405250810190620001ed919062000295565b60ff16600a620001fe919062000354565b60056200020c919062000491565b620002189190620002c1565b6003819055505050620005dc565b6000815190506200023781620005a8565b92915050565b6000815190506200024e81620005c2565b92915050565b600080604083850312156200026857600080fd5b6000620002788582860162000226565b92505060206200028b8582860162000226565b9150509250929050565b600060208284031215620002a857600080fd5b6000620002b8848285016200023d565b91505092915050565b6000620002ce8262000526565b9150620002db8362000526565b925082620002ee57620002ed6200056c565b5b828204905092915050565b6000808291508390505b60018511156200034b578086048111156200032357620003226200053d565b5b6001851615620003335780820291505b808102905062000343856200059b565b945062000303565b94509492505050565b6000620003618262000526565b91506200036e8362000526565b92506200039d7fffffffffffffffffffffffffffffffffffffffffffffffffffffffffffffffff8484620003a5565b905092915050565b600082620003b757600190506200048a565b81620003c757600090506200048a565b8160018114620003e05760028114620003eb5762000421565b60019150506200048a565b60ff8411156200040057620003ff6200053d565b5b8360020a9150848211156200041a57620004196200053d565b5b506200048a565b5060208310610133831016604e8410600b84101617156200045b5782820a9050838111156200045557620004546200053d565b5b6200048a565b6200046a8484846001620002f9565b925090508184048111156200048457620004836200053d565b5b81810290505b9392505050565b60006200049e8262000526565b9150620004ab8362000526565b9250817fffffffffffffffffffffffffffffffffffffffffffffffffffffffffffffffff0483118215151615620004e757620004e66200053d565b5b828202905092915050565b6000620004ff8262000506565b9050919050565b600073ffffffffffffffffffffffffffffffffffffffff82169050919050565b6000819050919050565b600060ff82169050919050565b7f4e487b7100000000000000000000000000000000000000000000000000000000600052601160045260246000fd5b7f4e487b7100000000000000000000000000000000000000000000000000000000600052601260045260246000fd5b60008160011c9050919050565b620005b381620004f2565b8114620005bf57600080fd5b50565b620005cd8162000530565b8114620005d957600080fd5b50565b61154180620005ec6000396000f3fe608060405234801561001057600080fd5b50600436106100885760003560e01c8063a694fc3a1161005b578063a694fc3a14610127578063b8e33fb214610143578063d1af0c7d14610161578063f0a524241461017f57610088565b8063150b7a021461008d5780632e17de78146100bd57806363c28db1146100d95780637b0a47ee14610109575b600080fd5b6100a760048036038101906100a29190610ec3565b6101af565b6040516100b4919061112f565b60405180910390f35b6100d760048036038101906100d29190610f67565b6101c3565b005b6100f360048036038101906100ee9190610e9a565b610a95565b60405161010091906110f2565b60405180910390f35b610111610b2f565b60405161011e91906111a0565b60405180910390f35b610141600480360381019061013c9190610f67565b610b35565b005b61014b610c9b565b604051610158919061114a565b60405180910390f35b610169610cc1565b6040516101769190611165565b60405180910390f35b61019960048036038101906101949190610f67565b610ce7565b6040516101a69190611114565b60405180910390f35b600063150b7a0260e01b9050949350505050565b60026000541415610209576040517f08c379a000000000000000000000000000000000000000000000000000000000815260040161020090611180565b60405180910390fd5b6002600081905550600160009054906101000a900473ffffffffffffffffffffffffffffffffffffffff1673ffffffffffffffffffffffffffffffffffffffff166342842e0e3033846040518463ffffffff1660e01b815260040161027093929190611092565b600060405180830381600087803b15801561028a57600080fd5b505af115801561029e573d6000803e3d6000fd5b50505050600080600460003373ffffffffffffffffffffffffffffffffffffffff1673ffffffffffffffffffffffffffffffffffffffff16815260200190815260200160002060000180549050905060005b8181101561039f5783600460003373ffffffffffffffffffffffffffffffffffffffff1673ffffffffffffffffffffffffffffffffffffffff1681526020019081526020016000206000018281548110610373577f4e487b7100000000000000000000000000000000000000000000000000000000600052603260045260246000fd5b9060005260206000200154141561038c5780925061039f565b8080610397906113e5565b9150506102f0565b506000600460003373ffffffffffffffffffffffffffffffffffffffff1673ffffffffffffffffffffffffffffffffffffffff168152602001908152602001600020600101838154811061041c577f4e487b7100000000000000000000000000000000000000000000000000000000600052603260045260246000fd5b90600052602060002001544261043291906112b5565b9050600060035482610444919061125b565b9050600260009054906101000a900473ffffffffffffffffffffffffffffffffffffffff1673ffffffffffffffffffffffffffffffffffffffff1663a9059cbb33836040518363ffffffff1660e01b81526004016104a39291906110c9565b602060405180830381600087803b1580156104bd57600080fd5b505af11580156104d1573d6000803e3d6000fd5b505050506040513d601f19601f820116820180604052508101906104f59190610f3e565b50600460003373ffffffffffffffffffffffffffffffffffffffff1673ffffffffffffffffffffffffffffffffffffffff16815260200190815260200160002060010160018461054591906112b5565b8154811061057c577f4e487b7100000000000000000000000000000000000000000000000000000000600052603260045260246000fd5b9060005260206000200154600460003373ffffffffffffffffffffffffffffffffffffffff1673ffffffffffffffffffffffffffffffffffffffff1681526020019081526020016000206001018581548110610601577f4e487b7100000000000000000000000000000000000000000000000000000000600052603260045260246000fd5b9060005260206000200154600460003373ffffffffffffffffffffffffffffffffffffffff1673ffffffffffffffffffffffffffffffffffffffff1681526020019081526020016000206001018681548110610686577f4e487b7100000000000000000000000000000000000000000000000000000000600052603260045260246000fd5b906000526020600020016000600460003373ffffffffffffffffffffffffffffffffffffffff1673ffffffffffffffffffffffffffffffffffffffff1681526020019081526020016000206001016001886106e191906112b5565b81548110610718577f4e487b7100000000000000000000000000000000000000000000000000000000600052603260045260246000fd5b906000526020600020016000849190505583919050555050600460003373ffffffffffffffffffffffffffffffffffffffff1673ffffffffffffffffffffffffffffffffffffffff1681526020019081526020016000206001018054806107a8577f4e487b7100000000000000000000000000000000000000000000000000000000600052603160045260246000fd5b60019003818190600052602060002001600090559055600460003373ffffffffffffffffffffffffffffffffffffffff1673ffffffffffffffffffffffffffffffffffffffff16815260200190815260200160002060000160018461080d91906112b5565b81548110610844577f4e487b7100000000000000000000000000000000000000000000000000000000600052603260045260246000fd5b9060005260206000200154600460003373ffffffffffffffffffffffffffffffffffffffff1673ffffffffffffffffffffffffffffffffffffffff16815260200190815260200160002060000185815481106108c9577f4e487b7100000000000000000000000000000000000000000000000000000000600052603260045260246000fd5b9060005260206000200154600460003373ffffffffffffffffffffffffffffffffffffffff1673ffffffffffffffffffffffffffffffffffffffff168152602001908152602001600020600001868154811061094e577f4e487b7100000000000000000000000000000000000000000000000000000000600052603260045260246000fd5b906000526020600020016000600460003373ffffffffffffffffffffffffffffffffffffffff1673ffffffffffffffffffffffffffffffffffffffff1681526020019081526020016000206000016001886109a991906112b5565b815481106109e0577f4e487b7100000000000000000000000000000000000000000000000000000000600052603260045260246000fd5b906000526020600020016000849190505583919050555050600460003373ffffffffffffffffffffffffffffffffffffffff1673ffffffffffffffffffffffffffffffffffffffff168152602001908152602001600020600001805480610a70577f4e487b7100000000000000000000000000000000000000000000000000000000600052603160045260246000fd5b6001900381819060005260206000200160009055905550505050600160008190555050565b6060600460008373ffffffffffffffffffffffffffffffffffffffff1673ffffffffffffffffffffffffffffffffffffffff168152602001908152602001600020600001805480602002602001604051908101604052809291908181526020018280548015610b2357602002820191906000526020600020905b815481526020019060010190808311610b0f575b50505050509050919050565b60035481565b600460003373ffffffffffffffffffffffffffffffffffffffff1673ffffffffffffffffffffffffffffffffffffffff168152602001908152602001600020600001819080600181540180825580915050600190039060005260206000200160009091909190915055600460003373ffffffffffffffffffffffffffffffffffffffff1673ffffffffffffffffffffffffffffffffffffffff168152602001908152602001600020600101429080600181540180825580915050600190039060005260206000200160009091909190915055600160009054906101000a900473ffffffffffffffffffffffffffffffffffffffff1673ffffffffffffffffffffffffffffffffffffffff166342842e0e3330846040518463ffffffff1660e01b8152600401610c6693929190611092565b600060405180830381600087803b158015610c8057600080fd5b505af1158015610c94573d6000803e3d6000fd5b5050505050565b600160009054906101000a900473ffffffffffffffffffffffffffffffffffffffff1681565b600260009054906101000a900473ffffffffffffffffffffffffffffffffffffffff1681565b600080600460003373ffffffffffffffffffffffffffffffffffffffff1673ffffffffffffffffffffffffffffffffffffffff16815260200190815260200160002060000180549050905060005b81811015610de75783600460003373ffffffffffffffffffffffffffffffffffffffff1673ffffffffffffffffffffffffffffffffffffffff1681526020019081526020016000206000018281548110610db8577f4e487b7100000000000000000000000000000000000000000000000000000000600052603260045260246000fd5b90600052602060002001541415610dd457600192505050610dee565b8080610ddf906113e5565b915050610d35565b5060009150505b919050565b6000610e06610e01846111e0565b6111bb565b905082815260208101848484011115610e1e57600080fd5b610e298482856113a5565b509392505050565b600081359050610e40816114c6565b92915050565b600081519050610e55816114dd565b92915050565b600082601f830112610e6c57600080fd5b8135610e7c848260208601610df3565b91505092915050565b600081359050610e94816114f4565b92915050565b600060208284031215610eac57600080fd5b6000610eba84828501610e31565b91505092915050565b60008060008060808587031215610ed957600080fd5b6000610ee787828801610e31565b9450506020610ef887828801610e31565b9350506040610f0987828801610e85565b925050606085013567ffffffffffffffff811115610f2657600080fd5b610f3287828801610e5b565b91505092959194509250565b600060208284031215610f5057600080fd5b6000610f5e84828501610e46565b91505092915050565b600060208284031215610f7957600080fd5b6000610f8784828501610e85565b91505092915050565b6000610f9c8383611074565b60208301905092915050565b610fb1816112e9565b82525050565b6000610fc282611221565b610fcc8185611239565b9350610fd783611211565b8060005b83811015611008578151610fef8882610f90565b9750610ffa8361122c565b925050600181019050610fdb565b5085935050505092915050565b61101e816112fb565b82525050565b61102d81611307565b82525050565b61103c8161135d565b82525050565b61104b81611381565b82525050565b600061105e601f8361124a565b91506110698261149d565b602082019050919050565b61107d81611353565b82525050565b61108c81611353565b82525050565b60006060820190506110a76000830186610fa8565b6110b46020830185610fa8565b6110c16040830184611083565b949350505050565b60006040820190506110de6000830185610fa8565b6110eb6020830184611083565b9392505050565b6000602082019050818103600083015261110c8184610fb7565b905092915050565b60006020820190506111296000830184611015565b92915050565b60006020820190506111446000830184611024565b92915050565b600060208201905061115f6000830184611033565b92915050565b600060208201905061117a6000830184611042565b92915050565b6000602082019050818103600083015261119981611051565b9050919050565b60006020820190506111b56000830184611083565b92915050565b60006111c56111d6565b90506111d182826113b4565b919050565b6000604051905090565b600067ffffffffffffffff8211156111fb576111fa61145d565b5b6112048261148c565b9050602081019050919050565b6000819050602082019050919050565b600081519050919050565b6000602082019050919050565b600082825260208201905092915050565b600082825260208201905092915050565b600061126682611353565b915061127183611353565b9250817fffffffffffffffffffffffffffffffffffffffffffffffffffffffffffffffff04831182151516156112aa576112a961142e565b5b828202905092915050565b60006112c082611353565b91506112cb83611353565b9250828210156112de576112dd61142e565b5b828203905092915050565b60006112f482611333565b9050919050565b60008115159050919050565b60007fffffffff0000000000000000000000000000000000000000000000000000000082169050919050565b600073ffffffffffffffffffffffffffffffffffffffff82169050919050565b6000819050919050565b60006113688261136f565b9050919050565b600061137a82611333565b9050919050565b600061138c82611393565b9050919050565b600061139e82611333565b9050919050565b82818337600083830152505050565b6113bd8261148c565b810181811067ffffffffffffffff821117156113dc576113db61145d565b5b80604052505050565b60006113f082611353565b91507fffffffffffffffffffffffffffffffffffffffffffffffffffffffffffffffff8214156114235761142261142e565b5b600182019050919050565b7f4e487b7100000000000000000000000000000000000000000000000000000000600052601160045260246000fd5b7f4e487b7100000000000000000000000000000000000000000000000000000000600052604160045260246000fd5b6000601f19601f8301169050919050565b7f5265656e7472616e637947756172643a207265656e7472616e742063616c6c00600082015250565b6114cf816112e9565b81146114da57600080fd5b50565b6114e6816112fb565b81146114f157600080fd5b50565b6114fd81611353565b811461150857600080fd5b5056fea264697066735822122025c4e47b03b1fa32bb84e3149933d0e550f36d8741743ca51d0f22a265642aa464736f6c63430008040033",
  "linkReferences": {},
  "deployedLinkReferences": {}
}