{
  "_format": "hh-sol-artifact-1",
  "contractName": "Token",
  "sourceName": "src/backend/contracts/Token.sol",
  "abi": [
    {
      "inputs": [],
      "stateMutability": "nonpayable",
      "type": "constructor"
    },
    {
      "anonymous": false,
      "inputs": [
        {
          "indexed": true,
          "internalType": "address",
          "name": "owner",
          "type": "address"
        },
        {
          "indexed": true,
          "internalType": "address",
          "name": "spender",
          "type": "address"
        },
        {
          "indexed": false,
          "internalType": "uint256",
          "name": "value",
          "type": "uint256"
        }
      ],
      "name": "Approval",
      "type": "event"
    },
    {
      "anonymous": false,
      "inputs": [
        {
          "indexed": true,
          "internalType": "address",
          "name": "from",
          "type": "address"
        },
        {
          "indexed": true,
          "internalType": "address",
          "name": "to",
          "type": "address"
        },
        {
          "indexed": false,
          "internalType": "uint256",
          "name": "value",
          "type": "uint256"
        }
      ],
      "name": "Transfer",
      "type": "event"
    },
    {
      "inputs": [
        {
          "internalType": "address",
          "name": "owner",
          "type": "address"
        },
        {
          "internalType": "address",
          "name": "spender",
          "type": "address"
        }
      ],
      "name": "allowance",
      "outputs": [
        {
          "internalType": "uint256",
          "name": "",
          "type": "uint256"
        }
      ],
      "stateMutability": "view",
      "type": "function"
    },
    {
      "inputs": [
        {
          "internalType": "address",
          "name": "spender",
          "type": "address"
        },
        {
          "internalType": "uint256",
          "name": "amount",
          "type": "uint256"
        }
      ],
      "name": "approve",
      "outputs": [
        {
          "internalType": "bool",
          "name": "",
          "type": "bool"
        }
      ],
      "stateMutability": "nonpayable",
      "type": "function"
    },
    {
      "inputs": [
        {
          "internalType": "address",
          "name": "account",
          "type": "address"
        }
      ],
      "name": "balanceOf",
      "outputs": [
        {
          "internalType": "uint256",
          "name": "",
          "type": "uint256"
        }
      ],
      "stateMutability": "view",
      "type": "function"
    },
    {
      "inputs": [],
      "name": "claimInitialSupply",
      "outputs": [],
      "stateMutability": "nonpayable",
      "type": "function"
    },
    {
      "inputs": [],
      "name": "decimals",
      "outputs": [
        {
          "internalType": "uint8",
          "name": "",
          "type": "uint8"
        }
      ],
      "stateMutability": "view",
      "type": "function"
    },
    {
      "inputs": [
        {
          "internalType": "address",
          "name": "spender",
          "type": "address"
        },
        {
          "internalType": "uint256",
          "name": "subtractedValue",
          "type": "uint256"
        }
      ],
      "name": "decreaseAllowance",
      "outputs": [
        {
          "internalType": "bool",
          "name": "",
          "type": "bool"
        }
      ],
      "stateMutability": "nonpayable",
      "type": "function"
    },
    {
      "inputs": [
        {
          "internalType": "address",
          "name": "spender",
          "type": "address"
        },
        {
          "internalType": "uint256",
          "name": "addedValue",
          "type": "uint256"
        }
      ],
      "name": "increaseAllowance",
      "outputs": [
        {
          "internalType": "bool",
          "name": "",
          "type": "bool"
        }
      ],
      "stateMutability": "nonpayable",
      "type": "function"
    },
    {
      "inputs": [],
      "name": "initialSupplyClaimed",
      "outputs": [
        {
          "internalType": "bool",
          "name": "",
          "type": "bool"
        }
      ],
      "stateMutability": "view",
      "type": "function"
    },
    {
      "inputs": [],
      "name": "name",
      "outputs": [
        {
          "internalType": "string",
          "name": "",
          "type": "string"
        }
      ],
      "stateMutability": "view",
      "type": "function"
    },
    {
      "inputs": [],
      "name": "symbol",
      "outputs": [
        {
          "internalType": "string",
          "name": "",
          "type": "string"
        }
      ],
      "stateMutability": "view",
      "type": "function"
    },
    {
      "inputs": [],
      "name": "totalSupply",
      "outputs": [
        {
          "internalType": "uint256",
          "name": "",
          "type": "uint256"
        }
      ],
      "stateMutability": "view",
      "type": "function"
    },
    {
      "inputs": [
        {
          "internalType": "address",
          "name": "to",
          "type": "address"
        },
        {
          "internalType": "uint256",
          "name": "amount",
          "type": "uint256"
        }
      ],
      "name": "transfer",
      "outputs": [
        {
          "internalType": "bool",
          "name": "",
          "type": "bool"
        }
      ],
      "stateMutability": "nonpayable",
      "type": "function"
    },
    {
      "inputs": [
        {
          "internalType": "address",
          "name": "from",
          "type": "address"
        },
        {
          "internalType": "address",
          "name": "to",
          "type": "address"
        },
        {
          "internalType": "uint256",
          "name": "amount",
          "type": "uint256"
        }
      ],
      "name": "transferFrom",
      "outputs": [
        {
          "internalType": "bool",
          "name": "",
          "type": "bool"
        }
      ],
      "stateMutability": "nonpayable",
      "type": "function"
    }
  ],
  "bytecode": "0x60806040526000600560006101000a81548160ff0219169083151502179055503480156200002c57600080fd5b506040518060400160405280600f81526020017f47656c61746f546f6b656e4e616d6500000000000000000000000000000000008152506040518060400160405280601181526020017f47656c61746f546f6b656e53796d626f6c0000000000000000000000000000008152508160039080519060200190620000b1929190620000d3565b508060049080519060200190620000ca929190620000d3565b505050620001e8565b828054620000e19062000183565b90600052602060002090601f01602090048101928262000105576000855562000151565b82601f106200012057805160ff191683800117855562000151565b8280016001018555821562000151579182015b828111156200015057825182559160200191906001019062000133565b5b50905062000160919062000164565b5090565b5b808211156200017f57600081600090555060010162000165565b5090565b600060028204905060018216806200019c57607f821691505b60208210811415620001b357620001b2620001b9565b5b50919050565b7f4e487b7100000000000000000000000000000000000000000000000000000000600052602260045260246000fd5b6117a980620001f86000396000f3fe608060405234801561001057600080fd5b50600436106100ce5760003560e01c8063313ce5671161008c57806395d89b411161006657806395d89b4114610215578063a457c2d714610233578063a9059cbb14610263578063dd62ed3e14610293576100ce565b8063313ce5671461019757806339509351146101b557806370a08231146101e5576100ce565b80620f582b146100d357806306fdde03146100f1578063095ea7b31461010f5780630a249cff1461013f57806318160ddd1461014957806323b872dd14610167575b600080fd5b6100db6102c3565b6040516100e89190611033565b60405180910390f35b6100f96102d6565b604051610106919061104e565b60405180910390f35b61012960048036038101906101249190610e79565b610368565b6040516101369190611033565b60405180910390f35b61014761038b565b005b6101516103f7565b60405161015e9190611170565b60405180910390f35b610181600480360381019061017c9190610e2a565b610401565b60405161018e9190611033565b60405180910390f35b61019f610430565b6040516101ac919061118b565b60405180910390f35b6101cf60048036038101906101ca9190610e79565b610439565b6040516101dc9190611033565b60405180910390f35b6101ff60048036038101906101fa9190610dc5565b6104e3565b60405161020c9190611170565b60405180910390f35b61021d61052b565b60405161022a919061104e565b60405180910390f35b61024d60048036038101906102489190610e79565b6105bd565b60405161025a9190611033565b60405180910390f35b61027d60048036038101906102789190610e79565b6106a7565b60405161028a9190611033565b60405180910390f35b6102ad60048036038101906102a89190610dee565b6106ca565b6040516102ba9190611170565b60405180910390f35b600560009054906101000a900460ff1681565b6060600380546102e59061146b565b80601f01602080910402602001604051908101604052809291908181526020018280546103119061146b565b801561035e5780601f106103335761010080835404028352916020019161035e565b820191906000526020600020905b81548152906001019060200180831161034157829003601f168201915b5050505050905090565b600080610373610751565b9050610380818585610759565b600191505092915050565b60001515600560009054906101000a900460ff161515146103ab57600080fd5b6001600560006101000a81548160ff0219169083151502179055506103f5336103d2610430565b60ff16600a6103e1919061126b565b630d3b73806103f09190611389565b610924565b565b6000600254905090565b60008061040c610751565b9050610419858285610a84565b610424858585610b10565b60019150509392505050565b60006012905090565b600080610444610751565b90506104d8818585600160008673ffffffffffffffffffffffffffffffffffffffff1673ffffffffffffffffffffffffffffffffffffffff16815260200190815260200160002060008973ffffffffffffffffffffffffffffffffffffffff1673ffffffffffffffffffffffffffffffffffffffff168152602001908152602001600020546104d391906111c2565b610759565b600191505092915050565b60008060008373ffffffffffffffffffffffffffffffffffffffff1673ffffffffffffffffffffffffffffffffffffffff168152602001908152602001600020549050919050565b60606004805461053a9061146b565b80601f01602080910402602001604051908101604052809291908181526020018280546105669061146b565b80156105b35780601f10610588576101008083540402835291602001916105b3565b820191906000526020600020905b81548152906001019060200180831161059657829003601f168201915b5050505050905090565b6000806105c8610751565b90506000600160008373ffffffffffffffffffffffffffffffffffffffff1673ffffffffffffffffffffffffffffffffffffffff16815260200190815260200160002060008673ffffffffffffffffffffffffffffffffffffffff1673ffffffffffffffffffffffffffffffffffffffff1681526020019081526020016000205490508381101561068e576040517f08c379a000000000000000000000000000000000000000000000000000000000815260040161068590611130565b60405180910390fd5b61069b8286868403610759565b60019250505092915050565b6000806106b2610751565b90506106bf818585610b10565b600191505092915050565b6000600160008473ffffffffffffffffffffffffffffffffffffffff1673ffffffffffffffffffffffffffffffffffffffff16815260200190815260200160002060008373ffffffffffffffffffffffffffffffffffffffff1673ffffffffffffffffffffffffffffffffffffffff16815260200190815260200160002054905092915050565b600033905090565b600073ffffffffffffffffffffffffffffffffffffffff168373ffffffffffffffffffffffffffffffffffffffff1614156107c9576040517f08c379a00000000000000000000000000000000000000000000000000000000081526004016107c090611110565b60405180910390fd5b600073ffffffffffffffffffffffffffffffffffffffff168273ffffffffffffffffffffffffffffffffffffffff161415610839576040517f08c379a000000000000000000000000000000000000000000000000000000000815260040161083090611090565b60405180910390fd5b80600160008573ffffffffffffffffffffffffffffffffffffffff1673ffffffffffffffffffffffffffffffffffffffff16815260200190815260200160002060008473ffffffffffffffffffffffffffffffffffffffff1673ffffffffffffffffffffffffffffffffffffffff168152602001908152602001600020819055508173ffffffffffffffffffffffffffffffffffffffff168373ffffffffffffffffffffffffffffffffffffffff167f8c5be1e5ebec7d5bd14f71427d1e84f3dd0314c0f7b2291e5b200ac8c7c3b925836040516109179190611170565b60405180910390a3505050565b600073ffffffffffffffffffffffffffffffffffffffff168273ffffffffffffffffffffffffffffffffffffffff161415610994576040517f08c379a000000000000000000000000000000000000000000000000000000000815260040161098b90611150565b60405180910390fd5b6109a060008383610d91565b80600260008282546109b291906111c2565b92505081905550806000808473ffffffffffffffffffffffffffffffffffffffff1673ffffffffffffffffffffffffffffffffffffffff1681526020019081526020016000206000828254610a0791906111c2565b925050819055508173ffffffffffffffffffffffffffffffffffffffff16600073ffffffffffffffffffffffffffffffffffffffff167fddf252ad1be2c89b69c2b068fc378daa952ba7f163c4a11628f55a4df523b3ef83604051610a6c9190611170565b60405180910390a3610a8060008383610d96565b5050565b6000610a9084846106ca565b90507fffffffffffffffffffffffffffffffffffffffffffffffffffffffffffffffff8114610b0a5781811015610afc576040517f08c379a0000000000000000000000000000000000000000000000000000000008152600401610af3906110b0565b60405180910390fd5b610b098484848403610759565b5b50505050565b600073ffffffffffffffffffffffffffffffffffffffff168373ffffffffffffffffffffffffffffffffffffffff161415610b80576040517f08c379a0000000000000000000000000000000000000000000000000000000008152600401610b77906110f0565b60405180910390fd5b600073ffffffffffffffffffffffffffffffffffffffff168273ffffffffffffffffffffffffffffffffffffffff161415610bf0576040517f08c379a0000000000000000000000000000000000000000000000000000000008152600401610be790611070565b60405180910390fd5b610bfb838383610d91565b60008060008573ffffffffffffffffffffffffffffffffffffffff1673ffffffffffffffffffffffffffffffffffffffff16815260200190815260200160002054905081811015610c81576040517f08c379a0000000000000000000000000000000000000000000000000000000008152600401610c78906110d0565b60405180910390fd5b8181036000808673ffffffffffffffffffffffffffffffffffffffff1673ffffffffffffffffffffffffffffffffffffffff16815260200190815260200160002081905550816000808573ffffffffffffffffffffffffffffffffffffffff1673ffffffffffffffffffffffffffffffffffffffff1681526020019081526020016000206000828254610d1491906111c2565b925050819055508273ffffffffffffffffffffffffffffffffffffffff168473ffffffffffffffffffffffffffffffffffffffff167fddf252ad1be2c89b69c2b068fc378daa952ba7f163c4a11628f55a4df523b3ef84604051610d789190611170565b60405180910390a3610d8b848484610d96565b50505050565b505050565b505050565b600081359050610daa81611745565b92915050565b600081359050610dbf8161175c565b92915050565b600060208284031215610dd757600080fd5b6000610de584828501610d9b565b91505092915050565b60008060408385031215610e0157600080fd5b6000610e0f85828601610d9b565b9250506020610e2085828601610d9b565b9150509250929050565b600080600060608486031215610e3f57600080fd5b6000610e4d86828701610d9b565b9350506020610e5e86828701610d9b565b9250506040610e6f86828701610db0565b9150509250925092565b60008060408385031215610e8c57600080fd5b6000610e9a85828601610d9b565b9250506020610eab85828601610db0565b9150509250929050565b610ebe816113f5565b82525050565b6000610ecf826111a6565b610ed981856111b1565b9350610ee9818560208601611438565b610ef2816114fb565b840191505092915050565b6000610f0a6023836111b1565b9150610f1582611519565b604082019050919050565b6000610f2d6022836111b1565b9150610f3882611568565b604082019050919050565b6000610f50601d836111b1565b9150610f5b826115b7565b602082019050919050565b6000610f736026836111b1565b9150610f7e826115e0565b604082019050919050565b6000610f966025836111b1565b9150610fa18261162f565b604082019050919050565b6000610fb96024836111b1565b9150610fc48261167e565b604082019050919050565b6000610fdc6025836111b1565b9150610fe7826116cd565b604082019050919050565b6000610fff601f836111b1565b915061100a8261171c565b602082019050919050565b61101e81611421565b82525050565b61102d8161142b565b82525050565b60006020820190506110486000830184610eb5565b92915050565b600060208201905081810360008301526110688184610ec4565b905092915050565b6000602082019050818103600083015261108981610efd565b9050919050565b600060208201905081810360008301526110a981610f20565b9050919050565b600060208201905081810360008301526110c981610f43565b9050919050565b600060208201905081810360008301526110e981610f66565b9050919050565b6000602082019050818103600083015261110981610f89565b9050919050565b6000602082019050818103600083015261112981610fac565b9050919050565b6000602082019050818103600083015261114981610fcf565b9050919050565b6000602082019050818103600083015261116981610ff2565b9050919050565b60006020820190506111856000830184611015565b92915050565b60006020820190506111a06000830184611024565b92915050565b600081519050919050565b600082825260208201905092915050565b60006111cd82611421565b91506111d883611421565b9250827fffffffffffffffffffffffffffffffffffffffffffffffffffffffffffffffff0382111561120d5761120c61149d565b5b828201905092915050565b6000808291508390505b60018511156112625780860481111561123e5761123d61149d565b5b600185161561124d5780820291505b808102905061125b8561150c565b9450611222565b94509492505050565b600061127682611421565b915061128183611421565b92506112ae7fffffffffffffffffffffffffffffffffffffffffffffffffffffffffffffffff84846112b6565b905092915050565b6000826112c65760019050611382565b816112d45760009050611382565b81600181146112ea57600281146112f457611323565b6001915050611382565b60ff8411156113065761130561149d565b5b8360020a91508482111561131d5761131c61149d565b5b50611382565b5060208310610133831016604e8410600b84101617156113585782820a9050838111156113535761135261149d565b5b611382565b6113658484846001611218565b9250905081840481111561137c5761137b61149d565b5b81810290505b9392505050565b600061139482611421565b915061139f83611421565b9250817fffffffffffffffffffffffffffffffffffffffffffffffffffffffffffffffff04831182151516156113d8576113d761149d565b5b828202905092915050565b60006113ee82611401565b9050919050565b60008115159050919050565b600073ffffffffffffffffffffffffffffffffffffffff82169050919050565b6000819050919050565b600060ff82169050919050565b60005b8381101561145657808201518184015260208101905061143b565b83811115611465576000848401525b50505050565b6000600282049050600182168061148357607f821691505b60208210811415611497576114966114cc565b5b50919050565b7f4e487b7100000000000000000000000000000000000000000000000000000000600052601160045260246000fd5b7f4e487b7100000000000000000000000000000000000000000000000000000000600052602260045260246000fd5b6000601f19601f8301169050919050565b60008160011c9050919050565b7f45524332303a207472616e7366657220746f20746865207a65726f206164647260008201527f6573730000000000000000000000000000000000000000000000000000000000602082015250565b7f45524332303a20617070726f766520746f20746865207a65726f20616464726560008201527f7373000000000000000000000000000000000000000000000000000000000000602082015250565b7f45524332303a20696e73756666696369656e7420616c6c6f77616e6365000000600082015250565b7f45524332303a207472616e7366657220616d6f756e742065786365656473206260008201527f616c616e63650000000000000000000000000000000000000000000000000000602082015250565b7f45524332303a207472616e736665722066726f6d20746865207a65726f20616460008201527f6472657373000000000000000000000000000000000000000000000000000000602082015250565b7f45524332303a20617070726f76652066726f6d20746865207a65726f2061646460008201527f7265737300000000000000000000000000000000000000000000000000000000602082015250565b7f45524332303a2064656372656173656420616c6c6f77616e63652062656c6f7760008201527f207a65726f000000000000000000000000000000000000000000000000000000602082015250565b7f45524332303a206d696e7420746f20746865207a65726f206164647265737300600082015250565b61174e816113e3565b811461175957600080fd5b50565b61176581611421565b811461177057600080fd5b5056fea26469706673582212201cb645221278e3b0c5867632b665a0ef4e24e8e2e8741248d1399b2954ac4b3a64736f6c63430008040033",
  "linkReferences": {},
  "deployedLinkReferences": {}
}